{
	"task2/BeggingContract.sol": {
		"BeggingContract": {
			"abi": [
				{
					"inputs": [],
					"stateMutability": "nonpayable",
					"type": "constructor"
				},
				{
					"anonymous": false,
					"inputs": [
						{
							"indexed": false,
							"internalType": "address",
							"name": "addr",
							"type": "address"
						},
						{
							"indexed": false,
							"internalType": "uint256",
							"name": "amount",
							"type": "uint256"
						}
					],
					"name": "Donate",
					"type": "event"
				},
				{
					"inputs": [],
					"name": "donate",
					"outputs": [],
					"stateMutability": "payable",
					"type": "function"
				},
				{
					"inputs": [
						{
							"internalType": "address",
							"name": "addr",
							"type": "address"
						}
					],
					"name": "getDonation",
					"outputs": [
						{
							"internalType": "uint256",
							"name": "",
							"type": "uint256"
						}
					],
					"stateMutability": "view",
					"type": "function"
				},
				{
					"inputs": [],
					"name": "getTop3",
					"outputs": [
						{
							"internalType": "uint256",
							"name": "top1",
							"type": "uint256"
						},
						{
							"internalType": "uint256",
							"name": "top2",
							"type": "uint256"
						},
						{
							"internalType": "uint256",
							"name": "top3",
							"type": "uint256"
						}
					],
					"stateMutability": "view",
					"type": "function"
				},
				{
					"inputs": [],
					"name": "withdraw",
					"outputs": [],
					"stateMutability": "nonpayable",
					"type": "function"
				}
			],
			"devdoc": {
				"kind": "dev",
				"methods": {},
				"version": 1
			},
			"evm": {
				"assembly": "    /* \"task2/BeggingContract.sol\":55:1212  contract BeggingContract {... */\n  mstore(0x40, 0x80)\n    /* \"task2/BeggingContract.sol\":235:284  constructor() {... */\n  callvalue\n  dup1\n  iszero\n  tag_1\n  jumpi\n  revert(0x00, 0x00)\ntag_1:\n  pop\n    /* \"task2/BeggingContract.sol\":267:277  msg.sender */\n  caller\n    /* \"task2/BeggingContract.sol\":259:264  owner */\n  0x02\n  0x00\n    /* \"task2/BeggingContract.sol\":259:277  owner = msg.sender */\n  0x0100\n  exp\n  dup2\n  sload\n  dup2\n  0xffffffffffffffffffffffffffffffffffffffff\n  mul\n  not\n  and\n  swap1\n  dup4\n  0xffffffffffffffffffffffffffffffffffffffff\n  and\n  mul\n  or\n  swap1\n  sstore\n  pop\n    /* \"task2/BeggingContract.sol\":55:1212  contract BeggingContract {... */\n  dataSize(sub_0)\n  dup1\n  dataOffset(sub_0)\n  0x00\n  codecopy\n  0x00\n  return\nstop\n\nsub_0: assembly {\n        /* \"task2/BeggingContract.sol\":55:1212  contract BeggingContract {... */\n      mstore(0x40, 0x80)\n      jumpi(tag_1, lt(calldatasize, 0x04))\n      shr(0xe0, calldataload(0x00))\n      dup1\n      0x3ccfd60b\n      eq\n      tag_2\n      jumpi\n      dup1\n      0x4061a5bf\n      eq\n      tag_3\n      jumpi\n      dup1\n      0x410a1d32\n      eq\n      tag_4\n      jumpi\n      dup1\n      0xed88c68e\n      eq\n      tag_5\n      jumpi\n    tag_1:\n      revert(0x00, 0x00)\n        /* \"task2/BeggingContract.sol\":498:671  function withdraw() external onlyOwner {... */\n    tag_2:\n      callvalue\n      dup1\n      iszero\n      tag_6\n      jumpi\n      revert(0x00, 0x00)\n    tag_6:\n      pop\n      tag_7\n      tag_8\n      jump\t// in\n    tag_7:\n      stop\n        /* \"task2/BeggingContract.sol\":816:1210  function getTop3() external view returns(uint top1, uint top2, uint top3) {... */\n    tag_3:\n      callvalue\n      dup1\n      iszero\n      tag_9\n      jumpi\n      revert(0x00, 0x00)\n    tag_9:\n      pop\n      tag_10\n      tag_11\n      jump\t// in\n    tag_10:\n      mload(0x40)\n      tag_12\n      swap4\n      swap3\n      swap2\n      swap1\n      tag_13\n      jump\t// in\n    tag_12:\n      mload(0x40)\n      dup1\n      swap2\n      sub\n      swap1\n      return\n        /* \"task2/BeggingContract.sol\":291:396  function getDonation(address addr) external view returns(uint) {... */\n    tag_4:\n      callvalue\n      dup1\n      iszero\n      tag_14\n      jumpi\n      revert(0x00, 0x00)\n    tag_14:\n      pop\n      tag_15\n      0x04\n      dup1\n      calldatasize\n      sub\n      dup2\n      add\n      swap1\n      tag_16\n      swap2\n      swap1\n      tag_17\n      jump\t// in\n    tag_16:\n      tag_18\n      jump\t// in\n    tag_15:\n      mload(0x40)\n      tag_19\n      swap2\n      swap1\n      tag_20\n      jump\t// in\n    tag_19:\n      mload(0x40)\n      dup1\n      swap2\n      sub\n      swap1\n      return\n        /* \"task2/BeggingContract.sol\":677:810  function donate() external payable {... */\n    tag_5:\n      tag_21\n      tag_22\n      jump\t// in\n    tag_21:\n      stop\n        /* \"task2/BeggingContract.sol\":498:671  function withdraw() external onlyOwner {... */\n    tag_8:\n        /* \"task2/BeggingContract.sol\":455:460  owner */\n      0x02\n      0x00\n      swap1\n      sload\n      swap1\n      0x0100\n      exp\n      swap1\n      div\n      0xffffffffffffffffffffffffffffffffffffffff\n      and\n        /* \"task2/BeggingContract.sol\":441:460  msg.sender == owner */\n      0xffffffffffffffffffffffffffffffffffffffff\n      and\n        /* \"task2/BeggingContract.sol\":441:451  msg.sender */\n      caller\n        /* \"task2/BeggingContract.sol\":441:460  msg.sender == owner */\n      0xffffffffffffffffffffffffffffffffffffffff\n      and\n      eq\n        /* \"task2/BeggingContract.sol\":433:474  require(msg.sender == owner, \"Not owner\") */\n      tag_24\n      jumpi\n      mload(0x40)\n      0x08c379a000000000000000000000000000000000000000000000000000000000\n      dup2\n      mstore\n      0x04\n      add\n      tag_25\n      swap1\n      tag_26\n      jump\t// in\n    tag_25:\n      mload(0x40)\n      dup1\n      swap2\n      sub\n      swap1\n      revert\n    tag_24:\n        /* \"task2/BeggingContract.sol\":548:560  bool success */\n      0x00\n        /* \"task2/BeggingContract.sol\":574:579  owner */\n      0x02\n      0x00\n      swap1\n      sload\n      swap1\n      0x0100\n      exp\n      swap1\n      div\n      0xffffffffffffffffffffffffffffffffffffffff\n      and\n        /* \"task2/BeggingContract.sol\":566:585  payable(owner).call */\n      0xffffffffffffffffffffffffffffffffffffffff\n      and\n        /* \"task2/BeggingContract.sol\":593:614  address(this).balance */\n      selfbalance\n        /* \"task2/BeggingContract.sol\":566:619  payable(owner).call{value: address(this).balance}(\"\") */\n      mload(0x40)\n      tag_28\n      swap1\n      tag_29\n      jump\t// in\n    tag_28:\n      0x00\n      mload(0x40)\n      dup1\n      dup4\n      sub\n      dup2\n      dup6\n      dup8\n      gas\n      call\n      swap3\n      pop\n      pop\n      pop\n      returndatasize\n      dup1\n      0x00\n      dup2\n      eq\n      tag_32\n      jumpi\n      mload(0x40)\n      swap2\n      pop\n      and(add(returndatasize, 0x3f), not(0x1f))\n      dup3\n      add\n      0x40\n      mstore\n      returndatasize\n      dup3\n      mstore\n      returndatasize\n      0x00\n      0x20\n      dup5\n      add\n      returndatacopy\n      jump(tag_31)\n    tag_32:\n      0x60\n      swap2\n      pop\n    tag_31:\n      pop\n        /* \"task2/BeggingContract.sol\":547:619  (bool success, ) = payable(owner).call{value: address(this).balance}(\"\") */\n      pop\n      swap1\n      pop\n        /* \"task2/BeggingContract.sol\":637:644  success */\n      dup1\n        /* \"task2/BeggingContract.sol\":629:664  require(success, \"Withdraw failed\") */\n      tag_33\n      jumpi\n      mload(0x40)\n      0x08c379a000000000000000000000000000000000000000000000000000000000\n      dup2\n      mstore\n      0x04\n      add\n      tag_34\n      swap1\n      tag_35\n      jump\t// in\n    tag_34:\n      mload(0x40)\n      dup1\n      swap2\n      sub\n      swap1\n      revert\n    tag_33:\n        /* \"task2/BeggingContract.sol\":537:671  {... */\n      pop\n        /* \"task2/BeggingContract.sol\":498:671  function withdraw() external onlyOwner {... */\n      jump\t// out\n        /* \"task2/BeggingContract.sol\":816:1210  function getTop3() external view returns(uint top1, uint top2, uint top3) {... */\n    tag_11:\n        /* \"task2/BeggingContract.sol\":857:866  uint top1 */\n      0x00\n        /* \"task2/BeggingContract.sol\":868:877  uint top2 */\n      0x00\n        /* \"task2/BeggingContract.sol\":879:888  uint top3 */\n      0x00\n        /* \"task2/BeggingContract.sol\":900:919  uint[3] memory temp */\n      tag_37\n      tag_38\n      jump\t// in\n    tag_37:\n        /* \"task2/BeggingContract.sol\":934:941  uint8 i */\n      0x00\n        /* \"task2/BeggingContract.sol\":944:945  0 */\n      0x00\n        /* \"task2/BeggingContract.sol\":934:945  uint8 i = 0 */\n      swap1\n      pop\n        /* \"task2/BeggingContract.sol\":929:1160  for (uint8 i = 0; i < 3; ++i) {... */\n    tag_39:\n        /* \"task2/BeggingContract.sol\":951:952  3 */\n      0x03\n        /* \"task2/BeggingContract.sol\":947:948  i */\n      dup2\n        /* \"task2/BeggingContract.sol\":947:952  i < 3 */\n      0xff\n      and\n      lt\n        /* \"task2/BeggingContract.sol\":929:1160  for (uint8 i = 0; i < 3; ++i) {... */\n      iszero\n      tag_40\n      jumpi\n        /* \"task2/BeggingContract.sol\":973:981  uint max */\n      0x00\n        /* \"task2/BeggingContract.sol\":989:990  0 */\n      0x00\n        /* \"task2/BeggingContract.sol\":984:985  i */\n      dup3\n        /* \"task2/BeggingContract.sol\":984:990  i == 0 */\n      0xff\n      and\n      eq\n        /* \"task2/BeggingContract.sol\":984:1011  i == 0 ? 2**256-1 : temp[i] */\n      tag_42\n      jumpi\n        /* \"task2/BeggingContract.sol\":1004:1008  temp */\n      dup3\n        /* \"task2/BeggingContract.sol\":1009:1010  i */\n      dup3\n        /* \"task2/BeggingContract.sol\":1004:1011  temp[i] */\n      0xff\n      and\n      0x03\n      dup2\n      lt\n      tag_43\n      jumpi\n      tag_44\n      tag_45\n      jump\t// in\n    tag_44:\n    tag_43:\n      0x20\n      mul\n      add\n      mload\n        /* \"task2/BeggingContract.sol\":984:1011  i == 0 ? 2**256-1 : temp[i] */\n      jump(tag_46)\n    tag_42:\n        /* \"task2/BeggingContract.sol\":993:1001  2**256-1 */\n      0xffffffffffffffffffffffffffffffffffffffffffffffffffffffffffffffff\n        /* \"task2/BeggingContract.sol\":984:1011  i == 0 ? 2**256-1 : temp[i] */\n    tag_46:\n        /* \"task2/BeggingContract.sol\":973:1011  uint max = i == 0 ? 2**256-1 : temp[i] */\n      swap1\n      pop\n        /* \"task2/BeggingContract.sol\":1044:1056  donateRecord */\n      0x00\n        /* \"task2/BeggingContract.sol\":1044:1069  donateRecord[donaters[i]] */\n      0x00\n        /* \"task2/BeggingContract.sol\":1057:1065  donaters */\n      0x01\n        /* \"task2/BeggingContract.sol\":1066:1067  i */\n      dup5\n        /* \"task2/BeggingContract.sol\":1057:1068  donaters[i] */\n      0xff\n      and\n      dup2\n      sload\n      dup2\n      lt\n      tag_47\n      jumpi\n      tag_48\n      tag_45\n      jump\t// in\n    tag_48:\n    tag_47:\n      swap1\n      0x00\n      mstore\n      keccak256(0x00, 0x20)\n      add\n      0x00\n      swap1\n      sload\n      swap1\n      0x0100\n      exp\n      swap1\n      div\n      0xffffffffffffffffffffffffffffffffffffffff\n      and\n        /* \"task2/BeggingContract.sol\":1044:1069  donateRecord[donaters[i]] */\n      0xffffffffffffffffffffffffffffffffffffffff\n      and\n      0xffffffffffffffffffffffffffffffffffffffff\n      and\n      dup2\n      mstore\n      0x20\n      add\n      swap1\n      dup2\n      mstore\n      0x20\n      add\n      0x00\n      keccak256\n      sload\n        /* \"task2/BeggingContract.sol\":1037:1040  max */\n      dup2\n        /* \"task2/BeggingContract.sol\":1037:1069  max >= donateRecord[donaters[i]] */\n      lt\n      iszero\n        /* \"task2/BeggingContract.sol\":1037:1109  max >= donateRecord[donaters[i]] && donateRecord[donaters[i]] >= temp[i] */\n      dup1\n      iszero\n      tag_50\n      jumpi\n      pop\n        /* \"task2/BeggingContract.sol\":1102:1106  temp */\n      dup3\n        /* \"task2/BeggingContract.sol\":1107:1108  i */\n      dup3\n        /* \"task2/BeggingContract.sol\":1102:1109  temp[i] */\n      0xff\n      and\n      0x03\n      dup2\n      lt\n      tag_51\n      jumpi\n      tag_52\n      tag_45\n      jump\t// in\n    tag_52:\n    tag_51:\n      0x20\n      mul\n      add\n      mload\n        /* \"task2/BeggingContract.sol\":1073:1085  donateRecord */\n      0x00\n        /* \"task2/BeggingContract.sol\":1073:1098  donateRecord[donaters[i]] */\n      0x00\n        /* \"task2/BeggingContract.sol\":1086:1094  donaters */\n      0x01\n        /* \"task2/BeggingContract.sol\":1095:1096  i */\n      dup6\n        /* \"task2/BeggingContract.sol\":1086:1097  donaters[i] */\n      0xff\n      and\n      dup2\n      sload\n      dup2\n      lt\n      tag_53\n      jumpi\n      tag_54\n      tag_45\n      jump\t// in\n    tag_54:\n    tag_53:\n      swap1\n      0x00\n      mstore\n      keccak256(0x00, 0x20)\n      add\n      0x00\n      swap1\n      sload\n      swap1\n      0x0100\n      exp\n      swap1\n      div\n      0xffffffffffffffffffffffffffffffffffffffff\n      and\n        /* \"task2/BeggingContract.sol\":1073:1098  donateRecord[donaters[i]] */\n      0xffffffffffffffffffffffffffffffffffffffff\n      and\n      0xffffffffffffffffffffffffffffffffffffffff\n      and\n      dup2\n      mstore\n      0x20\n      add\n      swap1\n      dup2\n      mstore\n      0x20\n      add\n      0x00\n      keccak256\n      sload\n        /* \"task2/BeggingContract.sol\":1073:1109  donateRecord[donaters[i]] >= temp[i] */\n      lt\n      iszero\n        /* \"task2/BeggingContract.sol\":1037:1109  max >= donateRecord[donaters[i]] && donateRecord[donaters[i]] >= temp[i] */\n    tag_50:\n        /* \"task2/BeggingContract.sol\":1036:1148  (max >= donateRecord[donaters[i]] && donateRecord[donaters[i]] >= temp[i]) ? donateRecord[donaters[i]] : temp[i] */\n      tag_56\n      jumpi\n        /* \"task2/BeggingContract.sol\":1141:1145  temp */\n      dup3\n        /* \"task2/BeggingContract.sol\":1146:1147  i */\n      dup3\n        /* \"task2/BeggingContract.sol\":1141:1148  temp[i] */\n      0xff\n      and\n      0x03\n      dup2\n      lt\n      tag_57\n      jumpi\n      tag_58\n      tag_45\n      jump\t// in\n    tag_58:\n    tag_57:\n      0x20\n      mul\n      add\n      mload\n        /* \"task2/BeggingContract.sol\":1036:1148  (max >= donateRecord[donaters[i]] && donateRecord[donaters[i]] >= temp[i]) ? donateRecord[donaters[i]] : temp[i] */\n      jump(tag_59)\n    tag_56:\n        /* \"task2/BeggingContract.sol\":1113:1125  donateRecord */\n      0x00\n        /* \"task2/BeggingContract.sol\":1113:1138  donateRecord[donaters[i]] */\n      0x00\n        /* \"task2/BeggingContract.sol\":1126:1134  donaters */\n      0x01\n        /* \"task2/BeggingContract.sol\":1135:1136  i */\n      dup5\n        /* \"task2/BeggingContract.sol\":1126:1137  donaters[i] */\n      0xff\n      and\n      dup2\n      sload\n      dup2\n      lt\n      tag_60\n      jumpi\n      tag_61\n      tag_45\n      jump\t// in\n    tag_61:\n    tag_60:\n      swap1\n      0x00\n      mstore\n      keccak256(0x00, 0x20)\n      add\n      0x00\n      swap1\n      sload\n      swap1\n      0x0100\n      exp\n      swap1\n      div\n      0xffffffffffffffffffffffffffffffffffffffff\n      and\n        /* \"task2/BeggingContract.sol\":1113:1138  donateRecord[donaters[i]] */\n      0xffffffffffffffffffffffffffffffffffffffff\n      and\n      0xffffffffffffffffffffffffffffffffffffffff\n      and\n      dup2\n      mstore\n      0x20\n      add\n      swap1\n      dup2\n      mstore\n      0x20\n      add\n      0x00\n      keccak256\n      sload\n        /* \"task2/BeggingContract.sol\":1036:1148  (max >= donateRecord[donaters[i]] && donateRecord[donaters[i]] >= temp[i]) ? donateRecord[donaters[i]] : temp[i] */\n    tag_59:\n        /* \"task2/BeggingContract.sol\":1025:1029  temp */\n      dup4\n        /* \"task2/BeggingContract.sol\":1030:1031  i */\n      dup4\n        /* \"task2/BeggingContract.sol\":1025:1032  temp[i] */\n      0xff\n      and\n      0x03\n      dup2\n      lt\n      tag_63\n      jumpi\n      tag_64\n      tag_45\n      jump\t// in\n    tag_64:\n    tag_63:\n      0x20\n      mul\n      add\n        /* \"task2/BeggingContract.sol\":1025:1149  temp[i] = ((max >= donateRecord[donaters[i]] && donateRecord[donaters[i]] >= temp[i]) ? donateRecord[donaters[i]] : temp[i]) */\n      dup2\n      dup2\n      mstore\n      pop\n      pop\n        /* \"task2/BeggingContract.sol\":959:1160  {... */\n      pop\n        /* \"task2/BeggingContract.sol\":954:957  ++i */\n      dup1\n      0x01\n      add\n      swap1\n      pop\n        /* \"task2/BeggingContract.sol\":929:1160  for (uint8 i = 0; i < 3; ++i) {... */\n      jump(tag_39)\n    tag_40:\n      pop\n        /* \"task2/BeggingContract.sol\":1177:1181  temp */\n      dup1\n        /* \"task2/BeggingContract.sol\":1182:1183  0 */\n      0x00\n        /* \"task2/BeggingContract.sol\":1177:1184  temp[0] */\n      0x03\n      dup2\n      lt\n      tag_65\n      jumpi\n      tag_66\n      tag_45\n      jump\t// in\n    tag_66:\n    tag_65:\n      0x20\n      mul\n      add\n      mload\n        /* \"task2/BeggingContract.sol\":1186:1190  temp */\n      dup2\n        /* \"task2/BeggingContract.sol\":1191:1192  1 */\n      0x01\n        /* \"task2/BeggingContract.sol\":1186:1193  temp[1] */\n      0x03\n      dup2\n      lt\n      tag_67\n      jumpi\n      tag_68\n      tag_45\n      jump\t// in\n    tag_68:\n    tag_67:\n      0x20\n      mul\n      add\n      mload\n        /* \"task2/BeggingContract.sol\":1195:1199  temp */\n      dup3\n        /* \"task2/BeggingContract.sol\":1200:1201  2 */\n      0x02\n        /* \"task2/BeggingContract.sol\":1195:1202  temp[2] */\n      0x03\n      dup2\n      lt\n      tag_69\n      jumpi\n      tag_70\n      tag_45\n      jump\t// in\n    tag_70:\n    tag_69:\n      0x20\n      mul\n      add\n      mload\n        /* \"task2/BeggingContract.sol\":1169:1203  return (temp[0], temp[1], temp[2]) */\n      swap4\n      pop\n      swap4\n      pop\n      swap4\n      pop\n      pop\n        /* \"task2/BeggingContract.sol\":816:1210  function getTop3() external view returns(uint top1, uint top2, uint top3) {... */\n      swap1\n      swap2\n      swap3\n      jump\t// out\n        /* \"task2/BeggingContract.sol\":291:396  function getDonation(address addr) external view returns(uint) {... */\n    tag_18:\n        /* \"task2/BeggingContract.sol\":348:352  uint */\n      0x00\n        /* \"task2/BeggingContract.sol\":371:383  donateRecord */\n      0x00\n        /* \"task2/BeggingContract.sol\":371:389  donateRecord[addr] */\n      0x00\n        /* \"task2/BeggingContract.sol\":384:388  addr */\n      dup4\n        /* \"task2/BeggingContract.sol\":371:389  donateRecord[addr] */\n      0xffffffffffffffffffffffffffffffffffffffff\n      and\n      0xffffffffffffffffffffffffffffffffffffffff\n      and\n      dup2\n      mstore\n      0x20\n      add\n      swap1\n      dup2\n      mstore\n      0x20\n      add\n      0x00\n      keccak256\n      sload\n        /* \"task2/BeggingContract.sol\":364:389  return donateRecord[addr] */\n      swap1\n      pop\n        /* \"task2/BeggingContract.sol\":291:396  function getDonation(address addr) external view returns(uint) {... */\n      swap2\n      swap1\n      pop\n      jump\t// out\n        /* \"task2/BeggingContract.sol\":677:810  function donate() external payable {... */\n    tag_22:\n        /* \"task2/BeggingContract.sol\":750:759  msg.value */\n      callvalue\n        /* \"task2/BeggingContract.sol\":722:734  donateRecord */\n      0x00\n        /* \"task2/BeggingContract.sol\":722:746  donateRecord[msg.sender] */\n      0x00\n        /* \"task2/BeggingContract.sol\":735:745  msg.sender */\n      caller\n        /* \"task2/BeggingContract.sol\":722:746  donateRecord[msg.sender] */\n      0xffffffffffffffffffffffffffffffffffffffff\n      and\n      0xffffffffffffffffffffffffffffffffffffffff\n      and\n      dup2\n      mstore\n      0x20\n      add\n      swap1\n      dup2\n      mstore\n      0x20\n      add\n      0x00\n      keccak256\n      0x00\n        /* \"task2/BeggingContract.sol\":722:759  donateRecord[msg.sender] += msg.value */\n      dup3\n      dup3\n      sload\n      tag_73\n      swap2\n      swap1\n      tag_74\n      jump\t// in\n    tag_73:\n      swap3\n      pop\n      pop\n      dup2\n      swap1\n      sstore\n      pop\n        /* \"task2/BeggingContract.sol\":774:803  Donate(msg.sender, msg.value) */\n      0x0553260a2e46b0577270d8992db02d30856ca880144c72d6e9503760946aef13\n        /* \"task2/BeggingContract.sol\":781:791  msg.sender */\n      caller\n        /* \"task2/BeggingContract.sol\":793:802  msg.value */\n      callvalue\n        /* \"task2/BeggingContract.sol\":774:803  Donate(msg.sender, msg.value) */\n      mload(0x40)\n      tag_75\n      swap3\n      swap2\n      swap1\n      tag_76\n      jump\t// in\n    tag_75:\n      mload(0x40)\n      dup1\n      swap2\n      sub\n      swap1\n      log1\n        /* \"task2/BeggingContract.sol\":677:810  function donate() external payable {... */\n      jump\t// out\n    tag_38:\n      mload(0x40)\n      dup1\n      0x60\n      add\n      0x40\n      mstore\n      dup1\n      0x03\n      swap1\n      0x20\n      dup3\n      mul\n      dup1\n      calldatasize\n      dup4\n      calldatacopy\n      dup1\n      dup3\n      add\n      swap2\n      pop\n      pop\n      swap1\n      pop\n      pop\n      swap1\n      jump\t// out\n        /* \"#utility.yul\":7:84   */\n    tag_77:\n        /* \"#utility.yul\":44:51   */\n      0x00\n        /* \"#utility.yul\":73:78   */\n      dup2\n        /* \"#utility.yul\":62:78   */\n      swap1\n      pop\n        /* \"#utility.yul\":7:84   */\n      swap2\n      swap1\n      pop\n      jump\t// out\n        /* \"#utility.yul\":90:208   */\n    tag_78:\n        /* \"#utility.yul\":177:201   */\n      tag_99\n        /* \"#utility.yul\":195:200   */\n      dup2\n        /* \"#utility.yul\":177:201   */\n      tag_77\n      jump\t// in\n    tag_99:\n        /* \"#utility.yul\":172:175   */\n      dup3\n        /* \"#utility.yul\":165:202   */\n      mstore\n        /* \"#utility.yul\":90:208   */\n      pop\n      pop\n      jump\t// out\n        /* \"#utility.yul\":214:656   */\n    tag_13:\n        /* \"#utility.yul\":363:367   */\n      0x00\n        /* \"#utility.yul\":401:403   */\n      0x60\n        /* \"#utility.yul\":390:399   */\n      dup3\n        /* \"#utility.yul\":386:404   */\n      add\n        /* \"#utility.yul\":378:404   */\n      swap1\n      pop\n        /* \"#utility.yul\":414:485   */\n      tag_101\n        /* \"#utility.yul\":482:483   */\n      0x00\n        /* \"#utility.yul\":471:480   */\n      dup4\n        /* \"#utility.yul\":467:484   */\n      add\n        /* \"#utility.yul\":458:464   */\n      dup7\n        /* \"#utility.yul\":414:485   */\n      tag_78\n      jump\t// in\n    tag_101:\n        /* \"#utility.yul\":495:567   */\n      tag_102\n        /* \"#utility.yul\":563:565   */\n      0x20\n        /* \"#utility.yul\":552:561   */\n      dup4\n        /* \"#utility.yul\":548:566   */\n      add\n        /* \"#utility.yul\":539:545   */\n      dup6\n        /* \"#utility.yul\":495:567   */\n      tag_78\n      jump\t// in\n    tag_102:\n        /* \"#utility.yul\":577:649   */\n      tag_103\n        /* \"#utility.yul\":645:647   */\n      0x40\n        /* \"#utility.yul\":634:643   */\n      dup4\n        /* \"#utility.yul\":630:648   */\n      add\n        /* \"#utility.yul\":621:627   */\n      dup5\n        /* \"#utility.yul\":577:649   */\n      tag_78\n      jump\t// in\n    tag_103:\n        /* \"#utility.yul\":214:656   */\n      swap5\n      swap4\n      pop\n      pop\n      pop\n      pop\n      jump\t// out\n        /* \"#utility.yul\":743:860   */\n    tag_80:\n        /* \"#utility.yul\":852:853   */\n      0x00\n        /* \"#utility.yul\":849:850   */\n      0x00\n        /* \"#utility.yul\":842:854   */\n      revert\n        /* \"#utility.yul\":989:1115   */\n    tag_82:\n        /* \"#utility.yul\":1026:1033   */\n      0x00\n        /* \"#utility.yul\":1066:1108   */\n      0xffffffffffffffffffffffffffffffffffffffff\n        /* \"#utility.yul\":1059:1064   */\n      dup3\n        /* \"#utility.yul\":1055:1109   */\n      and\n        /* \"#utility.yul\":1044:1109   */\n      swap1\n      pop\n        /* \"#utility.yul\":989:1115   */\n      swap2\n      swap1\n      pop\n      jump\t// out\n        /* \"#utility.yul\":1121:1217   */\n    tag_83:\n        /* \"#utility.yul\":1158:1165   */\n      0x00\n        /* \"#utility.yul\":1187:1211   */\n      tag_109\n        /* \"#utility.yul\":1205:1210   */\n      dup3\n        /* \"#utility.yul\":1187:1211   */\n      tag_82\n      jump\t// in\n    tag_109:\n        /* \"#utility.yul\":1176:1211   */\n      swap1\n      pop\n        /* \"#utility.yul\":1121:1217   */\n      swap2\n      swap1\n      pop\n      jump\t// out\n        /* \"#utility.yul\":1223:1345   */\n    tag_84:\n        /* \"#utility.yul\":1296:1320   */\n      tag_111\n        /* \"#utility.yul\":1314:1319   */\n      dup2\n        /* \"#utility.yul\":1296:1320   */\n      tag_83\n      jump\t// in\n    tag_111:\n        /* \"#utility.yul\":1289:1294   */\n      dup2\n        /* \"#utility.yul\":1286:1321   */\n      eq\n        /* \"#utility.yul\":1276:1339   */\n      tag_112\n      jumpi\n        /* \"#utility.yul\":1335:1336   */\n      0x00\n        /* \"#utility.yul\":1332:1333   */\n      0x00\n        /* \"#utility.yul\":1325:1337   */\n      revert\n        /* \"#utility.yul\":1276:1339   */\n    tag_112:\n        /* \"#utility.yul\":1223:1345   */\n      pop\n      jump\t// out\n        /* \"#utility.yul\":1351:1490   */\n    tag_85:\n        /* \"#utility.yul\":1397:1402   */\n      0x00\n        /* \"#utility.yul\":1435:1441   */\n      dup2\n        /* \"#utility.yul\":1422:1442   */\n      calldataload\n        /* \"#utility.yul\":1413:1442   */\n      swap1\n      pop\n        /* \"#utility.yul\":1451:1484   */\n      tag_114\n        /* \"#utility.yul\":1478:1483   */\n      dup2\n        /* \"#utility.yul\":1451:1484   */\n      tag_84\n      jump\t// in\n    tag_114:\n        /* \"#utility.yul\":1351:1490   */\n      swap3\n      swap2\n      pop\n      pop\n      jump\t// out\n        /* \"#utility.yul\":1496:1825   */\n    tag_17:\n        /* \"#utility.yul\":1555:1561   */\n      0x00\n        /* \"#utility.yul\":1604:1606   */\n      0x20\n        /* \"#utility.yul\":1592:1601   */\n      dup3\n        /* \"#utility.yul\":1583:1590   */\n      dup5\n        /* \"#utility.yul\":1579:1602   */\n      sub\n        /* \"#utility.yul\":1575:1607   */\n      slt\n        /* \"#utility.yul\":1572:1691   */\n      iszero\n      tag_116\n      jumpi\n        /* \"#utility.yul\":1610:1689   */\n      tag_117\n      tag_80\n      jump\t// in\n    tag_117:\n        /* \"#utility.yul\":1572:1691   */\n    tag_116:\n        /* \"#utility.yul\":1730:1731   */\n      0x00\n        /* \"#utility.yul\":1755:1808   */\n      tag_118\n        /* \"#utility.yul\":1800:1807   */\n      dup5\n        /* \"#utility.yul\":1791:1797   */\n      dup3\n        /* \"#utility.yul\":1780:1789   */\n      dup6\n        /* \"#utility.yul\":1776:1798   */\n      add\n        /* \"#utility.yul\":1755:1808   */\n      tag_85\n      jump\t// in\n    tag_118:\n        /* \"#utility.yul\":1745:1808   */\n      swap2\n      pop\n        /* \"#utility.yul\":1701:1818   */\n      pop\n        /* \"#utility.yul\":1496:1825   */\n      swap3\n      swap2\n      pop\n      pop\n      jump\t// out\n        /* \"#utility.yul\":1831:2053   */\n    tag_20:\n        /* \"#utility.yul\":1924:1928   */\n      0x00\n        /* \"#utility.yul\":1962:1964   */\n      0x20\n        /* \"#utility.yul\":1951:1960   */\n      dup3\n        /* \"#utility.yul\":1947:1965   */\n      add\n        /* \"#utility.yul\":1939:1965   */\n      swap1\n      pop\n        /* \"#utility.yul\":1975:2046   */\n      tag_120\n        /* \"#utility.yul\":2043:2044   */\n      0x00\n        /* \"#utility.yul\":2032:2041   */\n      dup4\n        /* \"#utility.yul\":2028:2045   */\n      add\n        /* \"#utility.yul\":2019:2025   */\n      dup5\n        /* \"#utility.yul\":1975:2046   */\n      tag_78\n      jump\t// in\n    tag_120:\n        /* \"#utility.yul\":1831:2053   */\n      swap3\n      swap2\n      pop\n      pop\n      jump\t// out\n        /* \"#utility.yul\":2059:2228   */\n    tag_86:\n        /* \"#utility.yul\":2143:2154   */\n      0x00\n        /* \"#utility.yul\":2177:2183   */\n      dup3\n        /* \"#utility.yul\":2172:2175   */\n      dup3\n        /* \"#utility.yul\":2165:2184   */\n      mstore\n        /* \"#utility.yul\":2217:2221   */\n      0x20\n        /* \"#utility.yul\":2212:2215   */\n      dup3\n        /* \"#utility.yul\":2208:2222   */\n      add\n        /* \"#utility.yul\":2193:2222   */\n      swap1\n      pop\n        /* \"#utility.yul\":2059:2228   */\n      swap3\n      swap2\n      pop\n      pop\n      jump\t// out\n        /* \"#utility.yul\":2234:2393   */\n    tag_87:\n        /* \"#utility.yul\":2374:2385   */\n      0x4e6f74206f776e65720000000000000000000000000000000000000000000000\n        /* \"#utility.yul\":2370:2371   */\n      0x00\n        /* \"#utility.yul\":2362:2368   */\n      dup3\n        /* \"#utility.yul\":2358:2372   */\n      add\n        /* \"#utility.yul\":2351:2386   */\n      mstore\n        /* \"#utility.yul\":2234:2393   */\n      pop\n      jump\t// out\n        /* \"#utility.yul\":2399:2764   */\n    tag_88:\n        /* \"#utility.yul\":2541:2544   */\n      0x00\n        /* \"#utility.yul\":2562:2628   */\n      tag_124\n        /* \"#utility.yul\":2626:2627   */\n      0x09\n        /* \"#utility.yul\":2621:2624   */\n      dup4\n        /* \"#utility.yul\":2562:2628   */\n      tag_86\n      jump\t// in\n    tag_124:\n        /* \"#utility.yul\":2555:2628   */\n      swap2\n      pop\n        /* \"#utility.yul\":2637:2730   */\n      tag_125\n        /* \"#utility.yul\":2726:2729   */\n      dup3\n        /* \"#utility.yul\":2637:2730   */\n      tag_87\n      jump\t// in\n    tag_125:\n        /* \"#utility.yul\":2755:2757   */\n      0x20\n        /* \"#utility.yul\":2750:2753   */\n      dup3\n        /* \"#utility.yul\":2746:2758   */\n      add\n        /* \"#utility.yul\":2739:2758   */\n      swap1\n      pop\n        /* \"#utility.yul\":2399:2764   */\n      swap2\n      swap1\n      pop\n      jump\t// out\n        /* \"#utility.yul\":2770:3189   */\n    tag_26:\n        /* \"#utility.yul\":2936:2940   */\n      0x00\n        /* \"#utility.yul\":2974:2976   */\n      0x20\n        /* \"#utility.yul\":2963:2972   */\n      dup3\n        /* \"#utility.yul\":2959:2977   */\n      add\n        /* \"#utility.yul\":2951:2977   */\n      swap1\n      pop\n        /* \"#utility.yul\":3023:3032   */\n      dup2\n        /* \"#utility.yul\":3017:3021   */\n      dup2\n        /* \"#utility.yul\":3013:3033   */\n      sub\n        /* \"#utility.yul\":3009:3010   */\n      0x00\n        /* \"#utility.yul\":2998:3007   */\n      dup4\n        /* \"#utility.yul\":2994:3011   */\n      add\n        /* \"#utility.yul\":2987:3034   */\n      mstore\n        /* \"#utility.yul\":3051:3182   */\n      tag_127\n        /* \"#utility.yul\":3177:3181   */\n      dup2\n        /* \"#utility.yul\":3051:3182   */\n      tag_88\n      jump\t// in\n    tag_127:\n        /* \"#utility.yul\":3043:3182   */\n      swap1\n      pop\n        /* \"#utility.yul\":2770:3189   */\n      swap2\n      swap1\n      pop\n      jump\t// out\n        /* \"#utility.yul\":3195:3342   */\n    tag_89:\n        /* \"#utility.yul\":3296:3307   */\n      0x00\n        /* \"#utility.yul\":3333:3336   */\n      dup2\n        /* \"#utility.yul\":3318:3336   */\n      swap1\n      pop\n        /* \"#utility.yul\":3195:3342   */\n      swap3\n      swap2\n      pop\n      pop\n      jump\t// out\n        /* \"#utility.yul\":3348:3462   */\n    tag_90:\n      pop\n      jump\t// out\n        /* \"#utility.yul\":3468:3866   */\n    tag_91:\n        /* \"#utility.yul\":3627:3630   */\n      0x00\n        /* \"#utility.yul\":3648:3731   */\n      tag_131\n        /* \"#utility.yul\":3729:3730   */\n      0x00\n        /* \"#utility.yul\":3724:3727   */\n      dup4\n        /* \"#utility.yul\":3648:3731   */\n      tag_89\n      jump\t// in\n    tag_131:\n        /* \"#utility.yul\":3641:3731   */\n      swap2\n      pop\n        /* \"#utility.yul\":3740:3833   */\n      tag_132\n        /* \"#utility.yul\":3829:3832   */\n      dup3\n        /* \"#utility.yul\":3740:3833   */\n      tag_90\n      jump\t// in\n    tag_132:\n        /* \"#utility.yul\":3858:3859   */\n      0x00\n        /* \"#utility.yul\":3853:3856   */\n      dup3\n        /* \"#utility.yul\":3849:3860   */\n      add\n        /* \"#utility.yul\":3842:3860   */\n      swap1\n      pop\n        /* \"#utility.yul\":3468:3866   */\n      swap2\n      swap1\n      pop\n      jump\t// out\n        /* \"#utility.yul\":3872:4251   */\n    tag_29:\n        /* \"#utility.yul\":4056:4059   */\n      0x00\n        /* \"#utility.yul\":4078:4225   */\n      tag_134\n        /* \"#utility.yul\":4221:4224   */\n      dup3\n        /* \"#utility.yul\":4078:4225   */\n      tag_91\n      jump\t// in\n    tag_134:\n        /* \"#utility.yul\":4071:4225   */\n      swap2\n      pop\n        /* \"#utility.yul\":4242:4245   */\n      dup2\n        /* \"#utility.yul\":4235:4245   */\n      swap1\n      pop\n        /* \"#utility.yul\":3872:4251   */\n      swap2\n      swap1\n      pop\n      jump\t// out\n        /* \"#utility.yul\":4257:4422   */\n    tag_92:\n        /* \"#utility.yul\":4397:4414   */\n      0x5769746864726177206661696c65640000000000000000000000000000000000\n        /* \"#utility.yul\":4393:4394   */\n      0x00\n        /* \"#utility.yul\":4385:4391   */\n      dup3\n        /* \"#utility.yul\":4381:4395   */\n      add\n        /* \"#utility.yul\":4374:4415   */\n      mstore\n        /* \"#utility.yul\":4257:4422   */\n      pop\n      jump\t// out\n        /* \"#utility.yul\":4428:4794   */\n    tag_93:\n        /* \"#utility.yul\":4570:4573   */\n      0x00\n        /* \"#utility.yul\":4591:4658   */\n      tag_137\n        /* \"#utility.yul\":4655:4657   */\n      0x0f\n        /* \"#utility.yul\":4650:4653   */\n      dup4\n        /* \"#utility.yul\":4591:4658   */\n      tag_86\n      jump\t// in\n    tag_137:\n        /* \"#utility.yul\":4584:4658   */\n      swap2\n      pop\n        /* \"#utility.yul\":4667:4760   */\n      tag_138\n        /* \"#utility.yul\":4756:4759   */\n      dup3\n        /* \"#utility.yul\":4667:4760   */\n      tag_92\n      jump\t// in\n    tag_138:\n        /* \"#utility.yul\":4785:4787   */\n      0x20\n        /* \"#utility.yul\":4780:4783   */\n      dup3\n        /* \"#utility.yul\":4776:4788   */\n      add\n        /* \"#utility.yul\":4769:4788   */\n      swap1\n      pop\n        /* \"#utility.yul\":4428:4794   */\n      swap2\n      swap1\n      pop\n      jump\t// out\n        /* \"#utility.yul\":4800:5219   */\n    tag_35:\n        /* \"#utility.yul\":4966:4970   */\n      0x00\n        /* \"#utility.yul\":5004:5006   */\n      0x20\n        /* \"#utility.yul\":4993:5002   */\n      dup3\n        /* \"#utility.yul\":4989:5007   */\n      add\n        /* \"#utility.yul\":4981:5007   */\n      swap1\n      pop\n        /* \"#utility.yul\":5053:5062   */\n      dup2\n        /* \"#utility.yul\":5047:5051   */\n      dup2\n        /* \"#utility.yul\":5043:5063   */\n      sub\n        /* \"#utility.yul\":5039:5040   */\n      0x00\n        /* \"#utility.yul\":5028:5037   */\n      dup4\n        /* \"#utility.yul\":5024:5041   */\n      add\n        /* \"#utility.yul\":5017:5064   */\n      mstore\n        /* \"#utility.yul\":5081:5212   */\n      tag_140\n        /* \"#utility.yul\":5207:5211   */\n      dup2\n        /* \"#utility.yul\":5081:5212   */\n      tag_93\n      jump\t// in\n    tag_140:\n        /* \"#utility.yul\":5073:5212   */\n      swap1\n      pop\n        /* \"#utility.yul\":4800:5219   */\n      swap2\n      swap1\n      pop\n      jump\t// out\n        /* \"#utility.yul\":5225:5405   */\n    tag_45:\n        /* \"#utility.yul\":5273:5350   */\n      0x4e487b7100000000000000000000000000000000000000000000000000000000\n        /* \"#utility.yul\":5270:5271   */\n      0x00\n        /* \"#utility.yul\":5263:5351   */\n      mstore\n        /* \"#utility.yul\":5370:5374   */\n      0x32\n        /* \"#utility.yul\":5367:5368   */\n      0x04\n        /* \"#utility.yul\":5360:5375   */\n      mstore\n        /* \"#utility.yul\":5394:5398   */\n      0x24\n        /* \"#utility.yul\":5391:5392   */\n      0x00\n        /* \"#utility.yul\":5384:5399   */\n      revert\n        /* \"#utility.yul\":5411:5591   */\n    tag_94:\n        /* \"#utility.yul\":5459:5536   */\n      0x4e487b7100000000000000000000000000000000000000000000000000000000\n        /* \"#utility.yul\":5456:5457   */\n      0x00\n        /* \"#utility.yul\":5449:5537   */\n      mstore\n        /* \"#utility.yul\":5556:5560   */\n      0x11\n        /* \"#utility.yul\":5553:5554   */\n      0x04\n        /* \"#utility.yul\":5546:5561   */\n      mstore\n        /* \"#utility.yul\":5580:5584   */\n      0x24\n        /* \"#utility.yul\":5577:5578   */\n      0x00\n        /* \"#utility.yul\":5570:5585   */\n      revert\n        /* \"#utility.yul\":5597:5788   */\n    tag_74:\n        /* \"#utility.yul\":5637:5640   */\n      0x00\n        /* \"#utility.yul\":5656:5676   */\n      tag_144\n        /* \"#utility.yul\":5674:5675   */\n      dup3\n        /* \"#utility.yul\":5656:5676   */\n      tag_77\n      jump\t// in\n    tag_144:\n        /* \"#utility.yul\":5651:5676   */\n      swap2\n      pop\n        /* \"#utility.yul\":5690:5710   */\n      tag_145\n        /* \"#utility.yul\":5708:5709   */\n      dup4\n        /* \"#utility.yul\":5690:5710   */\n      tag_77\n      jump\t// in\n    tag_145:\n        /* \"#utility.yul\":5685:5710   */\n      swap3\n      pop\n        /* \"#utility.yul\":5733:5734   */\n      dup3\n        /* \"#utility.yul\":5730:5731   */\n      dup3\n        /* \"#utility.yul\":5726:5735   */\n      add\n        /* \"#utility.yul\":5719:5735   */\n      swap1\n      pop\n        /* \"#utility.yul\":5754:5757   */\n      dup1\n        /* \"#utility.yul\":5751:5752   */\n      dup3\n        /* \"#utility.yul\":5748:5758   */\n      gt\n        /* \"#utility.yul\":5745:5781   */\n      iszero\n      tag_146\n      jumpi\n        /* \"#utility.yul\":5761:5779   */\n      tag_147\n      tag_94\n      jump\t// in\n    tag_147:\n        /* \"#utility.yul\":5745:5781   */\n    tag_146:\n        /* \"#utility.yul\":5597:5788   */\n      swap3\n      swap2\n      pop\n      pop\n      jump\t// out\n        /* \"#utility.yul\":5794:5912   */\n    tag_95:\n        /* \"#utility.yul\":5881:5905   */\n      tag_149\n        /* \"#utility.yul\":5899:5904   */\n      dup2\n        /* \"#utility.yul\":5881:5905   */\n      tag_83\n      jump\t// in\n    tag_149:\n        /* \"#utility.yul\":5876:5879   */\n      dup3\n        /* \"#utility.yul\":5869:5906   */\n      mstore\n        /* \"#utility.yul\":5794:5912   */\n      pop\n      pop\n      jump\t// out\n        /* \"#utility.yul\":5918:6250   */\n    tag_76:\n        /* \"#utility.yul\":6039:6043   */\n      0x00\n        /* \"#utility.yul\":6077:6079   */\n      0x40\n        /* \"#utility.yul\":6066:6075   */\n      dup3\n        /* \"#utility.yul\":6062:6080   */\n      add\n        /* \"#utility.yul\":6054:6080   */\n      swap1\n      pop\n        /* \"#utility.yul\":6090:6161   */\n      tag_151\n        /* \"#utility.yul\":6158:6159   */\n      0x00\n        /* \"#utility.yul\":6147:6156   */\n      dup4\n        /* \"#utility.yul\":6143:6160   */\n      add\n        /* \"#utility.yul\":6134:6140   */\n      dup6\n        /* \"#utility.yul\":6090:6161   */\n      tag_95\n      jump\t// in\n    tag_151:\n        /* \"#utility.yul\":6171:6243   */\n      tag_152\n        /* \"#utility.yul\":6239:6241   */\n      0x20\n        /* \"#utility.yul\":6228:6237   */\n      dup4\n        /* \"#utility.yul\":6224:6242   */\n      add\n        /* \"#utility.yul\":6215:6221   */\n      dup5\n        /* \"#utility.yul\":6171:6243   */\n      tag_78\n      jump\t// in\n    tag_152:\n        /* \"#utility.yul\":5918:6250   */\n      swap4\n      swap3\n      pop\n      pop\n      pop\n      jump\t// out\n\n    auxdata: 0xa2646970667358221220f513a1057eb780eb2a7a40ccdc0d8f16854ea7cd57f58baa49d646887d2fb63364736f6c634300081e0033\n}\n",
				"bytecode": {
					"linkReferences": {},
					"object": "6080604052348015600e575f5ffd5b503360025f6101000a81548173ffffffffffffffffffffffffffffffffffffffff021916908373ffffffffffffffffffffffffffffffffffffffff1602179055506108cd8061005c5f395ff3fe60806040526004361061003e575f3560e01c80633ccfd60b146100425780634061a5bf14610058578063410a1d3214610084578063ed88c68e146100c0575b5f5ffd5b34801561004d575f5ffd5b506100566100ca565b005b348015610063575f5ffd5b5061006c610225565b60405161007b939291906105dc565b60405180910390f35b34801561008f575f5ffd5b506100aa60048036038101906100a5919061066f565b6104d0565b6040516100b7919061069a565b60405180910390f35b6100c8610515565b005b60025f9054906101000a900473ffffffffffffffffffffffffffffffffffffffff1673ffffffffffffffffffffffffffffffffffffffff163373ffffffffffffffffffffffffffffffffffffffff1614610159576040517f08c379a00000000000000000000000000000000000000000000000000000000081526004016101509061070d565b60405180910390fd5b5f60025f9054906101000a900473ffffffffffffffffffffffffffffffffffffffff1673ffffffffffffffffffffffffffffffffffffffff164760405161019f90610758565b5f6040518083038185875af1925050503d805f81146101d9576040519150601f19603f3d011682016040523d82523d5f602084013e6101de565b606091505b5050905080610222576040517f08c379a0000000000000000000000000000000000000000000000000000000008152600401610219906107b6565b60405180910390fd5b50565b5f5f5f6102306105a2565b5f5f90505b60038160ff161015610479575f5f8260ff161461026c57828260ff1660038110610262576102616107d4565b5b602002015161028e565b7fffffffffffffffffffffffffffffffffffffffffffffffffffffffffffffffff5b90505f5f60018460ff16815481106102a9576102a86107d4565b5b905f5260205f20015f9054906101000a900473ffffffffffffffffffffffffffffffffffffffff1673ffffffffffffffffffffffffffffffffffffffff1673ffffffffffffffffffffffffffffffffffffffff1681526020019081526020015f205481101580156103ae5750828260ff166003811061032b5761032a6107d4565b5b60200201515f5f60018560ff1681548110610349576103486107d4565b5b905f5260205f20015f9054906101000a900473ffffffffffffffffffffffffffffffffffffffff1673ffffffffffffffffffffffffffffffffffffffff1673ffffffffffffffffffffffffffffffffffffffff1681526020019081526020015f205410155b6103d257828260ff16600381106103c8576103c76107d4565b5b602002015161044e565b5f5f60018460ff16815481106103eb576103ea6107d4565b5b905f5260205f20015f9054906101000a900473ffffffffffffffffffffffffffffffffffffffff1673ffffffffffffffffffffffffffffffffffffffff1673ffffffffffffffffffffffffffffffffffffffff1681526020019081526020015f20545b838360ff1660038110610464576104636107d4565b5b60200201818152505050806001019050610235565b50805f6003811061048d5761048c6107d4565b5b6020020151816001600381106104a6576104a56107d4565b5b6020020151826002600381106104bf576104be6107d4565b5b602002015193509350935050909192565b5f5f5f8373ffffffffffffffffffffffffffffffffffffffff1673ffffffffffffffffffffffffffffffffffffffff1681526020019081526020015f20549050919050565b345f5f3373ffffffffffffffffffffffffffffffffffffffff1673ffffffffffffffffffffffffffffffffffffffff1681526020019081526020015f205f828254610560919061082e565b925050819055507f0553260a2e46b0577270d8992db02d30856ca880144c72d6e9503760946aef133334604051610598929190610870565b60405180910390a1565b6040518060600160405280600390602082028036833780820191505090505090565b5f819050919050565b6105d6816105c4565b82525050565b5f6060820190506105ef5f8301866105cd565b6105fc60208301856105cd565b61060960408301846105cd565b949350505050565b5f5ffd5b5f73ffffffffffffffffffffffffffffffffffffffff82169050919050565b5f61063e82610615565b9050919050565b61064e81610634565b8114610658575f5ffd5b50565b5f8135905061066981610645565b92915050565b5f6020828403121561068457610683610611565b5b5f6106918482850161065b565b91505092915050565b5f6020820190506106ad5f8301846105cd565b92915050565b5f82825260208201905092915050565b7f4e6f74206f776e657200000000000000000000000000000000000000000000005f82015250565b5f6106f76009836106b3565b9150610702826106c3565b602082019050919050565b5f6020820190508181035f830152610724816106eb565b9050919050565b5f81905092915050565b50565b5f6107435f8361072b565b915061074e82610735565b5f82019050919050565b5f61076282610738565b9150819050919050565b7f5769746864726177206661696c656400000000000000000000000000000000005f82015250565b5f6107a0600f836106b3565b91506107ab8261076c565b602082019050919050565b5f6020820190508181035f8301526107cd81610794565b9050919050565b7f4e487b71000000000000000000000000000000000000000000000000000000005f52603260045260245ffd5b7f4e487b71000000000000000000000000000000000000000000000000000000005f52601160045260245ffd5b5f610838826105c4565b9150610843836105c4565b925082820190508082111561085b5761085a610801565b5b92915050565b61086a81610634565b82525050565b5f6040820190506108835f830185610861565b61089060208301846105cd565b939250505056fea2646970667358221220f513a1057eb780eb2a7a40ccdc0d8f16854ea7cd57f58baa49d646887d2fb63364736f6c634300081e0033",
					"opcodes": "PUSH1 0x80 PUSH1 0x40 MSTORE CALLVALUE DUP1 ISZERO PUSH1 0xE JUMPI PUSH0 PUSH0 REVERT JUMPDEST POP CALLER PUSH1 0x2 PUSH0 PUSH2 0x100 EXP DUP2 SLOAD DUP2 PUSH20 0xFFFFFFFFFFFFFFFFFFFFFFFFFFFFFFFFFFFFFFFF MUL NOT AND SWAP1 DUP4 PUSH20 0xFFFFFFFFFFFFFFFFFFFFFFFFFFFFFFFFFFFFFFFF AND MUL OR SWAP1 SSTORE POP PUSH2 0x8CD DUP1 PUSH2 0x5C PUSH0 CODECOPY PUSH0 RETURN INVALID PUSH1 0x80 PUSH1 0x40 MSTORE PUSH1 0x4 CALLDATASIZE LT PUSH2 0x3E JUMPI PUSH0 CALLDATALOAD PUSH1 0xE0 SHR DUP1 PUSH4 0x3CCFD60B EQ PUSH2 0x42 JUMPI DUP1 PUSH4 0x4061A5BF EQ PUSH2 0x58 JUMPI DUP1 PUSH4 0x410A1D32 EQ PUSH2 0x84 JUMPI DUP1 PUSH4 0xED88C68E EQ PUSH2 0xC0 JUMPI JUMPDEST PUSH0 PUSH0 REVERT JUMPDEST CALLVALUE DUP1 ISZERO PUSH2 0x4D JUMPI PUSH0 PUSH0 REVERT JUMPDEST POP PUSH2 0x56 PUSH2 0xCA JUMP JUMPDEST STOP JUMPDEST CALLVALUE DUP1 ISZERO PUSH2 0x63 JUMPI PUSH0 PUSH0 REVERT JUMPDEST POP PUSH2 0x6C PUSH2 0x225 JUMP JUMPDEST PUSH1 0x40 MLOAD PUSH2 0x7B SWAP4 SWAP3 SWAP2 SWAP1 PUSH2 0x5DC JUMP JUMPDEST PUSH1 0x40 MLOAD DUP1 SWAP2 SUB SWAP1 RETURN JUMPDEST CALLVALUE DUP1 ISZERO PUSH2 0x8F JUMPI PUSH0 PUSH0 REVERT JUMPDEST POP PUSH2 0xAA PUSH1 0x4 DUP1 CALLDATASIZE SUB DUP2 ADD SWAP1 PUSH2 0xA5 SWAP2 SWAP1 PUSH2 0x66F JUMP JUMPDEST PUSH2 0x4D0 JUMP JUMPDEST PUSH1 0x40 MLOAD PUSH2 0xB7 SWAP2 SWAP1 PUSH2 0x69A JUMP JUMPDEST PUSH1 0x40 MLOAD DUP1 SWAP2 SUB SWAP1 RETURN JUMPDEST PUSH2 0xC8 PUSH2 0x515 JUMP JUMPDEST STOP JUMPDEST PUSH1 0x2 PUSH0 SWAP1 SLOAD SWAP1 PUSH2 0x100 EXP SWAP1 DIV PUSH20 0xFFFFFFFFFFFFFFFFFFFFFFFFFFFFFFFFFFFFFFFF AND PUSH20 0xFFFFFFFFFFFFFFFFFFFFFFFFFFFFFFFFFFFFFFFF AND CALLER PUSH20 0xFFFFFFFFFFFFFFFFFFFFFFFFFFFFFFFFFFFFFFFF AND EQ PUSH2 0x159 JUMPI PUSH1 0x40 MLOAD PUSH32 0x8C379A000000000000000000000000000000000000000000000000000000000 DUP2 MSTORE PUSH1 0x4 ADD PUSH2 0x150 SWAP1 PUSH2 0x70D JUMP JUMPDEST PUSH1 0x40 MLOAD DUP1 SWAP2 SUB SWAP1 REVERT JUMPDEST PUSH0 PUSH1 0x2 PUSH0 SWAP1 SLOAD SWAP1 PUSH2 0x100 EXP SWAP1 DIV PUSH20 0xFFFFFFFFFFFFFFFFFFFFFFFFFFFFFFFFFFFFFFFF AND PUSH20 0xFFFFFFFFFFFFFFFFFFFFFFFFFFFFFFFFFFFFFFFF AND SELFBALANCE PUSH1 0x40 MLOAD PUSH2 0x19F SWAP1 PUSH2 0x758 JUMP JUMPDEST PUSH0 PUSH1 0x40 MLOAD DUP1 DUP4 SUB DUP2 DUP6 DUP8 GAS CALL SWAP3 POP POP POP RETURNDATASIZE DUP1 PUSH0 DUP2 EQ PUSH2 0x1D9 JUMPI PUSH1 0x40 MLOAD SWAP2 POP PUSH1 0x1F NOT PUSH1 0x3F RETURNDATASIZE ADD AND DUP3 ADD PUSH1 0x40 MSTORE RETURNDATASIZE DUP3 MSTORE RETURNDATASIZE PUSH0 PUSH1 0x20 DUP5 ADD RETURNDATACOPY PUSH2 0x1DE JUMP JUMPDEST PUSH1 0x60 SWAP2 POP JUMPDEST POP POP SWAP1 POP DUP1 PUSH2 0x222 JUMPI PUSH1 0x40 MLOAD PUSH32 0x8C379A000000000000000000000000000000000000000000000000000000000 DUP2 MSTORE PUSH1 0x4 ADD PUSH2 0x219 SWAP1 PUSH2 0x7B6 JUMP JUMPDEST PUSH1 0x40 MLOAD DUP1 SWAP2 SUB SWAP1 REVERT JUMPDEST POP JUMP JUMPDEST PUSH0 PUSH0 PUSH0 PUSH2 0x230 PUSH2 0x5A2 JUMP JUMPDEST PUSH0 PUSH0 SWAP1 POP JUMPDEST PUSH1 0x3 DUP2 PUSH1 0xFF AND LT ISZERO PUSH2 0x479 JUMPI PUSH0 PUSH0 DUP3 PUSH1 0xFF AND EQ PUSH2 0x26C JUMPI DUP3 DUP3 PUSH1 0xFF AND PUSH1 0x3 DUP2 LT PUSH2 0x262 JUMPI PUSH2 0x261 PUSH2 0x7D4 JUMP JUMPDEST JUMPDEST PUSH1 0x20 MUL ADD MLOAD PUSH2 0x28E JUMP JUMPDEST PUSH32 0xFFFFFFFFFFFFFFFFFFFFFFFFFFFFFFFFFFFFFFFFFFFFFFFFFFFFFFFFFFFFFFFF JUMPDEST SWAP1 POP PUSH0 PUSH0 PUSH1 0x1 DUP5 PUSH1 0xFF AND DUP2 SLOAD DUP2 LT PUSH2 0x2A9 JUMPI PUSH2 0x2A8 PUSH2 0x7D4 JUMP JUMPDEST JUMPDEST SWAP1 PUSH0 MSTORE PUSH1 0x20 PUSH0 KECCAK256 ADD PUSH0 SWAP1 SLOAD SWAP1 PUSH2 0x100 EXP SWAP1 DIV PUSH20 0xFFFFFFFFFFFFFFFFFFFFFFFFFFFFFFFFFFFFFFFF AND PUSH20 0xFFFFFFFFFFFFFFFFFFFFFFFFFFFFFFFFFFFFFFFF AND PUSH20 0xFFFFFFFFFFFFFFFFFFFFFFFFFFFFFFFFFFFFFFFF AND DUP2 MSTORE PUSH1 0x20 ADD SWAP1 DUP2 MSTORE PUSH1 0x20 ADD PUSH0 KECCAK256 SLOAD DUP2 LT ISZERO DUP1 ISZERO PUSH2 0x3AE JUMPI POP DUP3 DUP3 PUSH1 0xFF AND PUSH1 0x3 DUP2 LT PUSH2 0x32B JUMPI PUSH2 0x32A PUSH2 0x7D4 JUMP JUMPDEST JUMPDEST PUSH1 0x20 MUL ADD MLOAD PUSH0 PUSH0 PUSH1 0x1 DUP6 PUSH1 0xFF AND DUP2 SLOAD DUP2 LT PUSH2 0x349 JUMPI PUSH2 0x348 PUSH2 0x7D4 JUMP JUMPDEST JUMPDEST SWAP1 PUSH0 MSTORE PUSH1 0x20 PUSH0 KECCAK256 ADD PUSH0 SWAP1 SLOAD SWAP1 PUSH2 0x100 EXP SWAP1 DIV PUSH20 0xFFFFFFFFFFFFFFFFFFFFFFFFFFFFFFFFFFFFFFFF AND PUSH20 0xFFFFFFFFFFFFFFFFFFFFFFFFFFFFFFFFFFFFFFFF AND PUSH20 0xFFFFFFFFFFFFFFFFFFFFFFFFFFFFFFFFFFFFFFFF AND DUP2 MSTORE PUSH1 0x20 ADD SWAP1 DUP2 MSTORE PUSH1 0x20 ADD PUSH0 KECCAK256 SLOAD LT ISZERO JUMPDEST PUSH2 0x3D2 JUMPI DUP3 DUP3 PUSH1 0xFF AND PUSH1 0x3 DUP2 LT PUSH2 0x3C8 JUMPI PUSH2 0x3C7 PUSH2 0x7D4 JUMP JUMPDEST JUMPDEST PUSH1 0x20 MUL ADD MLOAD PUSH2 0x44E JUMP JUMPDEST PUSH0 PUSH0 PUSH1 0x1 DUP5 PUSH1 0xFF AND DUP2 SLOAD DUP2 LT PUSH2 0x3EB JUMPI PUSH2 0x3EA PUSH2 0x7D4 JUMP JUMPDEST JUMPDEST SWAP1 PUSH0 MSTORE PUSH1 0x20 PUSH0 KECCAK256 ADD PUSH0 SWAP1 SLOAD SWAP1 PUSH2 0x100 EXP SWAP1 DIV PUSH20 0xFFFFFFFFFFFFFFFFFFFFFFFFFFFFFFFFFFFFFFFF AND PUSH20 0xFFFFFFFFFFFFFFFFFFFFFFFFFFFFFFFFFFFFFFFF AND PUSH20 0xFFFFFFFFFFFFFFFFFFFFFFFFFFFFFFFFFFFFFFFF AND DUP2 MSTORE PUSH1 0x20 ADD SWAP1 DUP2 MSTORE PUSH1 0x20 ADD PUSH0 KECCAK256 SLOAD JUMPDEST DUP4 DUP4 PUSH1 0xFF AND PUSH1 0x3 DUP2 LT PUSH2 0x464 JUMPI PUSH2 0x463 PUSH2 0x7D4 JUMP JUMPDEST JUMPDEST PUSH1 0x20 MUL ADD DUP2 DUP2 MSTORE POP POP POP DUP1 PUSH1 0x1 ADD SWAP1 POP PUSH2 0x235 JUMP JUMPDEST POP DUP1 PUSH0 PUSH1 0x3 DUP2 LT PUSH2 0x48D JUMPI PUSH2 0x48C PUSH2 0x7D4 JUMP JUMPDEST JUMPDEST PUSH1 0x20 MUL ADD MLOAD DUP2 PUSH1 0x1 PUSH1 0x3 DUP2 LT PUSH2 0x4A6 JUMPI PUSH2 0x4A5 PUSH2 0x7D4 JUMP JUMPDEST JUMPDEST PUSH1 0x20 MUL ADD MLOAD DUP3 PUSH1 0x2 PUSH1 0x3 DUP2 LT PUSH2 0x4BF JUMPI PUSH2 0x4BE PUSH2 0x7D4 JUMP JUMPDEST JUMPDEST PUSH1 0x20 MUL ADD MLOAD SWAP4 POP SWAP4 POP SWAP4 POP POP SWAP1 SWAP2 SWAP3 JUMP JUMPDEST PUSH0 PUSH0 PUSH0 DUP4 PUSH20 0xFFFFFFFFFFFFFFFFFFFFFFFFFFFFFFFFFFFFFFFF AND PUSH20 0xFFFFFFFFFFFFFFFFFFFFFFFFFFFFFFFFFFFFFFFF AND DUP2 MSTORE PUSH1 0x20 ADD SWAP1 DUP2 MSTORE PUSH1 0x20 ADD PUSH0 KECCAK256 SLOAD SWAP1 POP SWAP2 SWAP1 POP JUMP JUMPDEST CALLVALUE PUSH0 PUSH0 CALLER PUSH20 0xFFFFFFFFFFFFFFFFFFFFFFFFFFFFFFFFFFFFFFFF AND PUSH20 0xFFFFFFFFFFFFFFFFFFFFFFFFFFFFFFFFFFFFFFFF AND DUP2 MSTORE PUSH1 0x20 ADD SWAP1 DUP2 MSTORE PUSH1 0x20 ADD PUSH0 KECCAK256 PUSH0 DUP3 DUP3 SLOAD PUSH2 0x560 SWAP2 SWAP1 PUSH2 0x82E JUMP JUMPDEST SWAP3 POP POP DUP2 SWAP1 SSTORE POP PUSH32 0x553260A2E46B0577270D8992DB02D30856CA880144C72D6E9503760946AEF13 CALLER CALLVALUE PUSH1 0x40 MLOAD PUSH2 0x598 SWAP3 SWAP2 SWAP1 PUSH2 0x870 JUMP JUMPDEST PUSH1 0x40 MLOAD DUP1 SWAP2 SUB SWAP1 LOG1 JUMP JUMPDEST PUSH1 0x40 MLOAD DUP1 PUSH1 0x60 ADD PUSH1 0x40 MSTORE DUP1 PUSH1 0x3 SWAP1 PUSH1 0x20 DUP3 MUL DUP1 CALLDATASIZE DUP4 CALLDATACOPY DUP1 DUP3 ADD SWAP2 POP POP SWAP1 POP POP SWAP1 JUMP JUMPDEST PUSH0 DUP2 SWAP1 POP SWAP2 SWAP1 POP JUMP JUMPDEST PUSH2 0x5D6 DUP2 PUSH2 0x5C4 JUMP JUMPDEST DUP3 MSTORE POP POP JUMP JUMPDEST PUSH0 PUSH1 0x60 DUP3 ADD SWAP1 POP PUSH2 0x5EF PUSH0 DUP4 ADD DUP7 PUSH2 0x5CD JUMP JUMPDEST PUSH2 0x5FC PUSH1 0x20 DUP4 ADD DUP6 PUSH2 0x5CD JUMP JUMPDEST PUSH2 0x609 PUSH1 0x40 DUP4 ADD DUP5 PUSH2 0x5CD JUMP JUMPDEST SWAP5 SWAP4 POP POP POP POP JUMP JUMPDEST PUSH0 PUSH0 REVERT JUMPDEST PUSH0 PUSH20 0xFFFFFFFFFFFFFFFFFFFFFFFFFFFFFFFFFFFFFFFF DUP3 AND SWAP1 POP SWAP2 SWAP1 POP JUMP JUMPDEST PUSH0 PUSH2 0x63E DUP3 PUSH2 0x615 JUMP JUMPDEST SWAP1 POP SWAP2 SWAP1 POP JUMP JUMPDEST PUSH2 0x64E DUP2 PUSH2 0x634 JUMP JUMPDEST DUP2 EQ PUSH2 0x658 JUMPI PUSH0 PUSH0 REVERT JUMPDEST POP JUMP JUMPDEST PUSH0 DUP2 CALLDATALOAD SWAP1 POP PUSH2 0x669 DUP2 PUSH2 0x645 JUMP JUMPDEST SWAP3 SWAP2 POP POP JUMP JUMPDEST PUSH0 PUSH1 0x20 DUP3 DUP5 SUB SLT ISZERO PUSH2 0x684 JUMPI PUSH2 0x683 PUSH2 0x611 JUMP JUMPDEST JUMPDEST PUSH0 PUSH2 0x691 DUP5 DUP3 DUP6 ADD PUSH2 0x65B JUMP JUMPDEST SWAP2 POP POP SWAP3 SWAP2 POP POP JUMP JUMPDEST PUSH0 PUSH1 0x20 DUP3 ADD SWAP1 POP PUSH2 0x6AD PUSH0 DUP4 ADD DUP5 PUSH2 0x5CD JUMP JUMPDEST SWAP3 SWAP2 POP POP JUMP JUMPDEST PUSH0 DUP3 DUP3 MSTORE PUSH1 0x20 DUP3 ADD SWAP1 POP SWAP3 SWAP2 POP POP JUMP JUMPDEST PUSH32 0x4E6F74206F776E65720000000000000000000000000000000000000000000000 PUSH0 DUP3 ADD MSTORE POP JUMP JUMPDEST PUSH0 PUSH2 0x6F7 PUSH1 0x9 DUP4 PUSH2 0x6B3 JUMP JUMPDEST SWAP2 POP PUSH2 0x702 DUP3 PUSH2 0x6C3 JUMP JUMPDEST PUSH1 0x20 DUP3 ADD SWAP1 POP SWAP2 SWAP1 POP JUMP JUMPDEST PUSH0 PUSH1 0x20 DUP3 ADD SWAP1 POP DUP2 DUP2 SUB PUSH0 DUP4 ADD MSTORE PUSH2 0x724 DUP2 PUSH2 0x6EB JUMP JUMPDEST SWAP1 POP SWAP2 SWAP1 POP JUMP JUMPDEST PUSH0 DUP2 SWAP1 POP SWAP3 SWAP2 POP POP JUMP JUMPDEST POP JUMP JUMPDEST PUSH0 PUSH2 0x743 PUSH0 DUP4 PUSH2 0x72B JUMP JUMPDEST SWAP2 POP PUSH2 0x74E DUP3 PUSH2 0x735 JUMP JUMPDEST PUSH0 DUP3 ADD SWAP1 POP SWAP2 SWAP1 POP JUMP JUMPDEST PUSH0 PUSH2 0x762 DUP3 PUSH2 0x738 JUMP JUMPDEST SWAP2 POP DUP2 SWAP1 POP SWAP2 SWAP1 POP JUMP JUMPDEST PUSH32 0x5769746864726177206661696C65640000000000000000000000000000000000 PUSH0 DUP3 ADD MSTORE POP JUMP JUMPDEST PUSH0 PUSH2 0x7A0 PUSH1 0xF DUP4 PUSH2 0x6B3 JUMP JUMPDEST SWAP2 POP PUSH2 0x7AB DUP3 PUSH2 0x76C JUMP JUMPDEST PUSH1 0x20 DUP3 ADD SWAP1 POP SWAP2 SWAP1 POP JUMP JUMPDEST PUSH0 PUSH1 0x20 DUP3 ADD SWAP1 POP DUP2 DUP2 SUB PUSH0 DUP4 ADD MSTORE PUSH2 0x7CD DUP2 PUSH2 0x794 JUMP JUMPDEST SWAP1 POP SWAP2 SWAP1 POP JUMP JUMPDEST PUSH32 0x4E487B7100000000000000000000000000000000000000000000000000000000 PUSH0 MSTORE PUSH1 0x32 PUSH1 0x4 MSTORE PUSH1 0x24 PUSH0 REVERT JUMPDEST PUSH32 0x4E487B7100000000000000000000000000000000000000000000000000000000 PUSH0 MSTORE PUSH1 0x11 PUSH1 0x4 MSTORE PUSH1 0x24 PUSH0 REVERT JUMPDEST PUSH0 PUSH2 0x838 DUP3 PUSH2 0x5C4 JUMP JUMPDEST SWAP2 POP PUSH2 0x843 DUP4 PUSH2 0x5C4 JUMP JUMPDEST SWAP3 POP DUP3 DUP3 ADD SWAP1 POP DUP1 DUP3 GT ISZERO PUSH2 0x85B JUMPI PUSH2 0x85A PUSH2 0x801 JUMP JUMPDEST JUMPDEST SWAP3 SWAP2 POP POP JUMP JUMPDEST PUSH2 0x86A DUP2 PUSH2 0x634 JUMP JUMPDEST DUP3 MSTORE POP POP JUMP JUMPDEST PUSH0 PUSH1 0x40 DUP3 ADD SWAP1 POP PUSH2 0x883 PUSH0 DUP4 ADD DUP6 PUSH2 0x861 JUMP JUMPDEST PUSH2 0x890 PUSH1 0x20 DUP4 ADD DUP5 PUSH2 0x5CD JUMP JUMPDEST SWAP4 SWAP3 POP POP POP JUMP INVALID LOG2 PUSH5 0x6970667358 0x22 SLT KECCAK256 CREATE2 SGT LOG1 SDIV PUSH31 0xB780EB2A7A40CCDC0D8F16854EA7CD57F58BAA49D646887D2FB63364736F6C PUSH4 0x4300081E STOP CALLER "
				},
				"gasEstimates": {
					"creation": {
						"codeDepositCost": "450600",
						"executionCost": "24749",
						"totalCost": "475349"
					},
					"external": {
						"donate()": "infinite",
						"getDonation(address)": "2850",
						"getTop3()": "infinite",
						"withdraw()": "infinite"
					}
				},
				"methodIdentifiers": {
					"donate()": "ed88c68e",
					"getDonation(address)": "410a1d32",
					"getTop3()": "4061a5bf",
					"withdraw()": "3ccfd60b"
				}
			},
			"storageLayout": {
				"storage": [
					{
						"astId": 5,
						"contract": "task2/BeggingContract.sol:BeggingContract",
						"label": "donateRecord",
						"offset": 0,
						"slot": "0",
						"type": "t_mapping(t_address,t_uint256)"
					},
					{
						"astId": 8,
						"contract": "task2/BeggingContract.sol:BeggingContract",
						"label": "donaters",
						"offset": 0,
						"slot": "1",
						"type": "t_array(t_address)dyn_storage"
					},
					{
						"astId": 10,
						"contract": "task2/BeggingContract.sol:BeggingContract",
						"label": "owner",
						"offset": 0,
						"slot": "2",
						"type": "t_address"
					}
				],
				"types": {
					"t_address": {
						"encoding": "inplace",
						"label": "address",
						"numberOfBytes": "20"
					},
					"t_array(t_address)dyn_storage": {
						"base": "t_address",
						"encoding": "dynamic_array",
						"label": "address[]",
						"numberOfBytes": "32"
					},
					"t_mapping(t_address,t_uint256)": {
						"encoding": "mapping",
						"key": "t_address",
						"label": "mapping(address => uint256)",
						"numberOfBytes": "32",
						"value": "t_uint256"
					},
					"t_uint256": {
						"encoding": "inplace",
						"label": "uint256",
						"numberOfBytes": "32"
					}
				}
			},
			"userdoc": {
				"kind": "user",
				"methods": {},
				"version": 1
			}
		}
	}
}