{
	"task1/Voting.sol": {
		"Voting": {
			"abi": [
				{
					"inputs": [
						{
							"internalType": "string",
							"name": "_option",
							"type": "string"
						}
					],
					"name": "getVotes",
					"outputs": [
						{
							"internalType": "uint32",
							"name": "",
							"type": "uint32"
						}
					],
					"stateMutability": "view",
					"type": "function"
				},
				{
					"inputs": [
						{
							"internalType": "uint256",
							"name": "",
							"type": "uint256"
						}
					],
					"name": "nameList",
					"outputs": [
						{
							"internalType": "string",
							"name": "",
							"type": "string"
						}
					],
					"stateMutability": "view",
					"type": "function"
				},
				{
					"inputs": [],
					"name": "resetVotes",
					"outputs": [],
					"stateMutability": "payable",
					"type": "function"
				},
				{
					"inputs": [
						{
							"internalType": "string",
							"name": "_option",
							"type": "string"
						}
					],
					"name": "vote",
					"outputs": [],
					"stateMutability": "nonpayable",
					"type": "function"
				},
				{
					"inputs": [
						{
							"internalType": "string",
							"name": "",
							"type": "string"
						}
					],
					"name": "votings",
					"outputs": [
						{
							"internalType": "uint32",
							"name": "",
							"type": "uint32"
						}
					],
					"stateMutability": "view",
					"type": "function"
				}
			],
			"devdoc": {
				"kind": "dev",
				"methods": {},
				"version": 1
			},
			"evm": {
				"assembly": "    /* \"task1/Voting.sol\":57:596  contract Voting {... */\n  mstore(0x40, 0x80)\n  callvalue\n  dup1\n  iszero\n  tag_1\n  jumpi\n  revert(0x00, 0x00)\ntag_1:\n  pop\n  dataSize(sub_0)\n  dup1\n  dataOffset(sub_0)\n  0x00\n  codecopy\n  0x00\n  return\nstop\n\nsub_0: assembly {\n        /* \"task1/Voting.sol\":57:596  contract Voting {... */\n      mstore(0x40, 0x80)\n      jumpi(tag_1, lt(calldatasize, 0x04))\n      shr(0xe0, calldataload(0x00))\n      dup1\n      0x2f5dcf7d\n      eq\n      tag_2\n      jumpi\n      dup1\n      0x805265e5\n      eq\n      tag_3\n      jumpi\n      dup1\n      0xb9830ff1\n      eq\n      tag_4\n      jumpi\n      dup1\n      0xf469cb6a\n      eq\n      tag_5\n      jumpi\n      dup1\n      0xfc36e15b\n      eq\n      tag_6\n      jumpi\n    tag_1:\n      revert(0x00, 0x00)\n        /* \"task1/Voting.sol\":84:124  mapping(string => uint32) public votings */\n    tag_2:\n      callvalue\n      dup1\n      iszero\n      tag_7\n      jumpi\n      revert(0x00, 0x00)\n    tag_7:\n      pop\n      tag_8\n      0x04\n      dup1\n      calldatasize\n      sub\n      dup2\n      add\n      swap1\n      tag_9\n      swap2\n      swap1\n      tag_10\n      jump\t// in\n    tag_9:\n      tag_11\n      jump\t// in\n    tag_8:\n      mload(0x40)\n      tag_12\n      swap2\n      swap1\n      tag_13\n      jump\t// in\n    tag_12:\n      mload(0x40)\n      dup1\n      swap2\n      sub\n      swap1\n      return\n        /* \"task1/Voting.sol\":332:441  function getVotes(string memory _option) public view returns(uint32) {... */\n    tag_3:\n      callvalue\n      dup1\n      iszero\n      tag_14\n      jumpi\n      revert(0x00, 0x00)\n    tag_14:\n      pop\n      tag_15\n      0x04\n      dup1\n      calldatasize\n      sub\n      dup2\n      add\n      swap1\n      tag_16\n      swap2\n      swap1\n      tag_10\n      jump\t// in\n    tag_16:\n      tag_17\n      jump\t// in\n    tag_15:\n      mload(0x40)\n      tag_18\n      swap2\n      swap1\n      tag_13\n      jump\t// in\n    tag_18:\n      mload(0x40)\n      dup1\n      swap2\n      sub\n      swap1\n      return\n        /* \"task1/Voting.sol\":447:592  function resetVotes() public payable {... */\n    tag_4:\n      tag_19\n      tag_20\n      jump\t// in\n    tag_19:\n      stop\n        /* \"task1/Voting.sol\":130:154  string[] public nameList */\n    tag_5:\n      callvalue\n      dup1\n      iszero\n      tag_21\n      jumpi\n      revert(0x00, 0x00)\n    tag_21:\n      pop\n      tag_22\n      0x04\n      dup1\n      calldatasize\n      sub\n      dup2\n      add\n      swap1\n      tag_23\n      swap2\n      swap1\n      tag_24\n      jump\t// in\n    tag_23:\n      tag_25\n      jump\t// in\n    tag_22:\n      mload(0x40)\n      tag_26\n      swap2\n      swap1\n      tag_27\n      jump\t// in\n    tag_26:\n      mload(0x40)\n      dup1\n      swap2\n      sub\n      swap1\n      return\n        /* \"task1/Voting.sol\":161:326  function vote(string memory _option) public {... */\n    tag_6:\n      callvalue\n      dup1\n      iszero\n      tag_28\n      jumpi\n      revert(0x00, 0x00)\n    tag_28:\n      pop\n      tag_29\n      0x04\n      dup1\n      calldatasize\n      sub\n      dup2\n      add\n      swap1\n      tag_30\n      swap2\n      swap1\n      tag_10\n      jump\t// in\n    tag_30:\n      tag_31\n      jump\t// in\n    tag_29:\n      stop\n        /* \"task1/Voting.sol\":84:124  mapping(string => uint32) public votings */\n    tag_11:\n      0x00\n      dup2\n      dup1\n      mload\n      0x20\n      dup2\n      add\n      dup3\n      add\n      dup1\n      mload\n      dup5\n      dup3\n      mstore\n      0x20\n      dup4\n      add\n      0x20\n      dup6\n      add\n      keccak256\n      dup2\n      dup4\n      mstore\n      dup1\n      swap6\n      pop\n      pop\n      pop\n      pop\n      pop\n      pop\n      0x00\n      swap2\n      pop\n      sload\n      swap1\n      0x0100\n      exp\n      swap1\n      div\n      0xffffffff\n      and\n      dup2\n      jump\t// out\n        /* \"task1/Voting.sol\":332:441  function getVotes(string memory _option) public view returns(uint32) {... */\n    tag_17:\n        /* \"task1/Voting.sol\":393:399  uint32 */\n      0x00\n        /* \"task1/Voting.sol\":418:425  votings */\n      0x00\n        /* \"task1/Voting.sol\":426:433  _option */\n      dup3\n        /* \"task1/Voting.sol\":418:434  votings[_option] */\n      mload(0x40)\n      tag_33\n      swap2\n      swap1\n      tag_34\n      jump\t// in\n    tag_33:\n      swap1\n      dup2\n      mstore\n      0x20\n      add\n      mload(0x40)\n      dup1\n      swap2\n      sub\n      swap1\n      keccak256\n      0x00\n      swap1\n      sload\n      swap1\n      0x0100\n      exp\n      swap1\n      div\n      0xffffffff\n      and\n        /* \"task1/Voting.sol\":411:434  return votings[_option] */\n      swap1\n      pop\n        /* \"task1/Voting.sol\":332:441  function getVotes(string memory _option) public view returns(uint32) {... */\n      swap2\n      swap1\n      pop\n      jump\t// out\n        /* \"task1/Voting.sol\":447:592  function resetVotes() public payable {... */\n    tag_20:\n        /* \"task1/Voting.sol\":499:505  uint i */\n      0x00\n        /* \"task1/Voting.sol\":508:509  0 */\n      0x00\n        /* \"task1/Voting.sol\":499:509  uint i = 0 */\n      swap1\n      pop\n        /* \"task1/Voting.sol\":494:586  for (uint i = 0; i < nameList.length; i++) {... */\n    tag_36:\n        /* \"task1/Voting.sol\":515:523  nameList */\n      0x01\n        /* \"task1/Voting.sol\":515:530  nameList.length */\n      dup1\n      sload\n      swap1\n      pop\n        /* \"task1/Voting.sol\":511:512  i */\n      dup2\n        /* \"task1/Voting.sol\":511:530  i < nameList.length */\n      lt\n        /* \"task1/Voting.sol\":494:586  for (uint i = 0; i < nameList.length; i++) {... */\n      iszero\n      tag_37\n      jumpi\n        /* \"task1/Voting.sol\":574:575  0 */\n      0x00\n        /* \"task1/Voting.sol\":551:558  votings */\n      0x00\n        /* \"task1/Voting.sol\":559:567  nameList */\n      0x01\n        /* \"task1/Voting.sol\":568:569  i */\n      dup4\n        /* \"task1/Voting.sol\":559:570  nameList[i] */\n      dup2\n      sload\n      dup2\n      lt\n      tag_39\n      jumpi\n      tag_40\n      tag_41\n      jump\t// in\n    tag_40:\n    tag_39:\n      swap1\n      0x00\n      mstore\n      keccak256(0x00, 0x20)\n      add\n        /* \"task1/Voting.sol\":551:571  votings[nameList[i]] */\n      mload(0x40)\n      tag_43\n      swap2\n      swap1\n      tag_44\n      jump\t// in\n    tag_43:\n      swap1\n      dup2\n      mstore\n      0x20\n      add\n      mload(0x40)\n      dup1\n      swap2\n      sub\n      swap1\n      keccak256\n      0x00\n        /* \"task1/Voting.sol\":551:575  votings[nameList[i]] = 0 */\n      0x0100\n      exp\n      dup2\n      sload\n      dup2\n      0xffffffff\n      mul\n      not\n      and\n      swap1\n      dup4\n      0xffffffff\n      and\n      mul\n      or\n      swap1\n      sstore\n      pop\n        /* \"task1/Voting.sol\":532:535  i++ */\n      dup1\n      dup1\n      0x01\n      add\n      swap2\n      pop\n      pop\n        /* \"task1/Voting.sol\":494:586  for (uint i = 0; i < nameList.length; i++) {... */\n      jump(tag_36)\n    tag_37:\n      pop\n        /* \"task1/Voting.sol\":447:592  function resetVotes() public payable {... */\n      jump\t// out\n        /* \"task1/Voting.sol\":130:154  string[] public nameList */\n    tag_25:\n      0x01\n      dup2\n      dup2\n      sload\n      dup2\n      lt\n      tag_45\n      jumpi\n      0x00\n      dup1\n      revert\n    tag_45:\n      swap1\n      0x00\n      mstore\n      keccak256(0x00, 0x20)\n      add\n      0x00\n      swap2\n      pop\n      swap1\n      pop\n      dup1\n      sload\n      tag_47\n      swap1\n      tag_48\n      jump\t// in\n    tag_47:\n      dup1\n      0x1f\n      add\n      0x20\n      dup1\n      swap2\n      div\n      mul\n      0x20\n      add\n      mload(0x40)\n      swap1\n      dup2\n      add\n      0x40\n      mstore\n      dup1\n      swap3\n      swap2\n      swap1\n      dup2\n      dup2\n      mstore\n      0x20\n      add\n      dup3\n      dup1\n      sload\n      tag_49\n      swap1\n      tag_48\n      jump\t// in\n    tag_49:\n      dup1\n      iszero\n      tag_50\n      jumpi\n      dup1\n      0x1f\n      lt\n      tag_51\n      jumpi\n      0x0100\n      dup1\n      dup4\n      sload\n      div\n      mul\n      dup4\n      mstore\n      swap2\n      0x20\n      add\n      swap2\n      jump(tag_50)\n    tag_51:\n      dup3\n      add\n      swap2\n      swap1\n      0x00\n      mstore\n      keccak256(0x00, 0x20)\n      swap1\n    tag_52:\n      dup2\n      sload\n      dup2\n      mstore\n      swap1\n      0x01\n      add\n      swap1\n      0x20\n      add\n      dup1\n      dup4\n      gt\n      tag_52\n      jumpi\n      dup3\n      swap1\n      sub\n      0x1f\n      and\n      dup3\n      add\n      swap2\n    tag_50:\n      pop\n      pop\n      pop\n      pop\n      pop\n      dup2\n      jump\t// out\n        /* \"task1/Voting.sol\":161:326  function vote(string memory _option) public {... */\n    tag_31:\n        /* \"task1/Voting.sol\":239:240  0 */\n      0x00\n        /* \"task1/Voting.sol\":219:226  votings */\n      0x00\n        /* \"task1/Voting.sol\":227:234  _option */\n      dup3\n        /* \"task1/Voting.sol\":219:235  votings[_option] */\n      mload(0x40)\n      tag_54\n      swap2\n      swap1\n      tag_34\n      jump\t// in\n    tag_54:\n      swap1\n      dup2\n      mstore\n      0x20\n      add\n      mload(0x40)\n      dup1\n      swap2\n      sub\n      swap1\n      keccak256\n      0x00\n      swap1\n      sload\n      swap1\n      0x0100\n      exp\n      swap1\n      div\n      0xffffffff\n      and\n        /* \"task1/Voting.sol\":219:240  votings[_option] == 0 */\n      0xffffffff\n      and\n      sub\n        /* \"task1/Voting.sol\":215:289  if (votings[_option] == 0) {... */\n      tag_55\n      jumpi\n        /* \"task1/Voting.sol\":256:264  nameList */\n      0x01\n        /* \"task1/Voting.sol\":270:277  _option */\n      dup2\n        /* \"task1/Voting.sol\":256:278  nameList.push(_option) */\n      swap1\n      dup1\n      0x01\n      dup2\n      sload\n      add\n      dup1\n      dup3\n      sstore\n      dup1\n      swap2\n      pop\n      pop\n      0x01\n      swap1\n      sub\n      swap1\n      0x00\n      mstore\n      keccak256(0x00, 0x20)\n      add\n      0x00\n      swap1\n      swap2\n      swap1\n      swap2\n      swap1\n      swap2\n      pop\n      swap1\n      dup2\n      tag_57\n      swap2\n      swap1\n      tag_58\n      jump\t// in\n    tag_57:\n      pop\n        /* \"task1/Voting.sol\":215:289  if (votings[_option] == 0) {... */\n    tag_55:\n        /* \"task1/Voting.sol\":318:319  1 */\n      0x01\n        /* \"task1/Voting.sol\":298:305  votings */\n      0x00\n        /* \"task1/Voting.sol\":306:313  _option */\n      dup3\n        /* \"task1/Voting.sol\":298:314  votings[_option] */\n      mload(0x40)\n      tag_59\n      swap2\n      swap1\n      tag_34\n      jump\t// in\n    tag_59:\n      swap1\n      dup2\n      mstore\n      0x20\n      add\n      mload(0x40)\n      dup1\n      swap2\n      sub\n      swap1\n      keccak256\n      0x00\n        /* \"task1/Voting.sol\":298:319  votings[_option] += 1 */\n      dup3\n      dup3\n      dup3\n      swap1\n      sload\n      swap1\n      0x0100\n      exp\n      swap1\n      div\n      0xffffffff\n      and\n      tag_60\n      swap2\n      swap1\n      tag_61\n      jump\t// in\n    tag_60:\n      swap3\n      pop\n      0x0100\n      exp\n      dup2\n      sload\n      dup2\n      0xffffffff\n      mul\n      not\n      and\n      swap1\n      dup4\n      0xffffffff\n      and\n      mul\n      or\n      swap1\n      sstore\n      pop\n        /* \"task1/Voting.sol\":161:326  function vote(string memory _option) public {... */\n      pop\n      jump\t// out\n        /* \"#utility.yul\":7:82   */\n    tag_62:\n        /* \"#utility.yul\":40:46   */\n      0x00\n        /* \"#utility.yul\":73:75   */\n      0x40\n        /* \"#utility.yul\":67:76   */\n      mload\n        /* \"#utility.yul\":57:76   */\n      swap1\n      pop\n        /* \"#utility.yul\":7:82   */\n      swap1\n      jump\t// out\n        /* \"#utility.yul\":88:205   */\n    tag_63:\n        /* \"#utility.yul\":197:198   */\n      0x00\n        /* \"#utility.yul\":194:195   */\n      0x00\n        /* \"#utility.yul\":187:199   */\n      revert\n        /* \"#utility.yul\":211:328   */\n    tag_64:\n        /* \"#utility.yul\":320:321   */\n      0x00\n        /* \"#utility.yul\":317:318   */\n      0x00\n        /* \"#utility.yul\":310:322   */\n      revert\n        /* \"#utility.yul\":334:451   */\n    tag_65:\n        /* \"#utility.yul\":443:444   */\n      0x00\n        /* \"#utility.yul\":440:441   */\n      0x00\n        /* \"#utility.yul\":433:445   */\n      revert\n        /* \"#utility.yul\":457:574   */\n    tag_66:\n        /* \"#utility.yul\":566:567   */\n      0x00\n        /* \"#utility.yul\":563:564   */\n      0x00\n        /* \"#utility.yul\":556:568   */\n      revert\n        /* \"#utility.yul\":580:682   */\n    tag_67:\n        /* \"#utility.yul\":621:627   */\n      0x00\n        /* \"#utility.yul\":672:674   */\n      0x1f\n        /* \"#utility.yul\":668:675   */\n      not\n        /* \"#utility.yul\":663:665   */\n      0x1f\n        /* \"#utility.yul\":656:661   */\n      dup4\n        /* \"#utility.yul\":652:666   */\n      add\n        /* \"#utility.yul\":648:676   */\n      and\n        /* \"#utility.yul\":638:676   */\n      swap1\n      pop\n        /* \"#utility.yul\":580:682   */\n      swap2\n      swap1\n      pop\n      jump\t// out\n        /* \"#utility.yul\":688:868   */\n    tag_68:\n        /* \"#utility.yul\":736:813   */\n      0x4e487b7100000000000000000000000000000000000000000000000000000000\n        /* \"#utility.yul\":733:734   */\n      0x00\n        /* \"#utility.yul\":726:814   */\n      mstore\n        /* \"#utility.yul\":833:837   */\n      0x41\n        /* \"#utility.yul\":830:831   */\n      0x04\n        /* \"#utility.yul\":823:838   */\n      mstore\n        /* \"#utility.yul\":857:861   */\n      0x24\n        /* \"#utility.yul\":854:855   */\n      0x00\n        /* \"#utility.yul\":847:862   */\n      revert\n        /* \"#utility.yul\":874:1155   */\n    tag_69:\n        /* \"#utility.yul\":957:984   */\n      tag_113\n        /* \"#utility.yul\":979:983   */\n      dup3\n        /* \"#utility.yul\":957:984   */\n      tag_67\n      jump\t// in\n    tag_113:\n        /* \"#utility.yul\":949:955   */\n      dup2\n        /* \"#utility.yul\":945:985   */\n      add\n        /* \"#utility.yul\":1087:1093   */\n      dup2\n        /* \"#utility.yul\":1075:1085   */\n      dup2\n        /* \"#utility.yul\":1072:1094   */\n      lt\n        /* \"#utility.yul\":1051:1069   */\n      0xffffffffffffffff\n        /* \"#utility.yul\":1039:1049   */\n      dup3\n        /* \"#utility.yul\":1036:1070   */\n      gt\n        /* \"#utility.yul\":1033:1095   */\n      or\n        /* \"#utility.yul\":1030:1118   */\n      iszero\n      tag_114\n      jumpi\n        /* \"#utility.yul\":1098:1116   */\n      tag_115\n      tag_68\n      jump\t// in\n    tag_115:\n        /* \"#utility.yul\":1030:1118   */\n    tag_114:\n        /* \"#utility.yul\":1138:1148   */\n      dup1\n        /* \"#utility.yul\":1134:1136   */\n      0x40\n        /* \"#utility.yul\":1127:1149   */\n      mstore\n        /* \"#utility.yul\":917:1155   */\n      pop\n        /* \"#utility.yul\":874:1155   */\n      pop\n      pop\n      jump\t// out\n        /* \"#utility.yul\":1161:1290   */\n    tag_70:\n        /* \"#utility.yul\":1195:1201   */\n      0x00\n        /* \"#utility.yul\":1222:1242   */\n      tag_117\n      tag_62\n      jump\t// in\n    tag_117:\n        /* \"#utility.yul\":1212:1242   */\n      swap1\n      pop\n        /* \"#utility.yul\":1251:1284   */\n      tag_118\n        /* \"#utility.yul\":1279:1283   */\n      dup3\n        /* \"#utility.yul\":1271:1277   */\n      dup3\n        /* \"#utility.yul\":1251:1284   */\n      tag_69\n      jump\t// in\n    tag_118:\n        /* \"#utility.yul\":1161:1290   */\n      swap2\n      swap1\n      pop\n      jump\t// out\n        /* \"#utility.yul\":1296:1604   */\n    tag_71:\n        /* \"#utility.yul\":1358:1362   */\n      0x00\n        /* \"#utility.yul\":1448:1466   */\n      0xffffffffffffffff\n        /* \"#utility.yul\":1440:1446   */\n      dup3\n        /* \"#utility.yul\":1437:1467   */\n      gt\n        /* \"#utility.yul\":1434:1490   */\n      iszero\n      tag_120\n      jumpi\n        /* \"#utility.yul\":1470:1488   */\n      tag_121\n      tag_68\n      jump\t// in\n    tag_121:\n        /* \"#utility.yul\":1434:1490   */\n    tag_120:\n        /* \"#utility.yul\":1508:1537   */\n      tag_122\n        /* \"#utility.yul\":1530:1536   */\n      dup3\n        /* \"#utility.yul\":1508:1537   */\n      tag_67\n      jump\t// in\n    tag_122:\n        /* \"#utility.yul\":1500:1537   */\n      swap1\n      pop\n        /* \"#utility.yul\":1592:1596   */\n      0x20\n        /* \"#utility.yul\":1586:1590   */\n      dup2\n        /* \"#utility.yul\":1582:1597   */\n      add\n        /* \"#utility.yul\":1574:1597   */\n      swap1\n      pop\n        /* \"#utility.yul\":1296:1604   */\n      swap2\n      swap1\n      pop\n      jump\t// out\n        /* \"#utility.yul\":1610:1758   */\n    tag_72:\n        /* \"#utility.yul\":1708:1714   */\n      dup3\n        /* \"#utility.yul\":1703:1706   */\n      dup2\n        /* \"#utility.yul\":1698:1701   */\n      dup4\n        /* \"#utility.yul\":1685:1715   */\n      calldatacopy\n        /* \"#utility.yul\":1749:1750   */\n      0x00\n        /* \"#utility.yul\":1740:1746   */\n      dup4\n        /* \"#utility.yul\":1735:1738   */\n      dup4\n        /* \"#utility.yul\":1731:1747   */\n      add\n        /* \"#utility.yul\":1724:1751   */\n      mstore\n        /* \"#utility.yul\":1610:1758   */\n      pop\n      pop\n      pop\n      jump\t// out\n        /* \"#utility.yul\":1764:2189   */\n    tag_73:\n        /* \"#utility.yul\":1842:1847   */\n      0x00\n        /* \"#utility.yul\":1867:1933   */\n      tag_125\n        /* \"#utility.yul\":1883:1932   */\n      tag_126\n        /* \"#utility.yul\":1925:1931   */\n      dup5\n        /* \"#utility.yul\":1883:1932   */\n      tag_71\n      jump\t// in\n    tag_126:\n        /* \"#utility.yul\":1867:1933   */\n      tag_70\n      jump\t// in\n    tag_125:\n        /* \"#utility.yul\":1858:1933   */\n      swap1\n      pop\n        /* \"#utility.yul\":1956:1962   */\n      dup3\n        /* \"#utility.yul\":1949:1954   */\n      dup2\n        /* \"#utility.yul\":1942:1963   */\n      mstore\n        /* \"#utility.yul\":1994:1998   */\n      0x20\n        /* \"#utility.yul\":1987:1992   */\n      dup2\n        /* \"#utility.yul\":1983:1999   */\n      add\n        /* \"#utility.yul\":2032:2035   */\n      dup5\n        /* \"#utility.yul\":2023:2029   */\n      dup5\n        /* \"#utility.yul\":2018:2021   */\n      dup5\n        /* \"#utility.yul\":2014:2030   */\n      add\n        /* \"#utility.yul\":2011:2036   */\n      gt\n        /* \"#utility.yul\":2008:2120   */\n      iszero\n      tag_127\n      jumpi\n        /* \"#utility.yul\":2039:2118   */\n      tag_128\n      tag_66\n      jump\t// in\n    tag_128:\n        /* \"#utility.yul\":2008:2120   */\n    tag_127:\n        /* \"#utility.yul\":2129:2183   */\n      tag_129\n        /* \"#utility.yul\":2176:2182   */\n      dup5\n        /* \"#utility.yul\":2171:2174   */\n      dup3\n        /* \"#utility.yul\":2166:2169   */\n      dup6\n        /* \"#utility.yul\":2129:2183   */\n      tag_72\n      jump\t// in\n    tag_129:\n        /* \"#utility.yul\":1848:2189   */\n      pop\n        /* \"#utility.yul\":1764:2189   */\n      swap4\n      swap3\n      pop\n      pop\n      pop\n      jump\t// out\n        /* \"#utility.yul\":2209:2549   */\n    tag_74:\n        /* \"#utility.yul\":2265:2270   */\n      0x00\n        /* \"#utility.yul\":2314:2317   */\n      dup3\n        /* \"#utility.yul\":2307:2311   */\n      0x1f\n        /* \"#utility.yul\":2299:2305   */\n      dup4\n        /* \"#utility.yul\":2295:2312   */\n      add\n        /* \"#utility.yul\":2291:2318   */\n      slt\n        /* \"#utility.yul\":2281:2403   */\n      tag_131\n      jumpi\n        /* \"#utility.yul\":2322:2401   */\n      tag_132\n      tag_65\n      jump\t// in\n    tag_132:\n        /* \"#utility.yul\":2281:2403   */\n    tag_131:\n        /* \"#utility.yul\":2439:2445   */\n      dup2\n        /* \"#utility.yul\":2426:2446   */\n      calldataload\n        /* \"#utility.yul\":2464:2543   */\n      tag_133\n        /* \"#utility.yul\":2539:2542   */\n      dup5\n        /* \"#utility.yul\":2531:2537   */\n      dup3\n        /* \"#utility.yul\":2524:2528   */\n      0x20\n        /* \"#utility.yul\":2516:2522   */\n      dup7\n        /* \"#utility.yul\":2512:2529   */\n      add\n        /* \"#utility.yul\":2464:2543   */\n      tag_73\n      jump\t// in\n    tag_133:\n        /* \"#utility.yul\":2455:2543   */\n      swap2\n      pop\n        /* \"#utility.yul\":2271:2549   */\n      pop\n        /* \"#utility.yul\":2209:2549   */\n      swap3\n      swap2\n      pop\n      pop\n      jump\t// out\n        /* \"#utility.yul\":2555:3064   */\n    tag_10:\n        /* \"#utility.yul\":2624:2630   */\n      0x00\n        /* \"#utility.yul\":2673:2675   */\n      0x20\n        /* \"#utility.yul\":2661:2670   */\n      dup3\n        /* \"#utility.yul\":2652:2659   */\n      dup5\n        /* \"#utility.yul\":2648:2671   */\n      sub\n        /* \"#utility.yul\":2644:2676   */\n      slt\n        /* \"#utility.yul\":2641:2760   */\n      iszero\n      tag_135\n      jumpi\n        /* \"#utility.yul\":2679:2758   */\n      tag_136\n      tag_63\n      jump\t// in\n    tag_136:\n        /* \"#utility.yul\":2641:2760   */\n    tag_135:\n        /* \"#utility.yul\":2827:2828   */\n      0x00\n        /* \"#utility.yul\":2816:2825   */\n      dup3\n        /* \"#utility.yul\":2812:2829   */\n      add\n        /* \"#utility.yul\":2799:2830   */\n      calldataload\n        /* \"#utility.yul\":2857:2875   */\n      0xffffffffffffffff\n        /* \"#utility.yul\":2849:2855   */\n      dup2\n        /* \"#utility.yul\":2846:2876   */\n      gt\n        /* \"#utility.yul\":2843:2960   */\n      iszero\n      tag_137\n      jumpi\n        /* \"#utility.yul\":2879:2958   */\n      tag_138\n      tag_64\n      jump\t// in\n    tag_138:\n        /* \"#utility.yul\":2843:2960   */\n    tag_137:\n        /* \"#utility.yul\":2984:3047   */\n      tag_139\n        /* \"#utility.yul\":3039:3046   */\n      dup5\n        /* \"#utility.yul\":3030:3036   */\n      dup3\n        /* \"#utility.yul\":3019:3028   */\n      dup6\n        /* \"#utility.yul\":3015:3037   */\n      add\n        /* \"#utility.yul\":2984:3047   */\n      tag_74\n      jump\t// in\n    tag_139:\n        /* \"#utility.yul\":2974:3047   */\n      swap2\n      pop\n        /* \"#utility.yul\":2770:3057   */\n      pop\n        /* \"#utility.yul\":2555:3064   */\n      swap3\n      swap2\n      pop\n      pop\n      jump\t// out\n        /* \"#utility.yul\":3070:3163   */\n    tag_75:\n        /* \"#utility.yul\":3106:3113   */\n      0x00\n        /* \"#utility.yul\":3146:3156   */\n      0xffffffff\n        /* \"#utility.yul\":3139:3144   */\n      dup3\n        /* \"#utility.yul\":3135:3157   */\n      and\n        /* \"#utility.yul\":3124:3157   */\n      swap1\n      pop\n        /* \"#utility.yul\":3070:3163   */\n      swap2\n      swap1\n      pop\n      jump\t// out\n        /* \"#utility.yul\":3169:3284   */\n    tag_76:\n        /* \"#utility.yul\":3254:3277   */\n      tag_142\n        /* \"#utility.yul\":3271:3276   */\n      dup2\n        /* \"#utility.yul\":3254:3277   */\n      tag_75\n      jump\t// in\n    tag_142:\n        /* \"#utility.yul\":3249:3252   */\n      dup3\n        /* \"#utility.yul\":3242:3278   */\n      mstore\n        /* \"#utility.yul\":3169:3284   */\n      pop\n      pop\n      jump\t// out\n        /* \"#utility.yul\":3290:3508   */\n    tag_13:\n        /* \"#utility.yul\":3381:3385   */\n      0x00\n        /* \"#utility.yul\":3419:3421   */\n      0x20\n        /* \"#utility.yul\":3408:3417   */\n      dup3\n        /* \"#utility.yul\":3404:3422   */\n      add\n        /* \"#utility.yul\":3396:3422   */\n      swap1\n      pop\n        /* \"#utility.yul\":3432:3501   */\n      tag_144\n        /* \"#utility.yul\":3498:3499   */\n      0x00\n        /* \"#utility.yul\":3487:3496   */\n      dup4\n        /* \"#utility.yul\":3483:3500   */\n      add\n        /* \"#utility.yul\":3474:3480   */\n      dup5\n        /* \"#utility.yul\":3432:3501   */\n      tag_76\n      jump\t// in\n    tag_144:\n        /* \"#utility.yul\":3290:3508   */\n      swap3\n      swap2\n      pop\n      pop\n      jump\t// out\n        /* \"#utility.yul\":3514:3591   */\n    tag_77:\n        /* \"#utility.yul\":3551:3558   */\n      0x00\n        /* \"#utility.yul\":3580:3585   */\n      dup2\n        /* \"#utility.yul\":3569:3585   */\n      swap1\n      pop\n        /* \"#utility.yul\":3514:3591   */\n      swap2\n      swap1\n      pop\n      jump\t// out\n        /* \"#utility.yul\":3597:3719   */\n    tag_78:\n        /* \"#utility.yul\":3670:3694   */\n      tag_147\n        /* \"#utility.yul\":3688:3693   */\n      dup2\n        /* \"#utility.yul\":3670:3694   */\n      tag_77\n      jump\t// in\n    tag_147:\n        /* \"#utility.yul\":3663:3668   */\n      dup2\n        /* \"#utility.yul\":3660:3695   */\n      eq\n        /* \"#utility.yul\":3650:3713   */\n      tag_148\n      jumpi\n        /* \"#utility.yul\":3709:3710   */\n      0x00\n        /* \"#utility.yul\":3706:3707   */\n      0x00\n        /* \"#utility.yul\":3699:3711   */\n      revert\n        /* \"#utility.yul\":3650:3713   */\n    tag_148:\n        /* \"#utility.yul\":3597:3719   */\n      pop\n      jump\t// out\n        /* \"#utility.yul\":3725:3864   */\n    tag_79:\n        /* \"#utility.yul\":3771:3776   */\n      0x00\n        /* \"#utility.yul\":3809:3815   */\n      dup2\n        /* \"#utility.yul\":3796:3816   */\n      calldataload\n        /* \"#utility.yul\":3787:3816   */\n      swap1\n      pop\n        /* \"#utility.yul\":3825:3858   */\n      tag_150\n        /* \"#utility.yul\":3852:3857   */\n      dup2\n        /* \"#utility.yul\":3825:3858   */\n      tag_78\n      jump\t// in\n    tag_150:\n        /* \"#utility.yul\":3725:3864   */\n      swap3\n      swap2\n      pop\n      pop\n      jump\t// out\n        /* \"#utility.yul\":3870:4199   */\n    tag_24:\n        /* \"#utility.yul\":3929:3935   */\n      0x00\n        /* \"#utility.yul\":3978:3980   */\n      0x20\n        /* \"#utility.yul\":3966:3975   */\n      dup3\n        /* \"#utility.yul\":3957:3964   */\n      dup5\n        /* \"#utility.yul\":3953:3976   */\n      sub\n        /* \"#utility.yul\":3949:3981   */\n      slt\n        /* \"#utility.yul\":3946:4065   */\n      iszero\n      tag_152\n      jumpi\n        /* \"#utility.yul\":3984:4063   */\n      tag_153\n      tag_63\n      jump\t// in\n    tag_153:\n        /* \"#utility.yul\":3946:4065   */\n    tag_152:\n        /* \"#utility.yul\":4104:4105   */\n      0x00\n        /* \"#utility.yul\":4129:4182   */\n      tag_154\n        /* \"#utility.yul\":4174:4181   */\n      dup5\n        /* \"#utility.yul\":4165:4171   */\n      dup3\n        /* \"#utility.yul\":4154:4163   */\n      dup6\n        /* \"#utility.yul\":4150:4172   */\n      add\n        /* \"#utility.yul\":4129:4182   */\n      tag_79\n      jump\t// in\n    tag_154:\n        /* \"#utility.yul\":4119:4182   */\n      swap2\n      pop\n        /* \"#utility.yul\":4075:4192   */\n      pop\n        /* \"#utility.yul\":3870:4199   */\n      swap3\n      swap2\n      pop\n      pop\n      jump\t// out\n        /* \"#utility.yul\":4205:4304   */\n    tag_80:\n        /* \"#utility.yul\":4257:4263   */\n      0x00\n        /* \"#utility.yul\":4291:4296   */\n      dup2\n        /* \"#utility.yul\":4285:4297   */\n      mload\n        /* \"#utility.yul\":4275:4297   */\n      swap1\n      pop\n        /* \"#utility.yul\":4205:4304   */\n      swap2\n      swap1\n      pop\n      jump\t// out\n        /* \"#utility.yul\":4310:4479   */\n    tag_81:\n        /* \"#utility.yul\":4394:4405   */\n      0x00\n        /* \"#utility.yul\":4428:4434   */\n      dup3\n        /* \"#utility.yul\":4423:4426   */\n      dup3\n        /* \"#utility.yul\":4416:4435   */\n      mstore\n        /* \"#utility.yul\":4468:4472   */\n      0x20\n        /* \"#utility.yul\":4463:4466   */\n      dup3\n        /* \"#utility.yul\":4459:4473   */\n      add\n        /* \"#utility.yul\":4444:4473   */\n      swap1\n      pop\n        /* \"#utility.yul\":4310:4479   */\n      swap3\n      swap2\n      pop\n      pop\n      jump\t// out\n        /* \"#utility.yul\":4485:4624   */\n    tag_82:\n        /* \"#utility.yul\":4574:4580   */\n      dup3\n        /* \"#utility.yul\":4569:4572   */\n      dup2\n        /* \"#utility.yul\":4564:4567   */\n      dup4\n        /* \"#utility.yul\":4558:4581   */\n      mcopy\n        /* \"#utility.yul\":4615:4616   */\n      0x00\n        /* \"#utility.yul\":4606:4612   */\n      dup4\n        /* \"#utility.yul\":4601:4604   */\n      dup4\n        /* \"#utility.yul\":4597:4613   */\n      add\n        /* \"#utility.yul\":4590:4617   */\n      mstore\n        /* \"#utility.yul\":4485:4624   */\n      pop\n      pop\n      pop\n      jump\t// out\n        /* \"#utility.yul\":4630:5007   */\n    tag_83:\n        /* \"#utility.yul\":4718:4721   */\n      0x00\n        /* \"#utility.yul\":4746:4785   */\n      tag_159\n        /* \"#utility.yul\":4779:4784   */\n      dup3\n        /* \"#utility.yul\":4746:4785   */\n      tag_80\n      jump\t// in\n    tag_159:\n        /* \"#utility.yul\":4801:4872   */\n      tag_160\n        /* \"#utility.yul\":4865:4871   */\n      dup2\n        /* \"#utility.yul\":4860:4863   */\n      dup6\n        /* \"#utility.yul\":4801:4872   */\n      tag_81\n      jump\t// in\n    tag_160:\n        /* \"#utility.yul\":4794:4872   */\n      swap4\n      pop\n        /* \"#utility.yul\":4881:4946   */\n      tag_161\n        /* \"#utility.yul\":4939:4945   */\n      dup2\n        /* \"#utility.yul\":4934:4937   */\n      dup6\n        /* \"#utility.yul\":4927:4931   */\n      0x20\n        /* \"#utility.yul\":4920:4925   */\n      dup7\n        /* \"#utility.yul\":4916:4932   */\n      add\n        /* \"#utility.yul\":4881:4946   */\n      tag_82\n      jump\t// in\n    tag_161:\n        /* \"#utility.yul\":4971:5000   */\n      tag_162\n        /* \"#utility.yul\":4993:4999   */\n      dup2\n        /* \"#utility.yul\":4971:5000   */\n      tag_67\n      jump\t// in\n    tag_162:\n        /* \"#utility.yul\":4966:4969   */\n      dup5\n        /* \"#utility.yul\":4962:5001   */\n      add\n        /* \"#utility.yul\":4955:5001   */\n      swap2\n      pop\n        /* \"#utility.yul\":4722:5007   */\n      pop\n        /* \"#utility.yul\":4630:5007   */\n      swap3\n      swap2\n      pop\n      pop\n      jump\t// out\n        /* \"#utility.yul\":5013:5326   */\n    tag_27:\n        /* \"#utility.yul\":5126:5130   */\n      0x00\n        /* \"#utility.yul\":5164:5166   */\n      0x20\n        /* \"#utility.yul\":5153:5162   */\n      dup3\n        /* \"#utility.yul\":5149:5167   */\n      add\n        /* \"#utility.yul\":5141:5167   */\n      swap1\n      pop\n        /* \"#utility.yul\":5213:5222   */\n      dup2\n        /* \"#utility.yul\":5207:5211   */\n      dup2\n        /* \"#utility.yul\":5203:5223   */\n      sub\n        /* \"#utility.yul\":5199:5200   */\n      0x00\n        /* \"#utility.yul\":5188:5197   */\n      dup4\n        /* \"#utility.yul\":5184:5201   */\n      add\n        /* \"#utility.yul\":5177:5224   */\n      mstore\n        /* \"#utility.yul\":5241:5319   */\n      tag_164\n        /* \"#utility.yul\":5314:5318   */\n      dup2\n        /* \"#utility.yul\":5305:5311   */\n      dup5\n        /* \"#utility.yul\":5241:5319   */\n      tag_83\n      jump\t// in\n    tag_164:\n        /* \"#utility.yul\":5233:5319   */\n      swap1\n      pop\n        /* \"#utility.yul\":5013:5326   */\n      swap3\n      swap2\n      pop\n      pop\n      jump\t// out\n        /* \"#utility.yul\":5332:5480   */\n    tag_84:\n        /* \"#utility.yul\":5434:5445   */\n      0x00\n        /* \"#utility.yul\":5471:5474   */\n      dup2\n        /* \"#utility.yul\":5456:5474   */\n      swap1\n      pop\n        /* \"#utility.yul\":5332:5480   */\n      swap3\n      swap2\n      pop\n      pop\n      jump\t// out\n        /* \"#utility.yul\":5486:5876   */\n    tag_85:\n        /* \"#utility.yul\":5592:5595   */\n      0x00\n        /* \"#utility.yul\":5620:5659   */\n      tag_167\n        /* \"#utility.yul\":5653:5658   */\n      dup3\n        /* \"#utility.yul\":5620:5659   */\n      tag_80\n      jump\t// in\n    tag_167:\n        /* \"#utility.yul\":5675:5764   */\n      tag_168\n        /* \"#utility.yul\":5757:5763   */\n      dup2\n        /* \"#utility.yul\":5752:5755   */\n      dup6\n        /* \"#utility.yul\":5675:5764   */\n      tag_84\n      jump\t// in\n    tag_168:\n        /* \"#utility.yul\":5668:5764   */\n      swap4\n      pop\n        /* \"#utility.yul\":5773:5838   */\n      tag_169\n        /* \"#utility.yul\":5831:5837   */\n      dup2\n        /* \"#utility.yul\":5826:5829   */\n      dup6\n        /* \"#utility.yul\":5819:5823   */\n      0x20\n        /* \"#utility.yul\":5812:5817   */\n      dup7\n        /* \"#utility.yul\":5808:5824   */\n      add\n        /* \"#utility.yul\":5773:5838   */\n      tag_82\n      jump\t// in\n    tag_169:\n        /* \"#utility.yul\":5863:5869   */\n      dup1\n        /* \"#utility.yul\":5858:5861   */\n      dup5\n        /* \"#utility.yul\":5854:5870   */\n      add\n        /* \"#utility.yul\":5847:5870   */\n      swap2\n      pop\n        /* \"#utility.yul\":5596:5876   */\n      pop\n        /* \"#utility.yul\":5486:5876   */\n      swap3\n      swap2\n      pop\n      pop\n      jump\t// out\n        /* \"#utility.yul\":5882:6157   */\n    tag_34:\n        /* \"#utility.yul\":6014:6017   */\n      0x00\n        /* \"#utility.yul\":6036:6131   */\n      tag_171\n        /* \"#utility.yul\":6127:6130   */\n      dup3\n        /* \"#utility.yul\":6118:6124   */\n      dup5\n        /* \"#utility.yul\":6036:6131   */\n      tag_85\n      jump\t// in\n    tag_171:\n        /* \"#utility.yul\":6029:6131   */\n      swap2\n      pop\n        /* \"#utility.yul\":6148:6151   */\n      dup2\n        /* \"#utility.yul\":6141:6151   */\n      swap1\n      pop\n        /* \"#utility.yul\":5882:6157   */\n      swap3\n      swap2\n      pop\n      pop\n      jump\t// out\n        /* \"#utility.yul\":6163:6343   */\n    tag_41:\n        /* \"#utility.yul\":6211:6288   */\n      0x4e487b7100000000000000000000000000000000000000000000000000000000\n        /* \"#utility.yul\":6208:6209   */\n      0x00\n        /* \"#utility.yul\":6201:6289   */\n      mstore\n        /* \"#utility.yul\":6308:6312   */\n      0x32\n        /* \"#utility.yul\":6305:6306   */\n      0x04\n        /* \"#utility.yul\":6298:6313   */\n      mstore\n        /* \"#utility.yul\":6332:6336   */\n      0x24\n        /* \"#utility.yul\":6329:6330   */\n      0x00\n        /* \"#utility.yul\":6322:6337   */\n      revert\n        /* \"#utility.yul\":6349:6529   */\n    tag_86:\n        /* \"#utility.yul\":6397:6474   */\n      0x4e487b7100000000000000000000000000000000000000000000000000000000\n        /* \"#utility.yul\":6394:6395   */\n      0x00\n        /* \"#utility.yul\":6387:6475   */\n      mstore\n        /* \"#utility.yul\":6494:6498   */\n      0x22\n        /* \"#utility.yul\":6491:6492   */\n      0x04\n        /* \"#utility.yul\":6484:6499   */\n      mstore\n        /* \"#utility.yul\":6518:6522   */\n      0x24\n        /* \"#utility.yul\":6515:6516   */\n      0x00\n        /* \"#utility.yul\":6508:6523   */\n      revert\n        /* \"#utility.yul\":6535:6855   */\n    tag_48:\n        /* \"#utility.yul\":6579:6585   */\n      0x00\n        /* \"#utility.yul\":6616:6617   */\n      0x02\n        /* \"#utility.yul\":6610:6614   */\n      dup3\n        /* \"#utility.yul\":6606:6618   */\n      div\n        /* \"#utility.yul\":6596:6618   */\n      swap1\n      pop\n        /* \"#utility.yul\":6663:6664   */\n      0x01\n        /* \"#utility.yul\":6657:6661   */\n      dup3\n        /* \"#utility.yul\":6653:6665   */\n      and\n        /* \"#utility.yul\":6684:6702   */\n      dup1\n        /* \"#utility.yul\":6674:6755   */\n      tag_175\n      jumpi\n        /* \"#utility.yul\":6740:6744   */\n      0x7f\n        /* \"#utility.yul\":6732:6738   */\n      dup3\n        /* \"#utility.yul\":6728:6745   */\n      and\n        /* \"#utility.yul\":6718:6745   */\n      swap2\n      pop\n        /* \"#utility.yul\":6674:6755   */\n    tag_175:\n        /* \"#utility.yul\":6802:6804   */\n      0x20\n        /* \"#utility.yul\":6794:6800   */\n      dup3\n        /* \"#utility.yul\":6791:6805   */\n      lt\n        /* \"#utility.yul\":6771:6789   */\n      dup2\n        /* \"#utility.yul\":6768:6806   */\n      sub\n        /* \"#utility.yul\":6765:6849   */\n      tag_176\n      jumpi\n        /* \"#utility.yul\":6821:6839   */\n      tag_177\n      tag_86\n      jump\t// in\n    tag_177:\n        /* \"#utility.yul\":6765:6849   */\n    tag_176:\n        /* \"#utility.yul\":6586:6855   */\n      pop\n        /* \"#utility.yul\":6535:6855   */\n      swap2\n      swap1\n      pop\n      jump\t// out\n        /* \"#utility.yul\":6861:7002   */\n    tag_87:\n        /* \"#utility.yul\":6910:6914   */\n      0x00\n        /* \"#utility.yul\":6933:6936   */\n      dup2\n        /* \"#utility.yul\":6925:6936   */\n      swap1\n      pop\n        /* \"#utility.yul\":6956:6959   */\n      dup2\n        /* \"#utility.yul\":6953:6954   */\n      0x00\n        /* \"#utility.yul\":6946:6960   */\n      mstore\n        /* \"#utility.yul\":6990:6994   */\n      0x20\n        /* \"#utility.yul\":6987:6988   */\n      0x00\n        /* \"#utility.yul\":6977:6995   */\n      keccak256\n        /* \"#utility.yul\":6969:6995   */\n      swap1\n      pop\n        /* \"#utility.yul\":6861:7002   */\n      swap2\n      swap1\n      pop\n      jump\t// out\n        /* \"#utility.yul\":7032:7906   */\n    tag_88:\n        /* \"#utility.yul\":7135:7138   */\n      0x00\n        /* \"#utility.yul\":7172:7177   */\n      dup2\n        /* \"#utility.yul\":7166:7178   */\n      sload\n        /* \"#utility.yul\":7201:7237   */\n      tag_180\n        /* \"#utility.yul\":7227:7236   */\n      dup2\n        /* \"#utility.yul\":7201:7237   */\n      tag_48\n      jump\t// in\n    tag_180:\n        /* \"#utility.yul\":7253:7342   */\n      tag_181\n        /* \"#utility.yul\":7335:7341   */\n      dup2\n        /* \"#utility.yul\":7330:7333   */\n      dup7\n        /* \"#utility.yul\":7253:7342   */\n      tag_84\n      jump\t// in\n    tag_181:\n        /* \"#utility.yul\":7246:7342   */\n      swap5\n      pop\n        /* \"#utility.yul\":7373:7374   */\n      0x01\n        /* \"#utility.yul\":7362:7371   */\n      dup3\n        /* \"#utility.yul\":7358:7375   */\n      and\n        /* \"#utility.yul\":7389:7390   */\n      0x00\n        /* \"#utility.yul\":7384:7550   */\n      dup2\n      eq\n      tag_183\n      jumpi\n        /* \"#utility.yul\":7564:7565   */\n      0x01\n        /* \"#utility.yul\":7559:7900   */\n      dup2\n      eq\n      tag_184\n      jumpi\n        /* \"#utility.yul\":7351:7900   */\n      jump(tag_182)\n        /* \"#utility.yul\":7384:7550   */\n    tag_183:\n        /* \"#utility.yul\":7468:7472   */\n      0xff\n        /* \"#utility.yul\":7464:7473   */\n      not\n        /* \"#utility.yul\":7453:7462   */\n      dup4\n        /* \"#utility.yul\":7449:7474   */\n      and\n        /* \"#utility.yul\":7444:7447   */\n      dup7\n        /* \"#utility.yul\":7437:7475   */\n      mstore\n        /* \"#utility.yul\":7530:7536   */\n      dup2\n        /* \"#utility.yul\":7523:7537   */\n      iszero\n        /* \"#utility.yul\":7516:7538   */\n      iszero\n        /* \"#utility.yul\":7508:7514   */\n      dup3\n        /* \"#utility.yul\":7504:7539   */\n      mul\n        /* \"#utility.yul\":7499:7502   */\n      dup7\n        /* \"#utility.yul\":7495:7540   */\n      add\n        /* \"#utility.yul\":7488:7540   */\n      swap4\n      pop\n        /* \"#utility.yul\":7384:7550   */\n      jump(tag_182)\n        /* \"#utility.yul\":7559:7900   */\n    tag_184:\n        /* \"#utility.yul\":7626:7664   */\n      tag_185\n        /* \"#utility.yul\":7658:7663   */\n      dup6\n        /* \"#utility.yul\":7626:7664   */\n      tag_87\n      jump\t// in\n    tag_185:\n        /* \"#utility.yul\":7686:7687   */\n      0x00\n        /* \"#utility.yul\":7700:7854   */\n    tag_186:\n        /* \"#utility.yul\":7714:7720   */\n      dup4\n        /* \"#utility.yul\":7711:7712   */\n      dup2\n        /* \"#utility.yul\":7708:7721   */\n      lt\n        /* \"#utility.yul\":7700:7854   */\n      iszero\n      tag_188\n      jumpi\n        /* \"#utility.yul\":7788:7795   */\n      dup2\n        /* \"#utility.yul\":7782:7796   */\n      sload\n        /* \"#utility.yul\":7778:7779   */\n      dup2\n        /* \"#utility.yul\":7773:7776   */\n      dup10\n        /* \"#utility.yul\":7769:7780   */\n      add\n        /* \"#utility.yul\":7762:7797   */\n      mstore\n        /* \"#utility.yul\":7838:7839   */\n      0x01\n        /* \"#utility.yul\":7829:7836   */\n      dup3\n        /* \"#utility.yul\":7825:7840   */\n      add\n        /* \"#utility.yul\":7814:7840   */\n      swap2\n      pop\n        /* \"#utility.yul\":7736:7740   */\n      0x20\n        /* \"#utility.yul\":7733:7734   */\n      dup2\n        /* \"#utility.yul\":7729:7741   */\n      add\n        /* \"#utility.yul\":7724:7741   */\n      swap1\n      pop\n        /* \"#utility.yul\":7700:7854   */\n      jump(tag_186)\n    tag_188:\n        /* \"#utility.yul\":7883:7889   */\n      dup4\n        /* \"#utility.yul\":7878:7881   */\n      dup9\n        /* \"#utility.yul\":7874:7890   */\n      add\n        /* \"#utility.yul\":7867:7890   */\n      swap6\n      pop\n        /* \"#utility.yul\":7566:7900   */\n      pop\n      pop\n        /* \"#utility.yul\":7351:7900   */\n    tag_182:\n      pop\n        /* \"#utility.yul\":7139:7906   */\n      pop\n      pop\n        /* \"#utility.yul\":7032:7906   */\n      swap3\n      swap2\n      pop\n      pop\n      jump\t// out\n        /* \"#utility.yul\":7912:8181   */\n    tag_44:\n        /* \"#utility.yul\":8041:8044   */\n      0x00\n        /* \"#utility.yul\":8063:8155   */\n      tag_190\n        /* \"#utility.yul\":8151:8154   */\n      dup3\n        /* \"#utility.yul\":8142:8148   */\n      dup5\n        /* \"#utility.yul\":8063:8155   */\n      tag_88\n      jump\t// in\n    tag_190:\n        /* \"#utility.yul\":8056:8155   */\n      swap2\n      pop\n        /* \"#utility.yul\":8172:8175   */\n      dup2\n        /* \"#utility.yul\":8165:8175   */\n      swap1\n      pop\n        /* \"#utility.yul\":7912:8181   */\n      swap3\n      swap2\n      pop\n      pop\n      jump\t// out\n        /* \"#utility.yul\":8187:8280   */\n    tag_89:\n        /* \"#utility.yul\":8224:8230   */\n      0x00\n        /* \"#utility.yul\":8271:8273   */\n      0x20\n        /* \"#utility.yul\":8266:8268   */\n      0x1f\n        /* \"#utility.yul\":8259:8264   */\n      dup4\n        /* \"#utility.yul\":8255:8269   */\n      add\n        /* \"#utility.yul\":8251:8274   */\n      div\n        /* \"#utility.yul\":8241:8274   */\n      swap1\n      pop\n        /* \"#utility.yul\":8187:8280   */\n      swap2\n      swap1\n      pop\n      jump\t// out\n        /* \"#utility.yul\":8286:8393   */\n    tag_90:\n        /* \"#utility.yul\":8330:8338   */\n      0x00\n        /* \"#utility.yul\":8380:8385   */\n      dup3\n        /* \"#utility.yul\":8374:8378   */\n      dup3\n        /* \"#utility.yul\":8370:8386   */\n      shl\n        /* \"#utility.yul\":8349:8386   */\n      swap1\n      pop\n        /* \"#utility.yul\":8286:8393   */\n      swap3\n      swap2\n      pop\n      pop\n      jump\t// out\n        /* \"#utility.yul\":8399:8792   */\n    tag_91:\n        /* \"#utility.yul\":8468:8474   */\n      0x00\n        /* \"#utility.yul\":8518:8519   */\n      0x08\n        /* \"#utility.yul\":8506:8516   */\n      dup4\n        /* \"#utility.yul\":8502:8520   */\n      mul\n        /* \"#utility.yul\":8541:8638   */\n      tag_194\n        /* \"#utility.yul\":8571:8637   */\n      0xffffffffffffffffffffffffffffffffffffffffffffffffffffffffffffffff\n        /* \"#utility.yul\":8560:8569   */\n      dup3\n        /* \"#utility.yul\":8541:8638   */\n      tag_90\n      jump\t// in\n    tag_194:\n        /* \"#utility.yul\":8659:8698   */\n      tag_195\n        /* \"#utility.yul\":8689:8697   */\n      dup7\n        /* \"#utility.yul\":8678:8687   */\n      dup4\n        /* \"#utility.yul\":8659:8698   */\n      tag_90\n      jump\t// in\n    tag_195:\n        /* \"#utility.yul\":8647:8698   */\n      swap6\n      pop\n        /* \"#utility.yul\":8731:8735   */\n      dup1\n        /* \"#utility.yul\":8727:8736   */\n      not\n        /* \"#utility.yul\":8720:8725   */\n      dup5\n        /* \"#utility.yul\":8716:8737   */\n      and\n        /* \"#utility.yul\":8707:8737   */\n      swap4\n      pop\n        /* \"#utility.yul\":8780:8784   */\n      dup1\n        /* \"#utility.yul\":8770:8778   */\n      dup7\n        /* \"#utility.yul\":8766:8785   */\n      and\n        /* \"#utility.yul\":8759:8764   */\n      dup5\n        /* \"#utility.yul\":8756:8786   */\n      or\n        /* \"#utility.yul\":8746:8786   */\n      swap3\n      pop\n        /* \"#utility.yul\":8475:8792   */\n      pop\n      pop\n        /* \"#utility.yul\":8399:8792   */\n      swap4\n      swap3\n      pop\n      pop\n      pop\n      jump\t// out\n        /* \"#utility.yul\":8798:8858   */\n    tag_92:\n        /* \"#utility.yul\":8826:8829   */\n      0x00\n        /* \"#utility.yul\":8847:8852   */\n      dup2\n        /* \"#utility.yul\":8840:8852   */\n      swap1\n      pop\n        /* \"#utility.yul\":8798:8858   */\n      swap2\n      swap1\n      pop\n      jump\t// out\n        /* \"#utility.yul\":8864:9006   */\n    tag_93:\n        /* \"#utility.yul\":8914:8923   */\n      0x00\n        /* \"#utility.yul\":8947:9000   */\n      tag_198\n        /* \"#utility.yul\":8965:8999   */\n      tag_199\n        /* \"#utility.yul\":8974:8998   */\n      tag_200\n        /* \"#utility.yul\":8992:8997   */\n      dup5\n        /* \"#utility.yul\":8974:8998   */\n      tag_77\n      jump\t// in\n    tag_200:\n        /* \"#utility.yul\":8965:8999   */\n      tag_92\n      jump\t// in\n    tag_199:\n        /* \"#utility.yul\":8947:9000   */\n      tag_77\n      jump\t// in\n    tag_198:\n        /* \"#utility.yul\":8934:9000   */\n      swap1\n      pop\n        /* \"#utility.yul\":8864:9006   */\n      swap2\n      swap1\n      pop\n      jump\t// out\n        /* \"#utility.yul\":9012:9087   */\n    tag_94:\n        /* \"#utility.yul\":9055:9058   */\n      0x00\n        /* \"#utility.yul\":9076:9081   */\n      dup2\n        /* \"#utility.yul\":9069:9081   */\n      swap1\n      pop\n        /* \"#utility.yul\":9012:9087   */\n      swap2\n      swap1\n      pop\n      jump\t// out\n        /* \"#utility.yul\":9093:9362   */\n    tag_95:\n        /* \"#utility.yul\":9203:9242   */\n      tag_203\n        /* \"#utility.yul\":9234:9241   */\n      dup4\n        /* \"#utility.yul\":9203:9242   */\n      tag_93\n      jump\t// in\n    tag_203:\n        /* \"#utility.yul\":9264:9355   */\n      tag_204\n        /* \"#utility.yul\":9313:9354   */\n      tag_205\n        /* \"#utility.yul\":9337:9353   */\n      dup3\n        /* \"#utility.yul\":9313:9354   */\n      tag_94\n      jump\t// in\n    tag_205:\n        /* \"#utility.yul\":9305:9311   */\n      dup5\n        /* \"#utility.yul\":9298:9302   */\n      dup5\n        /* \"#utility.yul\":9292:9303   */\n      sload\n        /* \"#utility.yul\":9264:9355   */\n      tag_91\n      jump\t// in\n    tag_204:\n        /* \"#utility.yul\":9258:9262   */\n      dup3\n        /* \"#utility.yul\":9251:9356   */\n      sstore\n        /* \"#utility.yul\":9169:9362   */\n      pop\n        /* \"#utility.yul\":9093:9362   */\n      pop\n      pop\n      pop\n      jump\t// out\n        /* \"#utility.yul\":9368:9441   */\n    tag_96:\n        /* \"#utility.yul\":9413:9416   */\n      0x00\n        /* \"#utility.yul\":9434:9435   */\n      0x00\n        /* \"#utility.yul\":9427:9435   */\n      swap1\n      pop\n        /* \"#utility.yul\":9368:9441   */\n      swap1\n      jump\t// out\n        /* \"#utility.yul\":9447:9636   */\n    tag_97:\n        /* \"#utility.yul\":9524:9556   */\n      tag_208\n      tag_96\n      jump\t// in\n    tag_208:\n        /* \"#utility.yul\":9565:9630   */\n      tag_209\n        /* \"#utility.yul\":9623:9629   */\n      dup2\n        /* \"#utility.yul\":9615:9621   */\n      dup5\n        /* \"#utility.yul\":9609:9613   */\n      dup5\n        /* \"#utility.yul\":9565:9630   */\n      tag_95\n      jump\t// in\n    tag_209:\n        /* \"#utility.yul\":9500:9636   */\n      pop\n        /* \"#utility.yul\":9447:9636   */\n      pop\n      pop\n      jump\t// out\n        /* \"#utility.yul\":9642:9828   */\n    tag_98:\n        /* \"#utility.yul\":9702:9822   */\n    tag_211:\n        /* \"#utility.yul\":9719:9722   */\n      dup2\n        /* \"#utility.yul\":9712:9717   */\n      dup2\n        /* \"#utility.yul\":9709:9723   */\n      lt\n        /* \"#utility.yul\":9702:9822   */\n      iszero\n      tag_213\n      jumpi\n        /* \"#utility.yul\":9773:9812   */\n      tag_214\n        /* \"#utility.yul\":9810:9811   */\n      0x00\n        /* \"#utility.yul\":9803:9808   */\n      dup3\n        /* \"#utility.yul\":9773:9812   */\n      tag_97\n      jump\t// in\n    tag_214:\n        /* \"#utility.yul\":9746:9747   */\n      0x01\n        /* \"#utility.yul\":9739:9744   */\n      dup2\n        /* \"#utility.yul\":9735:9748   */\n      add\n        /* \"#utility.yul\":9726:9748   */\n      swap1\n      pop\n        /* \"#utility.yul\":9702:9822   */\n      jump(tag_211)\n    tag_213:\n        /* \"#utility.yul\":9642:9828   */\n      pop\n      pop\n      jump\t// out\n        /* \"#utility.yul\":9834:10377   */\n    tag_99:\n        /* \"#utility.yul\":9935:9937   */\n      0x1f\n        /* \"#utility.yul\":9930:9933   */\n      dup3\n        /* \"#utility.yul\":9927:9938   */\n      gt\n        /* \"#utility.yul\":9924:10370   */\n      iszero\n      tag_216\n      jumpi\n        /* \"#utility.yul\":9969:10007   */\n      tag_217\n        /* \"#utility.yul\":10001:10006   */\n      dup2\n        /* \"#utility.yul\":9969:10007   */\n      tag_87\n      jump\t// in\n    tag_217:\n        /* \"#utility.yul\":10053:10082   */\n      tag_218\n        /* \"#utility.yul\":10071:10081   */\n      dup5\n        /* \"#utility.yul\":10053:10082   */\n      tag_89\n      jump\t// in\n    tag_218:\n        /* \"#utility.yul\":10043:10051   */\n      dup2\n        /* \"#utility.yul\":10039:10083   */\n      add\n        /* \"#utility.yul\":10236:10238   */\n      0x20\n        /* \"#utility.yul\":10224:10234   */\n      dup6\n        /* \"#utility.yul\":10221:10239   */\n      lt\n        /* \"#utility.yul\":10218:10267   */\n      iszero\n      tag_219\n      jumpi\n        /* \"#utility.yul\":10257:10265   */\n      dup2\n        /* \"#utility.yul\":10242:10265   */\n      swap1\n      pop\n        /* \"#utility.yul\":10218:10267   */\n    tag_219:\n        /* \"#utility.yul\":10280:10360   */\n      tag_220\n        /* \"#utility.yul\":10336:10358   */\n      tag_221\n        /* \"#utility.yul\":10354:10357   */\n      dup6\n        /* \"#utility.yul\":10336:10358   */\n      tag_89\n      jump\t// in\n    tag_221:\n        /* \"#utility.yul\":10326:10334   */\n      dup4\n        /* \"#utility.yul\":10322:10359   */\n      add\n        /* \"#utility.yul\":10309:10320   */\n      dup3\n        /* \"#utility.yul\":10280:10360   */\n      tag_98\n      jump\t// in\n    tag_220:\n        /* \"#utility.yul\":9939:10370   */\n      pop\n      pop\n        /* \"#utility.yul\":9924:10370   */\n    tag_216:\n        /* \"#utility.yul\":9834:10377   */\n      pop\n      pop\n      pop\n      jump\t// out\n        /* \"#utility.yul\":10383:10500   */\n    tag_100:\n        /* \"#utility.yul\":10437:10445   */\n      0x00\n        /* \"#utility.yul\":10487:10492   */\n      dup3\n        /* \"#utility.yul\":10481:10485   */\n      dup3\n        /* \"#utility.yul\":10477:10493   */\n      shr\n        /* \"#utility.yul\":10456:10493   */\n      swap1\n      pop\n        /* \"#utility.yul\":10383:10500   */\n      swap3\n      swap2\n      pop\n      pop\n      jump\t// out\n        /* \"#utility.yul\":10506:10675   */\n    tag_101:\n        /* \"#utility.yul\":10550:10556   */\n      0x00\n        /* \"#utility.yul\":10583:10634   */\n      tag_224\n        /* \"#utility.yul\":10631:10632   */\n      0x00\n        /* \"#utility.yul\":10627:10633   */\n      not\n        /* \"#utility.yul\":10619:10624   */\n      dup5\n        /* \"#utility.yul\":10616:10617   */\n      0x08\n        /* \"#utility.yul\":10612:10625   */\n      mul\n        /* \"#utility.yul\":10583:10634   */\n      tag_100\n      jump\t// in\n    tag_224:\n        /* \"#utility.yul\":10579:10635   */\n      not\n        /* \"#utility.yul\":10664:10668   */\n      dup1\n        /* \"#utility.yul\":10658:10662   */\n      dup4\n        /* \"#utility.yul\":10654:10669   */\n      and\n        /* \"#utility.yul\":10644:10669   */\n      swap2\n      pop\n        /* \"#utility.yul\":10557:10675   */\n      pop\n        /* \"#utility.yul\":10506:10675   */\n      swap3\n      swap2\n      pop\n      pop\n      jump\t// out\n        /* \"#utility.yul\":10680:10975   */\n    tag_102:\n        /* \"#utility.yul\":10756:10760   */\n      0x00\n        /* \"#utility.yul\":10902:10931   */\n      tag_226\n        /* \"#utility.yul\":10927:10930   */\n      dup4\n        /* \"#utility.yul\":10921:10925   */\n      dup4\n        /* \"#utility.yul\":10902:10931   */\n      tag_101\n      jump\t// in\n    tag_226:\n        /* \"#utility.yul\":10894:10931   */\n      swap2\n      pop\n        /* \"#utility.yul\":10964:10967   */\n      dup3\n        /* \"#utility.yul\":10961:10962   */\n      0x02\n        /* \"#utility.yul\":10957:10968   */\n      mul\n        /* \"#utility.yul\":10951:10955   */\n      dup3\n        /* \"#utility.yul\":10948:10969   */\n      or\n        /* \"#utility.yul\":10940:10969   */\n      swap1\n      pop\n        /* \"#utility.yul\":10680:10975   */\n      swap3\n      swap2\n      pop\n      pop\n      jump\t// out\n        /* \"#utility.yul\":10980:12375   */\n    tag_58:\n        /* \"#utility.yul\":11097:11134   */\n      tag_228\n        /* \"#utility.yul\":11130:11133   */\n      dup3\n        /* \"#utility.yul\":11097:11134   */\n      tag_80\n      jump\t// in\n    tag_228:\n        /* \"#utility.yul\":11199:11217   */\n      0xffffffffffffffff\n        /* \"#utility.yul\":11191:11197   */\n      dup2\n        /* \"#utility.yul\":11188:11218   */\n      gt\n        /* \"#utility.yul\":11185:11241   */\n      iszero\n      tag_229\n      jumpi\n        /* \"#utility.yul\":11221:11239   */\n      tag_230\n      tag_68\n      jump\t// in\n    tag_230:\n        /* \"#utility.yul\":11185:11241   */\n    tag_229:\n        /* \"#utility.yul\":11265:11303   */\n      tag_231\n        /* \"#utility.yul\":11297:11301   */\n      dup3\n        /* \"#utility.yul\":11291:11302   */\n      sload\n        /* \"#utility.yul\":11265:11303   */\n      tag_48\n      jump\t// in\n    tag_231:\n        /* \"#utility.yul\":11350:11417   */\n      tag_232\n        /* \"#utility.yul\":11410:11416   */\n      dup3\n        /* \"#utility.yul\":11402:11408   */\n      dup3\n        /* \"#utility.yul\":11396:11400   */\n      dup6\n        /* \"#utility.yul\":11350:11417   */\n      tag_99\n      jump\t// in\n    tag_232:\n        /* \"#utility.yul\":11444:11445   */\n      0x00\n        /* \"#utility.yul\":11468:11472   */\n      0x20\n        /* \"#utility.yul\":11455:11472   */\n      swap1\n      pop\n        /* \"#utility.yul\":11500:11502   */\n      0x1f\n        /* \"#utility.yul\":11492:11498   */\n      dup4\n        /* \"#utility.yul\":11489:11503   */\n      gt\n        /* \"#utility.yul\":11517:11518   */\n      0x01\n        /* \"#utility.yul\":11512:12130   */\n      dup2\n      eq\n      tag_234\n      jumpi\n        /* \"#utility.yul\":12174:12175   */\n      0x00\n        /* \"#utility.yul\":12191:12197   */\n      dup5\n        /* \"#utility.yul\":12188:12265   */\n      iszero\n      tag_235\n      jumpi\n        /* \"#utility.yul\":12240:12249   */\n      dup3\n        /* \"#utility.yul\":12235:12238   */\n      dup8\n        /* \"#utility.yul\":12231:12250   */\n      add\n        /* \"#utility.yul\":12225:12251   */\n      mload\n        /* \"#utility.yul\":12216:12251   */\n      swap1\n      pop\n        /* \"#utility.yul\":12188:12265   */\n    tag_235:\n        /* \"#utility.yul\":12291:12358   */\n      tag_236\n        /* \"#utility.yul\":12351:12357   */\n      dup6\n        /* \"#utility.yul\":12344:12349   */\n      dup3\n        /* \"#utility.yul\":12291:12358   */\n      tag_102\n      jump\t// in\n    tag_236:\n        /* \"#utility.yul\":12285:12289   */\n      dup7\n        /* \"#utility.yul\":12278:12359   */\n      sstore\n        /* \"#utility.yul\":12147:12369   */\n      pop\n        /* \"#utility.yul\":11482:12369   */\n      jump(tag_233)\n        /* \"#utility.yul\":11512:12130   */\n    tag_234:\n        /* \"#utility.yul\":11564:11568   */\n      0x1f\n        /* \"#utility.yul\":11560:11569   */\n      not\n        /* \"#utility.yul\":11552:11558   */\n      dup5\n        /* \"#utility.yul\":11548:11570   */\n      and\n        /* \"#utility.yul\":11598:11635   */\n      tag_237\n        /* \"#utility.yul\":11630:11634   */\n      dup7\n        /* \"#utility.yul\":11598:11635   */\n      tag_87\n      jump\t// in\n    tag_237:\n        /* \"#utility.yul\":11657:11658   */\n      0x00\n        /* \"#utility.yul\":11671:11879   */\n    tag_238:\n        /* \"#utility.yul\":11685:11692   */\n      dup3\n        /* \"#utility.yul\":11682:11683   */\n      dup2\n        /* \"#utility.yul\":11679:11693   */\n      lt\n        /* \"#utility.yul\":11671:11879   */\n      iszero\n      tag_240\n      jumpi\n        /* \"#utility.yul\":11764:11773   */\n      dup5\n        /* \"#utility.yul\":11759:11762   */\n      dup10\n        /* \"#utility.yul\":11755:11774   */\n      add\n        /* \"#utility.yul\":11749:11775   */\n      mload\n        /* \"#utility.yul\":11741:11747   */\n      dup3\n        /* \"#utility.yul\":11734:11776   */\n      sstore\n        /* \"#utility.yul\":11815:11816   */\n      0x01\n        /* \"#utility.yul\":11807:11813   */\n      dup3\n        /* \"#utility.yul\":11803:11817   */\n      add\n        /* \"#utility.yul\":11793:11817   */\n      swap2\n      pop\n        /* \"#utility.yul\":11862:11864   */\n      0x20\n        /* \"#utility.yul\":11851:11860   */\n      dup6\n        /* \"#utility.yul\":11847:11865   */\n      add\n        /* \"#utility.yul\":11834:11865   */\n      swap5\n      pop\n        /* \"#utility.yul\":11708:11712   */\n      0x20\n        /* \"#utility.yul\":11705:11706   */\n      dup2\n        /* \"#utility.yul\":11701:11713   */\n      add\n        /* \"#utility.yul\":11696:11713   */\n      swap1\n      pop\n        /* \"#utility.yul\":11671:11879   */\n      jump(tag_238)\n    tag_240:\n        /* \"#utility.yul\":11907:11913   */\n      dup7\n        /* \"#utility.yul\":11898:11905   */\n      dup4\n        /* \"#utility.yul\":11895:11914   */\n      lt\n        /* \"#utility.yul\":11892:12071   */\n      iszero\n      tag_241\n      jumpi\n        /* \"#utility.yul\":11965:11974   */\n      dup5\n        /* \"#utility.yul\":11960:11963   */\n      dup10\n        /* \"#utility.yul\":11956:11975   */\n      add\n        /* \"#utility.yul\":11950:11976   */\n      mload\n        /* \"#utility.yul\":12008:12056   */\n      tag_242\n        /* \"#utility.yul\":12050:12054   */\n      0x1f\n        /* \"#utility.yul\":12042:12048   */\n      dup10\n        /* \"#utility.yul\":12038:12055   */\n      and\n        /* \"#utility.yul\":12027:12036   */\n      dup3\n        /* \"#utility.yul\":12008:12056   */\n      tag_101\n      jump\t// in\n    tag_242:\n        /* \"#utility.yul\":12000:12006   */\n      dup4\n        /* \"#utility.yul\":11993:12057   */\n      sstore\n        /* \"#utility.yul\":11915:12071   */\n      pop\n        /* \"#utility.yul\":11892:12071   */\n    tag_241:\n        /* \"#utility.yul\":12117:12118   */\n      0x01\n        /* \"#utility.yul\":12113:12114   */\n      0x02\n        /* \"#utility.yul\":12105:12111   */\n      dup9\n        /* \"#utility.yul\":12101:12115   */\n      mul\n        /* \"#utility.yul\":12097:12119   */\n      add\n        /* \"#utility.yul\":12091:12095   */\n      dup9\n        /* \"#utility.yul\":12084:12120   */\n      sstore\n        /* \"#utility.yul\":11519:12130   */\n      pop\n      pop\n      pop\n        /* \"#utility.yul\":11482:12369   */\n    tag_233:\n      pop\n        /* \"#utility.yul\":11072:12375   */\n      pop\n      pop\n      pop\n        /* \"#utility.yul\":10980:12375   */\n      pop\n      pop\n      jump\t// out\n        /* \"#utility.yul\":12381:12561   */\n    tag_103:\n        /* \"#utility.yul\":12429:12506   */\n      0x4e487b7100000000000000000000000000000000000000000000000000000000\n        /* \"#utility.yul\":12426:12427   */\n      0x00\n        /* \"#utility.yul\":12419:12507   */\n      mstore\n        /* \"#utility.yul\":12526:12530   */\n      0x11\n        /* \"#utility.yul\":12523:12524   */\n      0x04\n        /* \"#utility.yul\":12516:12531   */\n      mstore\n        /* \"#utility.yul\":12550:12554   */\n      0x24\n        /* \"#utility.yul\":12547:12548   */\n      0x00\n        /* \"#utility.yul\":12540:12555   */\n      revert\n        /* \"#utility.yul\":12567:12764   */\n    tag_61:\n        /* \"#utility.yul\":12606:12609   */\n      0x00\n        /* \"#utility.yul\":12625:12644   */\n      tag_245\n        /* \"#utility.yul\":12642:12643   */\n      dup3\n        /* \"#utility.yul\":12625:12644   */\n      tag_75\n      jump\t// in\n    tag_245:\n        /* \"#utility.yul\":12620:12644   */\n      swap2\n      pop\n        /* \"#utility.yul\":12658:12677   */\n      tag_246\n        /* \"#utility.yul\":12675:12676   */\n      dup4\n        /* \"#utility.yul\":12658:12677   */\n      tag_75\n      jump\t// in\n    tag_246:\n        /* \"#utility.yul\":12653:12677   */\n      swap3\n      pop\n        /* \"#utility.yul\":12700:12701   */\n      dup3\n        /* \"#utility.yul\":12697:12698   */\n      dup3\n        /* \"#utility.yul\":12693:12702   */\n      add\n        /* \"#utility.yul\":12686:12702   */\n      swap1\n      pop\n        /* \"#utility.yul\":12723:12733   */\n      0xffffffff\n        /* \"#utility.yul\":12718:12721   */\n      dup2\n        /* \"#utility.yul\":12715:12734   */\n      gt\n        /* \"#utility.yul\":12712:12757   */\n      iszero\n      tag_247\n      jumpi\n        /* \"#utility.yul\":12737:12755   */\n      tag_248\n      tag_103\n      jump\t// in\n    tag_248:\n        /* \"#utility.yul\":12712:12757   */\n    tag_247:\n        /* \"#utility.yul\":12567:12764   */\n      swap3\n      swap2\n      pop\n      pop\n      jump\t// out\n\n    auxdata: 0xa26469706673582212207704e11117922f91926114edbc0c8fb0c1fbe8e23e55bb6f12a7564de6cb1fe864736f6c634300081e0033\n}\n",
				"bytecode": {
					"linkReferences": {},
					"object": "6080604052348015600e575f5ffd5b50610aa88061001c5f395ff3fe608060405260043610610049575f3560e01c80632f5dcf7d1461004d578063805265e514610089578063b9830ff1146100c5578063f469cb6a146100cf578063fc36e15b1461010b575b5f5ffd5b348015610058575f5ffd5b50610073600480360381019061006e91906104d3565b610133565b6040516100809190610538565b60405180910390f35b348015610094575f5ffd5b506100af60048036038101906100aa91906104d3565b61016a565b6040516100bc9190610538565b60405180910390f35b6100cd61019f565b005b3480156100da575f5ffd5b506100f560048036038101906100f09190610584565b610217565b604051610102919061060f565b60405180910390f35b348015610116575f5ffd5b50610131600480360381019061012c91906104d3565b6102bd565b005b5f818051602081018201805184825260208301602085012081835280955050505050505f915054906101000a900463ffffffff1681565b5f5f8260405161017a9190610669565b90815260200160405180910390205f9054906101000a900463ffffffff169050919050565b5f5f90505b600180549050811015610214575f5f600183815481106101c7576101c661067f565b5b905f5260205f20016040516101dc919061079b565b90815260200160405180910390205f6101000a81548163ffffffff021916908363ffffffff16021790555080806001019150506101a4565b50565b60018181548110610226575f80fd5b905f5260205f20015f91509050805461023e906106d9565b80601f016020809104026020016040519081016040528092919081815260200182805461026a906106d9565b80156102b55780601f1061028c576101008083540402835291602001916102b5565b820191905f5260205f20905b81548152906001019060200180831161029857829003601f168201915b505050505081565b5f5f826040516102cd9190610669565b90815260200160405180910390205f9054906101000a900463ffffffff1663ffffffff160361032957600181908060018154018082558091505060019003905f5260205f20015f909190919091509081610327919061093f565b505b60015f8260405161033a9190610669565b90815260200160405180910390205f8282829054906101000a900463ffffffff166103659190610a3b565b92506101000a81548163ffffffff021916908363ffffffff16021790555050565b5f604051905090565b5f5ffd5b5f5ffd5b5f5ffd5b5f5ffd5b5f601f19601f8301169050919050565b7f4e487b71000000000000000000000000000000000000000000000000000000005f52604160045260245ffd5b6103e58261039f565b810181811067ffffffffffffffff82111715610404576104036103af565b5b80604052505050565b5f610416610386565b905061042282826103dc565b919050565b5f67ffffffffffffffff821115610441576104406103af565b5b61044a8261039f565b9050602081019050919050565b828183375f83830152505050565b5f61047761047284610427565b61040d565b9050828152602081018484840111156104935761049261039b565b5b61049e848285610457565b509392505050565b5f82601f8301126104ba576104b9610397565b5b81356104ca848260208601610465565b91505092915050565b5f602082840312156104e8576104e761038f565b5b5f82013567ffffffffffffffff81111561050557610504610393565b5b610511848285016104a6565b91505092915050565b5f63ffffffff82169050919050565b6105328161051a565b82525050565b5f60208201905061054b5f830184610529565b92915050565b5f819050919050565b61056381610551565b811461056d575f5ffd5b50565b5f8135905061057e8161055a565b92915050565b5f602082840312156105995761059861038f565b5b5f6105a684828501610570565b91505092915050565b5f81519050919050565b5f82825260208201905092915050565b8281835e5f83830152505050565b5f6105e1826105af565b6105eb81856105b9565b93506105fb8185602086016105c9565b6106048161039f565b840191505092915050565b5f6020820190508181035f83015261062781846105d7565b905092915050565b5f81905092915050565b5f610643826105af565b61064d818561062f565b935061065d8185602086016105c9565b80840191505092915050565b5f6106748284610639565b915081905092915050565b7f4e487b71000000000000000000000000000000000000000000000000000000005f52603260045260245ffd5b7f4e487b71000000000000000000000000000000000000000000000000000000005f52602260045260245ffd5b5f60028204905060018216806106f057607f821691505b602082108103610703576107026106ac565b5b50919050565b5f819050815f5260205f209050919050565b5f8154610727816106d9565b610731818661062f565b9450600182165f811461074b576001811461076057610792565b60ff1983168652811515820286019350610792565b61076985610709565b5f5b8381101561078a5781548189015260018201915060208101905061076b565b838801955050505b50505092915050565b5f6107a6828461071b565b915081905092915050565b5f6020601f8301049050919050565b5f82821b905092915050565b5f600883026107fb7fffffffffffffffffffffffffffffffffffffffffffffffffffffffffffffffff826107c0565b61080586836107c0565b95508019841693508086168417925050509392505050565b5f819050919050565b5f61084061083b61083684610551565b61081d565b610551565b9050919050565b5f819050919050565b61085983610826565b61086d61086582610847565b8484546107cc565b825550505050565b5f5f905090565b610884610875565b61088f818484610850565b505050565b5b818110156108b2576108a75f8261087c565b600181019050610895565b5050565b601f8211156108f7576108c881610709565b6108d1846107b1565b810160208510156108e0578190505b6108f46108ec856107b1565b830182610894565b50505b505050565b5f82821c905092915050565b5f6109175f19846008026108fc565b1980831691505092915050565b5f61092f8383610908565b9150826002028217905092915050565b610948826105af565b67ffffffffffffffff811115610961576109606103af565b5b61096b82546106d9565b6109768282856108b6565b5f60209050601f8311600181146109a7575f8415610995578287015190505b61099f8582610924565b865550610a06565b601f1984166109b586610709565b5f5b828110156109dc578489015182556001820191506020850194506020810190506109b7565b868310156109f957848901516109f5601f891682610908565b8355505b6001600288020188555050505b505050505050565b7f4e487b71000000000000000000000000000000000000000000000000000000005f52601160045260245ffd5b5f610a458261051a565b9150610a508361051a565b9250828201905063ffffffff811115610a6c57610a6b610a0e565b5b9291505056fea26469706673582212207704e11117922f91926114edbc0c8fb0c1fbe8e23e55bb6f12a7564de6cb1fe864736f6c634300081e0033",
					"opcodes": "PUSH1 0x80 PUSH1 0x40 MSTORE CALLVALUE DUP1 ISZERO PUSH1 0xE JUMPI PUSH0 PUSH0 REVERT JUMPDEST POP PUSH2 0xAA8 DUP1 PUSH2 0x1C PUSH0 CODECOPY PUSH0 RETURN INVALID PUSH1 0x80 PUSH1 0x40 MSTORE PUSH1 0x4 CALLDATASIZE LT PUSH2 0x49 JUMPI PUSH0 CALLDATALOAD PUSH1 0xE0 SHR DUP1 PUSH4 0x2F5DCF7D EQ PUSH2 0x4D JUMPI DUP1 PUSH4 0x805265E5 EQ PUSH2 0x89 JUMPI DUP1 PUSH4 0xB9830FF1 EQ PUSH2 0xC5 JUMPI DUP1 PUSH4 0xF469CB6A EQ PUSH2 0xCF JUMPI DUP1 PUSH4 0xFC36E15B EQ PUSH2 0x10B JUMPI JUMPDEST PUSH0 PUSH0 REVERT JUMPDEST CALLVALUE DUP1 ISZERO PUSH2 0x58 JUMPI PUSH0 PUSH0 REVERT JUMPDEST POP PUSH2 0x73 PUSH1 0x4 DUP1 CALLDATASIZE SUB DUP2 ADD SWAP1 PUSH2 0x6E SWAP2 SWAP1 PUSH2 0x4D3 JUMP JUMPDEST PUSH2 0x133 JUMP JUMPDEST PUSH1 0x40 MLOAD PUSH2 0x80 SWAP2 SWAP1 PUSH2 0x538 JUMP JUMPDEST PUSH1 0x40 MLOAD DUP1 SWAP2 SUB SWAP1 RETURN JUMPDEST CALLVALUE DUP1 ISZERO PUSH2 0x94 JUMPI PUSH0 PUSH0 REVERT JUMPDEST POP PUSH2 0xAF PUSH1 0x4 DUP1 CALLDATASIZE SUB DUP2 ADD SWAP1 PUSH2 0xAA SWAP2 SWAP1 PUSH2 0x4D3 JUMP JUMPDEST PUSH2 0x16A JUMP JUMPDEST PUSH1 0x40 MLOAD PUSH2 0xBC SWAP2 SWAP1 PUSH2 0x538 JUMP JUMPDEST PUSH1 0x40 MLOAD DUP1 SWAP2 SUB SWAP1 RETURN JUMPDEST PUSH2 0xCD PUSH2 0x19F JUMP JUMPDEST STOP JUMPDEST CALLVALUE DUP1 ISZERO PUSH2 0xDA JUMPI PUSH0 PUSH0 REVERT JUMPDEST POP PUSH2 0xF5 PUSH1 0x4 DUP1 CALLDATASIZE SUB DUP2 ADD SWAP1 PUSH2 0xF0 SWAP2 SWAP1 PUSH2 0x584 JUMP JUMPDEST PUSH2 0x217 JUMP JUMPDEST PUSH1 0x40 MLOAD PUSH2 0x102 SWAP2 SWAP1 PUSH2 0x60F JUMP JUMPDEST PUSH1 0x40 MLOAD DUP1 SWAP2 SUB SWAP1 RETURN JUMPDEST CALLVALUE DUP1 ISZERO PUSH2 0x116 JUMPI PUSH0 PUSH0 REVERT JUMPDEST POP PUSH2 0x131 PUSH1 0x4 DUP1 CALLDATASIZE SUB DUP2 ADD SWAP1 PUSH2 0x12C SWAP2 SWAP1 PUSH2 0x4D3 JUMP JUMPDEST PUSH2 0x2BD JUMP JUMPDEST STOP JUMPDEST PUSH0 DUP2 DUP1 MLOAD PUSH1 0x20 DUP2 ADD DUP3 ADD DUP1 MLOAD DUP5 DUP3 MSTORE PUSH1 0x20 DUP4 ADD PUSH1 0x20 DUP6 ADD KECCAK256 DUP2 DUP4 MSTORE DUP1 SWAP6 POP POP POP POP POP POP PUSH0 SWAP2 POP SLOAD SWAP1 PUSH2 0x100 EXP SWAP1 DIV PUSH4 0xFFFFFFFF AND DUP2 JUMP JUMPDEST PUSH0 PUSH0 DUP3 PUSH1 0x40 MLOAD PUSH2 0x17A SWAP2 SWAP1 PUSH2 0x669 JUMP JUMPDEST SWAP1 DUP2 MSTORE PUSH1 0x20 ADD PUSH1 0x40 MLOAD DUP1 SWAP2 SUB SWAP1 KECCAK256 PUSH0 SWAP1 SLOAD SWAP1 PUSH2 0x100 EXP SWAP1 DIV PUSH4 0xFFFFFFFF AND SWAP1 POP SWAP2 SWAP1 POP JUMP JUMPDEST PUSH0 PUSH0 SWAP1 POP JUMPDEST PUSH1 0x1 DUP1 SLOAD SWAP1 POP DUP2 LT ISZERO PUSH2 0x214 JUMPI PUSH0 PUSH0 PUSH1 0x1 DUP4 DUP2 SLOAD DUP2 LT PUSH2 0x1C7 JUMPI PUSH2 0x1C6 PUSH2 0x67F JUMP JUMPDEST JUMPDEST SWAP1 PUSH0 MSTORE PUSH1 0x20 PUSH0 KECCAK256 ADD PUSH1 0x40 MLOAD PUSH2 0x1DC SWAP2 SWAP1 PUSH2 0x79B JUMP JUMPDEST SWAP1 DUP2 MSTORE PUSH1 0x20 ADD PUSH1 0x40 MLOAD DUP1 SWAP2 SUB SWAP1 KECCAK256 PUSH0 PUSH2 0x100 EXP DUP2 SLOAD DUP2 PUSH4 0xFFFFFFFF MUL NOT AND SWAP1 DUP4 PUSH4 0xFFFFFFFF AND MUL OR SWAP1 SSTORE POP DUP1 DUP1 PUSH1 0x1 ADD SWAP2 POP POP PUSH2 0x1A4 JUMP JUMPDEST POP JUMP JUMPDEST PUSH1 0x1 DUP2 DUP2 SLOAD DUP2 LT PUSH2 0x226 JUMPI PUSH0 DUP1 REVERT JUMPDEST SWAP1 PUSH0 MSTORE PUSH1 0x20 PUSH0 KECCAK256 ADD PUSH0 SWAP2 POP SWAP1 POP DUP1 SLOAD PUSH2 0x23E SWAP1 PUSH2 0x6D9 JUMP JUMPDEST DUP1 PUSH1 0x1F ADD PUSH1 0x20 DUP1 SWAP2 DIV MUL PUSH1 0x20 ADD PUSH1 0x40 MLOAD SWAP1 DUP2 ADD PUSH1 0x40 MSTORE DUP1 SWAP3 SWAP2 SWAP1 DUP2 DUP2 MSTORE PUSH1 0x20 ADD DUP3 DUP1 SLOAD PUSH2 0x26A SWAP1 PUSH2 0x6D9 JUMP JUMPDEST DUP1 ISZERO PUSH2 0x2B5 JUMPI DUP1 PUSH1 0x1F LT PUSH2 0x28C JUMPI PUSH2 0x100 DUP1 DUP4 SLOAD DIV MUL DUP4 MSTORE SWAP2 PUSH1 0x20 ADD SWAP2 PUSH2 0x2B5 JUMP JUMPDEST DUP3 ADD SWAP2 SWAP1 PUSH0 MSTORE PUSH1 0x20 PUSH0 KECCAK256 SWAP1 JUMPDEST DUP2 SLOAD DUP2 MSTORE SWAP1 PUSH1 0x1 ADD SWAP1 PUSH1 0x20 ADD DUP1 DUP4 GT PUSH2 0x298 JUMPI DUP3 SWAP1 SUB PUSH1 0x1F AND DUP3 ADD SWAP2 JUMPDEST POP POP POP POP POP DUP2 JUMP JUMPDEST PUSH0 PUSH0 DUP3 PUSH1 0x40 MLOAD PUSH2 0x2CD SWAP2 SWAP1 PUSH2 0x669 JUMP JUMPDEST SWAP1 DUP2 MSTORE PUSH1 0x20 ADD PUSH1 0x40 MLOAD DUP1 SWAP2 SUB SWAP1 KECCAK256 PUSH0 SWAP1 SLOAD SWAP1 PUSH2 0x100 EXP SWAP1 DIV PUSH4 0xFFFFFFFF AND PUSH4 0xFFFFFFFF AND SUB PUSH2 0x329 JUMPI PUSH1 0x1 DUP2 SWAP1 DUP1 PUSH1 0x1 DUP2 SLOAD ADD DUP1 DUP3 SSTORE DUP1 SWAP2 POP POP PUSH1 0x1 SWAP1 SUB SWAP1 PUSH0 MSTORE PUSH1 0x20 PUSH0 KECCAK256 ADD PUSH0 SWAP1 SWAP2 SWAP1 SWAP2 SWAP1 SWAP2 POP SWAP1 DUP2 PUSH2 0x327 SWAP2 SWAP1 PUSH2 0x93F JUMP JUMPDEST POP JUMPDEST PUSH1 0x1 PUSH0 DUP3 PUSH1 0x40 MLOAD PUSH2 0x33A SWAP2 SWAP1 PUSH2 0x669 JUMP JUMPDEST SWAP1 DUP2 MSTORE PUSH1 0x20 ADD PUSH1 0x40 MLOAD DUP1 SWAP2 SUB SWAP1 KECCAK256 PUSH0 DUP3 DUP3 DUP3 SWAP1 SLOAD SWAP1 PUSH2 0x100 EXP SWAP1 DIV PUSH4 0xFFFFFFFF AND PUSH2 0x365 SWAP2 SWAP1 PUSH2 0xA3B JUMP JUMPDEST SWAP3 POP PUSH2 0x100 EXP DUP2 SLOAD DUP2 PUSH4 0xFFFFFFFF MUL NOT AND SWAP1 DUP4 PUSH4 0xFFFFFFFF AND MUL OR SWAP1 SSTORE POP POP JUMP JUMPDEST PUSH0 PUSH1 0x40 MLOAD SWAP1 POP SWAP1 JUMP JUMPDEST PUSH0 PUSH0 REVERT JUMPDEST PUSH0 PUSH0 REVERT JUMPDEST PUSH0 PUSH0 REVERT JUMPDEST PUSH0 PUSH0 REVERT JUMPDEST PUSH0 PUSH1 0x1F NOT PUSH1 0x1F DUP4 ADD AND SWAP1 POP SWAP2 SWAP1 POP JUMP JUMPDEST PUSH32 0x4E487B7100000000000000000000000000000000000000000000000000000000 PUSH0 MSTORE PUSH1 0x41 PUSH1 0x4 MSTORE PUSH1 0x24 PUSH0 REVERT JUMPDEST PUSH2 0x3E5 DUP3 PUSH2 0x39F JUMP JUMPDEST DUP2 ADD DUP2 DUP2 LT PUSH8 0xFFFFFFFFFFFFFFFF DUP3 GT OR ISZERO PUSH2 0x404 JUMPI PUSH2 0x403 PUSH2 0x3AF JUMP JUMPDEST JUMPDEST DUP1 PUSH1 0x40 MSTORE POP POP POP JUMP JUMPDEST PUSH0 PUSH2 0x416 PUSH2 0x386 JUMP JUMPDEST SWAP1 POP PUSH2 0x422 DUP3 DUP3 PUSH2 0x3DC JUMP JUMPDEST SWAP2 SWAP1 POP JUMP JUMPDEST PUSH0 PUSH8 0xFFFFFFFFFFFFFFFF DUP3 GT ISZERO PUSH2 0x441 JUMPI PUSH2 0x440 PUSH2 0x3AF JUMP JUMPDEST JUMPDEST PUSH2 0x44A DUP3 PUSH2 0x39F JUMP JUMPDEST SWAP1 POP PUSH1 0x20 DUP2 ADD SWAP1 POP SWAP2 SWAP1 POP JUMP JUMPDEST DUP3 DUP2 DUP4 CALLDATACOPY PUSH0 DUP4 DUP4 ADD MSTORE POP POP POP JUMP JUMPDEST PUSH0 PUSH2 0x477 PUSH2 0x472 DUP5 PUSH2 0x427 JUMP JUMPDEST PUSH2 0x40D JUMP JUMPDEST SWAP1 POP DUP3 DUP2 MSTORE PUSH1 0x20 DUP2 ADD DUP5 DUP5 DUP5 ADD GT ISZERO PUSH2 0x493 JUMPI PUSH2 0x492 PUSH2 0x39B JUMP JUMPDEST JUMPDEST PUSH2 0x49E DUP5 DUP3 DUP6 PUSH2 0x457 JUMP JUMPDEST POP SWAP4 SWAP3 POP POP POP JUMP JUMPDEST PUSH0 DUP3 PUSH1 0x1F DUP4 ADD SLT PUSH2 0x4BA JUMPI PUSH2 0x4B9 PUSH2 0x397 JUMP JUMPDEST JUMPDEST DUP2 CALLDATALOAD PUSH2 0x4CA DUP5 DUP3 PUSH1 0x20 DUP7 ADD PUSH2 0x465 JUMP JUMPDEST SWAP2 POP POP SWAP3 SWAP2 POP POP JUMP JUMPDEST PUSH0 PUSH1 0x20 DUP3 DUP5 SUB SLT ISZERO PUSH2 0x4E8 JUMPI PUSH2 0x4E7 PUSH2 0x38F JUMP JUMPDEST JUMPDEST PUSH0 DUP3 ADD CALLDATALOAD PUSH8 0xFFFFFFFFFFFFFFFF DUP2 GT ISZERO PUSH2 0x505 JUMPI PUSH2 0x504 PUSH2 0x393 JUMP JUMPDEST JUMPDEST PUSH2 0x511 DUP5 DUP3 DUP6 ADD PUSH2 0x4A6 JUMP JUMPDEST SWAP2 POP POP SWAP3 SWAP2 POP POP JUMP JUMPDEST PUSH0 PUSH4 0xFFFFFFFF DUP3 AND SWAP1 POP SWAP2 SWAP1 POP JUMP JUMPDEST PUSH2 0x532 DUP2 PUSH2 0x51A JUMP JUMPDEST DUP3 MSTORE POP POP JUMP JUMPDEST PUSH0 PUSH1 0x20 DUP3 ADD SWAP1 POP PUSH2 0x54B PUSH0 DUP4 ADD DUP5 PUSH2 0x529 JUMP JUMPDEST SWAP3 SWAP2 POP POP JUMP JUMPDEST PUSH0 DUP2 SWAP1 POP SWAP2 SWAP1 POP JUMP JUMPDEST PUSH2 0x563 DUP2 PUSH2 0x551 JUMP JUMPDEST DUP2 EQ PUSH2 0x56D JUMPI PUSH0 PUSH0 REVERT JUMPDEST POP JUMP JUMPDEST PUSH0 DUP2 CALLDATALOAD SWAP1 POP PUSH2 0x57E DUP2 PUSH2 0x55A JUMP JUMPDEST SWAP3 SWAP2 POP POP JUMP JUMPDEST PUSH0 PUSH1 0x20 DUP3 DUP5 SUB SLT ISZERO PUSH2 0x599 JUMPI PUSH2 0x598 PUSH2 0x38F JUMP JUMPDEST JUMPDEST PUSH0 PUSH2 0x5A6 DUP5 DUP3 DUP6 ADD PUSH2 0x570 JUMP JUMPDEST SWAP2 POP POP SWAP3 SWAP2 POP POP JUMP JUMPDEST PUSH0 DUP2 MLOAD SWAP1 POP SWAP2 SWAP1 POP JUMP JUMPDEST PUSH0 DUP3 DUP3 MSTORE PUSH1 0x20 DUP3 ADD SWAP1 POP SWAP3 SWAP2 POP POP JUMP JUMPDEST DUP3 DUP2 DUP4 MCOPY PUSH0 DUP4 DUP4 ADD MSTORE POP POP POP JUMP JUMPDEST PUSH0 PUSH2 0x5E1 DUP3 PUSH2 0x5AF JUMP JUMPDEST PUSH2 0x5EB DUP2 DUP6 PUSH2 0x5B9 JUMP JUMPDEST SWAP4 POP PUSH2 0x5FB DUP2 DUP6 PUSH1 0x20 DUP7 ADD PUSH2 0x5C9 JUMP JUMPDEST PUSH2 0x604 DUP2 PUSH2 0x39F JUMP JUMPDEST DUP5 ADD SWAP2 POP POP SWAP3 SWAP2 POP POP JUMP JUMPDEST PUSH0 PUSH1 0x20 DUP3 ADD SWAP1 POP DUP2 DUP2 SUB PUSH0 DUP4 ADD MSTORE PUSH2 0x627 DUP2 DUP5 PUSH2 0x5D7 JUMP JUMPDEST SWAP1 POP SWAP3 SWAP2 POP POP JUMP JUMPDEST PUSH0 DUP2 SWAP1 POP SWAP3 SWAP2 POP POP JUMP JUMPDEST PUSH0 PUSH2 0x643 DUP3 PUSH2 0x5AF JUMP JUMPDEST PUSH2 0x64D DUP2 DUP6 PUSH2 0x62F JUMP JUMPDEST SWAP4 POP PUSH2 0x65D DUP2 DUP6 PUSH1 0x20 DUP7 ADD PUSH2 0x5C9 JUMP JUMPDEST DUP1 DUP5 ADD SWAP2 POP POP SWAP3 SWAP2 POP POP JUMP JUMPDEST PUSH0 PUSH2 0x674 DUP3 DUP5 PUSH2 0x639 JUMP JUMPDEST SWAP2 POP DUP2 SWAP1 POP SWAP3 SWAP2 POP POP JUMP JUMPDEST PUSH32 0x4E487B7100000000000000000000000000000000000000000000000000000000 PUSH0 MSTORE PUSH1 0x32 PUSH1 0x4 MSTORE PUSH1 0x24 PUSH0 REVERT JUMPDEST PUSH32 0x4E487B7100000000000000000000000000000000000000000000000000000000 PUSH0 MSTORE PUSH1 0x22 PUSH1 0x4 MSTORE PUSH1 0x24 PUSH0 REVERT JUMPDEST PUSH0 PUSH1 0x2 DUP3 DIV SWAP1 POP PUSH1 0x1 DUP3 AND DUP1 PUSH2 0x6F0 JUMPI PUSH1 0x7F DUP3 AND SWAP2 POP JUMPDEST PUSH1 0x20 DUP3 LT DUP2 SUB PUSH2 0x703 JUMPI PUSH2 0x702 PUSH2 0x6AC JUMP JUMPDEST JUMPDEST POP SWAP2 SWAP1 POP JUMP JUMPDEST PUSH0 DUP2 SWAP1 POP DUP2 PUSH0 MSTORE PUSH1 0x20 PUSH0 KECCAK256 SWAP1 POP SWAP2 SWAP1 POP JUMP JUMPDEST PUSH0 DUP2 SLOAD PUSH2 0x727 DUP2 PUSH2 0x6D9 JUMP JUMPDEST PUSH2 0x731 DUP2 DUP7 PUSH2 0x62F JUMP JUMPDEST SWAP5 POP PUSH1 0x1 DUP3 AND PUSH0 DUP2 EQ PUSH2 0x74B JUMPI PUSH1 0x1 DUP2 EQ PUSH2 0x760 JUMPI PUSH2 0x792 JUMP JUMPDEST PUSH1 0xFF NOT DUP4 AND DUP7 MSTORE DUP2 ISZERO ISZERO DUP3 MUL DUP7 ADD SWAP4 POP PUSH2 0x792 JUMP JUMPDEST PUSH2 0x769 DUP6 PUSH2 0x709 JUMP JUMPDEST PUSH0 JUMPDEST DUP4 DUP2 LT ISZERO PUSH2 0x78A JUMPI DUP2 SLOAD DUP2 DUP10 ADD MSTORE PUSH1 0x1 DUP3 ADD SWAP2 POP PUSH1 0x20 DUP2 ADD SWAP1 POP PUSH2 0x76B JUMP JUMPDEST DUP4 DUP9 ADD SWAP6 POP POP POP JUMPDEST POP POP POP SWAP3 SWAP2 POP POP JUMP JUMPDEST PUSH0 PUSH2 0x7A6 DUP3 DUP5 PUSH2 0x71B JUMP JUMPDEST SWAP2 POP DUP2 SWAP1 POP SWAP3 SWAP2 POP POP JUMP JUMPDEST PUSH0 PUSH1 0x20 PUSH1 0x1F DUP4 ADD DIV SWAP1 POP SWAP2 SWAP1 POP JUMP JUMPDEST PUSH0 DUP3 DUP3 SHL SWAP1 POP SWAP3 SWAP2 POP POP JUMP JUMPDEST PUSH0 PUSH1 0x8 DUP4 MUL PUSH2 0x7FB PUSH32 0xFFFFFFFFFFFFFFFFFFFFFFFFFFFFFFFFFFFFFFFFFFFFFFFFFFFFFFFFFFFFFFFF DUP3 PUSH2 0x7C0 JUMP JUMPDEST PUSH2 0x805 DUP7 DUP4 PUSH2 0x7C0 JUMP JUMPDEST SWAP6 POP DUP1 NOT DUP5 AND SWAP4 POP DUP1 DUP7 AND DUP5 OR SWAP3 POP POP POP SWAP4 SWAP3 POP POP POP JUMP JUMPDEST PUSH0 DUP2 SWAP1 POP SWAP2 SWAP1 POP JUMP JUMPDEST PUSH0 PUSH2 0x840 PUSH2 0x83B PUSH2 0x836 DUP5 PUSH2 0x551 JUMP JUMPDEST PUSH2 0x81D JUMP JUMPDEST PUSH2 0x551 JUMP JUMPDEST SWAP1 POP SWAP2 SWAP1 POP JUMP JUMPDEST PUSH0 DUP2 SWAP1 POP SWAP2 SWAP1 POP JUMP JUMPDEST PUSH2 0x859 DUP4 PUSH2 0x826 JUMP JUMPDEST PUSH2 0x86D PUSH2 0x865 DUP3 PUSH2 0x847 JUMP JUMPDEST DUP5 DUP5 SLOAD PUSH2 0x7CC JUMP JUMPDEST DUP3 SSTORE POP POP POP POP JUMP JUMPDEST PUSH0 PUSH0 SWAP1 POP SWAP1 JUMP JUMPDEST PUSH2 0x884 PUSH2 0x875 JUMP JUMPDEST PUSH2 0x88F DUP2 DUP5 DUP5 PUSH2 0x850 JUMP JUMPDEST POP POP POP JUMP JUMPDEST JUMPDEST DUP2 DUP2 LT ISZERO PUSH2 0x8B2 JUMPI PUSH2 0x8A7 PUSH0 DUP3 PUSH2 0x87C JUMP JUMPDEST PUSH1 0x1 DUP2 ADD SWAP1 POP PUSH2 0x895 JUMP JUMPDEST POP POP JUMP JUMPDEST PUSH1 0x1F DUP3 GT ISZERO PUSH2 0x8F7 JUMPI PUSH2 0x8C8 DUP2 PUSH2 0x709 JUMP JUMPDEST PUSH2 0x8D1 DUP5 PUSH2 0x7B1 JUMP JUMPDEST DUP2 ADD PUSH1 0x20 DUP6 LT ISZERO PUSH2 0x8E0 JUMPI DUP2 SWAP1 POP JUMPDEST PUSH2 0x8F4 PUSH2 0x8EC DUP6 PUSH2 0x7B1 JUMP JUMPDEST DUP4 ADD DUP3 PUSH2 0x894 JUMP JUMPDEST POP POP JUMPDEST POP POP POP JUMP JUMPDEST PUSH0 DUP3 DUP3 SHR SWAP1 POP SWAP3 SWAP2 POP POP JUMP JUMPDEST PUSH0 PUSH2 0x917 PUSH0 NOT DUP5 PUSH1 0x8 MUL PUSH2 0x8FC JUMP JUMPDEST NOT DUP1 DUP4 AND SWAP2 POP POP SWAP3 SWAP2 POP POP JUMP JUMPDEST PUSH0 PUSH2 0x92F DUP4 DUP4 PUSH2 0x908 JUMP JUMPDEST SWAP2 POP DUP3 PUSH1 0x2 MUL DUP3 OR SWAP1 POP SWAP3 SWAP2 POP POP JUMP JUMPDEST PUSH2 0x948 DUP3 PUSH2 0x5AF JUMP JUMPDEST PUSH8 0xFFFFFFFFFFFFFFFF DUP2 GT ISZERO PUSH2 0x961 JUMPI PUSH2 0x960 PUSH2 0x3AF JUMP JUMPDEST JUMPDEST PUSH2 0x96B DUP3 SLOAD PUSH2 0x6D9 JUMP JUMPDEST PUSH2 0x976 DUP3 DUP3 DUP6 PUSH2 0x8B6 JUMP JUMPDEST PUSH0 PUSH1 0x20 SWAP1 POP PUSH1 0x1F DUP4 GT PUSH1 0x1 DUP2 EQ PUSH2 0x9A7 JUMPI PUSH0 DUP5 ISZERO PUSH2 0x995 JUMPI DUP3 DUP8 ADD MLOAD SWAP1 POP JUMPDEST PUSH2 0x99F DUP6 DUP3 PUSH2 0x924 JUMP JUMPDEST DUP7 SSTORE POP PUSH2 0xA06 JUMP JUMPDEST PUSH1 0x1F NOT DUP5 AND PUSH2 0x9B5 DUP7 PUSH2 0x709 JUMP JUMPDEST PUSH0 JUMPDEST DUP3 DUP2 LT ISZERO PUSH2 0x9DC JUMPI DUP5 DUP10 ADD MLOAD DUP3 SSTORE PUSH1 0x1 DUP3 ADD SWAP2 POP PUSH1 0x20 DUP6 ADD SWAP5 POP PUSH1 0x20 DUP2 ADD SWAP1 POP PUSH2 0x9B7 JUMP JUMPDEST DUP7 DUP4 LT ISZERO PUSH2 0x9F9 JUMPI DUP5 DUP10 ADD MLOAD PUSH2 0x9F5 PUSH1 0x1F DUP10 AND DUP3 PUSH2 0x908 JUMP JUMPDEST DUP4 SSTORE POP JUMPDEST PUSH1 0x1 PUSH1 0x2 DUP9 MUL ADD DUP9 SSTORE POP POP POP JUMPDEST POP POP POP POP POP POP JUMP JUMPDEST PUSH32 0x4E487B7100000000000000000000000000000000000000000000000000000000 PUSH0 MSTORE PUSH1 0x11 PUSH1 0x4 MSTORE PUSH1 0x24 PUSH0 REVERT JUMPDEST PUSH0 PUSH2 0xA45 DUP3 PUSH2 0x51A JUMP JUMPDEST SWAP2 POP PUSH2 0xA50 DUP4 PUSH2 0x51A JUMP JUMPDEST SWAP3 POP DUP3 DUP3 ADD SWAP1 POP PUSH4 0xFFFFFFFF DUP2 GT ISZERO PUSH2 0xA6C JUMPI PUSH2 0xA6B PUSH2 0xA0E JUMP JUMPDEST JUMPDEST SWAP3 SWAP2 POP POP JUMP INVALID LOG2 PUSH5 0x6970667358 0x22 SLT KECCAK256 PUSH24 0x4E11117922F91926114EDBC0C8FB0C1FBE8E23E55BB6F12 0xA7 JUMP 0x4D DUPN 0xCB 0x1F 0xE8 PUSH5 0x736F6C6343 STOP ADDMOD 0x1E STOP CALLER "
				},
				"gasEstimates": {
					"creation": {
						"codeDepositCost": "545600",
						"executionCost": "579",
						"totalCost": "546179"
					},
					"external": {
						"getVotes(string)": "infinite",
						"nameList(uint256)": "infinite",
						"resetVotes()": "infinite",
						"vote(string)": "infinite",
						"votings(string)": "infinite"
					}
				},
				"methodIdentifiers": {
					"getVotes(string)": "805265e5",
					"nameList(uint256)": "f469cb6a",
					"resetVotes()": "b9830ff1",
					"vote(string)": "fc36e15b",
					"votings(string)": "2f5dcf7d"
				}
			},
			"storageLayout": {
				"storage": [
					{
						"astId": 5,
						"contract": "task1/Voting.sol:Voting",
						"label": "votings",
						"offset": 0,
						"slot": "0",
						"type": "t_mapping(t_string_memory_ptr,t_uint32)"
					},
					{
						"astId": 8,
						"contract": "task1/Voting.sol:Voting",
						"label": "nameList",
						"offset": 0,
						"slot": "1",
						"type": "t_array(t_string_storage)dyn_storage"
					}
				],
				"types": {
					"t_array(t_string_storage)dyn_storage": {
						"base": "t_string_storage",
						"encoding": "dynamic_array",
						"label": "string[]",
						"numberOfBytes": "32"
					},
					"t_mapping(t_string_memory_ptr,t_uint32)": {
						"encoding": "mapping",
						"key": "t_string_memory_ptr",
						"label": "mapping(string => uint32)",
						"numberOfBytes": "32",
						"value": "t_uint32"
					},
					"t_string_memory_ptr": {
						"encoding": "bytes",
						"label": "string",
						"numberOfBytes": "32"
					},
					"t_string_storage": {
						"encoding": "bytes",
						"label": "string",
						"numberOfBytes": "32"
					},
					"t_uint32": {
						"encoding": "inplace",
						"label": "uint32",
						"numberOfBytes": "4"
					}
				}
			},
			"userdoc": {
				"kind": "user",
				"methods": {},
				"version": 1
			}
		}
	}
}