{
	"task1/IntegerRomanConvert.sol": {
		"IntegerRomanConverter": {
			"abi": [
				{
					"inputs": [],
					"stateMutability": "nonpayable",
					"type": "constructor"
				},
				{
					"inputs": [
						{
							"internalType": "uint256",
							"name": "n",
							"type": "uint256"
						}
					],
					"name": "integerToRoman",
					"outputs": [
						{
							"internalType": "string",
							"name": "",
							"type": "string"
						}
					],
					"stateMutability": "pure",
					"type": "function"
				},
				{
					"inputs": [
						{
							"internalType": "bytes1",
							"name": "",
							"type": "bytes1"
						}
					],
					"name": "romanMap",
					"outputs": [
						{
							"internalType": "uint256",
							"name": "",
							"type": "uint256"
						}
					],
					"stateMutability": "view",
					"type": "function"
				},
				{
					"inputs": [
						{
							"internalType": "string",
							"name": "n",
							"type": "string"
						}
					],
					"name": "romanToInteger",
					"outputs": [
						{
							"internalType": "uint256",
							"name": "",
							"type": "uint256"
						}
					],
					"stateMutability": "view",
					"type": "function"
				}
			],
			"devdoc": {
				"kind": "dev",
				"methods": {},
				"version": 1
			},
			"evm": {
				"assembly": "    /* \"task1/IntegerRomanConvert.sol\":57:1772  contract IntegerRomanConverter {... */\n  mstore(0x40, 0x80)\n    /* \"task1/IntegerRomanConvert.sol\":141:360  constructor() {... */\n  callvalue\n  dup1\n  iszero\n  tag_1\n  jumpi\n  revert(0x00, 0x00)\ntag_1:\n  pop\n    /* \"task1/IntegerRomanConvert.sol\":181:182  1 */\n  0x01\n    /* \"task1/IntegerRomanConvert.sol\":165:173  romanMap */\n  0x00\n    /* \"task1/IntegerRomanConvert.sol\":165:178  romanMap['I'] */\n  0x00\n  and(not(0xffffffffffffffffffffffffffffffffffffffffffffffffffffffffffffff), 0x4900000000000000000000000000000000000000000000000000000000000000)\n  dup2\n  mstore\n  0x20\n  add\n  swap1\n  dup2\n  mstore\n  0x20\n  add\n  0x00\n  keccak256\n    /* \"task1/IntegerRomanConvert.sol\":165:182  romanMap['I'] = 1 */\n  dup2\n  swap1\n  sstore\n  pop\n    /* \"task1/IntegerRomanConvert.sol\":208:209  5 */\n  0x05\n    /* \"task1/IntegerRomanConvert.sol\":192:200  romanMap */\n  0x00\n    /* \"task1/IntegerRomanConvert.sol\":192:205  romanMap['V'] */\n  0x00\n  and(not(0xffffffffffffffffffffffffffffffffffffffffffffffffffffffffffffff), 0x5600000000000000000000000000000000000000000000000000000000000000)\n  dup2\n  mstore\n  0x20\n  add\n  swap1\n  dup2\n  mstore\n  0x20\n  add\n  0x00\n  keccak256\n    /* \"task1/IntegerRomanConvert.sol\":192:209  romanMap['V'] = 5 */\n  dup2\n  swap1\n  sstore\n  pop\n    /* \"task1/IntegerRomanConvert.sol\":235:237  10 */\n  0x0a\n    /* \"task1/IntegerRomanConvert.sol\":219:227  romanMap */\n  0x00\n    /* \"task1/IntegerRomanConvert.sol\":219:232  romanMap['X'] */\n  0x00\n  and(not(0xffffffffffffffffffffffffffffffffffffffffffffffffffffffffffffff), 0x5800000000000000000000000000000000000000000000000000000000000000)\n  dup2\n  mstore\n  0x20\n  add\n  swap1\n  dup2\n  mstore\n  0x20\n  add\n  0x00\n  keccak256\n    /* \"task1/IntegerRomanConvert.sol\":219:237  romanMap['X'] = 10 */\n  dup2\n  swap1\n  sstore\n  pop\n    /* \"task1/IntegerRomanConvert.sol\":263:265  50 */\n  0x32\n    /* \"task1/IntegerRomanConvert.sol\":247:255  romanMap */\n  0x00\n    /* \"task1/IntegerRomanConvert.sol\":247:260  romanMap['L'] */\n  0x00\n  and(not(0xffffffffffffffffffffffffffffffffffffffffffffffffffffffffffffff), 0x4c00000000000000000000000000000000000000000000000000000000000000)\n  dup2\n  mstore\n  0x20\n  add\n  swap1\n  dup2\n  mstore\n  0x20\n  add\n  0x00\n  keccak256\n    /* \"task1/IntegerRomanConvert.sol\":247:265  romanMap['L'] = 50 */\n  dup2\n  swap1\n  sstore\n  pop\n    /* \"task1/IntegerRomanConvert.sol\":291:294  100 */\n  0x64\n    /* \"task1/IntegerRomanConvert.sol\":275:283  romanMap */\n  0x00\n    /* \"task1/IntegerRomanConvert.sol\":275:288  romanMap['C'] */\n  0x00\n  and(not(0xffffffffffffffffffffffffffffffffffffffffffffffffffffffffffffff), 0x4300000000000000000000000000000000000000000000000000000000000000)\n  dup2\n  mstore\n  0x20\n  add\n  swap1\n  dup2\n  mstore\n  0x20\n  add\n  0x00\n  keccak256\n    /* \"task1/IntegerRomanConvert.sol\":275:294  romanMap['C'] = 100 */\n  dup2\n  swap1\n  sstore\n  pop\n    /* \"task1/IntegerRomanConvert.sol\":320:323  500 */\n  0x01f4\n    /* \"task1/IntegerRomanConvert.sol\":304:312  romanMap */\n  0x00\n    /* \"task1/IntegerRomanConvert.sol\":304:317  romanMap['D'] */\n  0x00\n  and(not(0xffffffffffffffffffffffffffffffffffffffffffffffffffffffffffffff), 0x4400000000000000000000000000000000000000000000000000000000000000)\n  dup2\n  mstore\n  0x20\n  add\n  swap1\n  dup2\n  mstore\n  0x20\n  add\n  0x00\n  keccak256\n    /* \"task1/IntegerRomanConvert.sol\":304:323  romanMap['D'] = 500 */\n  dup2\n  swap1\n  sstore\n  pop\n    /* \"task1/IntegerRomanConvert.sol\":349:353  1000 */\n  0x03e8\n    /* \"task1/IntegerRomanConvert.sol\":333:341  romanMap */\n  0x00\n    /* \"task1/IntegerRomanConvert.sol\":333:346  romanMap['M'] */\n  0x00\n  and(not(0xffffffffffffffffffffffffffffffffffffffffffffffffffffffffffffff), 0x4d00000000000000000000000000000000000000000000000000000000000000)\n  dup2\n  mstore\n  0x20\n  add\n  swap1\n  dup2\n  mstore\n  0x20\n  add\n  0x00\n  keccak256\n    /* \"task1/IntegerRomanConvert.sol\":333:353  romanMap['M'] = 1000 */\n  dup2\n  swap1\n  sstore\n  pop\n    /* \"task1/IntegerRomanConvert.sol\":57:1772  contract IntegerRomanConverter {... */\n  dataSize(sub_0)\n  dup1\n  dataOffset(sub_0)\n  0x00\n  codecopy\n  0x00\n  return\nstop\n\nsub_0: assembly {\n        /* \"task1/IntegerRomanConvert.sol\":57:1772  contract IntegerRomanConverter {... */\n      mstore(0x40, 0x80)\n      callvalue\n      dup1\n      iszero\n      tag_1\n      jumpi\n      revert(0x00, 0x00)\n    tag_1:\n      pop\n      jumpi(tag_2, lt(calldatasize, 0x04))\n      shr(0xe0, calldataload(0x00))\n      dup1\n      0x213d56c0\n      eq\n      tag_3\n      jumpi\n      dup1\n      0x445458dc\n      eq\n      tag_4\n      jumpi\n      dup1\n      0xea4c4614\n      eq\n      tag_5\n      jumpi\n    tag_2:\n      revert(0x00, 0x00)\n        /* \"task1/IntegerRomanConvert.sol\":366:450  function integerToRoman(uint n) public pure returns (string memory) {... */\n    tag_3:\n      tag_6\n      0x04\n      dup1\n      calldatasize\n      sub\n      dup2\n      add\n      swap1\n      tag_7\n      swap2\n      swap1\n      tag_8\n      jump\t// in\n    tag_7:\n      tag_9\n      jump\t// in\n    tag_6:\n      mload(0x40)\n      tag_10\n      swap2\n      swap1\n      tag_11\n      jump\t// in\n    tag_10:\n      mload(0x40)\n      dup1\n      swap2\n      sub\n      swap1\n      return\n        /* \"task1/IntegerRomanConvert.sol\":95:134  mapping(bytes1 => uint) public romanMap */\n    tag_4:\n      tag_12\n      0x04\n      dup1\n      calldatasize\n      sub\n      dup2\n      add\n      swap1\n      tag_13\n      swap2\n      swap1\n      tag_14\n      jump\t// in\n    tag_13:\n      tag_15\n      jump\t// in\n    tag_12:\n      mload(0x40)\n      tag_16\n      swap2\n      swap1\n      tag_17\n      jump\t// in\n    tag_16:\n      mload(0x40)\n      dup1\n      swap2\n      sub\n      swap1\n      return\n        /* \"task1/IntegerRomanConvert.sol\":456:1770  function romanToInteger(string memory n) public view returns (uint) {... */\n    tag_5:\n      tag_18\n      0x04\n      dup1\n      calldatasize\n      sub\n      dup2\n      add\n      swap1\n      tag_19\n      swap2\n      swap1\n      tag_20\n      jump\t// in\n    tag_19:\n      tag_21\n      jump\t// in\n    tag_18:\n      mload(0x40)\n      tag_22\n      swap2\n      swap1\n      tag_17\n      jump\t// in\n    tag_22:\n      mload(0x40)\n      dup1\n      swap2\n      sub\n      swap1\n      return\n        /* \"task1/IntegerRomanConvert.sol\":366:450  function integerToRoman(uint n) public pure returns (string memory) {... */\n    tag_9:\n        /* \"task1/IntegerRomanConvert.sol\":419:432  string memory */\n      0x60\n        /* \"task1/IntegerRomanConvert.sol\":366:450  function integerToRoman(uint n) public pure returns (string memory) {... */\n      swap2\n      swap1\n      pop\n      jump\t// out\n        /* \"task1/IntegerRomanConvert.sol\":95:134  mapping(bytes1 => uint) public romanMap */\n    tag_15:\n      mstore(0x20, 0x00)\n      dup1\n      0x00\n      mstore\n      keccak256(0x00, 0x40)\n      0x00\n      swap2\n      pop\n      swap1\n      pop\n      sload\n      dup2\n      jump\t// out\n        /* \"task1/IntegerRomanConvert.sol\":456:1770  function romanToInteger(string memory n) public view returns (uint) {... */\n    tag_21:\n        /* \"task1/IntegerRomanConvert.sol\":518:522  uint */\n      0x00\n        /* \"task1/IntegerRomanConvert.sol\":535:553  bytes memory roman */\n      0x00\n        /* \"task1/IntegerRomanConvert.sol\":562:563  n */\n      dup3\n        /* \"task1/IntegerRomanConvert.sol\":535:564  bytes memory roman = bytes(n) */\n      swap1\n      pop\n        /* \"task1/IntegerRomanConvert.sol\":574:585  uint result */\n      0x00\n        /* \"task1/IntegerRomanConvert.sol\":589:590  0 */\n      0x00\n        /* \"task1/IntegerRomanConvert.sol\":574:590  uint result  = 0 */\n      swap1\n      pop\n        /* \"task1/IntegerRomanConvert.sol\":606:612  uint i */\n      0x00\n        /* \"task1/IntegerRomanConvert.sol\":615:616  0 */\n      0x00\n        /* \"task1/IntegerRomanConvert.sol\":606:616  uint i = 0 */\n      swap1\n      pop\n        /* \"task1/IntegerRomanConvert.sol\":601:1638  for (uint i = 0; i < roman.length-1; i++) {... */\n    tag_25:\n        /* \"task1/IntegerRomanConvert.sol\":635:636  1 */\n      0x01\n        /* \"task1/IntegerRomanConvert.sol\":622:627  roman */\n      dup4\n        /* \"task1/IntegerRomanConvert.sol\":622:634  roman.length */\n      mload\n        /* \"task1/IntegerRomanConvert.sol\":622:636  roman.length-1 */\n      tag_28\n      swap2\n      swap1\n      tag_29\n      jump\t// in\n    tag_28:\n        /* \"task1/IntegerRomanConvert.sol\":618:619  i */\n      dup2\n        /* \"task1/IntegerRomanConvert.sol\":618:636  i < roman.length-1 */\n      lt\n        /* \"task1/IntegerRomanConvert.sol\":601:1638  for (uint i = 0; i < roman.length-1; i++) {... */\n      iszero\n      tag_26\n      jumpi\n        /* \"task1/IntegerRomanConvert.sol\":661:676  roman[i] == 'I' */\n      0x4900000000000000000000000000000000000000000000000000000000000000\n        /* \"task1/IntegerRomanConvert.sol\":661:666  roman */\n      dup4\n        /* \"task1/IntegerRomanConvert.sol\":667:668  i */\n      dup3\n        /* \"task1/IntegerRomanConvert.sol\":661:669  roman[i] */\n      dup2\n      mload\n      dup2\n      lt\n      tag_30\n      jumpi\n      tag_31\n      tag_32\n      jump\t// in\n    tag_31:\n    tag_30:\n      0x20\n      add\n      add\n      mload\n      0xf8\n      shr\n      0xf8\n      shl\n        /* \"task1/IntegerRomanConvert.sol\":661:676  roman[i] == 'I' */\n      not(0xffffffffffffffffffffffffffffffffffffffffffffffffffffffffffffff)\n      and\n      eq\n        /* \"task1/IntegerRomanConvert.sol\":661:697  roman[i] == 'I' && roman[i+1] == 'V' */\n      dup1\n      iszero\n      tag_33\n      jumpi\n      pop\n        /* \"task1/IntegerRomanConvert.sol\":680:697  roman[i+1] == 'V' */\n      0x5600000000000000000000000000000000000000000000000000000000000000\n        /* \"task1/IntegerRomanConvert.sol\":680:685  roman */\n      dup4\n        /* \"task1/IntegerRomanConvert.sol\":688:689  1 */\n      0x01\n        /* \"task1/IntegerRomanConvert.sol\":686:687  i */\n      dup4\n        /* \"task1/IntegerRomanConvert.sol\":686:689  i+1 */\n      tag_34\n      swap2\n      swap1\n      tag_35\n      jump\t// in\n    tag_34:\n        /* \"task1/IntegerRomanConvert.sol\":680:690  roman[i+1] */\n      dup2\n      mload\n      dup2\n      lt\n      tag_36\n      jumpi\n      tag_37\n      tag_32\n      jump\t// in\n    tag_37:\n    tag_36:\n      0x20\n      add\n      add\n      mload\n      0xf8\n      shr\n      0xf8\n      shl\n        /* \"task1/IntegerRomanConvert.sol\":680:697  roman[i+1] == 'V' */\n      not(0xffffffffffffffffffffffffffffffffffffffffffffffffffffffffffffff)\n      and\n      eq\n        /* \"task1/IntegerRomanConvert.sol\":661:697  roman[i] == 'I' && roman[i+1] == 'V' */\n    tag_33:\n        /* \"task1/IntegerRomanConvert.sol\":657:807  if (roman[i] == 'I' && roman[i+1] == 'V') {... */\n      iszero\n      tag_38\n      jumpi\n        /* \"task1/IntegerRomanConvert.sol\":727:728  4 */\n      0x04\n        /* \"task1/IntegerRomanConvert.sol\":717:728  result += 4 */\n      dup3\n      tag_39\n      swap2\n      swap1\n      tag_35\n      jump\t// in\n    tag_39:\n      swap2\n      pop\n        /* \"task1/IntegerRomanConvert.sol\":746:759  roman[i] = '' */\n      0x00\n        /* \"task1/IntegerRomanConvert.sol\":746:751  roman */\n      dup4\n        /* \"task1/IntegerRomanConvert.sol\":752:753  i */\n      dup3\n        /* \"task1/IntegerRomanConvert.sol\":746:754  roman[i] */\n      dup2\n      mload\n      dup2\n      lt\n      tag_40\n      jumpi\n      tag_41\n      tag_32\n      jump\t// in\n    tag_41:\n    tag_40:\n      0x20\n      add\n      add\n        /* \"task1/IntegerRomanConvert.sol\":746:759  roman[i] = '' */\n      swap1\n      not(0xffffffffffffffffffffffffffffffffffffffffffffffffffffffffffffff)\n      and\n      swap1\n      dup2\n      0x00\n      byte\n      swap1\n      mstore8\n      pop\n        /* \"task1/IntegerRomanConvert.sol\":777:792  roman[i+1] = '' */\n      0x00\n        /* \"task1/IntegerRomanConvert.sol\":777:782  roman */\n      dup4\n        /* \"task1/IntegerRomanConvert.sol\":785:786  1 */\n      0x01\n        /* \"task1/IntegerRomanConvert.sol\":783:784  i */\n      dup4\n        /* \"task1/IntegerRomanConvert.sol\":783:786  i+1 */\n      tag_42\n      swap2\n      swap1\n      tag_35\n      jump\t// in\n    tag_42:\n        /* \"task1/IntegerRomanConvert.sol\":777:787  roman[i+1] */\n      dup2\n      mload\n      dup2\n      lt\n      tag_43\n      jumpi\n      tag_44\n      tag_32\n      jump\t// in\n    tag_44:\n    tag_43:\n      0x20\n      add\n      add\n        /* \"task1/IntegerRomanConvert.sol\":777:792  roman[i+1] = '' */\n      swap1\n      not(0xffffffffffffffffffffffffffffffffffffffffffffffffffffffffffffff)\n      and\n      swap1\n      dup2\n      0x00\n      byte\n      swap1\n      mstore8\n      pop\n        /* \"task1/IntegerRomanConvert.sol\":657:807  if (roman[i] == 'I' && roman[i+1] == 'V') {... */\n    tag_38:\n        /* \"task1/IntegerRomanConvert.sol\":824:839  roman[i] == 'I' */\n      0x4900000000000000000000000000000000000000000000000000000000000000\n        /* \"task1/IntegerRomanConvert.sol\":824:829  roman */\n      dup4\n        /* \"task1/IntegerRomanConvert.sol\":830:831  i */\n      dup3\n        /* \"task1/IntegerRomanConvert.sol\":824:832  roman[i] */\n      dup2\n      mload\n      dup2\n      lt\n      tag_45\n      jumpi\n      tag_46\n      tag_32\n      jump\t// in\n    tag_46:\n    tag_45:\n      0x20\n      add\n      add\n      mload\n      0xf8\n      shr\n      0xf8\n      shl\n        /* \"task1/IntegerRomanConvert.sol\":824:839  roman[i] == 'I' */\n      not(0xffffffffffffffffffffffffffffffffffffffffffffffffffffffffffffff)\n      and\n      eq\n        /* \"task1/IntegerRomanConvert.sol\":824:860  roman[i] == 'I' && roman[i+1] == 'X' */\n      dup1\n      iszero\n      tag_47\n      jumpi\n      pop\n        /* \"task1/IntegerRomanConvert.sol\":843:860  roman[i+1] == 'X' */\n      0x5800000000000000000000000000000000000000000000000000000000000000\n        /* \"task1/IntegerRomanConvert.sol\":843:848  roman */\n      dup4\n        /* \"task1/IntegerRomanConvert.sol\":851:852  1 */\n      0x01\n        /* \"task1/IntegerRomanConvert.sol\":849:850  i */\n      dup4\n        /* \"task1/IntegerRomanConvert.sol\":849:852  i+1 */\n      tag_48\n      swap2\n      swap1\n      tag_35\n      jump\t// in\n    tag_48:\n        /* \"task1/IntegerRomanConvert.sol\":843:853  roman[i+1] */\n      dup2\n      mload\n      dup2\n      lt\n      tag_49\n      jumpi\n      tag_50\n      tag_32\n      jump\t// in\n    tag_50:\n    tag_49:\n      0x20\n      add\n      add\n      mload\n      0xf8\n      shr\n      0xf8\n      shl\n        /* \"task1/IntegerRomanConvert.sol\":843:860  roman[i+1] == 'X' */\n      not(0xffffffffffffffffffffffffffffffffffffffffffffffffffffffffffffff)\n      and\n      eq\n        /* \"task1/IntegerRomanConvert.sol\":824:860  roman[i] == 'I' && roman[i+1] == 'X' */\n    tag_47:\n        /* \"task1/IntegerRomanConvert.sol\":820:970  if (roman[i] == 'I' && roman[i+1] == 'X') {... */\n      iszero\n      tag_51\n      jumpi\n        /* \"task1/IntegerRomanConvert.sol\":890:891  9 */\n      0x09\n        /* \"task1/IntegerRomanConvert.sol\":880:891  result += 9 */\n      dup3\n      tag_52\n      swap2\n      swap1\n      tag_35\n      jump\t// in\n    tag_52:\n      swap2\n      pop\n        /* \"task1/IntegerRomanConvert.sol\":909:922  roman[i] = '' */\n      0x00\n        /* \"task1/IntegerRomanConvert.sol\":909:914  roman */\n      dup4\n        /* \"task1/IntegerRomanConvert.sol\":915:916  i */\n      dup3\n        /* \"task1/IntegerRomanConvert.sol\":909:917  roman[i] */\n      dup2\n      mload\n      dup2\n      lt\n      tag_53\n      jumpi\n      tag_54\n      tag_32\n      jump\t// in\n    tag_54:\n    tag_53:\n      0x20\n      add\n      add\n        /* \"task1/IntegerRomanConvert.sol\":909:922  roman[i] = '' */\n      swap1\n      not(0xffffffffffffffffffffffffffffffffffffffffffffffffffffffffffffff)\n      and\n      swap1\n      dup2\n      0x00\n      byte\n      swap1\n      mstore8\n      pop\n        /* \"task1/IntegerRomanConvert.sol\":940:955  roman[i+1] = '' */\n      0x00\n        /* \"task1/IntegerRomanConvert.sol\":940:945  roman */\n      dup4\n        /* \"task1/IntegerRomanConvert.sol\":948:949  1 */\n      0x01\n        /* \"task1/IntegerRomanConvert.sol\":946:947  i */\n      dup4\n        /* \"task1/IntegerRomanConvert.sol\":946:949  i+1 */\n      tag_55\n      swap2\n      swap1\n      tag_35\n      jump\t// in\n    tag_55:\n        /* \"task1/IntegerRomanConvert.sol\":940:950  roman[i+1] */\n      dup2\n      mload\n      dup2\n      lt\n      tag_56\n      jumpi\n      tag_57\n      tag_32\n      jump\t// in\n    tag_57:\n    tag_56:\n      0x20\n      add\n      add\n        /* \"task1/IntegerRomanConvert.sol\":940:955  roman[i+1] = '' */\n      swap1\n      not(0xffffffffffffffffffffffffffffffffffffffffffffffffffffffffffffff)\n      and\n      swap1\n      dup2\n      0x00\n      byte\n      swap1\n      mstore8\n      pop\n        /* \"task1/IntegerRomanConvert.sol\":820:970  if (roman[i] == 'I' && roman[i+1] == 'X') {... */\n    tag_51:\n        /* \"task1/IntegerRomanConvert.sol\":987:1002  roman[i] == 'X' */\n      0x5800000000000000000000000000000000000000000000000000000000000000\n        /* \"task1/IntegerRomanConvert.sol\":987:992  roman */\n      dup4\n        /* \"task1/IntegerRomanConvert.sol\":993:994  i */\n      dup3\n        /* \"task1/IntegerRomanConvert.sol\":987:995  roman[i] */\n      dup2\n      mload\n      dup2\n      lt\n      tag_58\n      jumpi\n      tag_59\n      tag_32\n      jump\t// in\n    tag_59:\n    tag_58:\n      0x20\n      add\n      add\n      mload\n      0xf8\n      shr\n      0xf8\n      shl\n        /* \"task1/IntegerRomanConvert.sol\":987:1002  roman[i] == 'X' */\n      not(0xffffffffffffffffffffffffffffffffffffffffffffffffffffffffffffff)\n      and\n      eq\n        /* \"task1/IntegerRomanConvert.sol\":987:1023  roman[i] == 'X' && roman[i+1] == 'L' */\n      dup1\n      iszero\n      tag_60\n      jumpi\n      pop\n        /* \"task1/IntegerRomanConvert.sol\":1006:1023  roman[i+1] == 'L' */\n      0x4c00000000000000000000000000000000000000000000000000000000000000\n        /* \"task1/IntegerRomanConvert.sol\":1006:1011  roman */\n      dup4\n        /* \"task1/IntegerRomanConvert.sol\":1014:1015  1 */\n      0x01\n        /* \"task1/IntegerRomanConvert.sol\":1012:1013  i */\n      dup4\n        /* \"task1/IntegerRomanConvert.sol\":1012:1015  i+1 */\n      tag_61\n      swap2\n      swap1\n      tag_35\n      jump\t// in\n    tag_61:\n        /* \"task1/IntegerRomanConvert.sol\":1006:1016  roman[i+1] */\n      dup2\n      mload\n      dup2\n      lt\n      tag_62\n      jumpi\n      tag_63\n      tag_32\n      jump\t// in\n    tag_63:\n    tag_62:\n      0x20\n      add\n      add\n      mload\n      0xf8\n      shr\n      0xf8\n      shl\n        /* \"task1/IntegerRomanConvert.sol\":1006:1023  roman[i+1] == 'L' */\n      not(0xffffffffffffffffffffffffffffffffffffffffffffffffffffffffffffff)\n      and\n      eq\n        /* \"task1/IntegerRomanConvert.sol\":987:1023  roman[i] == 'X' && roman[i+1] == 'L' */\n    tag_60:\n        /* \"task1/IntegerRomanConvert.sol\":983:1134  if (roman[i] == 'X' && roman[i+1] == 'L') {... */\n      iszero\n      tag_64\n      jumpi\n        /* \"task1/IntegerRomanConvert.sol\":1053:1055  40 */\n      0x28\n        /* \"task1/IntegerRomanConvert.sol\":1043:1055  result += 40 */\n      dup3\n      tag_65\n      swap2\n      swap1\n      tag_35\n      jump\t// in\n    tag_65:\n      swap2\n      pop\n        /* \"task1/IntegerRomanConvert.sol\":1073:1086  roman[i] = '' */\n      0x00\n        /* \"task1/IntegerRomanConvert.sol\":1073:1078  roman */\n      dup4\n        /* \"task1/IntegerRomanConvert.sol\":1079:1080  i */\n      dup3\n        /* \"task1/IntegerRomanConvert.sol\":1073:1081  roman[i] */\n      dup2\n      mload\n      dup2\n      lt\n      tag_66\n      jumpi\n      tag_67\n      tag_32\n      jump\t// in\n    tag_67:\n    tag_66:\n      0x20\n      add\n      add\n        /* \"task1/IntegerRomanConvert.sol\":1073:1086  roman[i] = '' */\n      swap1\n      not(0xffffffffffffffffffffffffffffffffffffffffffffffffffffffffffffff)\n      and\n      swap1\n      dup2\n      0x00\n      byte\n      swap1\n      mstore8\n      pop\n        /* \"task1/IntegerRomanConvert.sol\":1104:1119  roman[i+1] = '' */\n      0x00\n        /* \"task1/IntegerRomanConvert.sol\":1104:1109  roman */\n      dup4\n        /* \"task1/IntegerRomanConvert.sol\":1112:1113  1 */\n      0x01\n        /* \"task1/IntegerRomanConvert.sol\":1110:1111  i */\n      dup4\n        /* \"task1/IntegerRomanConvert.sol\":1110:1113  i+1 */\n      tag_68\n      swap2\n      swap1\n      tag_35\n      jump\t// in\n    tag_68:\n        /* \"task1/IntegerRomanConvert.sol\":1104:1114  roman[i+1] */\n      dup2\n      mload\n      dup2\n      lt\n      tag_69\n      jumpi\n      tag_70\n      tag_32\n      jump\t// in\n    tag_70:\n    tag_69:\n      0x20\n      add\n      add\n        /* \"task1/IntegerRomanConvert.sol\":1104:1119  roman[i+1] = '' */\n      swap1\n      not(0xffffffffffffffffffffffffffffffffffffffffffffffffffffffffffffff)\n      and\n      swap1\n      dup2\n      0x00\n      byte\n      swap1\n      mstore8\n      pop\n        /* \"task1/IntegerRomanConvert.sol\":983:1134  if (roman[i] == 'X' && roman[i+1] == 'L') {... */\n    tag_64:\n        /* \"task1/IntegerRomanConvert.sol\":1151:1166  roman[i] == 'X' */\n      0x5800000000000000000000000000000000000000000000000000000000000000\n        /* \"task1/IntegerRomanConvert.sol\":1151:1156  roman */\n      dup4\n        /* \"task1/IntegerRomanConvert.sol\":1157:1158  i */\n      dup3\n        /* \"task1/IntegerRomanConvert.sol\":1151:1159  roman[i] */\n      dup2\n      mload\n      dup2\n      lt\n      tag_71\n      jumpi\n      tag_72\n      tag_32\n      jump\t// in\n    tag_72:\n    tag_71:\n      0x20\n      add\n      add\n      mload\n      0xf8\n      shr\n      0xf8\n      shl\n        /* \"task1/IntegerRomanConvert.sol\":1151:1166  roman[i] == 'X' */\n      not(0xffffffffffffffffffffffffffffffffffffffffffffffffffffffffffffff)\n      and\n      eq\n        /* \"task1/IntegerRomanConvert.sol\":1151:1187  roman[i] == 'X' && roman[i+1] == 'C' */\n      dup1\n      iszero\n      tag_73\n      jumpi\n      pop\n        /* \"task1/IntegerRomanConvert.sol\":1170:1187  roman[i+1] == 'C' */\n      0x4300000000000000000000000000000000000000000000000000000000000000\n        /* \"task1/IntegerRomanConvert.sol\":1170:1175  roman */\n      dup4\n        /* \"task1/IntegerRomanConvert.sol\":1178:1179  1 */\n      0x01\n        /* \"task1/IntegerRomanConvert.sol\":1176:1177  i */\n      dup4\n        /* \"task1/IntegerRomanConvert.sol\":1176:1179  i+1 */\n      tag_74\n      swap2\n      swap1\n      tag_35\n      jump\t// in\n    tag_74:\n        /* \"task1/IntegerRomanConvert.sol\":1170:1180  roman[i+1] */\n      dup2\n      mload\n      dup2\n      lt\n      tag_75\n      jumpi\n      tag_76\n      tag_32\n      jump\t// in\n    tag_76:\n    tag_75:\n      0x20\n      add\n      add\n      mload\n      0xf8\n      shr\n      0xf8\n      shl\n        /* \"task1/IntegerRomanConvert.sol\":1170:1187  roman[i+1] == 'C' */\n      not(0xffffffffffffffffffffffffffffffffffffffffffffffffffffffffffffff)\n      and\n      eq\n        /* \"task1/IntegerRomanConvert.sol\":1151:1187  roman[i] == 'X' && roman[i+1] == 'C' */\n    tag_73:\n        /* \"task1/IntegerRomanConvert.sol\":1147:1298  if (roman[i] == 'X' && roman[i+1] == 'C') {... */\n      iszero\n      tag_77\n      jumpi\n        /* \"task1/IntegerRomanConvert.sol\":1217:1219  90 */\n      0x5a\n        /* \"task1/IntegerRomanConvert.sol\":1207:1219  result += 90 */\n      dup3\n      tag_78\n      swap2\n      swap1\n      tag_35\n      jump\t// in\n    tag_78:\n      swap2\n      pop\n        /* \"task1/IntegerRomanConvert.sol\":1237:1250  roman[i] = '' */\n      0x00\n        /* \"task1/IntegerRomanConvert.sol\":1237:1242  roman */\n      dup4\n        /* \"task1/IntegerRomanConvert.sol\":1243:1244  i */\n      dup3\n        /* \"task1/IntegerRomanConvert.sol\":1237:1245  roman[i] */\n      dup2\n      mload\n      dup2\n      lt\n      tag_79\n      jumpi\n      tag_80\n      tag_32\n      jump\t// in\n    tag_80:\n    tag_79:\n      0x20\n      add\n      add\n        /* \"task1/IntegerRomanConvert.sol\":1237:1250  roman[i] = '' */\n      swap1\n      not(0xffffffffffffffffffffffffffffffffffffffffffffffffffffffffffffff)\n      and\n      swap1\n      dup2\n      0x00\n      byte\n      swap1\n      mstore8\n      pop\n        /* \"task1/IntegerRomanConvert.sol\":1268:1283  roman[i+1] = '' */\n      0x00\n        /* \"task1/IntegerRomanConvert.sol\":1268:1273  roman */\n      dup4\n        /* \"task1/IntegerRomanConvert.sol\":1276:1277  1 */\n      0x01\n        /* \"task1/IntegerRomanConvert.sol\":1274:1275  i */\n      dup4\n        /* \"task1/IntegerRomanConvert.sol\":1274:1277  i+1 */\n      tag_81\n      swap2\n      swap1\n      tag_35\n      jump\t// in\n    tag_81:\n        /* \"task1/IntegerRomanConvert.sol\":1268:1278  roman[i+1] */\n      dup2\n      mload\n      dup2\n      lt\n      tag_82\n      jumpi\n      tag_83\n      tag_32\n      jump\t// in\n    tag_83:\n    tag_82:\n      0x20\n      add\n      add\n        /* \"task1/IntegerRomanConvert.sol\":1268:1283  roman[i+1] = '' */\n      swap1\n      not(0xffffffffffffffffffffffffffffffffffffffffffffffffffffffffffffff)\n      and\n      swap1\n      dup2\n      0x00\n      byte\n      swap1\n      mstore8\n      pop\n        /* \"task1/IntegerRomanConvert.sol\":1147:1298  if (roman[i] == 'X' && roman[i+1] == 'C') {... */\n    tag_77:\n        /* \"task1/IntegerRomanConvert.sol\":1315:1330  roman[i] == 'C' */\n      0x4300000000000000000000000000000000000000000000000000000000000000\n        /* \"task1/IntegerRomanConvert.sol\":1315:1320  roman */\n      dup4\n        /* \"task1/IntegerRomanConvert.sol\":1321:1322  i */\n      dup3\n        /* \"task1/IntegerRomanConvert.sol\":1315:1323  roman[i] */\n      dup2\n      mload\n      dup2\n      lt\n      tag_84\n      jumpi\n      tag_85\n      tag_32\n      jump\t// in\n    tag_85:\n    tag_84:\n      0x20\n      add\n      add\n      mload\n      0xf8\n      shr\n      0xf8\n      shl\n        /* \"task1/IntegerRomanConvert.sol\":1315:1330  roman[i] == 'C' */\n      not(0xffffffffffffffffffffffffffffffffffffffffffffffffffffffffffffff)\n      and\n      eq\n        /* \"task1/IntegerRomanConvert.sol\":1315:1351  roman[i] == 'C' && roman[i+1] == 'D' */\n      dup1\n      iszero\n      tag_86\n      jumpi\n      pop\n        /* \"task1/IntegerRomanConvert.sol\":1334:1351  roman[i+1] == 'D' */\n      0x4400000000000000000000000000000000000000000000000000000000000000\n        /* \"task1/IntegerRomanConvert.sol\":1334:1339  roman */\n      dup4\n        /* \"task1/IntegerRomanConvert.sol\":1342:1343  1 */\n      0x01\n        /* \"task1/IntegerRomanConvert.sol\":1340:1341  i */\n      dup4\n        /* \"task1/IntegerRomanConvert.sol\":1340:1343  i+1 */\n      tag_87\n      swap2\n      swap1\n      tag_35\n      jump\t// in\n    tag_87:\n        /* \"task1/IntegerRomanConvert.sol\":1334:1344  roman[i+1] */\n      dup2\n      mload\n      dup2\n      lt\n      tag_88\n      jumpi\n      tag_89\n      tag_32\n      jump\t// in\n    tag_89:\n    tag_88:\n      0x20\n      add\n      add\n      mload\n      0xf8\n      shr\n      0xf8\n      shl\n        /* \"task1/IntegerRomanConvert.sol\":1334:1351  roman[i+1] == 'D' */\n      not(0xffffffffffffffffffffffffffffffffffffffffffffffffffffffffffffff)\n      and\n      eq\n        /* \"task1/IntegerRomanConvert.sol\":1315:1351  roman[i] == 'C' && roman[i+1] == 'D' */\n    tag_86:\n        /* \"task1/IntegerRomanConvert.sol\":1311:1463  if (roman[i] == 'C' && roman[i+1] == 'D') {... */\n      iszero\n      tag_90\n      jumpi\n        /* \"task1/IntegerRomanConvert.sol\":1381:1384  400 */\n      0x0190\n        /* \"task1/IntegerRomanConvert.sol\":1371:1384  result += 400 */\n      dup3\n      tag_91\n      swap2\n      swap1\n      tag_35\n      jump\t// in\n    tag_91:\n      swap2\n      pop\n        /* \"task1/IntegerRomanConvert.sol\":1402:1415  roman[i] = '' */\n      0x00\n        /* \"task1/IntegerRomanConvert.sol\":1402:1407  roman */\n      dup4\n        /* \"task1/IntegerRomanConvert.sol\":1408:1409  i */\n      dup3\n        /* \"task1/IntegerRomanConvert.sol\":1402:1410  roman[i] */\n      dup2\n      mload\n      dup2\n      lt\n      tag_92\n      jumpi\n      tag_93\n      tag_32\n      jump\t// in\n    tag_93:\n    tag_92:\n      0x20\n      add\n      add\n        /* \"task1/IntegerRomanConvert.sol\":1402:1415  roman[i] = '' */\n      swap1\n      not(0xffffffffffffffffffffffffffffffffffffffffffffffffffffffffffffff)\n      and\n      swap1\n      dup2\n      0x00\n      byte\n      swap1\n      mstore8\n      pop\n        /* \"task1/IntegerRomanConvert.sol\":1433:1448  roman[i+1] = '' */\n      0x00\n        /* \"task1/IntegerRomanConvert.sol\":1433:1438  roman */\n      dup4\n        /* \"task1/IntegerRomanConvert.sol\":1441:1442  1 */\n      0x01\n        /* \"task1/IntegerRomanConvert.sol\":1439:1440  i */\n      dup4\n        /* \"task1/IntegerRomanConvert.sol\":1439:1442  i+1 */\n      tag_94\n      swap2\n      swap1\n      tag_35\n      jump\t// in\n    tag_94:\n        /* \"task1/IntegerRomanConvert.sol\":1433:1443  roman[i+1] */\n      dup2\n      mload\n      dup2\n      lt\n      tag_95\n      jumpi\n      tag_96\n      tag_32\n      jump\t// in\n    tag_96:\n    tag_95:\n      0x20\n      add\n      add\n        /* \"task1/IntegerRomanConvert.sol\":1433:1448  roman[i+1] = '' */\n      swap1\n      not(0xffffffffffffffffffffffffffffffffffffffffffffffffffffffffffffff)\n      and\n      swap1\n      dup2\n      0x00\n      byte\n      swap1\n      mstore8\n      pop\n        /* \"task1/IntegerRomanConvert.sol\":1311:1463  if (roman[i] == 'C' && roman[i+1] == 'D') {... */\n    tag_90:\n        /* \"task1/IntegerRomanConvert.sol\":1480:1495  roman[i] == 'C' */\n      0x4300000000000000000000000000000000000000000000000000000000000000\n        /* \"task1/IntegerRomanConvert.sol\":1480:1485  roman */\n      dup4\n        /* \"task1/IntegerRomanConvert.sol\":1486:1487  i */\n      dup3\n        /* \"task1/IntegerRomanConvert.sol\":1480:1488  roman[i] */\n      dup2\n      mload\n      dup2\n      lt\n      tag_97\n      jumpi\n      tag_98\n      tag_32\n      jump\t// in\n    tag_98:\n    tag_97:\n      0x20\n      add\n      add\n      mload\n      0xf8\n      shr\n      0xf8\n      shl\n        /* \"task1/IntegerRomanConvert.sol\":1480:1495  roman[i] == 'C' */\n      not(0xffffffffffffffffffffffffffffffffffffffffffffffffffffffffffffff)\n      and\n      eq\n        /* \"task1/IntegerRomanConvert.sol\":1480:1516  roman[i] == 'C' && roman[i+1] == 'M' */\n      dup1\n      iszero\n      tag_99\n      jumpi\n      pop\n        /* \"task1/IntegerRomanConvert.sol\":1499:1516  roman[i+1] == 'M' */\n      0x4d00000000000000000000000000000000000000000000000000000000000000\n        /* \"task1/IntegerRomanConvert.sol\":1499:1504  roman */\n      dup4\n        /* \"task1/IntegerRomanConvert.sol\":1507:1508  1 */\n      0x01\n        /* \"task1/IntegerRomanConvert.sol\":1505:1506  i */\n      dup4\n        /* \"task1/IntegerRomanConvert.sol\":1505:1508  i+1 */\n      tag_100\n      swap2\n      swap1\n      tag_35\n      jump\t// in\n    tag_100:\n        /* \"task1/IntegerRomanConvert.sol\":1499:1509  roman[i+1] */\n      dup2\n      mload\n      dup2\n      lt\n      tag_101\n      jumpi\n      tag_102\n      tag_32\n      jump\t// in\n    tag_102:\n    tag_101:\n      0x20\n      add\n      add\n      mload\n      0xf8\n      shr\n      0xf8\n      shl\n        /* \"task1/IntegerRomanConvert.sol\":1499:1516  roman[i+1] == 'M' */\n      not(0xffffffffffffffffffffffffffffffffffffffffffffffffffffffffffffff)\n      and\n      eq\n        /* \"task1/IntegerRomanConvert.sol\":1480:1516  roman[i] == 'C' && roman[i+1] == 'M' */\n    tag_99:\n        /* \"task1/IntegerRomanConvert.sol\":1476:1628  if (roman[i] == 'C' && roman[i+1] == 'M') {... */\n      iszero\n      tag_103\n      jumpi\n        /* \"task1/IntegerRomanConvert.sol\":1546:1549  900 */\n      0x0384\n        /* \"task1/IntegerRomanConvert.sol\":1536:1549  result += 900 */\n      dup3\n      tag_104\n      swap2\n      swap1\n      tag_35\n      jump\t// in\n    tag_104:\n      swap2\n      pop\n        /* \"task1/IntegerRomanConvert.sol\":1567:1580  roman[i] = '' */\n      0x00\n        /* \"task1/IntegerRomanConvert.sol\":1567:1572  roman */\n      dup4\n        /* \"task1/IntegerRomanConvert.sol\":1573:1574  i */\n      dup3\n        /* \"task1/IntegerRomanConvert.sol\":1567:1575  roman[i] */\n      dup2\n      mload\n      dup2\n      lt\n      tag_105\n      jumpi\n      tag_106\n      tag_32\n      jump\t// in\n    tag_106:\n    tag_105:\n      0x20\n      add\n      add\n        /* \"task1/IntegerRomanConvert.sol\":1567:1580  roman[i] = '' */\n      swap1\n      not(0xffffffffffffffffffffffffffffffffffffffffffffffffffffffffffffff)\n      and\n      swap1\n      dup2\n      0x00\n      byte\n      swap1\n      mstore8\n      pop\n        /* \"task1/IntegerRomanConvert.sol\":1598:1613  roman[i+1] = '' */\n      0x00\n        /* \"task1/IntegerRomanConvert.sol\":1598:1603  roman */\n      dup4\n        /* \"task1/IntegerRomanConvert.sol\":1606:1607  1 */\n      0x01\n        /* \"task1/IntegerRomanConvert.sol\":1604:1605  i */\n      dup4\n        /* \"task1/IntegerRomanConvert.sol\":1604:1607  i+1 */\n      tag_107\n      swap2\n      swap1\n      tag_35\n      jump\t// in\n    tag_107:\n        /* \"task1/IntegerRomanConvert.sol\":1598:1608  roman[i+1] */\n      dup2\n      mload\n      dup2\n      lt\n      tag_108\n      jumpi\n      tag_109\n      tag_32\n      jump\t// in\n    tag_109:\n    tag_108:\n      0x20\n      add\n      add\n        /* \"task1/IntegerRomanConvert.sol\":1598:1613  roman[i+1] = '' */\n      swap1\n      not(0xffffffffffffffffffffffffffffffffffffffffffffffffffffffffffffff)\n      and\n      swap1\n      dup2\n      0x00\n      byte\n      swap1\n      mstore8\n      pop\n        /* \"task1/IntegerRomanConvert.sol\":1476:1628  if (roman[i] == 'C' && roman[i+1] == 'M') {... */\n    tag_103:\n        /* \"task1/IntegerRomanConvert.sol\":638:641  i++ */\n      dup1\n      dup1\n      0x01\n      add\n      swap2\n      pop\n      pop\n        /* \"task1/IntegerRomanConvert.sol\":601:1638  for (uint i = 0; i < roman.length-1; i++) {... */\n      jump(tag_25)\n    tag_26:\n      pop\n        /* \"task1/IntegerRomanConvert.sol\":1653:1659  uint i */\n      0x00\n        /* \"task1/IntegerRomanConvert.sol\":1662:1663  0 */\n      0x00\n        /* \"task1/IntegerRomanConvert.sol\":1653:1663  uint i = 0 */\n      swap1\n      pop\n        /* \"task1/IntegerRomanConvert.sol\":1648:1741  for (uint i = 0; i < roman.length; i++) {... */\n    tag_110:\n        /* \"task1/IntegerRomanConvert.sol\":1669:1674  roman */\n      dup3\n        /* \"task1/IntegerRomanConvert.sol\":1669:1681  roman.length */\n      mload\n        /* \"task1/IntegerRomanConvert.sol\":1665:1666  i */\n      dup2\n        /* \"task1/IntegerRomanConvert.sol\":1665:1681  i < roman.length */\n      lt\n        /* \"task1/IntegerRomanConvert.sol\":1648:1741  for (uint i = 0; i < roman.length; i++) {... */\n      iszero\n      tag_111\n      jumpi\n        /* \"task1/IntegerRomanConvert.sol\":1712:1720  romanMap */\n      0x00\n        /* \"task1/IntegerRomanConvert.sol\":1712:1730  romanMap[roman[i]] */\n      0x00\n        /* \"task1/IntegerRomanConvert.sol\":1721:1726  roman */\n      dup5\n        /* \"task1/IntegerRomanConvert.sol\":1727:1728  i */\n      dup4\n        /* \"task1/IntegerRomanConvert.sol\":1721:1729  roman[i] */\n      dup2\n      mload\n      dup2\n      lt\n      tag_113\n      jumpi\n      tag_114\n      tag_32\n      jump\t// in\n    tag_114:\n    tag_113:\n      0x20\n      add\n      add\n      mload\n      0xf8\n      shr\n      0xf8\n      shl\n        /* \"task1/IntegerRomanConvert.sol\":1712:1730  romanMap[roman[i]] */\n      not(0xffffffffffffffffffffffffffffffffffffffffffffffffffffffffffffff)\n      and\n      not(0xffffffffffffffffffffffffffffffffffffffffffffffffffffffffffffff)\n      and\n      dup2\n      mstore\n      0x20\n      add\n      swap1\n      dup2\n      mstore\n      0x20\n      add\n      0x00\n      keccak256\n      sload\n        /* \"task1/IntegerRomanConvert.sol\":1702:1730  result += romanMap[roman[i]] */\n      dup3\n      tag_115\n      swap2\n      swap1\n      tag_35\n      jump\t// in\n    tag_115:\n      swap2\n      pop\n        /* \"task1/IntegerRomanConvert.sol\":1683:1686  i++ */\n      dup1\n      dup1\n      0x01\n      add\n      swap2\n      pop\n      pop\n        /* \"task1/IntegerRomanConvert.sol\":1648:1741  for (uint i = 0; i < roman.length; i++) {... */\n      jump(tag_110)\n    tag_111:\n      pop\n        /* \"task1/IntegerRomanConvert.sol\":1757:1763  result */\n      dup1\n        /* \"task1/IntegerRomanConvert.sol\":1750:1763  return result */\n      swap3\n      pop\n      pop\n      pop\n        /* \"task1/IntegerRomanConvert.sol\":456:1770  function romanToInteger(string memory n) public view returns (uint) {... */\n      swap2\n      swap1\n      pop\n      jump\t// out\n        /* \"#utility.yul\":7:82   */\n    tag_116:\n        /* \"#utility.yul\":40:46   */\n      0x00\n        /* \"#utility.yul\":73:75   */\n      0x40\n        /* \"#utility.yul\":67:76   */\n      mload\n        /* \"#utility.yul\":57:76   */\n      swap1\n      pop\n        /* \"#utility.yul\":7:82   */\n      swap1\n      jump\t// out\n        /* \"#utility.yul\":88:205   */\n    tag_117:\n        /* \"#utility.yul\":197:198   */\n      0x00\n        /* \"#utility.yul\":194:195   */\n      0x00\n        /* \"#utility.yul\":187:199   */\n      revert\n        /* \"#utility.yul\":211:328   */\n    tag_118:\n        /* \"#utility.yul\":320:321   */\n      0x00\n        /* \"#utility.yul\":317:318   */\n      0x00\n        /* \"#utility.yul\":310:322   */\n      revert\n        /* \"#utility.yul\":334:411   */\n    tag_119:\n        /* \"#utility.yul\":371:378   */\n      0x00\n        /* \"#utility.yul\":400:405   */\n      dup2\n        /* \"#utility.yul\":389:405   */\n      swap1\n      pop\n        /* \"#utility.yul\":334:411   */\n      swap2\n      swap1\n      pop\n      jump\t// out\n        /* \"#utility.yul\":417:539   */\n    tag_120:\n        /* \"#utility.yul\":490:514   */\n      tag_147\n        /* \"#utility.yul\":508:513   */\n      dup2\n        /* \"#utility.yul\":490:514   */\n      tag_119\n      jump\t// in\n    tag_147:\n        /* \"#utility.yul\":483:488   */\n      dup2\n        /* \"#utility.yul\":480:515   */\n      eq\n        /* \"#utility.yul\":470:533   */\n      tag_148\n      jumpi\n        /* \"#utility.yul\":529:530   */\n      0x00\n        /* \"#utility.yul\":526:527   */\n      0x00\n        /* \"#utility.yul\":519:531   */\n      revert\n        /* \"#utility.yul\":470:533   */\n    tag_148:\n        /* \"#utility.yul\":417:539   */\n      pop\n      jump\t// out\n        /* \"#utility.yul\":545:684   */\n    tag_121:\n        /* \"#utility.yul\":591:596   */\n      0x00\n        /* \"#utility.yul\":629:635   */\n      dup2\n        /* \"#utility.yul\":616:636   */\n      calldataload\n        /* \"#utility.yul\":607:636   */\n      swap1\n      pop\n        /* \"#utility.yul\":645:678   */\n      tag_150\n        /* \"#utility.yul\":672:677   */\n      dup2\n        /* \"#utility.yul\":645:678   */\n      tag_120\n      jump\t// in\n    tag_150:\n        /* \"#utility.yul\":545:684   */\n      swap3\n      swap2\n      pop\n      pop\n      jump\t// out\n        /* \"#utility.yul\":690:1019   */\n    tag_8:\n        /* \"#utility.yul\":749:755   */\n      0x00\n        /* \"#utility.yul\":798:800   */\n      0x20\n        /* \"#utility.yul\":786:795   */\n      dup3\n        /* \"#utility.yul\":777:784   */\n      dup5\n        /* \"#utility.yul\":773:796   */\n      sub\n        /* \"#utility.yul\":769:801   */\n      slt\n        /* \"#utility.yul\":766:885   */\n      iszero\n      tag_152\n      jumpi\n        /* \"#utility.yul\":804:883   */\n      tag_153\n      tag_117\n      jump\t// in\n    tag_153:\n        /* \"#utility.yul\":766:885   */\n    tag_152:\n        /* \"#utility.yul\":924:925   */\n      0x00\n        /* \"#utility.yul\":949:1002   */\n      tag_154\n        /* \"#utility.yul\":994:1001   */\n      dup5\n        /* \"#utility.yul\":985:991   */\n      dup3\n        /* \"#utility.yul\":974:983   */\n      dup6\n        /* \"#utility.yul\":970:992   */\n      add\n        /* \"#utility.yul\":949:1002   */\n      tag_121\n      jump\t// in\n    tag_154:\n        /* \"#utility.yul\":939:1002   */\n      swap2\n      pop\n        /* \"#utility.yul\":895:1012   */\n      pop\n        /* \"#utility.yul\":690:1019   */\n      swap3\n      swap2\n      pop\n      pop\n      jump\t// out\n        /* \"#utility.yul\":1025:1124   */\n    tag_122:\n        /* \"#utility.yul\":1077:1083   */\n      0x00\n        /* \"#utility.yul\":1111:1116   */\n      dup2\n        /* \"#utility.yul\":1105:1117   */\n      mload\n        /* \"#utility.yul\":1095:1117   */\n      swap1\n      pop\n        /* \"#utility.yul\":1025:1124   */\n      swap2\n      swap1\n      pop\n      jump\t// out\n        /* \"#utility.yul\":1130:1299   */\n    tag_123:\n        /* \"#utility.yul\":1214:1225   */\n      0x00\n        /* \"#utility.yul\":1248:1254   */\n      dup3\n        /* \"#utility.yul\":1243:1246   */\n      dup3\n        /* \"#utility.yul\":1236:1255   */\n      mstore\n        /* \"#utility.yul\":1288:1292   */\n      0x20\n        /* \"#utility.yul\":1283:1286   */\n      dup3\n        /* \"#utility.yul\":1279:1293   */\n      add\n        /* \"#utility.yul\":1264:1293   */\n      swap1\n      pop\n        /* \"#utility.yul\":1130:1299   */\n      swap3\n      swap2\n      pop\n      pop\n      jump\t// out\n        /* \"#utility.yul\":1305:1444   */\n    tag_124:\n        /* \"#utility.yul\":1394:1400   */\n      dup3\n        /* \"#utility.yul\":1389:1392   */\n      dup2\n        /* \"#utility.yul\":1384:1387   */\n      dup4\n        /* \"#utility.yul\":1378:1401   */\n      mcopy\n        /* \"#utility.yul\":1435:1436   */\n      0x00\n        /* \"#utility.yul\":1426:1432   */\n      dup4\n        /* \"#utility.yul\":1421:1424   */\n      dup4\n        /* \"#utility.yul\":1417:1433   */\n      add\n        /* \"#utility.yul\":1410:1437   */\n      mstore\n        /* \"#utility.yul\":1305:1444   */\n      pop\n      pop\n      pop\n      jump\t// out\n        /* \"#utility.yul\":1450:1552   */\n    tag_125:\n        /* \"#utility.yul\":1491:1497   */\n      0x00\n        /* \"#utility.yul\":1542:1544   */\n      0x1f\n        /* \"#utility.yul\":1538:1545   */\n      not\n        /* \"#utility.yul\":1533:1535   */\n      0x1f\n        /* \"#utility.yul\":1526:1531   */\n      dup4\n        /* \"#utility.yul\":1522:1536   */\n      add\n        /* \"#utility.yul\":1518:1546   */\n      and\n        /* \"#utility.yul\":1508:1546   */\n      swap1\n      pop\n        /* \"#utility.yul\":1450:1552   */\n      swap2\n      swap1\n      pop\n      jump\t// out\n        /* \"#utility.yul\":1558:1935   */\n    tag_126:\n        /* \"#utility.yul\":1646:1649   */\n      0x00\n        /* \"#utility.yul\":1674:1713   */\n      tag_160\n        /* \"#utility.yul\":1707:1712   */\n      dup3\n        /* \"#utility.yul\":1674:1713   */\n      tag_122\n      jump\t// in\n    tag_160:\n        /* \"#utility.yul\":1729:1800   */\n      tag_161\n        /* \"#utility.yul\":1793:1799   */\n      dup2\n        /* \"#utility.yul\":1788:1791   */\n      dup6\n        /* \"#utility.yul\":1729:1800   */\n      tag_123\n      jump\t// in\n    tag_161:\n        /* \"#utility.yul\":1722:1800   */\n      swap4\n      pop\n        /* \"#utility.yul\":1809:1874   */\n      tag_162\n        /* \"#utility.yul\":1867:1873   */\n      dup2\n        /* \"#utility.yul\":1862:1865   */\n      dup6\n        /* \"#utility.yul\":1855:1859   */\n      0x20\n        /* \"#utility.yul\":1848:1853   */\n      dup7\n        /* \"#utility.yul\":1844:1860   */\n      add\n        /* \"#utility.yul\":1809:1874   */\n      tag_124\n      jump\t// in\n    tag_162:\n        /* \"#utility.yul\":1899:1928   */\n      tag_163\n        /* \"#utility.yul\":1921:1927   */\n      dup2\n        /* \"#utility.yul\":1899:1928   */\n      tag_125\n      jump\t// in\n    tag_163:\n        /* \"#utility.yul\":1894:1897   */\n      dup5\n        /* \"#utility.yul\":1890:1929   */\n      add\n        /* \"#utility.yul\":1883:1929   */\n      swap2\n      pop\n        /* \"#utility.yul\":1650:1935   */\n      pop\n        /* \"#utility.yul\":1558:1935   */\n      swap3\n      swap2\n      pop\n      pop\n      jump\t// out\n        /* \"#utility.yul\":1941:2254   */\n    tag_11:\n        /* \"#utility.yul\":2054:2058   */\n      0x00\n        /* \"#utility.yul\":2092:2094   */\n      0x20\n        /* \"#utility.yul\":2081:2090   */\n      dup3\n        /* \"#utility.yul\":2077:2095   */\n      add\n        /* \"#utility.yul\":2069:2095   */\n      swap1\n      pop\n        /* \"#utility.yul\":2141:2150   */\n      dup2\n        /* \"#utility.yul\":2135:2139   */\n      dup2\n        /* \"#utility.yul\":2131:2151   */\n      sub\n        /* \"#utility.yul\":2127:2128   */\n      0x00\n        /* \"#utility.yul\":2116:2125   */\n      dup4\n        /* \"#utility.yul\":2112:2129   */\n      add\n        /* \"#utility.yul\":2105:2152   */\n      mstore\n        /* \"#utility.yul\":2169:2247   */\n      tag_165\n        /* \"#utility.yul\":2242:2246   */\n      dup2\n        /* \"#utility.yul\":2233:2239   */\n      dup5\n        /* \"#utility.yul\":2169:2247   */\n      tag_126\n      jump\t// in\n    tag_165:\n        /* \"#utility.yul\":2161:2247   */\n      swap1\n      pop\n        /* \"#utility.yul\":1941:2254   */\n      swap3\n      swap2\n      pop\n      pop\n      jump\t// out\n        /* \"#utility.yul\":2260:2409   */\n    tag_127:\n        /* \"#utility.yul\":2296:2303   */\n      0x00\n        /* \"#utility.yul\":2336:2402   */\n      0xff00000000000000000000000000000000000000000000000000000000000000\n        /* \"#utility.yul\":2329:2334   */\n      dup3\n        /* \"#utility.yul\":2325:2403   */\n      and\n        /* \"#utility.yul\":2314:2403   */\n      swap1\n      pop\n        /* \"#utility.yul\":2260:2409   */\n      swap2\n      swap1\n      pop\n      jump\t// out\n        /* \"#utility.yul\":2415:2535   */\n    tag_128:\n        /* \"#utility.yul\":2487:2510   */\n      tag_168\n        /* \"#utility.yul\":2504:2509   */\n      dup2\n        /* \"#utility.yul\":2487:2510   */\n      tag_127\n      jump\t// in\n    tag_168:\n        /* \"#utility.yul\":2480:2485   */\n      dup2\n        /* \"#utility.yul\":2477:2511   */\n      eq\n        /* \"#utility.yul\":2467:2529   */\n      tag_169\n      jumpi\n        /* \"#utility.yul\":2525:2526   */\n      0x00\n        /* \"#utility.yul\":2522:2523   */\n      0x00\n        /* \"#utility.yul\":2515:2527   */\n      revert\n        /* \"#utility.yul\":2467:2529   */\n    tag_169:\n        /* \"#utility.yul\":2415:2535   */\n      pop\n      jump\t// out\n        /* \"#utility.yul\":2541:2678   */\n    tag_129:\n        /* \"#utility.yul\":2586:2591   */\n      0x00\n        /* \"#utility.yul\":2624:2630   */\n      dup2\n        /* \"#utility.yul\":2611:2631   */\n      calldataload\n        /* \"#utility.yul\":2602:2631   */\n      swap1\n      pop\n        /* \"#utility.yul\":2640:2672   */\n      tag_171\n        /* \"#utility.yul\":2666:2671   */\n      dup2\n        /* \"#utility.yul\":2640:2672   */\n      tag_128\n      jump\t// in\n    tag_171:\n        /* \"#utility.yul\":2541:2678   */\n      swap3\n      swap2\n      pop\n      pop\n      jump\t// out\n        /* \"#utility.yul\":2684:3011   */\n    tag_14:\n        /* \"#utility.yul\":2742:2748   */\n      0x00\n        /* \"#utility.yul\":2791:2793   */\n      0x20\n        /* \"#utility.yul\":2779:2788   */\n      dup3\n        /* \"#utility.yul\":2770:2777   */\n      dup5\n        /* \"#utility.yul\":2766:2789   */\n      sub\n        /* \"#utility.yul\":2762:2794   */\n      slt\n        /* \"#utility.yul\":2759:2878   */\n      iszero\n      tag_173\n      jumpi\n        /* \"#utility.yul\":2797:2876   */\n      tag_174\n      tag_117\n      jump\t// in\n    tag_174:\n        /* \"#utility.yul\":2759:2878   */\n    tag_173:\n        /* \"#utility.yul\":2917:2918   */\n      0x00\n        /* \"#utility.yul\":2942:2994   */\n      tag_175\n        /* \"#utility.yul\":2986:2993   */\n      dup5\n        /* \"#utility.yul\":2977:2983   */\n      dup3\n        /* \"#utility.yul\":2966:2975   */\n      dup6\n        /* \"#utility.yul\":2962:2984   */\n      add\n        /* \"#utility.yul\":2942:2994   */\n      tag_129\n      jump\t// in\n    tag_175:\n        /* \"#utility.yul\":2932:2994   */\n      swap2\n      pop\n        /* \"#utility.yul\":2888:3004   */\n      pop\n        /* \"#utility.yul\":2684:3011   */\n      swap3\n      swap2\n      pop\n      pop\n      jump\t// out\n        /* \"#utility.yul\":3017:3135   */\n    tag_130:\n        /* \"#utility.yul\":3104:3128   */\n      tag_177\n        /* \"#utility.yul\":3122:3127   */\n      dup2\n        /* \"#utility.yul\":3104:3128   */\n      tag_119\n      jump\t// in\n    tag_177:\n        /* \"#utility.yul\":3099:3102   */\n      dup3\n        /* \"#utility.yul\":3092:3129   */\n      mstore\n        /* \"#utility.yul\":3017:3135   */\n      pop\n      pop\n      jump\t// out\n        /* \"#utility.yul\":3141:3363   */\n    tag_17:\n        /* \"#utility.yul\":3234:3238   */\n      0x00\n        /* \"#utility.yul\":3272:3274   */\n      0x20\n        /* \"#utility.yul\":3261:3270   */\n      dup3\n        /* \"#utility.yul\":3257:3275   */\n      add\n        /* \"#utility.yul\":3249:3275   */\n      swap1\n      pop\n        /* \"#utility.yul\":3285:3356   */\n      tag_179\n        /* \"#utility.yul\":3353:3354   */\n      0x00\n        /* \"#utility.yul\":3342:3351   */\n      dup4\n        /* \"#utility.yul\":3338:3355   */\n      add\n        /* \"#utility.yul\":3329:3335   */\n      dup5\n        /* \"#utility.yul\":3285:3356   */\n      tag_130\n      jump\t// in\n    tag_179:\n        /* \"#utility.yul\":3141:3363   */\n      swap3\n      swap2\n      pop\n      pop\n      jump\t// out\n        /* \"#utility.yul\":3369:3486   */\n    tag_131:\n        /* \"#utility.yul\":3478:3479   */\n      0x00\n        /* \"#utility.yul\":3475:3476   */\n      0x00\n        /* \"#utility.yul\":3468:3480   */\n      revert\n        /* \"#utility.yul\":3492:3609   */\n    tag_132:\n        /* \"#utility.yul\":3601:3602   */\n      0x00\n        /* \"#utility.yul\":3598:3599   */\n      0x00\n        /* \"#utility.yul\":3591:3603   */\n      revert\n        /* \"#utility.yul\":3615:3795   */\n    tag_133:\n        /* \"#utility.yul\":3663:3740   */\n      0x4e487b7100000000000000000000000000000000000000000000000000000000\n        /* \"#utility.yul\":3660:3661   */\n      0x00\n        /* \"#utility.yul\":3653:3741   */\n      mstore\n        /* \"#utility.yul\":3760:3764   */\n      0x41\n        /* \"#utility.yul\":3757:3758   */\n      0x04\n        /* \"#utility.yul\":3750:3765   */\n      mstore\n        /* \"#utility.yul\":3784:3788   */\n      0x24\n        /* \"#utility.yul\":3781:3782   */\n      0x00\n        /* \"#utility.yul\":3774:3789   */\n      revert\n        /* \"#utility.yul\":3801:4082   */\n    tag_134:\n        /* \"#utility.yul\":3884:3911   */\n      tag_184\n        /* \"#utility.yul\":3906:3910   */\n      dup3\n        /* \"#utility.yul\":3884:3911   */\n      tag_125\n      jump\t// in\n    tag_184:\n        /* \"#utility.yul\":3876:3882   */\n      dup2\n        /* \"#utility.yul\":3872:3912   */\n      add\n        /* \"#utility.yul\":4014:4020   */\n      dup2\n        /* \"#utility.yul\":4002:4012   */\n      dup2\n        /* \"#utility.yul\":3999:4021   */\n      lt\n        /* \"#utility.yul\":3978:3996   */\n      0xffffffffffffffff\n        /* \"#utility.yul\":3966:3976   */\n      dup3\n        /* \"#utility.yul\":3963:3997   */\n      gt\n        /* \"#utility.yul\":3960:4022   */\n      or\n        /* \"#utility.yul\":3957:4045   */\n      iszero\n      tag_185\n      jumpi\n        /* \"#utility.yul\":4025:4043   */\n      tag_186\n      tag_133\n      jump\t// in\n    tag_186:\n        /* \"#utility.yul\":3957:4045   */\n    tag_185:\n        /* \"#utility.yul\":4065:4075   */\n      dup1\n        /* \"#utility.yul\":4061:4063   */\n      0x40\n        /* \"#utility.yul\":4054:4076   */\n      mstore\n        /* \"#utility.yul\":3844:4082   */\n      pop\n        /* \"#utility.yul\":3801:4082   */\n      pop\n      pop\n      jump\t// out\n        /* \"#utility.yul\":4088:4217   */\n    tag_135:\n        /* \"#utility.yul\":4122:4128   */\n      0x00\n        /* \"#utility.yul\":4149:4169   */\n      tag_188\n      tag_116\n      jump\t// in\n    tag_188:\n        /* \"#utility.yul\":4139:4169   */\n      swap1\n      pop\n        /* \"#utility.yul\":4178:4211   */\n      tag_189\n        /* \"#utility.yul\":4206:4210   */\n      dup3\n        /* \"#utility.yul\":4198:4204   */\n      dup3\n        /* \"#utility.yul\":4178:4211   */\n      tag_134\n      jump\t// in\n    tag_189:\n        /* \"#utility.yul\":4088:4217   */\n      swap2\n      swap1\n      pop\n      jump\t// out\n        /* \"#utility.yul\":4223:4531   */\n    tag_136:\n        /* \"#utility.yul\":4285:4289   */\n      0x00\n        /* \"#utility.yul\":4375:4393   */\n      0xffffffffffffffff\n        /* \"#utility.yul\":4367:4373   */\n      dup3\n        /* \"#utility.yul\":4364:4394   */\n      gt\n        /* \"#utility.yul\":4361:4417   */\n      iszero\n      tag_191\n      jumpi\n        /* \"#utility.yul\":4397:4415   */\n      tag_192\n      tag_133\n      jump\t// in\n    tag_192:\n        /* \"#utility.yul\":4361:4417   */\n    tag_191:\n        /* \"#utility.yul\":4435:4464   */\n      tag_193\n        /* \"#utility.yul\":4457:4463   */\n      dup3\n        /* \"#utility.yul\":4435:4464   */\n      tag_125\n      jump\t// in\n    tag_193:\n        /* \"#utility.yul\":4427:4464   */\n      swap1\n      pop\n        /* \"#utility.yul\":4519:4523   */\n      0x20\n        /* \"#utility.yul\":4513:4517   */\n      dup2\n        /* \"#utility.yul\":4509:4524   */\n      add\n        /* \"#utility.yul\":4501:4524   */\n      swap1\n      pop\n        /* \"#utility.yul\":4223:4531   */\n      swap2\n      swap1\n      pop\n      jump\t// out\n        /* \"#utility.yul\":4537:4685   */\n    tag_137:\n        /* \"#utility.yul\":4635:4641   */\n      dup3\n        /* \"#utility.yul\":4630:4633   */\n      dup2\n        /* \"#utility.yul\":4625:4628   */\n      dup4\n        /* \"#utility.yul\":4612:4642   */\n      calldatacopy\n        /* \"#utility.yul\":4676:4677   */\n      0x00\n        /* \"#utility.yul\":4667:4673   */\n      dup4\n        /* \"#utility.yul\":4662:4665   */\n      dup4\n        /* \"#utility.yul\":4658:4674   */\n      add\n        /* \"#utility.yul\":4651:4678   */\n      mstore\n        /* \"#utility.yul\":4537:4685   */\n      pop\n      pop\n      pop\n      jump\t// out\n        /* \"#utility.yul\":4691:5116   */\n    tag_138:\n        /* \"#utility.yul\":4769:4774   */\n      0x00\n        /* \"#utility.yul\":4794:4860   */\n      tag_196\n        /* \"#utility.yul\":4810:4859   */\n      tag_197\n        /* \"#utility.yul\":4852:4858   */\n      dup5\n        /* \"#utility.yul\":4810:4859   */\n      tag_136\n      jump\t// in\n    tag_197:\n        /* \"#utility.yul\":4794:4860   */\n      tag_135\n      jump\t// in\n    tag_196:\n        /* \"#utility.yul\":4785:4860   */\n      swap1\n      pop\n        /* \"#utility.yul\":4883:4889   */\n      dup3\n        /* \"#utility.yul\":4876:4881   */\n      dup2\n        /* \"#utility.yul\":4869:4890   */\n      mstore\n        /* \"#utility.yul\":4921:4925   */\n      0x20\n        /* \"#utility.yul\":4914:4919   */\n      dup2\n        /* \"#utility.yul\":4910:4926   */\n      add\n        /* \"#utility.yul\":4959:4962   */\n      dup5\n        /* \"#utility.yul\":4950:4956   */\n      dup5\n        /* \"#utility.yul\":4945:4948   */\n      dup5\n        /* \"#utility.yul\":4941:4957   */\n      add\n        /* \"#utility.yul\":4938:4963   */\n      gt\n        /* \"#utility.yul\":4935:5047   */\n      iszero\n      tag_198\n      jumpi\n        /* \"#utility.yul\":4966:5045   */\n      tag_199\n      tag_132\n      jump\t// in\n    tag_199:\n        /* \"#utility.yul\":4935:5047   */\n    tag_198:\n        /* \"#utility.yul\":5056:5110   */\n      tag_200\n        /* \"#utility.yul\":5103:5109   */\n      dup5\n        /* \"#utility.yul\":5098:5101   */\n      dup3\n        /* \"#utility.yul\":5093:5096   */\n      dup6\n        /* \"#utility.yul\":5056:5110   */\n      tag_137\n      jump\t// in\n    tag_200:\n        /* \"#utility.yul\":4775:5116   */\n      pop\n        /* \"#utility.yul\":4691:5116   */\n      swap4\n      swap3\n      pop\n      pop\n      pop\n      jump\t// out\n        /* \"#utility.yul\":5136:5476   */\n    tag_139:\n        /* \"#utility.yul\":5192:5197   */\n      0x00\n        /* \"#utility.yul\":5241:5244   */\n      dup3\n        /* \"#utility.yul\":5234:5238   */\n      0x1f\n        /* \"#utility.yul\":5226:5232   */\n      dup4\n        /* \"#utility.yul\":5222:5239   */\n      add\n        /* \"#utility.yul\":5218:5245   */\n      slt\n        /* \"#utility.yul\":5208:5330   */\n      tag_202\n      jumpi\n        /* \"#utility.yul\":5249:5328   */\n      tag_203\n      tag_131\n      jump\t// in\n    tag_203:\n        /* \"#utility.yul\":5208:5330   */\n    tag_202:\n        /* \"#utility.yul\":5366:5372   */\n      dup2\n        /* \"#utility.yul\":5353:5373   */\n      calldataload\n        /* \"#utility.yul\":5391:5470   */\n      tag_204\n        /* \"#utility.yul\":5466:5469   */\n      dup5\n        /* \"#utility.yul\":5458:5464   */\n      dup3\n        /* \"#utility.yul\":5451:5455   */\n      0x20\n        /* \"#utility.yul\":5443:5449   */\n      dup7\n        /* \"#utility.yul\":5439:5456   */\n      add\n        /* \"#utility.yul\":5391:5470   */\n      tag_138\n      jump\t// in\n    tag_204:\n        /* \"#utility.yul\":5382:5470   */\n      swap2\n      pop\n        /* \"#utility.yul\":5198:5476   */\n      pop\n        /* \"#utility.yul\":5136:5476   */\n      swap3\n      swap2\n      pop\n      pop\n      jump\t// out\n        /* \"#utility.yul\":5482:5991   */\n    tag_20:\n        /* \"#utility.yul\":5551:5557   */\n      0x00\n        /* \"#utility.yul\":5600:5602   */\n      0x20\n        /* \"#utility.yul\":5588:5597   */\n      dup3\n        /* \"#utility.yul\":5579:5586   */\n      dup5\n        /* \"#utility.yul\":5575:5598   */\n      sub\n        /* \"#utility.yul\":5571:5603   */\n      slt\n        /* \"#utility.yul\":5568:5687   */\n      iszero\n      tag_206\n      jumpi\n        /* \"#utility.yul\":5606:5685   */\n      tag_207\n      tag_117\n      jump\t// in\n    tag_207:\n        /* \"#utility.yul\":5568:5687   */\n    tag_206:\n        /* \"#utility.yul\":5754:5755   */\n      0x00\n        /* \"#utility.yul\":5743:5752   */\n      dup3\n        /* \"#utility.yul\":5739:5756   */\n      add\n        /* \"#utility.yul\":5726:5757   */\n      calldataload\n        /* \"#utility.yul\":5784:5802   */\n      0xffffffffffffffff\n        /* \"#utility.yul\":5776:5782   */\n      dup2\n        /* \"#utility.yul\":5773:5803   */\n      gt\n        /* \"#utility.yul\":5770:5887   */\n      iszero\n      tag_208\n      jumpi\n        /* \"#utility.yul\":5806:5885   */\n      tag_209\n      tag_118\n      jump\t// in\n    tag_209:\n        /* \"#utility.yul\":5770:5887   */\n    tag_208:\n        /* \"#utility.yul\":5911:5974   */\n      tag_210\n        /* \"#utility.yul\":5966:5973   */\n      dup5\n        /* \"#utility.yul\":5957:5963   */\n      dup3\n        /* \"#utility.yul\":5946:5955   */\n      dup6\n        /* \"#utility.yul\":5942:5964   */\n      add\n        /* \"#utility.yul\":5911:5974   */\n      tag_139\n      jump\t// in\n    tag_210:\n        /* \"#utility.yul\":5901:5974   */\n      swap2\n      pop\n        /* \"#utility.yul\":5697:5984   */\n      pop\n        /* \"#utility.yul\":5482:5991   */\n      swap3\n      swap2\n      pop\n      pop\n      jump\t// out\n        /* \"#utility.yul\":5997:6177   */\n    tag_140:\n        /* \"#utility.yul\":6045:6122   */\n      0x4e487b7100000000000000000000000000000000000000000000000000000000\n        /* \"#utility.yul\":6042:6043   */\n      0x00\n        /* \"#utility.yul\":6035:6123   */\n      mstore\n        /* \"#utility.yul\":6142:6146   */\n      0x11\n        /* \"#utility.yul\":6139:6140   */\n      0x04\n        /* \"#utility.yul\":6132:6147   */\n      mstore\n        /* \"#utility.yul\":6166:6170   */\n      0x24\n        /* \"#utility.yul\":6163:6164   */\n      0x00\n        /* \"#utility.yul\":6156:6171   */\n      revert\n        /* \"#utility.yul\":6183:6377   */\n    tag_29:\n        /* \"#utility.yul\":6223:6227   */\n      0x00\n        /* \"#utility.yul\":6243:6263   */\n      tag_213\n        /* \"#utility.yul\":6261:6262   */\n      dup3\n        /* \"#utility.yul\":6243:6263   */\n      tag_119\n      jump\t// in\n    tag_213:\n        /* \"#utility.yul\":6238:6263   */\n      swap2\n      pop\n        /* \"#utility.yul\":6277:6297   */\n      tag_214\n        /* \"#utility.yul\":6295:6296   */\n      dup4\n        /* \"#utility.yul\":6277:6297   */\n      tag_119\n      jump\t// in\n    tag_214:\n        /* \"#utility.yul\":6272:6297   */\n      swap3\n      pop\n        /* \"#utility.yul\":6321:6322   */\n      dup3\n        /* \"#utility.yul\":6318:6319   */\n      dup3\n        /* \"#utility.yul\":6314:6323   */\n      sub\n        /* \"#utility.yul\":6306:6323   */\n      swap1\n      pop\n        /* \"#utility.yul\":6345:6346   */\n      dup2\n        /* \"#utility.yul\":6339:6343   */\n      dup2\n        /* \"#utility.yul\":6336:6347   */\n      gt\n        /* \"#utility.yul\":6333:6370   */\n      iszero\n      tag_215\n      jumpi\n        /* \"#utility.yul\":6350:6368   */\n      tag_216\n      tag_140\n      jump\t// in\n    tag_216:\n        /* \"#utility.yul\":6333:6370   */\n    tag_215:\n        /* \"#utility.yul\":6183:6377   */\n      swap3\n      swap2\n      pop\n      pop\n      jump\t// out\n        /* \"#utility.yul\":6383:6563   */\n    tag_32:\n        /* \"#utility.yul\":6431:6508   */\n      0x4e487b7100000000000000000000000000000000000000000000000000000000\n        /* \"#utility.yul\":6428:6429   */\n      0x00\n        /* \"#utility.yul\":6421:6509   */\n      mstore\n        /* \"#utility.yul\":6528:6532   */\n      0x32\n        /* \"#utility.yul\":6525:6526   */\n      0x04\n        /* \"#utility.yul\":6518:6533   */\n      mstore\n        /* \"#utility.yul\":6552:6556   */\n      0x24\n        /* \"#utility.yul\":6549:6550   */\n      0x00\n        /* \"#utility.yul\":6542:6557   */\n      revert\n        /* \"#utility.yul\":6569:6760   */\n    tag_35:\n        /* \"#utility.yul\":6609:6612   */\n      0x00\n        /* \"#utility.yul\":6628:6648   */\n      tag_219\n        /* \"#utility.yul\":6646:6647   */\n      dup3\n        /* \"#utility.yul\":6628:6648   */\n      tag_119\n      jump\t// in\n    tag_219:\n        /* \"#utility.yul\":6623:6648   */\n      swap2\n      pop\n        /* \"#utility.yul\":6662:6682   */\n      tag_220\n        /* \"#utility.yul\":6680:6681   */\n      dup4\n        /* \"#utility.yul\":6662:6682   */\n      tag_119\n      jump\t// in\n    tag_220:\n        /* \"#utility.yul\":6657:6682   */\n      swap3\n      pop\n        /* \"#utility.yul\":6705:6706   */\n      dup3\n        /* \"#utility.yul\":6702:6703   */\n      dup3\n        /* \"#utility.yul\":6698:6707   */\n      add\n        /* \"#utility.yul\":6691:6707   */\n      swap1\n      pop\n        /* \"#utility.yul\":6726:6729   */\n      dup1\n        /* \"#utility.yul\":6723:6724   */\n      dup3\n        /* \"#utility.yul\":6720:6730   */\n      gt\n        /* \"#utility.yul\":6717:6753   */\n      iszero\n      tag_221\n      jumpi\n        /* \"#utility.yul\":6733:6751   */\n      tag_222\n      tag_140\n      jump\t// in\n    tag_222:\n        /* \"#utility.yul\":6717:6753   */\n    tag_221:\n        /* \"#utility.yul\":6569:6760   */\n      swap3\n      swap2\n      pop\n      pop\n      jump\t// out\n\n    auxdata: 0xa2646970667358221220edeb3b2b25dee434d41ac10095d338fa4d185ff0fd36c87ff9bce74fb79fe9fa64736f6c634300081e0033\n}\n",
				"bytecode": {
					"linkReferences": {},
					"object": "608060405234801561000f575f5ffd5b5060015f5f7f49000000000000000000000000000000000000000000000000000000000000007effffffffffffffffffffffffffffffffffffffffffffffffffffffffffffff191681526020019081526020015f208190555060055f5f7f56000000000000000000000000000000000000000000000000000000000000007effffffffffffffffffffffffffffffffffffffffffffffffffffffffffffff191681526020019081526020015f2081905550600a5f5f7f58000000000000000000000000000000000000000000000000000000000000007effffffffffffffffffffffffffffffffffffffffffffffffffffffffffffff191681526020019081526020015f208190555060325f5f7f4c000000000000000000000000000000000000000000000000000000000000007effffffffffffffffffffffffffffffffffffffffffffffffffffffffffffff191681526020019081526020015f208190555060645f5f7f43000000000000000000000000000000000000000000000000000000000000007effffffffffffffffffffffffffffffffffffffffffffffffffffffffffffff191681526020019081526020015f20819055506101f45f5f7f44000000000000000000000000000000000000000000000000000000000000007effffffffffffffffffffffffffffffffffffffffffffffffffffffffffffff191681526020019081526020015f20819055506103e85f5f7f4d000000000000000000000000000000000000000000000000000000000000007effffffffffffffffffffffffffffffffffffffffffffffffffffffffffffff191681526020019081526020015f2081905550610ec4806102875f395ff3fe608060405234801561000f575f5ffd5b506004361061003f575f3560e01c8063213d56c014610043578063445458dc14610073578063ea4c4614146100a3575b5f5ffd5b61005d60048036038101906100589190610af8565b6100d3565b60405161006a9190610b93565b60405180910390f35b61008d60048036038101906100889190610c08565b6100da565b60405161009a9190610c42565b60405180910390f35b6100bd60048036038101906100b89190610d87565b6100ee565b6040516100ca9190610c42565b60405180910390f35b6060919050565b5f602052805f5260405f205f915090505481565b5f5f8290505f5f90505f5f90505b6001835161010a9190610dfb565b811015610a0e577f490000000000000000000000000000000000000000000000000000000000000083828151811061014557610144610e2e565b5b602001015160f81c60f81b7effffffffffffffffffffffffffffffffffffffffffffffffffffffffffffff19161480156101e957507f5600000000000000000000000000000000000000000000000000000000000000836001836101a99190610e5b565b815181106101ba576101b9610e2e565b5b602001015160f81c60f81b7effffffffffffffffffffffffffffffffffffffffffffffffffffffffffffff1916145b1561028e576004826101fb9190610e5b565b91505f83828151811061021157610210610e2e565b5b60200101907effffffffffffffffffffffffffffffffffffffffffffffffffffffffffffff191690815f1a9053505f8360018361024e9190610e5b565b8151811061025f5761025e610e2e565b5b60200101907effffffffffffffffffffffffffffffffffffffffffffffffffffffffffffff191690815f1a9053505b7f49000000000000000000000000000000000000000000000000000000000000008382815181106102c2576102c1610e2e565b5b602001015160f81c60f81b7effffffffffffffffffffffffffffffffffffffffffffffffffffffffffffff191614801561036657507f5800000000000000000000000000000000000000000000000000000000000000836001836103269190610e5b565b8151811061033757610336610e2e565b5b602001015160f81c60f81b7effffffffffffffffffffffffffffffffffffffffffffffffffffffffffffff1916145b1561040b576009826103789190610e5b565b91505f83828151811061038e5761038d610e2e565b5b60200101907effffffffffffffffffffffffffffffffffffffffffffffffffffffffffffff191690815f1a9053505f836001836103cb9190610e5b565b815181106103dc576103db610e2e565b5b60200101907effffffffffffffffffffffffffffffffffffffffffffffffffffffffffffff191690815f1a9053505b7f580000000000000000000000000000000000000000000000000000000000000083828151811061043f5761043e610e2e565b5b602001015160f81c60f81b7effffffffffffffffffffffffffffffffffffffffffffffffffffffffffffff19161480156104e357507f4c00000000000000000000000000000000000000000000000000000000000000836001836104a39190610e5b565b815181106104b4576104b3610e2e565b5b602001015160f81c60f81b7effffffffffffffffffffffffffffffffffffffffffffffffffffffffffffff1916145b15610588576028826104f59190610e5b565b91505f83828151811061050b5761050a610e2e565b5b60200101907effffffffffffffffffffffffffffffffffffffffffffffffffffffffffffff191690815f1a9053505f836001836105489190610e5b565b8151811061055957610558610e2e565b5b60200101907effffffffffffffffffffffffffffffffffffffffffffffffffffffffffffff191690815f1a9053505b7f58000000000000000000000000000000000000000000000000000000000000008382815181106105bc576105bb610e2e565b5b602001015160f81c60f81b7effffffffffffffffffffffffffffffffffffffffffffffffffffffffffffff191614801561066057507f4300000000000000000000000000000000000000000000000000000000000000836001836106209190610e5b565b8151811061063157610630610e2e565b5b602001015160f81c60f81b7effffffffffffffffffffffffffffffffffffffffffffffffffffffffffffff1916145b1561070557605a826106729190610e5b565b91505f83828151811061068857610687610e2e565b5b60200101907effffffffffffffffffffffffffffffffffffffffffffffffffffffffffffff191690815f1a9053505f836001836106c59190610e5b565b815181106106d6576106d5610e2e565b5b60200101907effffffffffffffffffffffffffffffffffffffffffffffffffffffffffffff191690815f1a9053505b7f430000000000000000000000000000000000000000000000000000000000000083828151811061073957610738610e2e565b5b602001015160f81c60f81b7effffffffffffffffffffffffffffffffffffffffffffffffffffffffffffff19161480156107dd57507f44000000000000000000000000000000000000000000000000000000000000008360018361079d9190610e5b565b815181106107ae576107ad610e2e565b5b602001015160f81c60f81b7effffffffffffffffffffffffffffffffffffffffffffffffffffffffffffff1916145b1561088357610190826107f09190610e5b565b91505f83828151811061080657610805610e2e565b5b60200101907effffffffffffffffffffffffffffffffffffffffffffffffffffffffffffff191690815f1a9053505f836001836108439190610e5b565b8151811061085457610853610e2e565b5b60200101907effffffffffffffffffffffffffffffffffffffffffffffffffffffffffffff191690815f1a9053505b7f43000000000000000000000000000000000000000000000000000000000000008382815181106108b7576108b6610e2e565b5b602001015160f81c60f81b7effffffffffffffffffffffffffffffffffffffffffffffffffffffffffffff191614801561095b57507f4d000000000000000000000000000000000000000000000000000000000000008360018361091b9190610e5b565b8151811061092c5761092b610e2e565b5b602001015160f81c60f81b7effffffffffffffffffffffffffffffffffffffffffffffffffffffffffffff1916145b15610a01576103848261096e9190610e5b565b91505f83828151811061098457610983610e2e565b5b60200101907effffffffffffffffffffffffffffffffffffffffffffffffffffffffffffff191690815f1a9053505f836001836109c19190610e5b565b815181106109d2576109d1610e2e565b5b60200101907effffffffffffffffffffffffffffffffffffffffffffffffffffffffffffff191690815f1a9053505b80806001019150506100fc565b505f5f90505b8251811015610aa9575f5f848381518110610a3257610a31610e2e565b5b602001015160f81c60f81b7effffffffffffffffffffffffffffffffffffffffffffffffffffffffffffff19167effffffffffffffffffffffffffffffffffffffffffffffffffffffffffffff191681526020019081526020015f205482610a9a9190610e5b565b91508080600101915050610a14565b508092505050919050565b5f604051905090565b5f5ffd5b5f5ffd5b5f819050919050565b610ad781610ac5565b8114610ae1575f5ffd5b50565b5f81359050610af281610ace565b92915050565b5f60208284031215610b0d57610b0c610abd565b5b5f610b1a84828501610ae4565b91505092915050565b5f81519050919050565b5f82825260208201905092915050565b8281835e5f83830152505050565b5f601f19601f8301169050919050565b5f610b6582610b23565b610b6f8185610b2d565b9350610b7f818560208601610b3d565b610b8881610b4b565b840191505092915050565b5f6020820190508181035f830152610bab8184610b5b565b905092915050565b5f7fff0000000000000000000000000000000000000000000000000000000000000082169050919050565b610be781610bb3565b8114610bf1575f5ffd5b50565b5f81359050610c0281610bde565b92915050565b5f60208284031215610c1d57610c1c610abd565b5b5f610c2a84828501610bf4565b91505092915050565b610c3c81610ac5565b82525050565b5f602082019050610c555f830184610c33565b92915050565b5f5ffd5b5f5ffd5b7f4e487b71000000000000000000000000000000000000000000000000000000005f52604160045260245ffd5b610c9982610b4b565b810181811067ffffffffffffffff82111715610cb857610cb7610c63565b5b80604052505050565b5f610cca610ab4565b9050610cd68282610c90565b919050565b5f67ffffffffffffffff821115610cf557610cf4610c63565b5b610cfe82610b4b565b9050602081019050919050565b828183375f83830152505050565b5f610d2b610d2684610cdb565b610cc1565b905082815260208101848484011115610d4757610d46610c5f565b5b610d52848285610d0b565b509392505050565b5f82601f830112610d6e57610d6d610c5b565b5b8135610d7e848260208601610d19565b91505092915050565b5f60208284031215610d9c57610d9b610abd565b5b5f82013567ffffffffffffffff811115610db957610db8610ac1565b5b610dc584828501610d5a565b91505092915050565b7f4e487b71000000000000000000000000000000000000000000000000000000005f52601160045260245ffd5b5f610e0582610ac5565b9150610e1083610ac5565b9250828203905081811115610e2857610e27610dce565b5b92915050565b7f4e487b71000000000000000000000000000000000000000000000000000000005f52603260045260245ffd5b5f610e6582610ac5565b9150610e7083610ac5565b9250828201905080821115610e8857610e87610dce565b5b9291505056fea2646970667358221220edeb3b2b25dee434d41ac10095d338fa4d185ff0fd36c87ff9bce74fb79fe9fa64736f6c634300081e0033",
					"opcodes": "PUSH1 0x80 PUSH1 0x40 MSTORE CALLVALUE DUP1 ISZERO PUSH2 0xF JUMPI PUSH0 PUSH0 REVERT JUMPDEST POP PUSH1 0x1 PUSH0 PUSH0 PUSH32 0x4900000000000000000000000000000000000000000000000000000000000000 PUSH31 0xFFFFFFFFFFFFFFFFFFFFFFFFFFFFFFFFFFFFFFFFFFFFFFFFFFFFFFFFFFFFFF NOT AND DUP2 MSTORE PUSH1 0x20 ADD SWAP1 DUP2 MSTORE PUSH1 0x20 ADD PUSH0 KECCAK256 DUP2 SWAP1 SSTORE POP PUSH1 0x5 PUSH0 PUSH0 PUSH32 0x5600000000000000000000000000000000000000000000000000000000000000 PUSH31 0xFFFFFFFFFFFFFFFFFFFFFFFFFFFFFFFFFFFFFFFFFFFFFFFFFFFFFFFFFFFFFF NOT AND DUP2 MSTORE PUSH1 0x20 ADD SWAP1 DUP2 MSTORE PUSH1 0x20 ADD PUSH0 KECCAK256 DUP2 SWAP1 SSTORE POP PUSH1 0xA PUSH0 PUSH0 PUSH32 0x5800000000000000000000000000000000000000000000000000000000000000 PUSH31 0xFFFFFFFFFFFFFFFFFFFFFFFFFFFFFFFFFFFFFFFFFFFFFFFFFFFFFFFFFFFFFF NOT AND DUP2 MSTORE PUSH1 0x20 ADD SWAP1 DUP2 MSTORE PUSH1 0x20 ADD PUSH0 KECCAK256 DUP2 SWAP1 SSTORE POP PUSH1 0x32 PUSH0 PUSH0 PUSH32 0x4C00000000000000000000000000000000000000000000000000000000000000 PUSH31 0xFFFFFFFFFFFFFFFFFFFFFFFFFFFFFFFFFFFFFFFFFFFFFFFFFFFFFFFFFFFFFF NOT AND DUP2 MSTORE PUSH1 0x20 ADD SWAP1 DUP2 MSTORE PUSH1 0x20 ADD PUSH0 KECCAK256 DUP2 SWAP1 SSTORE POP PUSH1 0x64 PUSH0 PUSH0 PUSH32 0x4300000000000000000000000000000000000000000000000000000000000000 PUSH31 0xFFFFFFFFFFFFFFFFFFFFFFFFFFFFFFFFFFFFFFFFFFFFFFFFFFFFFFFFFFFFFF NOT AND DUP2 MSTORE PUSH1 0x20 ADD SWAP1 DUP2 MSTORE PUSH1 0x20 ADD PUSH0 KECCAK256 DUP2 SWAP1 SSTORE POP PUSH2 0x1F4 PUSH0 PUSH0 PUSH32 0x4400000000000000000000000000000000000000000000000000000000000000 PUSH31 0xFFFFFFFFFFFFFFFFFFFFFFFFFFFFFFFFFFFFFFFFFFFFFFFFFFFFFFFFFFFFFF NOT AND DUP2 MSTORE PUSH1 0x20 ADD SWAP1 DUP2 MSTORE PUSH1 0x20 ADD PUSH0 KECCAK256 DUP2 SWAP1 SSTORE POP PUSH2 0x3E8 PUSH0 PUSH0 PUSH32 0x4D00000000000000000000000000000000000000000000000000000000000000 PUSH31 0xFFFFFFFFFFFFFFFFFFFFFFFFFFFFFFFFFFFFFFFFFFFFFFFFFFFFFFFFFFFFFF NOT AND DUP2 MSTORE PUSH1 0x20 ADD SWAP1 DUP2 MSTORE PUSH1 0x20 ADD PUSH0 KECCAK256 DUP2 SWAP1 SSTORE POP PUSH2 0xEC4 DUP1 PUSH2 0x287 PUSH0 CODECOPY PUSH0 RETURN INVALID PUSH1 0x80 PUSH1 0x40 MSTORE CALLVALUE DUP1 ISZERO PUSH2 0xF JUMPI PUSH0 PUSH0 REVERT JUMPDEST POP PUSH1 0x4 CALLDATASIZE LT PUSH2 0x3F JUMPI PUSH0 CALLDATALOAD PUSH1 0xE0 SHR DUP1 PUSH4 0x213D56C0 EQ PUSH2 0x43 JUMPI DUP1 PUSH4 0x445458DC EQ PUSH2 0x73 JUMPI DUP1 PUSH4 0xEA4C4614 EQ PUSH2 0xA3 JUMPI JUMPDEST PUSH0 PUSH0 REVERT JUMPDEST PUSH2 0x5D PUSH1 0x4 DUP1 CALLDATASIZE SUB DUP2 ADD SWAP1 PUSH2 0x58 SWAP2 SWAP1 PUSH2 0xAF8 JUMP JUMPDEST PUSH2 0xD3 JUMP JUMPDEST PUSH1 0x40 MLOAD PUSH2 0x6A SWAP2 SWAP1 PUSH2 0xB93 JUMP JUMPDEST PUSH1 0x40 MLOAD DUP1 SWAP2 SUB SWAP1 RETURN JUMPDEST PUSH2 0x8D PUSH1 0x4 DUP1 CALLDATASIZE SUB DUP2 ADD SWAP1 PUSH2 0x88 SWAP2 SWAP1 PUSH2 0xC08 JUMP JUMPDEST PUSH2 0xDA JUMP JUMPDEST PUSH1 0x40 MLOAD PUSH2 0x9A SWAP2 SWAP1 PUSH2 0xC42 JUMP JUMPDEST PUSH1 0x40 MLOAD DUP1 SWAP2 SUB SWAP1 RETURN JUMPDEST PUSH2 0xBD PUSH1 0x4 DUP1 CALLDATASIZE SUB DUP2 ADD SWAP1 PUSH2 0xB8 SWAP2 SWAP1 PUSH2 0xD87 JUMP JUMPDEST PUSH2 0xEE JUMP JUMPDEST PUSH1 0x40 MLOAD PUSH2 0xCA SWAP2 SWAP1 PUSH2 0xC42 JUMP JUMPDEST PUSH1 0x40 MLOAD DUP1 SWAP2 SUB SWAP1 RETURN JUMPDEST PUSH1 0x60 SWAP2 SWAP1 POP JUMP JUMPDEST PUSH0 PUSH1 0x20 MSTORE DUP1 PUSH0 MSTORE PUSH1 0x40 PUSH0 KECCAK256 PUSH0 SWAP2 POP SWAP1 POP SLOAD DUP2 JUMP JUMPDEST PUSH0 PUSH0 DUP3 SWAP1 POP PUSH0 PUSH0 SWAP1 POP PUSH0 PUSH0 SWAP1 POP JUMPDEST PUSH1 0x1 DUP4 MLOAD PUSH2 0x10A SWAP2 SWAP1 PUSH2 0xDFB JUMP JUMPDEST DUP2 LT ISZERO PUSH2 0xA0E JUMPI PUSH32 0x4900000000000000000000000000000000000000000000000000000000000000 DUP4 DUP3 DUP2 MLOAD DUP2 LT PUSH2 0x145 JUMPI PUSH2 0x144 PUSH2 0xE2E JUMP JUMPDEST JUMPDEST PUSH1 0x20 ADD ADD MLOAD PUSH1 0xF8 SHR PUSH1 0xF8 SHL PUSH31 0xFFFFFFFFFFFFFFFFFFFFFFFFFFFFFFFFFFFFFFFFFFFFFFFFFFFFFFFFFFFFFF NOT AND EQ DUP1 ISZERO PUSH2 0x1E9 JUMPI POP PUSH32 0x5600000000000000000000000000000000000000000000000000000000000000 DUP4 PUSH1 0x1 DUP4 PUSH2 0x1A9 SWAP2 SWAP1 PUSH2 0xE5B JUMP JUMPDEST DUP2 MLOAD DUP2 LT PUSH2 0x1BA JUMPI PUSH2 0x1B9 PUSH2 0xE2E JUMP JUMPDEST JUMPDEST PUSH1 0x20 ADD ADD MLOAD PUSH1 0xF8 SHR PUSH1 0xF8 SHL PUSH31 0xFFFFFFFFFFFFFFFFFFFFFFFFFFFFFFFFFFFFFFFFFFFFFFFFFFFFFFFFFFFFFF NOT AND EQ JUMPDEST ISZERO PUSH2 0x28E JUMPI PUSH1 0x4 DUP3 PUSH2 0x1FB SWAP2 SWAP1 PUSH2 0xE5B JUMP JUMPDEST SWAP2 POP PUSH0 DUP4 DUP3 DUP2 MLOAD DUP2 LT PUSH2 0x211 JUMPI PUSH2 0x210 PUSH2 0xE2E JUMP JUMPDEST JUMPDEST PUSH1 0x20 ADD ADD SWAP1 PUSH31 0xFFFFFFFFFFFFFFFFFFFFFFFFFFFFFFFFFFFFFFFFFFFFFFFFFFFFFFFFFFFFFF NOT AND SWAP1 DUP2 PUSH0 BYTE SWAP1 MSTORE8 POP PUSH0 DUP4 PUSH1 0x1 DUP4 PUSH2 0x24E SWAP2 SWAP1 PUSH2 0xE5B JUMP JUMPDEST DUP2 MLOAD DUP2 LT PUSH2 0x25F JUMPI PUSH2 0x25E PUSH2 0xE2E JUMP JUMPDEST JUMPDEST PUSH1 0x20 ADD ADD SWAP1 PUSH31 0xFFFFFFFFFFFFFFFFFFFFFFFFFFFFFFFFFFFFFFFFFFFFFFFFFFFFFFFFFFFFFF NOT AND SWAP1 DUP2 PUSH0 BYTE SWAP1 MSTORE8 POP JUMPDEST PUSH32 0x4900000000000000000000000000000000000000000000000000000000000000 DUP4 DUP3 DUP2 MLOAD DUP2 LT PUSH2 0x2C2 JUMPI PUSH2 0x2C1 PUSH2 0xE2E JUMP JUMPDEST JUMPDEST PUSH1 0x20 ADD ADD MLOAD PUSH1 0xF8 SHR PUSH1 0xF8 SHL PUSH31 0xFFFFFFFFFFFFFFFFFFFFFFFFFFFFFFFFFFFFFFFFFFFFFFFFFFFFFFFFFFFFFF NOT AND EQ DUP1 ISZERO PUSH2 0x366 JUMPI POP PUSH32 0x5800000000000000000000000000000000000000000000000000000000000000 DUP4 PUSH1 0x1 DUP4 PUSH2 0x326 SWAP2 SWAP1 PUSH2 0xE5B JUMP JUMPDEST DUP2 MLOAD DUP2 LT PUSH2 0x337 JUMPI PUSH2 0x336 PUSH2 0xE2E JUMP JUMPDEST JUMPDEST PUSH1 0x20 ADD ADD MLOAD PUSH1 0xF8 SHR PUSH1 0xF8 SHL PUSH31 0xFFFFFFFFFFFFFFFFFFFFFFFFFFFFFFFFFFFFFFFFFFFFFFFFFFFFFFFFFFFFFF NOT AND EQ JUMPDEST ISZERO PUSH2 0x40B JUMPI PUSH1 0x9 DUP3 PUSH2 0x378 SWAP2 SWAP1 PUSH2 0xE5B JUMP JUMPDEST SWAP2 POP PUSH0 DUP4 DUP3 DUP2 MLOAD DUP2 LT PUSH2 0x38E JUMPI PUSH2 0x38D PUSH2 0xE2E JUMP JUMPDEST JUMPDEST PUSH1 0x20 ADD ADD SWAP1 PUSH31 0xFFFFFFFFFFFFFFFFFFFFFFFFFFFFFFFFFFFFFFFFFFFFFFFFFFFFFFFFFFFFFF NOT AND SWAP1 DUP2 PUSH0 BYTE SWAP1 MSTORE8 POP PUSH0 DUP4 PUSH1 0x1 DUP4 PUSH2 0x3CB SWAP2 SWAP1 PUSH2 0xE5B JUMP JUMPDEST DUP2 MLOAD DUP2 LT PUSH2 0x3DC JUMPI PUSH2 0x3DB PUSH2 0xE2E JUMP JUMPDEST JUMPDEST PUSH1 0x20 ADD ADD SWAP1 PUSH31 0xFFFFFFFFFFFFFFFFFFFFFFFFFFFFFFFFFFFFFFFFFFFFFFFFFFFFFFFFFFFFFF NOT AND SWAP1 DUP2 PUSH0 BYTE SWAP1 MSTORE8 POP JUMPDEST PUSH32 0x5800000000000000000000000000000000000000000000000000000000000000 DUP4 DUP3 DUP2 MLOAD DUP2 LT PUSH2 0x43F JUMPI PUSH2 0x43E PUSH2 0xE2E JUMP JUMPDEST JUMPDEST PUSH1 0x20 ADD ADD MLOAD PUSH1 0xF8 SHR PUSH1 0xF8 SHL PUSH31 0xFFFFFFFFFFFFFFFFFFFFFFFFFFFFFFFFFFFFFFFFFFFFFFFFFFFFFFFFFFFFFF NOT AND EQ DUP1 ISZERO PUSH2 0x4E3 JUMPI POP PUSH32 0x4C00000000000000000000000000000000000000000000000000000000000000 DUP4 PUSH1 0x1 DUP4 PUSH2 0x4A3 SWAP2 SWAP1 PUSH2 0xE5B JUMP JUMPDEST DUP2 MLOAD DUP2 LT PUSH2 0x4B4 JUMPI PUSH2 0x4B3 PUSH2 0xE2E JUMP JUMPDEST JUMPDEST PUSH1 0x20 ADD ADD MLOAD PUSH1 0xF8 SHR PUSH1 0xF8 SHL PUSH31 0xFFFFFFFFFFFFFFFFFFFFFFFFFFFFFFFFFFFFFFFFFFFFFFFFFFFFFFFFFFFFFF NOT AND EQ JUMPDEST ISZERO PUSH2 0x588 JUMPI PUSH1 0x28 DUP3 PUSH2 0x4F5 SWAP2 SWAP1 PUSH2 0xE5B JUMP JUMPDEST SWAP2 POP PUSH0 DUP4 DUP3 DUP2 MLOAD DUP2 LT PUSH2 0x50B JUMPI PUSH2 0x50A PUSH2 0xE2E JUMP JUMPDEST JUMPDEST PUSH1 0x20 ADD ADD SWAP1 PUSH31 0xFFFFFFFFFFFFFFFFFFFFFFFFFFFFFFFFFFFFFFFFFFFFFFFFFFFFFFFFFFFFFF NOT AND SWAP1 DUP2 PUSH0 BYTE SWAP1 MSTORE8 POP PUSH0 DUP4 PUSH1 0x1 DUP4 PUSH2 0x548 SWAP2 SWAP1 PUSH2 0xE5B JUMP JUMPDEST DUP2 MLOAD DUP2 LT PUSH2 0x559 JUMPI PUSH2 0x558 PUSH2 0xE2E JUMP JUMPDEST JUMPDEST PUSH1 0x20 ADD ADD SWAP1 PUSH31 0xFFFFFFFFFFFFFFFFFFFFFFFFFFFFFFFFFFFFFFFFFFFFFFFFFFFFFFFFFFFFFF NOT AND SWAP1 DUP2 PUSH0 BYTE SWAP1 MSTORE8 POP JUMPDEST PUSH32 0x5800000000000000000000000000000000000000000000000000000000000000 DUP4 DUP3 DUP2 MLOAD DUP2 LT PUSH2 0x5BC JUMPI PUSH2 0x5BB PUSH2 0xE2E JUMP JUMPDEST JUMPDEST PUSH1 0x20 ADD ADD MLOAD PUSH1 0xF8 SHR PUSH1 0xF8 SHL PUSH31 0xFFFFFFFFFFFFFFFFFFFFFFFFFFFFFFFFFFFFFFFFFFFFFFFFFFFFFFFFFFFFFF NOT AND EQ DUP1 ISZERO PUSH2 0x660 JUMPI POP PUSH32 0x4300000000000000000000000000000000000000000000000000000000000000 DUP4 PUSH1 0x1 DUP4 PUSH2 0x620 SWAP2 SWAP1 PUSH2 0xE5B JUMP JUMPDEST DUP2 MLOAD DUP2 LT PUSH2 0x631 JUMPI PUSH2 0x630 PUSH2 0xE2E JUMP JUMPDEST JUMPDEST PUSH1 0x20 ADD ADD MLOAD PUSH1 0xF8 SHR PUSH1 0xF8 SHL PUSH31 0xFFFFFFFFFFFFFFFFFFFFFFFFFFFFFFFFFFFFFFFFFFFFFFFFFFFFFFFFFFFFFF NOT AND EQ JUMPDEST ISZERO PUSH2 0x705 JUMPI PUSH1 0x5A DUP3 PUSH2 0x672 SWAP2 SWAP1 PUSH2 0xE5B JUMP JUMPDEST SWAP2 POP PUSH0 DUP4 DUP3 DUP2 MLOAD DUP2 LT PUSH2 0x688 JUMPI PUSH2 0x687 PUSH2 0xE2E JUMP JUMPDEST JUMPDEST PUSH1 0x20 ADD ADD SWAP1 PUSH31 0xFFFFFFFFFFFFFFFFFFFFFFFFFFFFFFFFFFFFFFFFFFFFFFFFFFFFFFFFFFFFFF NOT AND SWAP1 DUP2 PUSH0 BYTE SWAP1 MSTORE8 POP PUSH0 DUP4 PUSH1 0x1 DUP4 PUSH2 0x6C5 SWAP2 SWAP1 PUSH2 0xE5B JUMP JUMPDEST DUP2 MLOAD DUP2 LT PUSH2 0x6D6 JUMPI PUSH2 0x6D5 PUSH2 0xE2E JUMP JUMPDEST JUMPDEST PUSH1 0x20 ADD ADD SWAP1 PUSH31 0xFFFFFFFFFFFFFFFFFFFFFFFFFFFFFFFFFFFFFFFFFFFFFFFFFFFFFFFFFFFFFF NOT AND SWAP1 DUP2 PUSH0 BYTE SWAP1 MSTORE8 POP JUMPDEST PUSH32 0x4300000000000000000000000000000000000000000000000000000000000000 DUP4 DUP3 DUP2 MLOAD DUP2 LT PUSH2 0x739 JUMPI PUSH2 0x738 PUSH2 0xE2E JUMP JUMPDEST JUMPDEST PUSH1 0x20 ADD ADD MLOAD PUSH1 0xF8 SHR PUSH1 0xF8 SHL PUSH31 0xFFFFFFFFFFFFFFFFFFFFFFFFFFFFFFFFFFFFFFFFFFFFFFFFFFFFFFFFFFFFFF NOT AND EQ DUP1 ISZERO PUSH2 0x7DD JUMPI POP PUSH32 0x4400000000000000000000000000000000000000000000000000000000000000 DUP4 PUSH1 0x1 DUP4 PUSH2 0x79D SWAP2 SWAP1 PUSH2 0xE5B JUMP JUMPDEST DUP2 MLOAD DUP2 LT PUSH2 0x7AE JUMPI PUSH2 0x7AD PUSH2 0xE2E JUMP JUMPDEST JUMPDEST PUSH1 0x20 ADD ADD MLOAD PUSH1 0xF8 SHR PUSH1 0xF8 SHL PUSH31 0xFFFFFFFFFFFFFFFFFFFFFFFFFFFFFFFFFFFFFFFFFFFFFFFFFFFFFFFFFFFFFF NOT AND EQ JUMPDEST ISZERO PUSH2 0x883 JUMPI PUSH2 0x190 DUP3 PUSH2 0x7F0 SWAP2 SWAP1 PUSH2 0xE5B JUMP JUMPDEST SWAP2 POP PUSH0 DUP4 DUP3 DUP2 MLOAD DUP2 LT PUSH2 0x806 JUMPI PUSH2 0x805 PUSH2 0xE2E JUMP JUMPDEST JUMPDEST PUSH1 0x20 ADD ADD SWAP1 PUSH31 0xFFFFFFFFFFFFFFFFFFFFFFFFFFFFFFFFFFFFFFFFFFFFFFFFFFFFFFFFFFFFFF NOT AND SWAP1 DUP2 PUSH0 BYTE SWAP1 MSTORE8 POP PUSH0 DUP4 PUSH1 0x1 DUP4 PUSH2 0x843 SWAP2 SWAP1 PUSH2 0xE5B JUMP JUMPDEST DUP2 MLOAD DUP2 LT PUSH2 0x854 JUMPI PUSH2 0x853 PUSH2 0xE2E JUMP JUMPDEST JUMPDEST PUSH1 0x20 ADD ADD SWAP1 PUSH31 0xFFFFFFFFFFFFFFFFFFFFFFFFFFFFFFFFFFFFFFFFFFFFFFFFFFFFFFFFFFFFFF NOT AND SWAP1 DUP2 PUSH0 BYTE SWAP1 MSTORE8 POP JUMPDEST PUSH32 0x4300000000000000000000000000000000000000000000000000000000000000 DUP4 DUP3 DUP2 MLOAD DUP2 LT PUSH2 0x8B7 JUMPI PUSH2 0x8B6 PUSH2 0xE2E JUMP JUMPDEST JUMPDEST PUSH1 0x20 ADD ADD MLOAD PUSH1 0xF8 SHR PUSH1 0xF8 SHL PUSH31 0xFFFFFFFFFFFFFFFFFFFFFFFFFFFFFFFFFFFFFFFFFFFFFFFFFFFFFFFFFFFFFF NOT AND EQ DUP1 ISZERO PUSH2 0x95B JUMPI POP PUSH32 0x4D00000000000000000000000000000000000000000000000000000000000000 DUP4 PUSH1 0x1 DUP4 PUSH2 0x91B SWAP2 SWAP1 PUSH2 0xE5B JUMP JUMPDEST DUP2 MLOAD DUP2 LT PUSH2 0x92C JUMPI PUSH2 0x92B PUSH2 0xE2E JUMP JUMPDEST JUMPDEST PUSH1 0x20 ADD ADD MLOAD PUSH1 0xF8 SHR PUSH1 0xF8 SHL PUSH31 0xFFFFFFFFFFFFFFFFFFFFFFFFFFFFFFFFFFFFFFFFFFFFFFFFFFFFFFFFFFFFFF NOT AND EQ JUMPDEST ISZERO PUSH2 0xA01 JUMPI PUSH2 0x384 DUP3 PUSH2 0x96E SWAP2 SWAP1 PUSH2 0xE5B JUMP JUMPDEST SWAP2 POP PUSH0 DUP4 DUP3 DUP2 MLOAD DUP2 LT PUSH2 0x984 JUMPI PUSH2 0x983 PUSH2 0xE2E JUMP JUMPDEST JUMPDEST PUSH1 0x20 ADD ADD SWAP1 PUSH31 0xFFFFFFFFFFFFFFFFFFFFFFFFFFFFFFFFFFFFFFFFFFFFFFFFFFFFFFFFFFFFFF NOT AND SWAP1 DUP2 PUSH0 BYTE SWAP1 MSTORE8 POP PUSH0 DUP4 PUSH1 0x1 DUP4 PUSH2 0x9C1 SWAP2 SWAP1 PUSH2 0xE5B JUMP JUMPDEST DUP2 MLOAD DUP2 LT PUSH2 0x9D2 JUMPI PUSH2 0x9D1 PUSH2 0xE2E JUMP JUMPDEST JUMPDEST PUSH1 0x20 ADD ADD SWAP1 PUSH31 0xFFFFFFFFFFFFFFFFFFFFFFFFFFFFFFFFFFFFFFFFFFFFFFFFFFFFFFFFFFFFFF NOT AND SWAP1 DUP2 PUSH0 BYTE SWAP1 MSTORE8 POP JUMPDEST DUP1 DUP1 PUSH1 0x1 ADD SWAP2 POP POP PUSH2 0xFC JUMP JUMPDEST POP PUSH0 PUSH0 SWAP1 POP JUMPDEST DUP3 MLOAD DUP2 LT ISZERO PUSH2 0xAA9 JUMPI PUSH0 PUSH0 DUP5 DUP4 DUP2 MLOAD DUP2 LT PUSH2 0xA32 JUMPI PUSH2 0xA31 PUSH2 0xE2E JUMP JUMPDEST JUMPDEST PUSH1 0x20 ADD ADD MLOAD PUSH1 0xF8 SHR PUSH1 0xF8 SHL PUSH31 0xFFFFFFFFFFFFFFFFFFFFFFFFFFFFFFFFFFFFFFFFFFFFFFFFFFFFFFFFFFFFFF NOT AND PUSH31 0xFFFFFFFFFFFFFFFFFFFFFFFFFFFFFFFFFFFFFFFFFFFFFFFFFFFFFFFFFFFFFF NOT AND DUP2 MSTORE PUSH1 0x20 ADD SWAP1 DUP2 MSTORE PUSH1 0x20 ADD PUSH0 KECCAK256 SLOAD DUP3 PUSH2 0xA9A SWAP2 SWAP1 PUSH2 0xE5B JUMP JUMPDEST SWAP2 POP DUP1 DUP1 PUSH1 0x1 ADD SWAP2 POP POP PUSH2 0xA14 JUMP JUMPDEST POP DUP1 SWAP3 POP POP POP SWAP2 SWAP1 POP JUMP JUMPDEST PUSH0 PUSH1 0x40 MLOAD SWAP1 POP SWAP1 JUMP JUMPDEST PUSH0 PUSH0 REVERT JUMPDEST PUSH0 PUSH0 REVERT JUMPDEST PUSH0 DUP2 SWAP1 POP SWAP2 SWAP1 POP JUMP JUMPDEST PUSH2 0xAD7 DUP2 PUSH2 0xAC5 JUMP JUMPDEST DUP2 EQ PUSH2 0xAE1 JUMPI PUSH0 PUSH0 REVERT JUMPDEST POP JUMP JUMPDEST PUSH0 DUP2 CALLDATALOAD SWAP1 POP PUSH2 0xAF2 DUP2 PUSH2 0xACE JUMP JUMPDEST SWAP3 SWAP2 POP POP JUMP JUMPDEST PUSH0 PUSH1 0x20 DUP3 DUP5 SUB SLT ISZERO PUSH2 0xB0D JUMPI PUSH2 0xB0C PUSH2 0xABD JUMP JUMPDEST JUMPDEST PUSH0 PUSH2 0xB1A DUP5 DUP3 DUP6 ADD PUSH2 0xAE4 JUMP JUMPDEST SWAP2 POP POP SWAP3 SWAP2 POP POP JUMP JUMPDEST PUSH0 DUP2 MLOAD SWAP1 POP SWAP2 SWAP1 POP JUMP JUMPDEST PUSH0 DUP3 DUP3 MSTORE PUSH1 0x20 DUP3 ADD SWAP1 POP SWAP3 SWAP2 POP POP JUMP JUMPDEST DUP3 DUP2 DUP4 MCOPY PUSH0 DUP4 DUP4 ADD MSTORE POP POP POP JUMP JUMPDEST PUSH0 PUSH1 0x1F NOT PUSH1 0x1F DUP4 ADD AND SWAP1 POP SWAP2 SWAP1 POP JUMP JUMPDEST PUSH0 PUSH2 0xB65 DUP3 PUSH2 0xB23 JUMP JUMPDEST PUSH2 0xB6F DUP2 DUP6 PUSH2 0xB2D JUMP JUMPDEST SWAP4 POP PUSH2 0xB7F DUP2 DUP6 PUSH1 0x20 DUP7 ADD PUSH2 0xB3D JUMP JUMPDEST PUSH2 0xB88 DUP2 PUSH2 0xB4B JUMP JUMPDEST DUP5 ADD SWAP2 POP POP SWAP3 SWAP2 POP POP JUMP JUMPDEST PUSH0 PUSH1 0x20 DUP3 ADD SWAP1 POP DUP2 DUP2 SUB PUSH0 DUP4 ADD MSTORE PUSH2 0xBAB DUP2 DUP5 PUSH2 0xB5B JUMP JUMPDEST SWAP1 POP SWAP3 SWAP2 POP POP JUMP JUMPDEST PUSH0 PUSH32 0xFF00000000000000000000000000000000000000000000000000000000000000 DUP3 AND SWAP1 POP SWAP2 SWAP1 POP JUMP JUMPDEST PUSH2 0xBE7 DUP2 PUSH2 0xBB3 JUMP JUMPDEST DUP2 EQ PUSH2 0xBF1 JUMPI PUSH0 PUSH0 REVERT JUMPDEST POP JUMP JUMPDEST PUSH0 DUP2 CALLDATALOAD SWAP1 POP PUSH2 0xC02 DUP2 PUSH2 0xBDE JUMP JUMPDEST SWAP3 SWAP2 POP POP JUMP JUMPDEST PUSH0 PUSH1 0x20 DUP3 DUP5 SUB SLT ISZERO PUSH2 0xC1D JUMPI PUSH2 0xC1C PUSH2 0xABD JUMP JUMPDEST JUMPDEST PUSH0 PUSH2 0xC2A DUP5 DUP3 DUP6 ADD PUSH2 0xBF4 JUMP JUMPDEST SWAP2 POP POP SWAP3 SWAP2 POP POP JUMP JUMPDEST PUSH2 0xC3C DUP2 PUSH2 0xAC5 JUMP JUMPDEST DUP3 MSTORE POP POP JUMP JUMPDEST PUSH0 PUSH1 0x20 DUP3 ADD SWAP1 POP PUSH2 0xC55 PUSH0 DUP4 ADD DUP5 PUSH2 0xC33 JUMP JUMPDEST SWAP3 SWAP2 POP POP JUMP JUMPDEST PUSH0 PUSH0 REVERT JUMPDEST PUSH0 PUSH0 REVERT JUMPDEST PUSH32 0x4E487B7100000000000000000000000000000000000000000000000000000000 PUSH0 MSTORE PUSH1 0x41 PUSH1 0x4 MSTORE PUSH1 0x24 PUSH0 REVERT JUMPDEST PUSH2 0xC99 DUP3 PUSH2 0xB4B JUMP JUMPDEST DUP2 ADD DUP2 DUP2 LT PUSH8 0xFFFFFFFFFFFFFFFF DUP3 GT OR ISZERO PUSH2 0xCB8 JUMPI PUSH2 0xCB7 PUSH2 0xC63 JUMP JUMPDEST JUMPDEST DUP1 PUSH1 0x40 MSTORE POP POP POP JUMP JUMPDEST PUSH0 PUSH2 0xCCA PUSH2 0xAB4 JUMP JUMPDEST SWAP1 POP PUSH2 0xCD6 DUP3 DUP3 PUSH2 0xC90 JUMP JUMPDEST SWAP2 SWAP1 POP JUMP JUMPDEST PUSH0 PUSH8 0xFFFFFFFFFFFFFFFF DUP3 GT ISZERO PUSH2 0xCF5 JUMPI PUSH2 0xCF4 PUSH2 0xC63 JUMP JUMPDEST JUMPDEST PUSH2 0xCFE DUP3 PUSH2 0xB4B JUMP JUMPDEST SWAP1 POP PUSH1 0x20 DUP2 ADD SWAP1 POP SWAP2 SWAP1 POP JUMP JUMPDEST DUP3 DUP2 DUP4 CALLDATACOPY PUSH0 DUP4 DUP4 ADD MSTORE POP POP POP JUMP JUMPDEST PUSH0 PUSH2 0xD2B PUSH2 0xD26 DUP5 PUSH2 0xCDB JUMP JUMPDEST PUSH2 0xCC1 JUMP JUMPDEST SWAP1 POP DUP3 DUP2 MSTORE PUSH1 0x20 DUP2 ADD DUP5 DUP5 DUP5 ADD GT ISZERO PUSH2 0xD47 JUMPI PUSH2 0xD46 PUSH2 0xC5F JUMP JUMPDEST JUMPDEST PUSH2 0xD52 DUP5 DUP3 DUP6 PUSH2 0xD0B JUMP JUMPDEST POP SWAP4 SWAP3 POP POP POP JUMP JUMPDEST PUSH0 DUP3 PUSH1 0x1F DUP4 ADD SLT PUSH2 0xD6E JUMPI PUSH2 0xD6D PUSH2 0xC5B JUMP JUMPDEST JUMPDEST DUP2 CALLDATALOAD PUSH2 0xD7E DUP5 DUP3 PUSH1 0x20 DUP7 ADD PUSH2 0xD19 JUMP JUMPDEST SWAP2 POP POP SWAP3 SWAP2 POP POP JUMP JUMPDEST PUSH0 PUSH1 0x20 DUP3 DUP5 SUB SLT ISZERO PUSH2 0xD9C JUMPI PUSH2 0xD9B PUSH2 0xABD JUMP JUMPDEST JUMPDEST PUSH0 DUP3 ADD CALLDATALOAD PUSH8 0xFFFFFFFFFFFFFFFF DUP2 GT ISZERO PUSH2 0xDB9 JUMPI PUSH2 0xDB8 PUSH2 0xAC1 JUMP JUMPDEST JUMPDEST PUSH2 0xDC5 DUP5 DUP3 DUP6 ADD PUSH2 0xD5A JUMP JUMPDEST SWAP2 POP POP SWAP3 SWAP2 POP POP JUMP JUMPDEST PUSH32 0x4E487B7100000000000000000000000000000000000000000000000000000000 PUSH0 MSTORE PUSH1 0x11 PUSH1 0x4 MSTORE PUSH1 0x24 PUSH0 REVERT JUMPDEST PUSH0 PUSH2 0xE05 DUP3 PUSH2 0xAC5 JUMP JUMPDEST SWAP2 POP PUSH2 0xE10 DUP4 PUSH2 0xAC5 JUMP JUMPDEST SWAP3 POP DUP3 DUP3 SUB SWAP1 POP DUP2 DUP2 GT ISZERO PUSH2 0xE28 JUMPI PUSH2 0xE27 PUSH2 0xDCE JUMP JUMPDEST JUMPDEST SWAP3 SWAP2 POP POP JUMP JUMPDEST PUSH32 0x4E487B7100000000000000000000000000000000000000000000000000000000 PUSH0 MSTORE PUSH1 0x32 PUSH1 0x4 MSTORE PUSH1 0x24 PUSH0 REVERT JUMPDEST PUSH0 PUSH2 0xE65 DUP3 PUSH2 0xAC5 JUMP JUMPDEST SWAP2 POP PUSH2 0xE70 DUP4 PUSH2 0xAC5 JUMP JUMPDEST SWAP3 POP DUP3 DUP3 ADD SWAP1 POP DUP1 DUP3 GT ISZERO PUSH2 0xE88 JUMPI PUSH2 0xE87 PUSH2 0xDCE JUMP JUMPDEST JUMPDEST SWAP3 SWAP2 POP POP JUMP INVALID LOG2 PUSH5 0x6970667358 0x22 SLT KECCAK256 0xED 0xEB EXTCODESIZE 0x2B 0x25 0xDE RETF CALLVALUE 0xD4 BYTE 0xC1 STOP SWAP6 0xD3 CODESIZE STATICCALL 0x4D XOR PUSH0 CREATE REVERT CALLDATASIZE 0xC8 PUSH32 0xF9BCE74FB79FE9FA64736F6C634300081E003300000000000000000000000000 "
				},
				"gasEstimates": {
					"creation": {
						"codeDepositCost": "756000",
						"executionCost": "156176",
						"totalCost": "912176"
					},
					"external": {
						"integerToRoman(uint256)": "infinite",
						"romanMap(bytes1)": "2759",
						"romanToInteger(string)": "infinite"
					}
				},
				"methodIdentifiers": {
					"integerToRoman(uint256)": "213d56c0",
					"romanMap(bytes1)": "445458dc",
					"romanToInteger(string)": "ea4c4614"
				}
			},
			"storageLayout": {
				"storage": [
					{
						"astId": 5,
						"contract": "task1/IntegerRomanConvert.sol:IntegerRomanConverter",
						"label": "romanMap",
						"offset": 0,
						"slot": "0",
						"type": "t_mapping(t_bytes1,t_uint256)"
					}
				],
				"types": {
					"t_bytes1": {
						"encoding": "inplace",
						"label": "bytes1",
						"numberOfBytes": "1"
					},
					"t_mapping(t_bytes1,t_uint256)": {
						"encoding": "mapping",
						"key": "t_bytes1",
						"label": "mapping(bytes1 => uint256)",
						"numberOfBytes": "32",
						"value": "t_uint256"
					},
					"t_uint256": {
						"encoding": "inplace",
						"label": "uint256",
						"numberOfBytes": "32"
					}
				}
			},
			"userdoc": {
				"kind": "user",
				"methods": {},
				"version": 1
			}
		}
	}
}