{
	"data": {
		"bytecode": {
			"linkReferences": {},
			"object": "608060405260645f557fffffffffffffffffffffffffffffffffffffffffffffffffffffffffffffffff6001557326b2b90b406334a0a09eebad155693885e5cd5b360025f6101000a81548173ffffffffffffffffffffffffffffffffffffffff021916908373ffffffffffffffffffffffffffffffffffffffff1602179055506040518060600160405280601281526020016001151581526020016040518060400160405280600681526020017f7a697875616e000000000000000000000000000000000000000000000000000081525081525060045f820151815f01556020820151816001015f6101000a81548160ff021916908315150217905550604082015181600201908161011291906103a8565b5050506040518060400160405280600581526020017f68656c6c6f0000000000000000000000000000000000000000000000000000008152506007908161015991906103a8565b50348015610165575f5ffd5b50610477565b5f81519050919050565b7f4e487b71000000000000000000000000000000000000000000000000000000005f52604160045260245ffd5b7f4e487b71000000000000000000000000000000000000000000000000000000005f52602260045260245ffd5b5f60028204905060018216806101e657607f821691505b6020821081036101f9576101f86101a2565b5b50919050565b5f819050815f5260205f209050919050565b5f6020601f8301049050919050565b5f82821b905092915050565b5f6008830261025b7fffffffffffffffffffffffffffffffffffffffffffffffffffffffffffffffff82610220565b6102658683610220565b95508019841693508086168417925050509392505050565b5f819050919050565b5f819050919050565b5f6102a96102a461029f8461027d565b610286565b61027d565b9050919050565b5f819050919050565b6102c28361028f565b6102d66102ce826102b0565b84845461022c565b825550505050565b5f5f905090565b6102ed6102de565b6102f88184846102b9565b505050565b5b8181101561031b576103105f826102e5565b6001810190506102fe565b5050565b601f82111561036057610331816101ff565b61033a84610211565b81016020851015610349578190505b61035d61035585610211565b8301826102fd565b50505b505050565b5f82821c905092915050565b5f6103805f1984600802610365565b1980831691505092915050565b5f6103988383610371565b9150826002028217905092915050565b6103b18261016b565b67ffffffffffffffff8111156103ca576103c9610175565b5b6103d482546101cf565b6103df82828561031f565b5f60209050601f831160018114610410575f84156103fe578287015190505b610408858261038d565b86555061046f565b601f19841661041e866101ff565b5f5b8281101561044557848901518255600182019150602085019450602081019050610420565b86831015610462578489015161045e601f891682610371565b8355505b6001600288020188555050505b505050505050565b610763806104845f395ff3fe608060405234801561000f575f5ffd5b5060043610610060575f3560e01c806319ff1d21146100645780635dab242014610082578063767800de146100a057806377ec2b55146100be57806382f8152c146100de578063c3a9b1c5146100fc575b5f5ffd5b61006c61012c565b604051610079919061032d565b60405180910390f35b61008a6101b8565b6040516100979190610365565b60405180910390f35b6100a86101bd565b6040516100b591906103bd565b60405180910390f35b6100c66101e2565b6040516100d593929190610408565b60405180910390f35b6100e661028b565b6040516100f39190610444565b60405180910390f35b6101166004803603810190610111919061059a565b610291565b604051610123919061032d565b60405180910390f35b600780546101399061060e565b80601f01602080910402602001604051908101604052809291908181526020018280546101659061060e565b80156101b05780601f10610187576101008083540402835291602001916101b0565b820191905f5260205f20905b81548152906001019060200180831161019357829003601f168201915b505050505081565b5f5481565b60025f9054906101000a900473ffffffffffffffffffffffffffffffffffffffff1681565b6004805f015490806001015f9054906101000a900460ff169080600201805461020a9061060e565b80601f01602080910402602001604051908101604052809291908181526020018280546102369061060e565b80156102815780601f1061025857610100808354040283529160200191610281565b820191905f5260205f20905b81548152906001019060200180831161026457829003601f168201915b5050505050905083565b60015481565b60606007826040516020016102a792919061070a565b6040516020818303038152906040529050919050565b5f81519050919050565b5f82825260208201905092915050565b8281835e5f83830152505050565b5f601f19601f8301169050919050565b5f6102ff826102bd565b61030981856102c7565b93506103198185602086016102d7565b610322816102e5565b840191505092915050565b5f6020820190508181035f83015261034581846102f5565b905092915050565b5f819050919050565b61035f8161034d565b82525050565b5f6020820190506103785f830184610356565b92915050565b5f73ffffffffffffffffffffffffffffffffffffffff82169050919050565b5f6103a78261037e565b9050919050565b6103b78161039d565b82525050565b5f6020820190506103d05f8301846103ae565b92915050565b5f819050919050565b6103e8816103d6565b82525050565b5f8115159050919050565b610402816103ee565b82525050565b5f60608201905061041b5f8301866103df565b61042860208301856103f9565b818103604083015261043a81846102f5565b9050949350505050565b5f6020820190506104575f8301846103df565b92915050565b5f604051905090565b5f5ffd5b5f5ffd5b5f5ffd5b5f5ffd5b7f4e487b71000000000000000000000000000000000000000000000000000000005f52604160045260245ffd5b6104ac826102e5565b810181811067ffffffffffffffff821117156104cb576104ca610476565b5b80604052505050565b5f6104dd61045d565b90506104e982826104a3565b919050565b5f67ffffffffffffffff82111561050857610507610476565b5b610511826102e5565b9050602081019050919050565b828183375f83830152505050565b5f61053e610539846104ee565b6104d4565b90508281526020810184848401111561055a57610559610472565b5b61056584828561051e565b509392505050565b5f82601f8301126105815761058061046e565b5b813561059184826020860161052c565b91505092915050565b5f602082840312156105af576105ae610466565b5b5f82013567ffffffffffffffff8111156105cc576105cb61046a565b5b6105d88482850161056d565b91505092915050565b7f4e487b71000000000000000000000000000000000000000000000000000000005f52602260045260245ffd5b5f600282049050600182168061062557607f821691505b602082108103610638576106376105e1565b5b50919050565b5f81905092915050565b5f819050815f5260205f209050919050565b5f81546106668161060e565b610670818661063e565b9450600182165f811461068a576001811461069f576106d1565b60ff19831686528115158202860193506106d1565b6106a885610648565b5f5b838110156106c9578154818901526001820191506020810190506106aa565b838801955050505b50505092915050565b5f6106e4826102bd565b6106ee818561063e565b93506106fe8185602086016102d7565b80840191505092915050565b5f610715828561065a565b915061072182846106da565b9150819050939250505056fea26469706673582212200f07ca07446da1fbbf8e383e37e37476ccce96c27d211cc82cd6ab68a4e0a07e64736f6c634300081e0033",
			"opcodes": "PUSH1 0x80 PUSH1 0x40 MSTORE PUSH1 0x64 PUSH0 SSTORE PUSH32 0xFFFFFFFFFFFFFFFFFFFFFFFFFFFFFFFFFFFFFFFFFFFFFFFFFFFFFFFFFFFFFFFF PUSH1 0x1 SSTORE PUSH20 0x26B2B90B406334A0A09EEBAD155693885E5CD5B3 PUSH1 0x2 PUSH0 PUSH2 0x100 EXP DUP2 SLOAD DUP2 PUSH20 0xFFFFFFFFFFFFFFFFFFFFFFFFFFFFFFFFFFFFFFFF MUL NOT AND SWAP1 DUP4 PUSH20 0xFFFFFFFFFFFFFFFFFFFFFFFFFFFFFFFFFFFFFFFF AND MUL OR SWAP1 SSTORE POP PUSH1 0x40 MLOAD DUP1 PUSH1 0x60 ADD PUSH1 0x40 MSTORE DUP1 PUSH1 0x12 DUP2 MSTORE PUSH1 0x20 ADD PUSH1 0x1 ISZERO ISZERO DUP2 MSTORE PUSH1 0x20 ADD PUSH1 0x40 MLOAD DUP1 PUSH1 0x40 ADD PUSH1 0x40 MSTORE DUP1 PUSH1 0x6 DUP2 MSTORE PUSH1 0x20 ADD PUSH32 0x7A697875616E0000000000000000000000000000000000000000000000000000 DUP2 MSTORE POP DUP2 MSTORE POP PUSH1 0x4 PUSH0 DUP3 ADD MLOAD DUP2 PUSH0 ADD SSTORE PUSH1 0x20 DUP3 ADD MLOAD DUP2 PUSH1 0x1 ADD PUSH0 PUSH2 0x100 EXP DUP2 SLOAD DUP2 PUSH1 0xFF MUL NOT AND SWAP1 DUP4 ISZERO ISZERO MUL OR SWAP1 SSTORE POP PUSH1 0x40 DUP3 ADD MLOAD DUP2 PUSH1 0x2 ADD SWAP1 DUP2 PUSH2 0x112 SWAP2 SWAP1 PUSH2 0x3A8 JUMP JUMPDEST POP POP POP PUSH1 0x40 MLOAD DUP1 PUSH1 0x40 ADD PUSH1 0x40 MSTORE DUP1 PUSH1 0x5 DUP2 MSTORE PUSH1 0x20 ADD PUSH32 0x68656C6C6F000000000000000000000000000000000000000000000000000000 DUP2 MSTORE POP PUSH1 0x7 SWAP1 DUP2 PUSH2 0x159 SWAP2 SWAP1 PUSH2 0x3A8 JUMP JUMPDEST POP CALLVALUE DUP1 ISZERO PUSH2 0x165 JUMPI PUSH0 PUSH0 REVERT JUMPDEST POP PUSH2 0x477 JUMP JUMPDEST PUSH0 DUP2 MLOAD SWAP1 POP SWAP2 SWAP1 POP JUMP JUMPDEST PUSH32 0x4E487B7100000000000000000000000000000000000000000000000000000000 PUSH0 MSTORE PUSH1 0x41 PUSH1 0x4 MSTORE PUSH1 0x24 PUSH0 REVERT JUMPDEST PUSH32 0x4E487B7100000000000000000000000000000000000000000000000000000000 PUSH0 MSTORE PUSH1 0x22 PUSH1 0x4 MSTORE PUSH1 0x24 PUSH0 REVERT JUMPDEST PUSH0 PUSH1 0x2 DUP3 DIV SWAP1 POP PUSH1 0x1 DUP3 AND DUP1 PUSH2 0x1E6 JUMPI PUSH1 0x7F DUP3 AND SWAP2 POP JUMPDEST PUSH1 0x20 DUP3 LT DUP2 SUB PUSH2 0x1F9 JUMPI PUSH2 0x1F8 PUSH2 0x1A2 JUMP JUMPDEST JUMPDEST POP SWAP2 SWAP1 POP JUMP JUMPDEST PUSH0 DUP2 SWAP1 POP DUP2 PUSH0 MSTORE PUSH1 0x20 PUSH0 KECCAK256 SWAP1 POP SWAP2 SWAP1 POP JUMP JUMPDEST PUSH0 PUSH1 0x20 PUSH1 0x1F DUP4 ADD DIV SWAP1 POP SWAP2 SWAP1 POP JUMP JUMPDEST PUSH0 DUP3 DUP3 SHL SWAP1 POP SWAP3 SWAP2 POP POP JUMP JUMPDEST PUSH0 PUSH1 0x8 DUP4 MUL PUSH2 0x25B PUSH32 0xFFFFFFFFFFFFFFFFFFFFFFFFFFFFFFFFFFFFFFFFFFFFFFFFFFFFFFFFFFFFFFFF DUP3 PUSH2 0x220 JUMP JUMPDEST PUSH2 0x265 DUP7 DUP4 PUSH2 0x220 JUMP JUMPDEST SWAP6 POP DUP1 NOT DUP5 AND SWAP4 POP DUP1 DUP7 AND DUP5 OR SWAP3 POP POP POP SWAP4 SWAP3 POP POP POP JUMP JUMPDEST PUSH0 DUP2 SWAP1 POP SWAP2 SWAP1 POP JUMP JUMPDEST PUSH0 DUP2 SWAP1 POP SWAP2 SWAP1 POP JUMP JUMPDEST PUSH0 PUSH2 0x2A9 PUSH2 0x2A4 PUSH2 0x29F DUP5 PUSH2 0x27D JUMP JUMPDEST PUSH2 0x286 JUMP JUMPDEST PUSH2 0x27D JUMP JUMPDEST SWAP1 POP SWAP2 SWAP1 POP JUMP JUMPDEST PUSH0 DUP2 SWAP1 POP SWAP2 SWAP1 POP JUMP JUMPDEST PUSH2 0x2C2 DUP4 PUSH2 0x28F JUMP JUMPDEST PUSH2 0x2D6 PUSH2 0x2CE DUP3 PUSH2 0x2B0 JUMP JUMPDEST DUP5 DUP5 SLOAD PUSH2 0x22C JUMP JUMPDEST DUP3 SSTORE POP POP POP POP JUMP JUMPDEST PUSH0 PUSH0 SWAP1 POP SWAP1 JUMP JUMPDEST PUSH2 0x2ED PUSH2 0x2DE JUMP JUMPDEST PUSH2 0x2F8 DUP2 DUP5 DUP5 PUSH2 0x2B9 JUMP JUMPDEST POP POP POP JUMP JUMPDEST JUMPDEST DUP2 DUP2 LT ISZERO PUSH2 0x31B JUMPI PUSH2 0x310 PUSH0 DUP3 PUSH2 0x2E5 JUMP JUMPDEST PUSH1 0x1 DUP2 ADD SWAP1 POP PUSH2 0x2FE JUMP JUMPDEST POP POP JUMP JUMPDEST PUSH1 0x1F DUP3 GT ISZERO PUSH2 0x360 JUMPI PUSH2 0x331 DUP2 PUSH2 0x1FF JUMP JUMPDEST PUSH2 0x33A DUP5 PUSH2 0x211 JUMP JUMPDEST DUP2 ADD PUSH1 0x20 DUP6 LT ISZERO PUSH2 0x349 JUMPI DUP2 SWAP1 POP JUMPDEST PUSH2 0x35D PUSH2 0x355 DUP6 PUSH2 0x211 JUMP JUMPDEST DUP4 ADD DUP3 PUSH2 0x2FD JUMP JUMPDEST POP POP JUMPDEST POP POP POP JUMP JUMPDEST PUSH0 DUP3 DUP3 SHR SWAP1 POP SWAP3 SWAP2 POP POP JUMP JUMPDEST PUSH0 PUSH2 0x380 PUSH0 NOT DUP5 PUSH1 0x8 MUL PUSH2 0x365 JUMP JUMPDEST NOT DUP1 DUP4 AND SWAP2 POP POP SWAP3 SWAP2 POP POP JUMP JUMPDEST PUSH0 PUSH2 0x398 DUP4 DUP4 PUSH2 0x371 JUMP JUMPDEST SWAP2 POP DUP3 PUSH1 0x2 MUL DUP3 OR SWAP1 POP SWAP3 SWAP2 POP POP JUMP JUMPDEST PUSH2 0x3B1 DUP3 PUSH2 0x16B JUMP JUMPDEST PUSH8 0xFFFFFFFFFFFFFFFF DUP2 GT ISZERO PUSH2 0x3CA JUMPI PUSH2 0x3C9 PUSH2 0x175 JUMP JUMPDEST JUMPDEST PUSH2 0x3D4 DUP3 SLOAD PUSH2 0x1CF JUMP JUMPDEST PUSH2 0x3DF DUP3 DUP3 DUP6 PUSH2 0x31F JUMP JUMPDEST PUSH0 PUSH1 0x20 SWAP1 POP PUSH1 0x1F DUP4 GT PUSH1 0x1 DUP2 EQ PUSH2 0x410 JUMPI PUSH0 DUP5 ISZERO PUSH2 0x3FE JUMPI DUP3 DUP8 ADD MLOAD SWAP1 POP JUMPDEST PUSH2 0x408 DUP6 DUP3 PUSH2 0x38D JUMP JUMPDEST DUP7 SSTORE POP PUSH2 0x46F JUMP JUMPDEST PUSH1 0x1F NOT DUP5 AND PUSH2 0x41E DUP7 PUSH2 0x1FF JUMP JUMPDEST PUSH0 JUMPDEST DUP3 DUP2 LT ISZERO PUSH2 0x445 JUMPI DUP5 DUP10 ADD MLOAD DUP3 SSTORE PUSH1 0x1 DUP3 ADD SWAP2 POP PUSH1 0x20 DUP6 ADD SWAP5 POP PUSH1 0x20 DUP2 ADD SWAP1 POP PUSH2 0x420 JUMP JUMPDEST DUP7 DUP4 LT ISZERO PUSH2 0x462 JUMPI DUP5 DUP10 ADD MLOAD PUSH2 0x45E PUSH1 0x1F DUP10 AND DUP3 PUSH2 0x371 JUMP JUMPDEST DUP4 SSTORE POP JUMPDEST PUSH1 0x1 PUSH1 0x2 DUP9 MUL ADD DUP9 SSTORE POP POP POP JUMPDEST POP POP POP POP POP POP JUMP JUMPDEST PUSH2 0x763 DUP1 PUSH2 0x484 PUSH0 CODECOPY PUSH0 RETURN INVALID PUSH1 0x80 PUSH1 0x40 MSTORE CALLVALUE DUP1 ISZERO PUSH2 0xF JUMPI PUSH0 PUSH0 REVERT JUMPDEST POP PUSH1 0x4 CALLDATASIZE LT PUSH2 0x60 JUMPI PUSH0 CALLDATALOAD PUSH1 0xE0 SHR DUP1 PUSH4 0x19FF1D21 EQ PUSH2 0x64 JUMPI DUP1 PUSH4 0x5DAB2420 EQ PUSH2 0x82 JUMPI DUP1 PUSH4 0x767800DE EQ PUSH2 0xA0 JUMPI DUP1 PUSH4 0x77EC2B55 EQ PUSH2 0xBE JUMPI DUP1 PUSH4 0x82F8152C EQ PUSH2 0xDE JUMPI DUP1 PUSH4 0xC3A9B1C5 EQ PUSH2 0xFC JUMPI JUMPDEST PUSH0 PUSH0 REVERT JUMPDEST PUSH2 0x6C PUSH2 0x12C JUMP JUMPDEST PUSH1 0x40 MLOAD PUSH2 0x79 SWAP2 SWAP1 PUSH2 0x32D JUMP JUMPDEST PUSH1 0x40 MLOAD DUP1 SWAP2 SUB SWAP1 RETURN JUMPDEST PUSH2 0x8A PUSH2 0x1B8 JUMP JUMPDEST PUSH1 0x40 MLOAD PUSH2 0x97 SWAP2 SWAP1 PUSH2 0x365 JUMP JUMPDEST PUSH1 0x40 MLOAD DUP1 SWAP2 SUB SWAP1 RETURN JUMPDEST PUSH2 0xA8 PUSH2 0x1BD JUMP JUMPDEST PUSH1 0x40 MLOAD PUSH2 0xB5 SWAP2 SWAP1 PUSH2 0x3BD JUMP JUMPDEST PUSH1 0x40 MLOAD DUP1 SWAP2 SUB SWAP1 RETURN JUMPDEST PUSH2 0xC6 PUSH2 0x1E2 JUMP JUMPDEST PUSH1 0x40 MLOAD PUSH2 0xD5 SWAP4 SWAP3 SWAP2 SWAP1 PUSH2 0x408 JUMP JUMPDEST PUSH1 0x40 MLOAD DUP1 SWAP2 SUB SWAP1 RETURN JUMPDEST PUSH2 0xE6 PUSH2 0x28B JUMP JUMPDEST PUSH1 0x40 MLOAD PUSH2 0xF3 SWAP2 SWAP1 PUSH2 0x444 JUMP JUMPDEST PUSH1 0x40 MLOAD DUP1 SWAP2 SUB SWAP1 RETURN JUMPDEST PUSH2 0x116 PUSH1 0x4 DUP1 CALLDATASIZE SUB DUP2 ADD SWAP1 PUSH2 0x111 SWAP2 SWAP1 PUSH2 0x59A JUMP JUMPDEST PUSH2 0x291 JUMP JUMPDEST PUSH1 0x40 MLOAD PUSH2 0x123 SWAP2 SWAP1 PUSH2 0x32D JUMP JUMPDEST PUSH1 0x40 MLOAD DUP1 SWAP2 SUB SWAP1 RETURN JUMPDEST PUSH1 0x7 DUP1 SLOAD PUSH2 0x139 SWAP1 PUSH2 0x60E JUMP JUMPDEST DUP1 PUSH1 0x1F ADD PUSH1 0x20 DUP1 SWAP2 DIV MUL PUSH1 0x20 ADD PUSH1 0x40 MLOAD SWAP1 DUP2 ADD PUSH1 0x40 MSTORE DUP1 SWAP3 SWAP2 SWAP1 DUP2 DUP2 MSTORE PUSH1 0x20 ADD DUP3 DUP1 SLOAD PUSH2 0x165 SWAP1 PUSH2 0x60E JUMP JUMPDEST DUP1 ISZERO PUSH2 0x1B0 JUMPI DUP1 PUSH1 0x1F LT PUSH2 0x187 JUMPI PUSH2 0x100 DUP1 DUP4 SLOAD DIV MUL DUP4 MSTORE SWAP2 PUSH1 0x20 ADD SWAP2 PUSH2 0x1B0 JUMP JUMPDEST DUP3 ADD SWAP2 SWAP1 PUSH0 MSTORE PUSH1 0x20 PUSH0 KECCAK256 SWAP1 JUMPDEST DUP2 SLOAD DUP2 MSTORE SWAP1 PUSH1 0x1 ADD SWAP1 PUSH1 0x20 ADD DUP1 DUP4 GT PUSH2 0x193 JUMPI DUP3 SWAP1 SUB PUSH1 0x1F AND DUP3 ADD SWAP2 JUMPDEST POP POP POP POP POP DUP2 JUMP JUMPDEST PUSH0 SLOAD DUP2 JUMP JUMPDEST PUSH1 0x2 PUSH0 SWAP1 SLOAD SWAP1 PUSH2 0x100 EXP SWAP1 DIV PUSH20 0xFFFFFFFFFFFFFFFFFFFFFFFFFFFFFFFFFFFFFFFF AND DUP2 JUMP JUMPDEST PUSH1 0x4 DUP1 PUSH0 ADD SLOAD SWAP1 DUP1 PUSH1 0x1 ADD PUSH0 SWAP1 SLOAD SWAP1 PUSH2 0x100 EXP SWAP1 DIV PUSH1 0xFF AND SWAP1 DUP1 PUSH1 0x2 ADD DUP1 SLOAD PUSH2 0x20A SWAP1 PUSH2 0x60E JUMP JUMPDEST DUP1 PUSH1 0x1F ADD PUSH1 0x20 DUP1 SWAP2 DIV MUL PUSH1 0x20 ADD PUSH1 0x40 MLOAD SWAP1 DUP2 ADD PUSH1 0x40 MSTORE DUP1 SWAP3 SWAP2 SWAP1 DUP2 DUP2 MSTORE PUSH1 0x20 ADD DUP3 DUP1 SLOAD PUSH2 0x236 SWAP1 PUSH2 0x60E JUMP JUMPDEST DUP1 ISZERO PUSH2 0x281 JUMPI DUP1 PUSH1 0x1F LT PUSH2 0x258 JUMPI PUSH2 0x100 DUP1 DUP4 SLOAD DIV MUL DUP4 MSTORE SWAP2 PUSH1 0x20 ADD SWAP2 PUSH2 0x281 JUMP JUMPDEST DUP3 ADD SWAP2 SWAP1 PUSH0 MSTORE PUSH1 0x20 PUSH0 KECCAK256 SWAP1 JUMPDEST DUP2 SLOAD DUP2 MSTORE SWAP1 PUSH1 0x1 ADD SWAP1 PUSH1 0x20 ADD DUP1 DUP4 GT PUSH2 0x264 JUMPI DUP3 SWAP1 SUB PUSH1 0x1F AND DUP3 ADD SWAP2 JUMPDEST POP POP POP POP POP SWAP1 POP DUP4 JUMP JUMPDEST PUSH1 0x1 SLOAD DUP2 JUMP JUMPDEST PUSH1 0x60 PUSH1 0x7 DUP3 PUSH1 0x40 MLOAD PUSH1 0x20 ADD PUSH2 0x2A7 SWAP3 SWAP2 SWAP1 PUSH2 0x70A JUMP JUMPDEST PUSH1 0x40 MLOAD PUSH1 0x20 DUP2 DUP4 SUB SUB DUP2 MSTORE SWAP1 PUSH1 0x40 MSTORE SWAP1 POP SWAP2 SWAP1 POP JUMP JUMPDEST PUSH0 DUP2 MLOAD SWAP1 POP SWAP2 SWAP1 POP JUMP JUMPDEST PUSH0 DUP3 DUP3 MSTORE PUSH1 0x20 DUP3 ADD SWAP1 POP SWAP3 SWAP2 POP POP JUMP JUMPDEST DUP3 DUP2 DUP4 MCOPY PUSH0 DUP4 DUP4 ADD MSTORE POP POP POP JUMP JUMPDEST PUSH0 PUSH1 0x1F NOT PUSH1 0x1F DUP4 ADD AND SWAP1 POP SWAP2 SWAP1 POP JUMP JUMPDEST PUSH0 PUSH2 0x2FF DUP3 PUSH2 0x2BD JUMP JUMPDEST PUSH2 0x309 DUP2 DUP6 PUSH2 0x2C7 JUMP JUMPDEST SWAP4 POP PUSH2 0x319 DUP2 DUP6 PUSH1 0x20 DUP7 ADD PUSH2 0x2D7 JUMP JUMPDEST PUSH2 0x322 DUP2 PUSH2 0x2E5 JUMP JUMPDEST DUP5 ADD SWAP2 POP POP SWAP3 SWAP2 POP POP JUMP JUMPDEST PUSH0 PUSH1 0x20 DUP3 ADD SWAP1 POP DUP2 DUP2 SUB PUSH0 DUP4 ADD MSTORE PUSH2 0x345 DUP2 DUP5 PUSH2 0x2F5 JUMP JUMPDEST SWAP1 POP SWAP3 SWAP2 POP POP JUMP JUMPDEST PUSH0 DUP2 SWAP1 POP SWAP2 SWAP1 POP JUMP JUMPDEST PUSH2 0x35F DUP2 PUSH2 0x34D JUMP JUMPDEST DUP3 MSTORE POP POP JUMP JUMPDEST PUSH0 PUSH1 0x20 DUP3 ADD SWAP1 POP PUSH2 0x378 PUSH0 DUP4 ADD DUP5 PUSH2 0x356 JUMP JUMPDEST SWAP3 SWAP2 POP POP JUMP JUMPDEST PUSH0 PUSH20 0xFFFFFFFFFFFFFFFFFFFFFFFFFFFFFFFFFFFFFFFF DUP3 AND SWAP1 POP SWAP2 SWAP1 POP JUMP JUMPDEST PUSH0 PUSH2 0x3A7 DUP3 PUSH2 0x37E JUMP JUMPDEST SWAP1 POP SWAP2 SWAP1 POP JUMP JUMPDEST PUSH2 0x3B7 DUP2 PUSH2 0x39D JUMP JUMPDEST DUP3 MSTORE POP POP JUMP JUMPDEST PUSH0 PUSH1 0x20 DUP3 ADD SWAP1 POP PUSH2 0x3D0 PUSH0 DUP4 ADD DUP5 PUSH2 0x3AE JUMP JUMPDEST SWAP3 SWAP2 POP POP JUMP JUMPDEST PUSH0 DUP2 SWAP1 POP SWAP2 SWAP1 POP JUMP JUMPDEST PUSH2 0x3E8 DUP2 PUSH2 0x3D6 JUMP JUMPDEST DUP3 MSTORE POP POP JUMP JUMPDEST PUSH0 DUP2 ISZERO ISZERO SWAP1 POP SWAP2 SWAP1 POP JUMP JUMPDEST PUSH2 0x402 DUP2 PUSH2 0x3EE JUMP JUMPDEST DUP3 MSTORE POP POP JUMP JUMPDEST PUSH0 PUSH1 0x60 DUP3 ADD SWAP1 POP PUSH2 0x41B PUSH0 DUP4 ADD DUP7 PUSH2 0x3DF JUMP JUMPDEST PUSH2 0x428 PUSH1 0x20 DUP4 ADD DUP6 PUSH2 0x3F9 JUMP JUMPDEST DUP2 DUP2 SUB PUSH1 0x40 DUP4 ADD MSTORE PUSH2 0x43A DUP2 DUP5 PUSH2 0x2F5 JUMP JUMPDEST SWAP1 POP SWAP5 SWAP4 POP POP POP POP JUMP JUMPDEST PUSH0 PUSH1 0x20 DUP3 ADD SWAP1 POP PUSH2 0x457 PUSH0 DUP4 ADD DUP5 PUSH2 0x3DF JUMP JUMPDEST SWAP3 SWAP2 POP POP JUMP JUMPDEST PUSH0 PUSH1 0x40 MLOAD SWAP1 POP SWAP1 JUMP JUMPDEST PUSH0 PUSH0 REVERT JUMPDEST PUSH0 PUSH0 REVERT JUMPDEST PUSH0 PUSH0 REVERT JUMPDEST PUSH0 PUSH0 REVERT JUMPDEST PUSH32 0x4E487B7100000000000000000000000000000000000000000000000000000000 PUSH0 MSTORE PUSH1 0x41 PUSH1 0x4 MSTORE PUSH1 0x24 PUSH0 REVERT JUMPDEST PUSH2 0x4AC DUP3 PUSH2 0x2E5 JUMP JUMPDEST DUP2 ADD DUP2 DUP2 LT PUSH8 0xFFFFFFFFFFFFFFFF DUP3 GT OR ISZERO PUSH2 0x4CB JUMPI PUSH2 0x4CA PUSH2 0x476 JUMP JUMPDEST JUMPDEST DUP1 PUSH1 0x40 MSTORE POP POP POP JUMP JUMPDEST PUSH0 PUSH2 0x4DD PUSH2 0x45D JUMP JUMPDEST SWAP1 POP PUSH2 0x4E9 DUP3 DUP3 PUSH2 0x4A3 JUMP JUMPDEST SWAP2 SWAP1 POP JUMP JUMPDEST PUSH0 PUSH8 0xFFFFFFFFFFFFFFFF DUP3 GT ISZERO PUSH2 0x508 JUMPI PUSH2 0x507 PUSH2 0x476 JUMP JUMPDEST JUMPDEST PUSH2 0x511 DUP3 PUSH2 0x2E5 JUMP JUMPDEST SWAP1 POP PUSH1 0x20 DUP2 ADD SWAP1 POP SWAP2 SWAP1 POP JUMP JUMPDEST DUP3 DUP2 DUP4 CALLDATACOPY PUSH0 DUP4 DUP4 ADD MSTORE POP POP POP JUMP JUMPDEST PUSH0 PUSH2 0x53E PUSH2 0x539 DUP5 PUSH2 0x4EE JUMP JUMPDEST PUSH2 0x4D4 JUMP JUMPDEST SWAP1 POP DUP3 DUP2 MSTORE PUSH1 0x20 DUP2 ADD DUP5 DUP5 DUP5 ADD GT ISZERO PUSH2 0x55A JUMPI PUSH2 0x559 PUSH2 0x472 JUMP JUMPDEST JUMPDEST PUSH2 0x565 DUP5 DUP3 DUP6 PUSH2 0x51E JUMP JUMPDEST POP SWAP4 SWAP3 POP POP POP JUMP JUMPDEST PUSH0 DUP3 PUSH1 0x1F DUP4 ADD SLT PUSH2 0x581 JUMPI PUSH2 0x580 PUSH2 0x46E JUMP JUMPDEST JUMPDEST DUP2 CALLDATALOAD PUSH2 0x591 DUP5 DUP3 PUSH1 0x20 DUP7 ADD PUSH2 0x52C JUMP JUMPDEST SWAP2 POP POP SWAP3 SWAP2 POP POP JUMP JUMPDEST PUSH0 PUSH1 0x20 DUP3 DUP5 SUB SLT ISZERO PUSH2 0x5AF JUMPI PUSH2 0x5AE PUSH2 0x466 JUMP JUMPDEST JUMPDEST PUSH0 DUP3 ADD CALLDATALOAD PUSH8 0xFFFFFFFFFFFFFFFF DUP2 GT ISZERO PUSH2 0x5CC JUMPI PUSH2 0x5CB PUSH2 0x46A JUMP JUMPDEST JUMPDEST PUSH2 0x5D8 DUP5 DUP3 DUP6 ADD PUSH2 0x56D JUMP JUMPDEST SWAP2 POP POP SWAP3 SWAP2 POP POP JUMP JUMPDEST PUSH32 0x4E487B7100000000000000000000000000000000000000000000000000000000 PUSH0 MSTORE PUSH1 0x22 PUSH1 0x4 MSTORE PUSH1 0x24 PUSH0 REVERT JUMPDEST PUSH0 PUSH1 0x2 DUP3 DIV SWAP1 POP PUSH1 0x1 DUP3 AND DUP1 PUSH2 0x625 JUMPI PUSH1 0x7F DUP3 AND SWAP2 POP JUMPDEST PUSH1 0x20 DUP3 LT DUP2 SUB PUSH2 0x638 JUMPI PUSH2 0x637 PUSH2 0x5E1 JUMP JUMPDEST JUMPDEST POP SWAP2 SWAP1 POP JUMP JUMPDEST PUSH0 DUP2 SWAP1 POP SWAP3 SWAP2 POP POP JUMP JUMPDEST PUSH0 DUP2 SWAP1 POP DUP2 PUSH0 MSTORE PUSH1 0x20 PUSH0 KECCAK256 SWAP1 POP SWAP2 SWAP1 POP JUMP JUMPDEST PUSH0 DUP2 SLOAD PUSH2 0x666 DUP2 PUSH2 0x60E JUMP JUMPDEST PUSH2 0x670 DUP2 DUP7 PUSH2 0x63E JUMP JUMPDEST SWAP5 POP PUSH1 0x1 DUP3 AND PUSH0 DUP2 EQ PUSH2 0x68A JUMPI PUSH1 0x1 DUP2 EQ PUSH2 0x69F JUMPI PUSH2 0x6D1 JUMP JUMPDEST PUSH1 0xFF NOT DUP4 AND DUP7 MSTORE DUP2 ISZERO ISZERO DUP3 MUL DUP7 ADD SWAP4 POP PUSH2 0x6D1 JUMP JUMPDEST PUSH2 0x6A8 DUP6 PUSH2 0x648 JUMP JUMPDEST PUSH0 JUMPDEST DUP4 DUP2 LT ISZERO PUSH2 0x6C9 JUMPI DUP2 SLOAD DUP2 DUP10 ADD MSTORE PUSH1 0x1 DUP3 ADD SWAP2 POP PUSH1 0x20 DUP2 ADD SWAP1 POP PUSH2 0x6AA JUMP JUMPDEST DUP4 DUP9 ADD SWAP6 POP POP POP JUMPDEST POP POP POP SWAP3 SWAP2 POP POP JUMP JUMPDEST PUSH0 PUSH2 0x6E4 DUP3 PUSH2 0x2BD JUMP JUMPDEST PUSH2 0x6EE DUP2 DUP6 PUSH2 0x63E JUMP JUMPDEST SWAP4 POP PUSH2 0x6FE DUP2 DUP6 PUSH1 0x20 DUP7 ADD PUSH2 0x2D7 JUMP JUMPDEST DUP1 DUP5 ADD SWAP2 POP POP SWAP3 SWAP2 POP POP JUMP JUMPDEST PUSH0 PUSH2 0x715 DUP3 DUP6 PUSH2 0x65A JUMP JUMPDEST SWAP2 POP PUSH2 0x721 DUP3 DUP5 PUSH2 0x6DA JUMP JUMPDEST SWAP2 POP DUP2 SWAP1 POP SWAP4 SWAP3 POP POP POP JUMP INVALID LOG2 PUSH5 0x6970667358 0x22 SLT KECCAK256 0xF SMOD 0xCA SMOD PREVRANDAO PUSH14 0xA1FBBF8E383E37E37476CCCE96C2 PUSH30 0x211CC82CD6AB68A4E0A07E64736F6C634300081E00330000000000000000 "
		},
		"gasEstimates": {
			"creation": {
				"codeDepositCost": "378200",
				"executionCost": "infinite",
				"totalCost": "infinite"
			},
			"external": {
				"account()": "2424",
				"account2()": "2491",
				"addr()": "2530",
				"hello()": "infinite",
				"person()": "infinite",
				"sayHello(string)": "infinite"
			}
		},
		"methodIdentifiers": {
			"account()": "5dab2420",
			"account2()": "82f8152c",
			"addr()": "767800de",
			"hello()": "19ff1d21",
			"person()": "77ec2b55",
			"sayHello(string)": "c3a9b1c5"
		}
	},
	"abi": [
		{
			"inputs": [],
			"name": "account",
			"outputs": [
				{
					"internalType": "int256",
					"name": "",
					"type": "int256"
				}
			],
			"stateMutability": "view",
			"type": "function"
		},
		{
			"inputs": [],
			"name": "account2",
			"outputs": [
				{
					"internalType": "uint256",
					"name": "",
					"type": "uint256"
				}
			],
			"stateMutability": "view",
			"type": "function"
		},
		{
			"inputs": [],
			"name": "addr",
			"outputs": [
				{
					"internalType": "address",
					"name": "",
					"type": "address"
				}
			],
			"stateMutability": "view",
			"type": "function"
		},
		{
			"inputs": [],
			"name": "hello",
			"outputs": [
				{
					"internalType": "string",
					"name": "",
					"type": "string"
				}
			],
			"stateMutability": "view",
			"type": "function"
		},
		{
			"inputs": [],
			"name": "person",
			"outputs": [
				{
					"internalType": "uint256",
					"name": "age",
					"type": "uint256"
				},
				{
					"internalType": "bool",
					"name": "sex",
					"type": "bool"
				},
				{
					"internalType": "string",
					"name": "name",
					"type": "string"
				}
			],
			"stateMutability": "view",
			"type": "function"
		},
		{
			"inputs": [
				{
					"internalType": "string",
					"name": "word",
					"type": "string"
				}
			],
			"name": "sayHello",
			"outputs": [
				{
					"internalType": "string",
					"name": "",
					"type": "string"
				}
			],
			"stateMutability": "view",
			"type": "function"
		}
	]
}