{
	"data": {
		"bytecode": {
			"linkReferences": {},
			"object": "608060405234801561000f575f5ffd5b5060015f5f7f49000000000000000000000000000000000000000000000000000000000000007effffffffffffffffffffffffffffffffffffffffffffffffffffffffffffff191681526020019081526020015f208190555060055f5f7f56000000000000000000000000000000000000000000000000000000000000007effffffffffffffffffffffffffffffffffffffffffffffffffffffffffffff191681526020019081526020015f2081905550600a5f5f7f58000000000000000000000000000000000000000000000000000000000000007effffffffffffffffffffffffffffffffffffffffffffffffffffffffffffff191681526020019081526020015f208190555060325f5f7f4c000000000000000000000000000000000000000000000000000000000000007effffffffffffffffffffffffffffffffffffffffffffffffffffffffffffff191681526020019081526020015f208190555060645f5f7f43000000000000000000000000000000000000000000000000000000000000007effffffffffffffffffffffffffffffffffffffffffffffffffffffffffffff191681526020019081526020015f20819055506101f45f5f7f44000000000000000000000000000000000000000000000000000000000000007effffffffffffffffffffffffffffffffffffffffffffffffffffffffffffff191681526020019081526020015f20819055506103e85f5f7f4d000000000000000000000000000000000000000000000000000000000000007effffffffffffffffffffffffffffffffffffffffffffffffffffffffffffff191681526020019081526020015f2081905550610ec4806102875f395ff3fe608060405234801561000f575f5ffd5b506004361061003f575f3560e01c8063213d56c014610043578063445458dc14610073578063ea4c4614146100a3575b5f5ffd5b61005d60048036038101906100589190610af8565b6100d3565b60405161006a9190610b93565b60405180910390f35b61008d60048036038101906100889190610c08565b6100da565b60405161009a9190610c42565b60405180910390f35b6100bd60048036038101906100b89190610d87565b6100ee565b6040516100ca9190610c42565b60405180910390f35b6060919050565b5f602052805f5260405f205f915090505481565b5f5f8290505f5f90505f5f90505b6001835161010a9190610dfb565b811015610a0e577f490000000000000000000000000000000000000000000000000000000000000083828151811061014557610144610e2e565b5b602001015160f81c60f81b7effffffffffffffffffffffffffffffffffffffffffffffffffffffffffffff19161480156101e957507f5600000000000000000000000000000000000000000000000000000000000000836001836101a99190610e5b565b815181106101ba576101b9610e2e565b5b602001015160f81c60f81b7effffffffffffffffffffffffffffffffffffffffffffffffffffffffffffff1916145b1561028e576004826101fb9190610e5b565b91505f83828151811061021157610210610e2e565b5b60200101907effffffffffffffffffffffffffffffffffffffffffffffffffffffffffffff191690815f1a9053505f8360018361024e9190610e5b565b8151811061025f5761025e610e2e565b5b60200101907effffffffffffffffffffffffffffffffffffffffffffffffffffffffffffff191690815f1a9053505b7f49000000000000000000000000000000000000000000000000000000000000008382815181106102c2576102c1610e2e565b5b602001015160f81c60f81b7effffffffffffffffffffffffffffffffffffffffffffffffffffffffffffff191614801561036657507f5800000000000000000000000000000000000000000000000000000000000000836001836103269190610e5b565b8151811061033757610336610e2e565b5b602001015160f81c60f81b7effffffffffffffffffffffffffffffffffffffffffffffffffffffffffffff1916145b1561040b576009826103789190610e5b565b91505f83828151811061038e5761038d610e2e565b5b60200101907effffffffffffffffffffffffffffffffffffffffffffffffffffffffffffff191690815f1a9053505f836001836103cb9190610e5b565b815181106103dc576103db610e2e565b5b60200101907effffffffffffffffffffffffffffffffffffffffffffffffffffffffffffff191690815f1a9053505b7f580000000000000000000000000000000000000000000000000000000000000083828151811061043f5761043e610e2e565b5b602001015160f81c60f81b7effffffffffffffffffffffffffffffffffffffffffffffffffffffffffffff19161480156104e357507f4c00000000000000000000000000000000000000000000000000000000000000836001836104a39190610e5b565b815181106104b4576104b3610e2e565b5b602001015160f81c60f81b7effffffffffffffffffffffffffffffffffffffffffffffffffffffffffffff1916145b15610588576028826104f59190610e5b565b91505f83828151811061050b5761050a610e2e565b5b60200101907effffffffffffffffffffffffffffffffffffffffffffffffffffffffffffff191690815f1a9053505f836001836105489190610e5b565b8151811061055957610558610e2e565b5b60200101907effffffffffffffffffffffffffffffffffffffffffffffffffffffffffffff191690815f1a9053505b7f58000000000000000000000000000000000000000000000000000000000000008382815181106105bc576105bb610e2e565b5b602001015160f81c60f81b7effffffffffffffffffffffffffffffffffffffffffffffffffffffffffffff191614801561066057507f4300000000000000000000000000000000000000000000000000000000000000836001836106209190610e5b565b8151811061063157610630610e2e565b5b602001015160f81c60f81b7effffffffffffffffffffffffffffffffffffffffffffffffffffffffffffff1916145b1561070557605a826106729190610e5b565b91505f83828151811061068857610687610e2e565b5b60200101907effffffffffffffffffffffffffffffffffffffffffffffffffffffffffffff191690815f1a9053505f836001836106c59190610e5b565b815181106106d6576106d5610e2e565b5b60200101907effffffffffffffffffffffffffffffffffffffffffffffffffffffffffffff191690815f1a9053505b7f430000000000000000000000000000000000000000000000000000000000000083828151811061073957610738610e2e565b5b602001015160f81c60f81b7effffffffffffffffffffffffffffffffffffffffffffffffffffffffffffff19161480156107dd57507f44000000000000000000000000000000000000000000000000000000000000008360018361079d9190610e5b565b815181106107ae576107ad610e2e565b5b602001015160f81c60f81b7effffffffffffffffffffffffffffffffffffffffffffffffffffffffffffff1916145b1561088357610190826107f09190610e5b565b91505f83828151811061080657610805610e2e565b5b60200101907effffffffffffffffffffffffffffffffffffffffffffffffffffffffffffff191690815f1a9053505f836001836108439190610e5b565b8151811061085457610853610e2e565b5b60200101907effffffffffffffffffffffffffffffffffffffffffffffffffffffffffffff191690815f1a9053505b7f43000000000000000000000000000000000000000000000000000000000000008382815181106108b7576108b6610e2e565b5b602001015160f81c60f81b7effffffffffffffffffffffffffffffffffffffffffffffffffffffffffffff191614801561095b57507f4d000000000000000000000000000000000000000000000000000000000000008360018361091b9190610e5b565b8151811061092c5761092b610e2e565b5b602001015160f81c60f81b7effffffffffffffffffffffffffffffffffffffffffffffffffffffffffffff1916145b15610a01576103848261096e9190610e5b565b91505f83828151811061098457610983610e2e565b5b60200101907effffffffffffffffffffffffffffffffffffffffffffffffffffffffffffff191690815f1a9053505f836001836109c19190610e5b565b815181106109d2576109d1610e2e565b5b60200101907effffffffffffffffffffffffffffffffffffffffffffffffffffffffffffff191690815f1a9053505b80806001019150506100fc565b505f5f90505b8251811015610aa9575f5f848381518110610a3257610a31610e2e565b5b602001015160f81c60f81b7effffffffffffffffffffffffffffffffffffffffffffffffffffffffffffff19167effffffffffffffffffffffffffffffffffffffffffffffffffffffffffffff191681526020019081526020015f205482610a9a9190610e5b565b91508080600101915050610a14565b508092505050919050565b5f604051905090565b5f5ffd5b5f5ffd5b5f819050919050565b610ad781610ac5565b8114610ae1575f5ffd5b50565b5f81359050610af281610ace565b92915050565b5f60208284031215610b0d57610b0c610abd565b5b5f610b1a84828501610ae4565b91505092915050565b5f81519050919050565b5f82825260208201905092915050565b8281835e5f83830152505050565b5f601f19601f8301169050919050565b5f610b6582610b23565b610b6f8185610b2d565b9350610b7f818560208601610b3d565b610b8881610b4b565b840191505092915050565b5f6020820190508181035f830152610bab8184610b5b565b905092915050565b5f7fff0000000000000000000000000000000000000000000000000000000000000082169050919050565b610be781610bb3565b8114610bf1575f5ffd5b50565b5f81359050610c0281610bde565b92915050565b5f60208284031215610c1d57610c1c610abd565b5b5f610c2a84828501610bf4565b91505092915050565b610c3c81610ac5565b82525050565b5f602082019050610c555f830184610c33565b92915050565b5f5ffd5b5f5ffd5b7f4e487b71000000000000000000000000000000000000000000000000000000005f52604160045260245ffd5b610c9982610b4b565b810181811067ffffffffffffffff82111715610cb857610cb7610c63565b5b80604052505050565b5f610cca610ab4565b9050610cd68282610c90565b919050565b5f67ffffffffffffffff821115610cf557610cf4610c63565b5b610cfe82610b4b565b9050602081019050919050565b828183375f83830152505050565b5f610d2b610d2684610cdb565b610cc1565b905082815260208101848484011115610d4757610d46610c5f565b5b610d52848285610d0b565b509392505050565b5f82601f830112610d6e57610d6d610c5b565b5b8135610d7e848260208601610d19565b91505092915050565b5f60208284031215610d9c57610d9b610abd565b5b5f82013567ffffffffffffffff811115610db957610db8610ac1565b5b610dc584828501610d5a565b91505092915050565b7f4e487b71000000000000000000000000000000000000000000000000000000005f52601160045260245ffd5b5f610e0582610ac5565b9150610e1083610ac5565b9250828203905081811115610e2857610e27610dce565b5b92915050565b7f4e487b71000000000000000000000000000000000000000000000000000000005f52603260045260245ffd5b5f610e6582610ac5565b9150610e7083610ac5565b9250828201905080821115610e8857610e87610dce565b5b9291505056fea2646970667358221220edeb3b2b25dee434d41ac10095d338fa4d185ff0fd36c87ff9bce74fb79fe9fa64736f6c634300081e0033",
			"opcodes": "PUSH1 0x80 PUSH1 0x40 MSTORE CALLVALUE DUP1 ISZERO PUSH2 0xF JUMPI PUSH0 PUSH0 REVERT JUMPDEST POP PUSH1 0x1 PUSH0 PUSH0 PUSH32 0x4900000000000000000000000000000000000000000000000000000000000000 PUSH31 0xFFFFFFFFFFFFFFFFFFFFFFFFFFFFFFFFFFFFFFFFFFFFFFFFFFFFFFFFFFFFFF NOT AND DUP2 MSTORE PUSH1 0x20 ADD SWAP1 DUP2 MSTORE PUSH1 0x20 ADD PUSH0 KECCAK256 DUP2 SWAP1 SSTORE POP PUSH1 0x5 PUSH0 PUSH0 PUSH32 0x5600000000000000000000000000000000000000000000000000000000000000 PUSH31 0xFFFFFFFFFFFFFFFFFFFFFFFFFFFFFFFFFFFFFFFFFFFFFFFFFFFFFFFFFFFFFF NOT AND DUP2 MSTORE PUSH1 0x20 ADD SWAP1 DUP2 MSTORE PUSH1 0x20 ADD PUSH0 KECCAK256 DUP2 SWAP1 SSTORE POP PUSH1 0xA PUSH0 PUSH0 PUSH32 0x5800000000000000000000000000000000000000000000000000000000000000 PUSH31 0xFFFFFFFFFFFFFFFFFFFFFFFFFFFFFFFFFFFFFFFFFFFFFFFFFFFFFFFFFFFFFF NOT AND DUP2 MSTORE PUSH1 0x20 ADD SWAP1 DUP2 MSTORE PUSH1 0x20 ADD PUSH0 KECCAK256 DUP2 SWAP1 SSTORE POP PUSH1 0x32 PUSH0 PUSH0 PUSH32 0x4C00000000000000000000000000000000000000000000000000000000000000 PUSH31 0xFFFFFFFFFFFFFFFFFFFFFFFFFFFFFFFFFFFFFFFFFFFFFFFFFFFFFFFFFFFFFF NOT AND DUP2 MSTORE PUSH1 0x20 ADD SWAP1 DUP2 MSTORE PUSH1 0x20 ADD PUSH0 KECCAK256 DUP2 SWAP1 SSTORE POP PUSH1 0x64 PUSH0 PUSH0 PUSH32 0x4300000000000000000000000000000000000000000000000000000000000000 PUSH31 0xFFFFFFFFFFFFFFFFFFFFFFFFFFFFFFFFFFFFFFFFFFFFFFFFFFFFFFFFFFFFFF NOT AND DUP2 MSTORE PUSH1 0x20 ADD SWAP1 DUP2 MSTORE PUSH1 0x20 ADD PUSH0 KECCAK256 DUP2 SWAP1 SSTORE POP PUSH2 0x1F4 PUSH0 PUSH0 PUSH32 0x4400000000000000000000000000000000000000000000000000000000000000 PUSH31 0xFFFFFFFFFFFFFFFFFFFFFFFFFFFFFFFFFFFFFFFFFFFFFFFFFFFFFFFFFFFFFF NOT AND DUP2 MSTORE PUSH1 0x20 ADD SWAP1 DUP2 MSTORE PUSH1 0x20 ADD PUSH0 KECCAK256 DUP2 SWAP1 SSTORE POP PUSH2 0x3E8 PUSH0 PUSH0 PUSH32 0x4D00000000000000000000000000000000000000000000000000000000000000 PUSH31 0xFFFFFFFFFFFFFFFFFFFFFFFFFFFFFFFFFFFFFFFFFFFFFFFFFFFFFFFFFFFFFF NOT AND DUP2 MSTORE PUSH1 0x20 ADD SWAP1 DUP2 MSTORE PUSH1 0x20 ADD PUSH0 KECCAK256 DUP2 SWAP1 SSTORE POP PUSH2 0xEC4 DUP1 PUSH2 0x287 PUSH0 CODECOPY PUSH0 RETURN INVALID PUSH1 0x80 PUSH1 0x40 MSTORE CALLVALUE DUP1 ISZERO PUSH2 0xF JUMPI PUSH0 PUSH0 REVERT JUMPDEST POP PUSH1 0x4 CALLDATASIZE LT PUSH2 0x3F JUMPI PUSH0 CALLDATALOAD PUSH1 0xE0 SHR DUP1 PUSH4 0x213D56C0 EQ PUSH2 0x43 JUMPI DUP1 PUSH4 0x445458DC EQ PUSH2 0x73 JUMPI DUP1 PUSH4 0xEA4C4614 EQ PUSH2 0xA3 JUMPI JUMPDEST PUSH0 PUSH0 REVERT JUMPDEST PUSH2 0x5D PUSH1 0x4 DUP1 CALLDATASIZE SUB DUP2 ADD SWAP1 PUSH2 0x58 SWAP2 SWAP1 PUSH2 0xAF8 JUMP JUMPDEST PUSH2 0xD3 JUMP JUMPDEST PUSH1 0x40 MLOAD PUSH2 0x6A SWAP2 SWAP1 PUSH2 0xB93 JUMP JUMPDEST PUSH1 0x40 MLOAD DUP1 SWAP2 SUB SWAP1 RETURN JUMPDEST PUSH2 0x8D PUSH1 0x4 DUP1 CALLDATASIZE SUB DUP2 ADD SWAP1 PUSH2 0x88 SWAP2 SWAP1 PUSH2 0xC08 JUMP JUMPDEST PUSH2 0xDA JUMP JUMPDEST PUSH1 0x40 MLOAD PUSH2 0x9A SWAP2 SWAP1 PUSH2 0xC42 JUMP JUMPDEST PUSH1 0x40 MLOAD DUP1 SWAP2 SUB SWAP1 RETURN JUMPDEST PUSH2 0xBD PUSH1 0x4 DUP1 CALLDATASIZE SUB DUP2 ADD SWAP1 PUSH2 0xB8 SWAP2 SWAP1 PUSH2 0xD87 JUMP JUMPDEST PUSH2 0xEE JUMP JUMPDEST PUSH1 0x40 MLOAD PUSH2 0xCA SWAP2 SWAP1 PUSH2 0xC42 JUMP JUMPDEST PUSH1 0x40 MLOAD DUP1 SWAP2 SUB SWAP1 RETURN JUMPDEST PUSH1 0x60 SWAP2 SWAP1 POP JUMP JUMPDEST PUSH0 PUSH1 0x20 MSTORE DUP1 PUSH0 MSTORE PUSH1 0x40 PUSH0 KECCAK256 PUSH0 SWAP2 POP SWAP1 POP SLOAD DUP2 JUMP JUMPDEST PUSH0 PUSH0 DUP3 SWAP1 POP PUSH0 PUSH0 SWAP1 POP PUSH0 PUSH0 SWAP1 POP JUMPDEST PUSH1 0x1 DUP4 MLOAD PUSH2 0x10A SWAP2 SWAP1 PUSH2 0xDFB JUMP JUMPDEST DUP2 LT ISZERO PUSH2 0xA0E JUMPI PUSH32 0x4900000000000000000000000000000000000000000000000000000000000000 DUP4 DUP3 DUP2 MLOAD DUP2 LT PUSH2 0x145 JUMPI PUSH2 0x144 PUSH2 0xE2E JUMP JUMPDEST JUMPDEST PUSH1 0x20 ADD ADD MLOAD PUSH1 0xF8 SHR PUSH1 0xF8 SHL PUSH31 0xFFFFFFFFFFFFFFFFFFFFFFFFFFFFFFFFFFFFFFFFFFFFFFFFFFFFFFFFFFFFFF NOT AND EQ DUP1 ISZERO PUSH2 0x1E9 JUMPI POP PUSH32 0x5600000000000000000000000000000000000000000000000000000000000000 DUP4 PUSH1 0x1 DUP4 PUSH2 0x1A9 SWAP2 SWAP1 PUSH2 0xE5B JUMP JUMPDEST DUP2 MLOAD DUP2 LT PUSH2 0x1BA JUMPI PUSH2 0x1B9 PUSH2 0xE2E JUMP JUMPDEST JUMPDEST PUSH1 0x20 ADD ADD MLOAD PUSH1 0xF8 SHR PUSH1 0xF8 SHL PUSH31 0xFFFFFFFFFFFFFFFFFFFFFFFFFFFFFFFFFFFFFFFFFFFFFFFFFFFFFFFFFFFFFF NOT AND EQ JUMPDEST ISZERO PUSH2 0x28E JUMPI PUSH1 0x4 DUP3 PUSH2 0x1FB SWAP2 SWAP1 PUSH2 0xE5B JUMP JUMPDEST SWAP2 POP PUSH0 DUP4 DUP3 DUP2 MLOAD DUP2 LT PUSH2 0x211 JUMPI PUSH2 0x210 PUSH2 0xE2E JUMP JUMPDEST JUMPDEST PUSH1 0x20 ADD ADD SWAP1 PUSH31 0xFFFFFFFFFFFFFFFFFFFFFFFFFFFFFFFFFFFFFFFFFFFFFFFFFFFFFFFFFFFFFF NOT AND SWAP1 DUP2 PUSH0 BYTE SWAP1 MSTORE8 POP PUSH0 DUP4 PUSH1 0x1 DUP4 PUSH2 0x24E SWAP2 SWAP1 PUSH2 0xE5B JUMP JUMPDEST DUP2 MLOAD DUP2 LT PUSH2 0x25F JUMPI PUSH2 0x25E PUSH2 0xE2E JUMP JUMPDEST JUMPDEST PUSH1 0x20 ADD ADD SWAP1 PUSH31 0xFFFFFFFFFFFFFFFFFFFFFFFFFFFFFFFFFFFFFFFFFFFFFFFFFFFFFFFFFFFFFF NOT AND SWAP1 DUP2 PUSH0 BYTE SWAP1 MSTORE8 POP JUMPDEST PUSH32 0x4900000000000000000000000000000000000000000000000000000000000000 DUP4 DUP3 DUP2 MLOAD DUP2 LT PUSH2 0x2C2 JUMPI PUSH2 0x2C1 PUSH2 0xE2E JUMP JUMPDEST JUMPDEST PUSH1 0x20 ADD ADD MLOAD PUSH1 0xF8 SHR PUSH1 0xF8 SHL PUSH31 0xFFFFFFFFFFFFFFFFFFFFFFFFFFFFFFFFFFFFFFFFFFFFFFFFFFFFFFFFFFFFFF NOT AND EQ DUP1 ISZERO PUSH2 0x366 JUMPI POP PUSH32 0x5800000000000000000000000000000000000000000000000000000000000000 DUP4 PUSH1 0x1 DUP4 PUSH2 0x326 SWAP2 SWAP1 PUSH2 0xE5B JUMP JUMPDEST DUP2 MLOAD DUP2 LT PUSH2 0x337 JUMPI PUSH2 0x336 PUSH2 0xE2E JUMP JUMPDEST JUMPDEST PUSH1 0x20 ADD ADD MLOAD PUSH1 0xF8 SHR PUSH1 0xF8 SHL PUSH31 0xFFFFFFFFFFFFFFFFFFFFFFFFFFFFFFFFFFFFFFFFFFFFFFFFFFFFFFFFFFFFFF NOT AND EQ JUMPDEST ISZERO PUSH2 0x40B JUMPI PUSH1 0x9 DUP3 PUSH2 0x378 SWAP2 SWAP1 PUSH2 0xE5B JUMP JUMPDEST SWAP2 POP PUSH0 DUP4 DUP3 DUP2 MLOAD DUP2 LT PUSH2 0x38E JUMPI PUSH2 0x38D PUSH2 0xE2E JUMP JUMPDEST JUMPDEST PUSH1 0x20 ADD ADD SWAP1 PUSH31 0xFFFFFFFFFFFFFFFFFFFFFFFFFFFFFFFFFFFFFFFFFFFFFFFFFFFFFFFFFFFFFF NOT AND SWAP1 DUP2 PUSH0 BYTE SWAP1 MSTORE8 POP PUSH0 DUP4 PUSH1 0x1 DUP4 PUSH2 0x3CB SWAP2 SWAP1 PUSH2 0xE5B JUMP JUMPDEST DUP2 MLOAD DUP2 LT PUSH2 0x3DC JUMPI PUSH2 0x3DB PUSH2 0xE2E JUMP JUMPDEST JUMPDEST PUSH1 0x20 ADD ADD SWAP1 PUSH31 0xFFFFFFFFFFFFFFFFFFFFFFFFFFFFFFFFFFFFFFFFFFFFFFFFFFFFFFFFFFFFFF NOT AND SWAP1 DUP2 PUSH0 BYTE SWAP1 MSTORE8 POP JUMPDEST PUSH32 0x5800000000000000000000000000000000000000000000000000000000000000 DUP4 DUP3 DUP2 MLOAD DUP2 LT PUSH2 0x43F JUMPI PUSH2 0x43E PUSH2 0xE2E JUMP JUMPDEST JUMPDEST PUSH1 0x20 ADD ADD MLOAD PUSH1 0xF8 SHR PUSH1 0xF8 SHL PUSH31 0xFFFFFFFFFFFFFFFFFFFFFFFFFFFFFFFFFFFFFFFFFFFFFFFFFFFFFFFFFFFFFF NOT AND EQ DUP1 ISZERO PUSH2 0x4E3 JUMPI POP PUSH32 0x4C00000000000000000000000000000000000000000000000000000000000000 DUP4 PUSH1 0x1 DUP4 PUSH2 0x4A3 SWAP2 SWAP1 PUSH2 0xE5B JUMP JUMPDEST DUP2 MLOAD DUP2 LT PUSH2 0x4B4 JUMPI PUSH2 0x4B3 PUSH2 0xE2E JUMP JUMPDEST JUMPDEST PUSH1 0x20 ADD ADD MLOAD PUSH1 0xF8 SHR PUSH1 0xF8 SHL PUSH31 0xFFFFFFFFFFFFFFFFFFFFFFFFFFFFFFFFFFFFFFFFFFFFFFFFFFFFFFFFFFFFFF NOT AND EQ JUMPDEST ISZERO PUSH2 0x588 JUMPI PUSH1 0x28 DUP3 PUSH2 0x4F5 SWAP2 SWAP1 PUSH2 0xE5B JUMP JUMPDEST SWAP2 POP PUSH0 DUP4 DUP3 DUP2 MLOAD DUP2 LT PUSH2 0x50B JUMPI PUSH2 0x50A PUSH2 0xE2E JUMP JUMPDEST JUMPDEST PUSH1 0x20 ADD ADD SWAP1 PUSH31 0xFFFFFFFFFFFFFFFFFFFFFFFFFFFFFFFFFFFFFFFFFFFFFFFFFFFFFFFFFFFFFF NOT AND SWAP1 DUP2 PUSH0 BYTE SWAP1 MSTORE8 POP PUSH0 DUP4 PUSH1 0x1 DUP4 PUSH2 0x548 SWAP2 SWAP1 PUSH2 0xE5B JUMP JUMPDEST DUP2 MLOAD DUP2 LT PUSH2 0x559 JUMPI PUSH2 0x558 PUSH2 0xE2E JUMP JUMPDEST JUMPDEST PUSH1 0x20 ADD ADD SWAP1 PUSH31 0xFFFFFFFFFFFFFFFFFFFFFFFFFFFFFFFFFFFFFFFFFFFFFFFFFFFFFFFFFFFFFF NOT AND SWAP1 DUP2 PUSH0 BYTE SWAP1 MSTORE8 POP JUMPDEST PUSH32 0x5800000000000000000000000000000000000000000000000000000000000000 DUP4 DUP3 DUP2 MLOAD DUP2 LT PUSH2 0x5BC JUMPI PUSH2 0x5BB PUSH2 0xE2E JUMP JUMPDEST JUMPDEST PUSH1 0x20 ADD ADD MLOAD PUSH1 0xF8 SHR PUSH1 0xF8 SHL PUSH31 0xFFFFFFFFFFFFFFFFFFFFFFFFFFFFFFFFFFFFFFFFFFFFFFFFFFFFFFFFFFFFFF NOT AND EQ DUP1 ISZERO PUSH2 0x660 JUMPI POP PUSH32 0x4300000000000000000000000000000000000000000000000000000000000000 DUP4 PUSH1 0x1 DUP4 PUSH2 0x620 SWAP2 SWAP1 PUSH2 0xE5B JUMP JUMPDEST DUP2 MLOAD DUP2 LT PUSH2 0x631 JUMPI PUSH2 0x630 PUSH2 0xE2E JUMP JUMPDEST JUMPDEST PUSH1 0x20 ADD ADD MLOAD PUSH1 0xF8 SHR PUSH1 0xF8 SHL PUSH31 0xFFFFFFFFFFFFFFFFFFFFFFFFFFFFFFFFFFFFFFFFFFFFFFFFFFFFFFFFFFFFFF NOT AND EQ JUMPDEST ISZERO PUSH2 0x705 JUMPI PUSH1 0x5A DUP3 PUSH2 0x672 SWAP2 SWAP1 PUSH2 0xE5B JUMP JUMPDEST SWAP2 POP PUSH0 DUP4 DUP3 DUP2 MLOAD DUP2 LT PUSH2 0x688 JUMPI PUSH2 0x687 PUSH2 0xE2E JUMP JUMPDEST JUMPDEST PUSH1 0x20 ADD ADD SWAP1 PUSH31 0xFFFFFFFFFFFFFFFFFFFFFFFFFFFFFFFFFFFFFFFFFFFFFFFFFFFFFFFFFFFFFF NOT AND SWAP1 DUP2 PUSH0 BYTE SWAP1 MSTORE8 POP PUSH0 DUP4 PUSH1 0x1 DUP4 PUSH2 0x6C5 SWAP2 SWAP1 PUSH2 0xE5B JUMP JUMPDEST DUP2 MLOAD DUP2 LT PUSH2 0x6D6 JUMPI PUSH2 0x6D5 PUSH2 0xE2E JUMP JUMPDEST JUMPDEST PUSH1 0x20 ADD ADD SWAP1 PUSH31 0xFFFFFFFFFFFFFFFFFFFFFFFFFFFFFFFFFFFFFFFFFFFFFFFFFFFFFFFFFFFFFF NOT AND SWAP1 DUP2 PUSH0 BYTE SWAP1 MSTORE8 POP JUMPDEST PUSH32 0x4300000000000000000000000000000000000000000000000000000000000000 DUP4 DUP3 DUP2 MLOAD DUP2 LT PUSH2 0x739 JUMPI PUSH2 0x738 PUSH2 0xE2E JUMP JUMPDEST JUMPDEST PUSH1 0x20 ADD ADD MLOAD PUSH1 0xF8 SHR PUSH1 0xF8 SHL PUSH31 0xFFFFFFFFFFFFFFFFFFFFFFFFFFFFFFFFFFFFFFFFFFFFFFFFFFFFFFFFFFFFFF NOT AND EQ DUP1 ISZERO PUSH2 0x7DD JUMPI POP PUSH32 0x4400000000000000000000000000000000000000000000000000000000000000 DUP4 PUSH1 0x1 DUP4 PUSH2 0x79D SWAP2 SWAP1 PUSH2 0xE5B JUMP JUMPDEST DUP2 MLOAD DUP2 LT PUSH2 0x7AE JUMPI PUSH2 0x7AD PUSH2 0xE2E JUMP JUMPDEST JUMPDEST PUSH1 0x20 ADD ADD MLOAD PUSH1 0xF8 SHR PUSH1 0xF8 SHL PUSH31 0xFFFFFFFFFFFFFFFFFFFFFFFFFFFFFFFFFFFFFFFFFFFFFFFFFFFFFFFFFFFFFF NOT AND EQ JUMPDEST ISZERO PUSH2 0x883 JUMPI PUSH2 0x190 DUP3 PUSH2 0x7F0 SWAP2 SWAP1 PUSH2 0xE5B JUMP JUMPDEST SWAP2 POP PUSH0 DUP4 DUP3 DUP2 MLOAD DUP2 LT PUSH2 0x806 JUMPI PUSH2 0x805 PUSH2 0xE2E JUMP JUMPDEST JUMPDEST PUSH1 0x20 ADD ADD SWAP1 PUSH31 0xFFFFFFFFFFFFFFFFFFFFFFFFFFFFFFFFFFFFFFFFFFFFFFFFFFFFFFFFFFFFFF NOT AND SWAP1 DUP2 PUSH0 BYTE SWAP1 MSTORE8 POP PUSH0 DUP4 PUSH1 0x1 DUP4 PUSH2 0x843 SWAP2 SWAP1 PUSH2 0xE5B JUMP JUMPDEST DUP2 MLOAD DUP2 LT PUSH2 0x854 JUMPI PUSH2 0x853 PUSH2 0xE2E JUMP JUMPDEST JUMPDEST PUSH1 0x20 ADD ADD SWAP1 PUSH31 0xFFFFFFFFFFFFFFFFFFFFFFFFFFFFFFFFFFFFFFFFFFFFFFFFFFFFFFFFFFFFFF NOT AND SWAP1 DUP2 PUSH0 BYTE SWAP1 MSTORE8 POP JUMPDEST PUSH32 0x4300000000000000000000000000000000000000000000000000000000000000 DUP4 DUP3 DUP2 MLOAD DUP2 LT PUSH2 0x8B7 JUMPI PUSH2 0x8B6 PUSH2 0xE2E JUMP JUMPDEST JUMPDEST PUSH1 0x20 ADD ADD MLOAD PUSH1 0xF8 SHR PUSH1 0xF8 SHL PUSH31 0xFFFFFFFFFFFFFFFFFFFFFFFFFFFFFFFFFFFFFFFFFFFFFFFFFFFFFFFFFFFFFF NOT AND EQ DUP1 ISZERO PUSH2 0x95B JUMPI POP PUSH32 0x4D00000000000000000000000000000000000000000000000000000000000000 DUP4 PUSH1 0x1 DUP4 PUSH2 0x91B SWAP2 SWAP1 PUSH2 0xE5B JUMP JUMPDEST DUP2 MLOAD DUP2 LT PUSH2 0x92C JUMPI PUSH2 0x92B PUSH2 0xE2E JUMP JUMPDEST JUMPDEST PUSH1 0x20 ADD ADD MLOAD PUSH1 0xF8 SHR PUSH1 0xF8 SHL PUSH31 0xFFFFFFFFFFFFFFFFFFFFFFFFFFFFFFFFFFFFFFFFFFFFFFFFFFFFFFFFFFFFFF NOT AND EQ JUMPDEST ISZERO PUSH2 0xA01 JUMPI PUSH2 0x384 DUP3 PUSH2 0x96E SWAP2 SWAP1 PUSH2 0xE5B JUMP JUMPDEST SWAP2 POP PUSH0 DUP4 DUP3 DUP2 MLOAD DUP2 LT PUSH2 0x984 JUMPI PUSH2 0x983 PUSH2 0xE2E JUMP JUMPDEST JUMPDEST PUSH1 0x20 ADD ADD SWAP1 PUSH31 0xFFFFFFFFFFFFFFFFFFFFFFFFFFFFFFFFFFFFFFFFFFFFFFFFFFFFFFFFFFFFFF NOT AND SWAP1 DUP2 PUSH0 BYTE SWAP1 MSTORE8 POP PUSH0 DUP4 PUSH1 0x1 DUP4 PUSH2 0x9C1 SWAP2 SWAP1 PUSH2 0xE5B JUMP JUMPDEST DUP2 MLOAD DUP2 LT PUSH2 0x9D2 JUMPI PUSH2 0x9D1 PUSH2 0xE2E JUMP JUMPDEST JUMPDEST PUSH1 0x20 ADD ADD SWAP1 PUSH31 0xFFFFFFFFFFFFFFFFFFFFFFFFFFFFFFFFFFFFFFFFFFFFFFFFFFFFFFFFFFFFFF NOT AND SWAP1 DUP2 PUSH0 BYTE SWAP1 MSTORE8 POP JUMPDEST DUP1 DUP1 PUSH1 0x1 ADD SWAP2 POP POP PUSH2 0xFC JUMP JUMPDEST POP PUSH0 PUSH0 SWAP1 POP JUMPDEST DUP3 MLOAD DUP2 LT ISZERO PUSH2 0xAA9 JUMPI PUSH0 PUSH0 DUP5 DUP4 DUP2 MLOAD DUP2 LT PUSH2 0xA32 JUMPI PUSH2 0xA31 PUSH2 0xE2E JUMP JUMPDEST JUMPDEST PUSH1 0x20 ADD ADD MLOAD PUSH1 0xF8 SHR PUSH1 0xF8 SHL PUSH31 0xFFFFFFFFFFFFFFFFFFFFFFFFFFFFFFFFFFFFFFFFFFFFFFFFFFFFFFFFFFFFFF NOT AND PUSH31 0xFFFFFFFFFFFFFFFFFFFFFFFFFFFFFFFFFFFFFFFFFFFFFFFFFFFFFFFFFFFFFF NOT AND DUP2 MSTORE PUSH1 0x20 ADD SWAP1 DUP2 MSTORE PUSH1 0x20 ADD PUSH0 KECCAK256 SLOAD DUP3 PUSH2 0xA9A SWAP2 SWAP1 PUSH2 0xE5B JUMP JUMPDEST SWAP2 POP DUP1 DUP1 PUSH1 0x1 ADD SWAP2 POP POP PUSH2 0xA14 JUMP JUMPDEST POP DUP1 SWAP3 POP POP POP SWAP2 SWAP1 POP JUMP JUMPDEST PUSH0 PUSH1 0x40 MLOAD SWAP1 POP SWAP1 JUMP JUMPDEST PUSH0 PUSH0 REVERT JUMPDEST PUSH0 PUSH0 REVERT JUMPDEST PUSH0 DUP2 SWAP1 POP SWAP2 SWAP1 POP JUMP JUMPDEST PUSH2 0xAD7 DUP2 PUSH2 0xAC5 JUMP JUMPDEST DUP2 EQ PUSH2 0xAE1 JUMPI PUSH0 PUSH0 REVERT JUMPDEST POP JUMP JUMPDEST PUSH0 DUP2 CALLDATALOAD SWAP1 POP PUSH2 0xAF2 DUP2 PUSH2 0xACE JUMP JUMPDEST SWAP3 SWAP2 POP POP JUMP JUMPDEST PUSH0 PUSH1 0x20 DUP3 DUP5 SUB SLT ISZERO PUSH2 0xB0D JUMPI PUSH2 0xB0C PUSH2 0xABD JUMP JUMPDEST JUMPDEST PUSH0 PUSH2 0xB1A DUP5 DUP3 DUP6 ADD PUSH2 0xAE4 JUMP JUMPDEST SWAP2 POP POP SWAP3 SWAP2 POP POP JUMP JUMPDEST PUSH0 DUP2 MLOAD SWAP1 POP SWAP2 SWAP1 POP JUMP JUMPDEST PUSH0 DUP3 DUP3 MSTORE PUSH1 0x20 DUP3 ADD SWAP1 POP SWAP3 SWAP2 POP POP JUMP JUMPDEST DUP3 DUP2 DUP4 MCOPY PUSH0 DUP4 DUP4 ADD MSTORE POP POP POP JUMP JUMPDEST PUSH0 PUSH1 0x1F NOT PUSH1 0x1F DUP4 ADD AND SWAP1 POP SWAP2 SWAP1 POP JUMP JUMPDEST PUSH0 PUSH2 0xB65 DUP3 PUSH2 0xB23 JUMP JUMPDEST PUSH2 0xB6F DUP2 DUP6 PUSH2 0xB2D JUMP JUMPDEST SWAP4 POP PUSH2 0xB7F DUP2 DUP6 PUSH1 0x20 DUP7 ADD PUSH2 0xB3D JUMP JUMPDEST PUSH2 0xB88 DUP2 PUSH2 0xB4B JUMP JUMPDEST DUP5 ADD SWAP2 POP POP SWAP3 SWAP2 POP POP JUMP JUMPDEST PUSH0 PUSH1 0x20 DUP3 ADD SWAP1 POP DUP2 DUP2 SUB PUSH0 DUP4 ADD MSTORE PUSH2 0xBAB DUP2 DUP5 PUSH2 0xB5B JUMP JUMPDEST SWAP1 POP SWAP3 SWAP2 POP POP JUMP JUMPDEST PUSH0 PUSH32 0xFF00000000000000000000000000000000000000000000000000000000000000 DUP3 AND SWAP1 POP SWAP2 SWAP1 POP JUMP JUMPDEST PUSH2 0xBE7 DUP2 PUSH2 0xBB3 JUMP JUMPDEST DUP2 EQ PUSH2 0xBF1 JUMPI PUSH0 PUSH0 REVERT JUMPDEST POP JUMP JUMPDEST PUSH0 DUP2 CALLDATALOAD SWAP1 POP PUSH2 0xC02 DUP2 PUSH2 0xBDE JUMP JUMPDEST SWAP3 SWAP2 POP POP JUMP JUMPDEST PUSH0 PUSH1 0x20 DUP3 DUP5 SUB SLT ISZERO PUSH2 0xC1D JUMPI PUSH2 0xC1C PUSH2 0xABD JUMP JUMPDEST JUMPDEST PUSH0 PUSH2 0xC2A DUP5 DUP3 DUP6 ADD PUSH2 0xBF4 JUMP JUMPDEST SWAP2 POP POP SWAP3 SWAP2 POP POP JUMP JUMPDEST PUSH2 0xC3C DUP2 PUSH2 0xAC5 JUMP JUMPDEST DUP3 MSTORE POP POP JUMP JUMPDEST PUSH0 PUSH1 0x20 DUP3 ADD SWAP1 POP PUSH2 0xC55 PUSH0 DUP4 ADD DUP5 PUSH2 0xC33 JUMP JUMPDEST SWAP3 SWAP2 POP POP JUMP JUMPDEST PUSH0 PUSH0 REVERT JUMPDEST PUSH0 PUSH0 REVERT JUMPDEST PUSH32 0x4E487B7100000000000000000000000000000000000000000000000000000000 PUSH0 MSTORE PUSH1 0x41 PUSH1 0x4 MSTORE PUSH1 0x24 PUSH0 REVERT JUMPDEST PUSH2 0xC99 DUP3 PUSH2 0xB4B JUMP JUMPDEST DUP2 ADD DUP2 DUP2 LT PUSH8 0xFFFFFFFFFFFFFFFF DUP3 GT OR ISZERO PUSH2 0xCB8 JUMPI PUSH2 0xCB7 PUSH2 0xC63 JUMP JUMPDEST JUMPDEST DUP1 PUSH1 0x40 MSTORE POP POP POP JUMP JUMPDEST PUSH0 PUSH2 0xCCA PUSH2 0xAB4 JUMP JUMPDEST SWAP1 POP PUSH2 0xCD6 DUP3 DUP3 PUSH2 0xC90 JUMP JUMPDEST SWAP2 SWAP1 POP JUMP JUMPDEST PUSH0 PUSH8 0xFFFFFFFFFFFFFFFF DUP3 GT ISZERO PUSH2 0xCF5 JUMPI PUSH2 0xCF4 PUSH2 0xC63 JUMP JUMPDEST JUMPDEST PUSH2 0xCFE DUP3 PUSH2 0xB4B JUMP JUMPDEST SWAP1 POP PUSH1 0x20 DUP2 ADD SWAP1 POP SWAP2 SWAP1 POP JUMP JUMPDEST DUP3 DUP2 DUP4 CALLDATACOPY PUSH0 DUP4 DUP4 ADD MSTORE POP POP POP JUMP JUMPDEST PUSH0 PUSH2 0xD2B PUSH2 0xD26 DUP5 PUSH2 0xCDB JUMP JUMPDEST PUSH2 0xCC1 JUMP JUMPDEST SWAP1 POP DUP3 DUP2 MSTORE PUSH1 0x20 DUP2 ADD DUP5 DUP5 DUP5 ADD GT ISZERO PUSH2 0xD47 JUMPI PUSH2 0xD46 PUSH2 0xC5F JUMP JUMPDEST JUMPDEST PUSH2 0xD52 DUP5 DUP3 DUP6 PUSH2 0xD0B JUMP JUMPDEST POP SWAP4 SWAP3 POP POP POP JUMP JUMPDEST PUSH0 DUP3 PUSH1 0x1F DUP4 ADD SLT PUSH2 0xD6E JUMPI PUSH2 0xD6D PUSH2 0xC5B JUMP JUMPDEST JUMPDEST DUP2 CALLDATALOAD PUSH2 0xD7E DUP5 DUP3 PUSH1 0x20 DUP7 ADD PUSH2 0xD19 JUMP JUMPDEST SWAP2 POP POP SWAP3 SWAP2 POP POP JUMP JUMPDEST PUSH0 PUSH1 0x20 DUP3 DUP5 SUB SLT ISZERO PUSH2 0xD9C JUMPI PUSH2 0xD9B PUSH2 0xABD JUMP JUMPDEST JUMPDEST PUSH0 DUP3 ADD CALLDATALOAD PUSH8 0xFFFFFFFFFFFFFFFF DUP2 GT ISZERO PUSH2 0xDB9 JUMPI PUSH2 0xDB8 PUSH2 0xAC1 JUMP JUMPDEST JUMPDEST PUSH2 0xDC5 DUP5 DUP3 DUP6 ADD PUSH2 0xD5A JUMP JUMPDEST SWAP2 POP POP SWAP3 SWAP2 POP POP JUMP JUMPDEST PUSH32 0x4E487B7100000000000000000000000000000000000000000000000000000000 PUSH0 MSTORE PUSH1 0x11 PUSH1 0x4 MSTORE PUSH1 0x24 PUSH0 REVERT JUMPDEST PUSH0 PUSH2 0xE05 DUP3 PUSH2 0xAC5 JUMP JUMPDEST SWAP2 POP PUSH2 0xE10 DUP4 PUSH2 0xAC5 JUMP JUMPDEST SWAP3 POP DUP3 DUP3 SUB SWAP1 POP DUP2 DUP2 GT ISZERO PUSH2 0xE28 JUMPI PUSH2 0xE27 PUSH2 0xDCE JUMP JUMPDEST JUMPDEST SWAP3 SWAP2 POP POP JUMP JUMPDEST PUSH32 0x4E487B7100000000000000000000000000000000000000000000000000000000 PUSH0 MSTORE PUSH1 0x32 PUSH1 0x4 MSTORE PUSH1 0x24 PUSH0 REVERT JUMPDEST PUSH0 PUSH2 0xE65 DUP3 PUSH2 0xAC5 JUMP JUMPDEST SWAP2 POP PUSH2 0xE70 DUP4 PUSH2 0xAC5 JUMP JUMPDEST SWAP3 POP DUP3 DUP3 ADD SWAP1 POP DUP1 DUP3 GT ISZERO PUSH2 0xE88 JUMPI PUSH2 0xE87 PUSH2 0xDCE JUMP JUMPDEST JUMPDEST SWAP3 SWAP2 POP POP JUMP INVALID LOG2 PUSH5 0x6970667358 0x22 SLT KECCAK256 0xED 0xEB EXTCODESIZE 0x2B 0x25 0xDE RETF CALLVALUE 0xD4 BYTE 0xC1 STOP SWAP6 0xD3 CODESIZE STATICCALL 0x4D XOR PUSH0 CREATE REVERT CALLDATASIZE 0xC8 PUSH32 0xF9BCE74FB79FE9FA64736F6C634300081E003300000000000000000000000000 "
		},
		"gasEstimates": {
			"creation": {
				"codeDepositCost": "756000",
				"executionCost": "156176",
				"totalCost": "912176"
			},
			"external": {
				"integerToRoman(uint256)": "infinite",
				"romanMap(bytes1)": "2759",
				"romanToInteger(string)": "infinite"
			}
		},
		"methodIdentifiers": {
			"integerToRoman(uint256)": "213d56c0",
			"romanMap(bytes1)": "445458dc",
			"romanToInteger(string)": "ea4c4614"
		}
	},
	"abi": [
		{
			"inputs": [],
			"stateMutability": "nonpayable",
			"type": "constructor"
		},
		{
			"inputs": [
				{
					"internalType": "uint256",
					"name": "n",
					"type": "uint256"
				}
			],
			"name": "integerToRoman",
			"outputs": [
				{
					"internalType": "string",
					"name": "",
					"type": "string"
				}
			],
			"stateMutability": "pure",
			"type": "function"
		},
		{
			"inputs": [
				{
					"internalType": "bytes1",
					"name": "",
					"type": "bytes1"
				}
			],
			"name": "romanMap",
			"outputs": [
				{
					"internalType": "uint256",
					"name": "",
					"type": "uint256"
				}
			],
			"stateMutability": "view",
			"type": "function"
		},
		{
			"inputs": [
				{
					"internalType": "string",
					"name": "n",
					"type": "string"
				}
			],
			"name": "romanToInteger",
			"outputs": [
				{
					"internalType": "uint256",
					"name": "",
					"type": "uint256"
				}
			],
			"stateMutability": "view",
			"type": "function"
		}
	]
}