{
	"data": {
		"bytecode": {
			"linkReferences": {},
			"object": "6080604052604051806101a001604052806103e861ffff16815260200161038461ffff1681526020016101f461ffff16815260200161019061ffff168152602001606461ffff168152602001605a61ffff168152602001603261ffff168152602001602861ffff168152602001600a61ffff168152602001600961ffff168152602001600561ffff168152602001600461ffff168152602001600161ffff16815250600290600d6100b1929190610647565b50604051806101a001604052806040518060400160405280600181526020017f4d0000000000000000000000000000000000000000000000000000000000000081525081526020016040518060400160405280600281526020017f434d00000000000000000000000000000000000000000000000000000000000081525081526020016040518060400160405280600181526020017f440000000000000000000000000000000000000000000000000000000000000081525081526020016040518060400160405280600281526020017f434400000000000000000000000000000000000000000000000000000000000081525081526020016040518060400160405280600181526020017f430000000000000000000000000000000000000000000000000000000000000081525081526020016040518060400160405280600281526020017f584300000000000000000000000000000000000000000000000000000000000081525081526020016040518060400160405280600181526020017f4c0000000000000000000000000000000000000000000000000000000000000081525081526020016040518060400160405280600281526020017f584c00000000000000000000000000000000000000000000000000000000000081525081526020016040518060400160405280600181526020017f580000000000000000000000000000000000000000000000000000000000000081525081526020016040518060400160405280600281526020017f495800000000000000000000000000000000000000000000000000000000000081525081526020016040518060400160405280600181526020017f560000000000000000000000000000000000000000000000000000000000000081525081526020016040518060400160405280600281526020017f495600000000000000000000000000000000000000000000000000000000000081525081526020016040518060400160405280600181526020017f4900000000000000000000000000000000000000000000000000000000000000815250815250600390600d6103cb929190610698565b503480156103d7575f5ffd5b5060015f5f7f49000000000000000000000000000000000000000000000000000000000000007effffffffffffffffffffffffffffffffffffffffffffffffffffffffffffff191681526020019081526020015f208190555060055f5f7f56000000000000000000000000000000000000000000000000000000000000007effffffffffffffffffffffffffffffffffffffffffffffffffffffffffffff191681526020019081526020015f2081905550600a5f5f7f58000000000000000000000000000000000000000000000000000000000000007effffffffffffffffffffffffffffffffffffffffffffffffffffffffffffff191681526020019081526020015f208190555060325f5f7f4c000000000000000000000000000000000000000000000000000000000000007effffffffffffffffffffffffffffffffffffffffffffffffffffffffffffff191681526020019081526020015f208190555060645f5f7f43000000000000000000000000000000000000000000000000000000000000007effffffffffffffffffffffffffffffffffffffffffffffffffffffffffffff191681526020019081526020015f20819055506101f45f5f7f44000000000000000000000000000000000000000000000000000000000000007effffffffffffffffffffffffffffffffffffffffffffffffffffffffffffff191681526020019081526020015f20819055506103e85f5f7f4d000000000000000000000000000000000000000000000000000000000000007effffffffffffffffffffffffffffffffffffffffffffffffffffffffffffff191681526020019081526020015f2081905550610a76565b828054828255905f5260205f20908101928215610687579160200282015b82811115610686578251829061ffff16905591602001919060010190610665565b5b50905061069491906106ef565b5090565b828054828255905f5260205f209081019282156106de579160200282015b828111156106dd5782518290816106cd91906109a7565b50916020019190600101906106b6565b5b5090506106eb919061070a565b5090565b5b80821115610706575f815f9055506001016106f0565b5090565b5b80821115610729575f8181610720919061072d565b5060010161070b565b5090565b508054610739906107ce565b5f825580601f1061074a5750610767565b601f0160209004905f5260205f209081019061076691906106ef565b5b50565b5f81519050919050565b7f4e487b71000000000000000000000000000000000000000000000000000000005f52604160045260245ffd5b7f4e487b71000000000000000000000000000000000000000000000000000000005f52602260045260245ffd5b5f60028204905060018216806107e557607f821691505b6020821081036107f8576107f76107a1565b5b50919050565b5f819050815f5260205f209050919050565b5f6020601f8301049050919050565b5f82821b905092915050565b5f6008830261085a7fffffffffffffffffffffffffffffffffffffffffffffffffffffffffffffffff8261081f565b610864868361081f565b95508019841693508086168417925050509392505050565b5f819050919050565b5f819050919050565b5f6108a86108a361089e8461087c565b610885565b61087c565b9050919050565b5f819050919050565b6108c18361088e565b6108d56108cd826108af565b84845461082b565b825550505050565b5f5f905090565b6108ec6108dd565b6108f78184846108b8565b505050565b5b8181101561091a5761090f5f826108e4565b6001810190506108fd565b5050565b601f82111561095f57610930816107fe565b61093984610810565b81016020851015610948578190505b61095c61095485610810565b8301826108fc565b50505b505050565b5f82821c905092915050565b5f61097f5f1984600802610964565b1980831691505092915050565b5f6109978383610970565b9150826002028217905092915050565b6109b08261076a565b67ffffffffffffffff8111156109c9576109c8610774565b5b6109d382546107ce565b6109de82828561091e565b5f60209050601f831160018114610a0f575f84156109fd578287015190505b610a07858261098c565b865550610a6e565b601f198416610a1d866107fe565b5f5b82811015610a4457848901518255600182019150602085019450602081019050610a1f565b86831015610a615784890151610a5d601f891682610970565b8355505b6001600288020188555050505b505050505050565b6112f180610a835f395ff3fe608060405234801561000f575f5ffd5b5060043610610060575f3560e01c8063213d56c014610064578063445458dc146100945780636b646333146100c457806396402744146100f4578063d39fa23314610124578063ea4c461414610154575b5f5ffd5b61007e60048036038101906100799190610dd9565b610184565b60405161008b9190610e74565b60405180910390f35b6100ae60048036038101906100a99190610ee9565b61025a565b6040516100bb9190610f23565b60405180910390f35b6100de60048036038101906100d99190610dd9565b61026e565b6040516100eb9190610e74565b60405180910390f35b61010e60048036038101906101099190610dd9565b610309565b60405161011b9190610e74565b60405180910390f35b61013e60048036038101906101399190610dd9565b6103af565b60405161014b9190610f23565b60405180910390f35b61016e60048036038101906101699190611068565b6103cf565b60405161017b9190610f23565b60405180910390f35b60605f8290505b5f811115610253575f5f90505b60028054905081101561024d57600281815481106101b9576101b86110af565b5b905f5260205f200154821061024057600281815481106101dc576101db6110af565b5b905f5260205f200154826101f09190611109565b915060038181548110610206576102056110af565b5b905f5260205f200161021783610184565b604051602001610228929190611265565b60405160208183030381529060405292505050610255565b8080600101915050610198565b5061018b565b505b919050565b5f602052805f5260405f205f915090505481565b6001602052805f5260405f205f91509050805461028a90611169565b80601f01602080910402602001604051908101604052809291908181526020018280546102b690611169565b80156103015780601f106102d857610100808354040283529160200191610301565b820191905f5260205f20905b8154815290600101906020018083116102e457829003601f168201915b505050505081565b60038181548110610318575f80fd5b905f5260205f20015f91509050805461033090611169565b80601f016020809104026020016040519081016040528092919081815260200182805461035c90611169565b80156103a75780601f1061037e576101008083540402835291602001916103a7565b820191905f5260205f20905b81548152906001019060200180831161038a57829003601f168201915b505050505081565b600281815481106103be575f80fd5b905f5260205f20015f915090505481565b5f5f8290505f5f90505f5f90505b600183516103eb9190611109565b811015610cef577f4900000000000000000000000000000000000000000000000000000000000000838281518110610426576104256110af565b5b602001015160f81c60f81b7effffffffffffffffffffffffffffffffffffffffffffffffffffffffffffff19161480156104ca57507f56000000000000000000000000000000000000000000000000000000000000008360018361048a9190611288565b8151811061049b5761049a6110af565b5b602001015160f81c60f81b7effffffffffffffffffffffffffffffffffffffffffffffffffffffffffffff1916145b1561056f576004826104dc9190611288565b91505f8382815181106104f2576104f16110af565b5b60200101907effffffffffffffffffffffffffffffffffffffffffffffffffffffffffffff191690815f1a9053505f8360018361052f9190611288565b815181106105405761053f6110af565b5b60200101907effffffffffffffffffffffffffffffffffffffffffffffffffffffffffffff191690815f1a9053505b7f49000000000000000000000000000000000000000000000000000000000000008382815181106105a3576105a26110af565b5b602001015160f81c60f81b7effffffffffffffffffffffffffffffffffffffffffffffffffffffffffffff191614801561064757507f5800000000000000000000000000000000000000000000000000000000000000836001836106079190611288565b81518110610618576106176110af565b5b602001015160f81c60f81b7effffffffffffffffffffffffffffffffffffffffffffffffffffffffffffff1916145b156106ec576009826106599190611288565b91505f83828151811061066f5761066e6110af565b5b60200101907effffffffffffffffffffffffffffffffffffffffffffffffffffffffffffff191690815f1a9053505f836001836106ac9190611288565b815181106106bd576106bc6110af565b5b60200101907effffffffffffffffffffffffffffffffffffffffffffffffffffffffffffff191690815f1a9053505b7f58000000000000000000000000000000000000000000000000000000000000008382815181106107205761071f6110af565b5b602001015160f81c60f81b7effffffffffffffffffffffffffffffffffffffffffffffffffffffffffffff19161480156107c457507f4c00000000000000000000000000000000000000000000000000000000000000836001836107849190611288565b81518110610795576107946110af565b5b602001015160f81c60f81b7effffffffffffffffffffffffffffffffffffffffffffffffffffffffffffff1916145b15610869576028826107d69190611288565b91505f8382815181106107ec576107eb6110af565b5b60200101907effffffffffffffffffffffffffffffffffffffffffffffffffffffffffffff191690815f1a9053505f836001836108299190611288565b8151811061083a576108396110af565b5b60200101907effffffffffffffffffffffffffffffffffffffffffffffffffffffffffffff191690815f1a9053505b7f580000000000000000000000000000000000000000000000000000000000000083828151811061089d5761089c6110af565b5b602001015160f81c60f81b7effffffffffffffffffffffffffffffffffffffffffffffffffffffffffffff191614801561094157507f4300000000000000000000000000000000000000000000000000000000000000836001836109019190611288565b81518110610912576109116110af565b5b602001015160f81c60f81b7effffffffffffffffffffffffffffffffffffffffffffffffffffffffffffff1916145b156109e657605a826109539190611288565b91505f838281518110610969576109686110af565b5b60200101907effffffffffffffffffffffffffffffffffffffffffffffffffffffffffffff191690815f1a9053505f836001836109a69190611288565b815181106109b7576109b66110af565b5b60200101907effffffffffffffffffffffffffffffffffffffffffffffffffffffffffffff191690815f1a9053505b7f4300000000000000000000000000000000000000000000000000000000000000838281518110610a1a57610a196110af565b5b602001015160f81c60f81b7effffffffffffffffffffffffffffffffffffffffffffffffffffffffffffff1916148015610abe57507f440000000000000000000000000000000000000000000000000000000000000083600183610a7e9190611288565b81518110610a8f57610a8e6110af565b5b602001015160f81c60f81b7effffffffffffffffffffffffffffffffffffffffffffffffffffffffffffff1916145b15610b645761019082610ad19190611288565b91505f838281518110610ae757610ae66110af565b5b60200101907effffffffffffffffffffffffffffffffffffffffffffffffffffffffffffff191690815f1a9053505f83600183610b249190611288565b81518110610b3557610b346110af565b5b60200101907effffffffffffffffffffffffffffffffffffffffffffffffffffffffffffff191690815f1a9053505b7f4300000000000000000000000000000000000000000000000000000000000000838281518110610b9857610b976110af565b5b602001015160f81c60f81b7effffffffffffffffffffffffffffffffffffffffffffffffffffffffffffff1916148015610c3c57507f4d0000000000000000000000000000000000000000000000000000000000000083600183610bfc9190611288565b81518110610c0d57610c0c6110af565b5b602001015160f81c60f81b7effffffffffffffffffffffffffffffffffffffffffffffffffffffffffffff1916145b15610ce25761038482610c4f9190611288565b91505f838281518110610c6557610c646110af565b5b60200101907effffffffffffffffffffffffffffffffffffffffffffffffffffffffffffff191690815f1a9053505f83600183610ca29190611288565b81518110610cb357610cb26110af565b5b60200101907effffffffffffffffffffffffffffffffffffffffffffffffffffffffffffff191690815f1a9053505b80806001019150506103dd565b505f5f90505b8251811015610d8a575f5f848381518110610d1357610d126110af565b5b602001015160f81c60f81b7effffffffffffffffffffffffffffffffffffffffffffffffffffffffffffff19167effffffffffffffffffffffffffffffffffffffffffffffffffffffffffffff191681526020019081526020015f205482610d7b9190611288565b91508080600101915050610cf5565b508092505050919050565b5f604051905090565b5f5ffd5b5f5ffd5b5f819050919050565b610db881610da6565b8114610dc2575f5ffd5b50565b5f81359050610dd381610daf565b92915050565b5f60208284031215610dee57610ded610d9e565b5b5f610dfb84828501610dc5565b91505092915050565b5f81519050919050565b5f82825260208201905092915050565b8281835e5f83830152505050565b5f601f19601f8301169050919050565b5f610e4682610e04565b610e508185610e0e565b9350610e60818560208601610e1e565b610e6981610e2c565b840191505092915050565b5f6020820190508181035f830152610e8c8184610e3c565b905092915050565b5f7fff0000000000000000000000000000000000000000000000000000000000000082169050919050565b610ec881610e94565b8114610ed2575f5ffd5b50565b5f81359050610ee381610ebf565b92915050565b5f60208284031215610efe57610efd610d9e565b5b5f610f0b84828501610ed5565b91505092915050565b610f1d81610da6565b82525050565b5f602082019050610f365f830184610f14565b92915050565b5f5ffd5b5f5ffd5b7f4e487b71000000000000000000000000000000000000000000000000000000005f52604160045260245ffd5b610f7a82610e2c565b810181811067ffffffffffffffff82111715610f9957610f98610f44565b5b80604052505050565b5f610fab610d95565b9050610fb78282610f71565b919050565b5f67ffffffffffffffff821115610fd657610fd5610f44565b5b610fdf82610e2c565b9050602081019050919050565b828183375f83830152505050565b5f61100c61100784610fbc565b610fa2565b90508281526020810184848401111561102857611027610f40565b5b611033848285610fec565b509392505050565b5f82601f83011261104f5761104e610f3c565b5b813561105f848260208601610ffa565b91505092915050565b5f6020828403121561107d5761107c610d9e565b5b5f82013567ffffffffffffffff81111561109a57611099610da2565b5b6110a68482850161103b565b91505092915050565b7f4e487b71000000000000000000000000000000000000000000000000000000005f52603260045260245ffd5b7f4e487b71000000000000000000000000000000000000000000000000000000005f52601160045260245ffd5b5f61111382610da6565b915061111e83610da6565b9250828203905081811115611136576111356110dc565b5b92915050565b7f4e487b71000000000000000000000000000000000000000000000000000000005f52602260045260245ffd5b5f600282049050600182168061118057607f821691505b6020821081036111935761119261113c565b5b50919050565b5f81905092915050565b5f819050815f5260205f209050919050565b5f81546111c181611169565b6111cb8186611199565b9450600182165f81146111e557600181146111fa5761122c565b60ff198316865281151582028601935061122c565b611203856111a3565b5f5b8381101561122457815481890152600182019150602081019050611205565b838801955050505b50505092915050565b5f61123f82610e04565b6112498185611199565b9350611259818560208601610e1e565b80840191505092915050565b5f61127082856111b5565b915061127c8284611235565b91508190509392505050565b5f61129282610da6565b915061129d83610da6565b92508282019050808211156112b5576112b46110dc565b5b9291505056fea264697066735822122034b7ee77644bd19e1b6eb81d69afcaa3c77c09e9e4496d83c6edd0848c01cda464736f6c634300081e0033",
			"opcodes": "PUSH1 0x80 PUSH1 0x40 MSTORE PUSH1 0x40 MLOAD DUP1 PUSH2 0x1A0 ADD PUSH1 0x40 MSTORE DUP1 PUSH2 0x3E8 PUSH2 0xFFFF AND DUP2 MSTORE PUSH1 0x20 ADD PUSH2 0x384 PUSH2 0xFFFF AND DUP2 MSTORE PUSH1 0x20 ADD PUSH2 0x1F4 PUSH2 0xFFFF AND DUP2 MSTORE PUSH1 0x20 ADD PUSH2 0x190 PUSH2 0xFFFF AND DUP2 MSTORE PUSH1 0x20 ADD PUSH1 0x64 PUSH2 0xFFFF AND DUP2 MSTORE PUSH1 0x20 ADD PUSH1 0x5A PUSH2 0xFFFF AND DUP2 MSTORE PUSH1 0x20 ADD PUSH1 0x32 PUSH2 0xFFFF AND DUP2 MSTORE PUSH1 0x20 ADD PUSH1 0x28 PUSH2 0xFFFF AND DUP2 MSTORE PUSH1 0x20 ADD PUSH1 0xA PUSH2 0xFFFF AND DUP2 MSTORE PUSH1 0x20 ADD PUSH1 0x9 PUSH2 0xFFFF AND DUP2 MSTORE PUSH1 0x20 ADD PUSH1 0x5 PUSH2 0xFFFF AND DUP2 MSTORE PUSH1 0x20 ADD PUSH1 0x4 PUSH2 0xFFFF AND DUP2 MSTORE PUSH1 0x20 ADD PUSH1 0x1 PUSH2 0xFFFF AND DUP2 MSTORE POP PUSH1 0x2 SWAP1 PUSH1 0xD PUSH2 0xB1 SWAP3 SWAP2 SWAP1 PUSH2 0x647 JUMP JUMPDEST POP PUSH1 0x40 MLOAD DUP1 PUSH2 0x1A0 ADD PUSH1 0x40 MSTORE DUP1 PUSH1 0x40 MLOAD DUP1 PUSH1 0x40 ADD PUSH1 0x40 MSTORE DUP1 PUSH1 0x1 DUP2 MSTORE PUSH1 0x20 ADD PUSH32 0x4D00000000000000000000000000000000000000000000000000000000000000 DUP2 MSTORE POP DUP2 MSTORE PUSH1 0x20 ADD PUSH1 0x40 MLOAD DUP1 PUSH1 0x40 ADD PUSH1 0x40 MSTORE DUP1 PUSH1 0x2 DUP2 MSTORE PUSH1 0x20 ADD PUSH32 0x434D000000000000000000000000000000000000000000000000000000000000 DUP2 MSTORE POP DUP2 MSTORE PUSH1 0x20 ADD PUSH1 0x40 MLOAD DUP1 PUSH1 0x40 ADD PUSH1 0x40 MSTORE DUP1 PUSH1 0x1 DUP2 MSTORE PUSH1 0x20 ADD PUSH32 0x4400000000000000000000000000000000000000000000000000000000000000 DUP2 MSTORE POP DUP2 MSTORE PUSH1 0x20 ADD PUSH1 0x40 MLOAD DUP1 PUSH1 0x40 ADD PUSH1 0x40 MSTORE DUP1 PUSH1 0x2 DUP2 MSTORE PUSH1 0x20 ADD PUSH32 0x4344000000000000000000000000000000000000000000000000000000000000 DUP2 MSTORE POP DUP2 MSTORE PUSH1 0x20 ADD PUSH1 0x40 MLOAD DUP1 PUSH1 0x40 ADD PUSH1 0x40 MSTORE DUP1 PUSH1 0x1 DUP2 MSTORE PUSH1 0x20 ADD PUSH32 0x4300000000000000000000000000000000000000000000000000000000000000 DUP2 MSTORE POP DUP2 MSTORE PUSH1 0x20 ADD PUSH1 0x40 MLOAD DUP1 PUSH1 0x40 ADD PUSH1 0x40 MSTORE DUP1 PUSH1 0x2 DUP2 MSTORE PUSH1 0x20 ADD PUSH32 0x5843000000000000000000000000000000000000000000000000000000000000 DUP2 MSTORE POP DUP2 MSTORE PUSH1 0x20 ADD PUSH1 0x40 MLOAD DUP1 PUSH1 0x40 ADD PUSH1 0x40 MSTORE DUP1 PUSH1 0x1 DUP2 MSTORE PUSH1 0x20 ADD PUSH32 0x4C00000000000000000000000000000000000000000000000000000000000000 DUP2 MSTORE POP DUP2 MSTORE PUSH1 0x20 ADD PUSH1 0x40 MLOAD DUP1 PUSH1 0x40 ADD PUSH1 0x40 MSTORE DUP1 PUSH1 0x2 DUP2 MSTORE PUSH1 0x20 ADD PUSH32 0x584C000000000000000000000000000000000000000000000000000000000000 DUP2 MSTORE POP DUP2 MSTORE PUSH1 0x20 ADD PUSH1 0x40 MLOAD DUP1 PUSH1 0x40 ADD PUSH1 0x40 MSTORE DUP1 PUSH1 0x1 DUP2 MSTORE PUSH1 0x20 ADD PUSH32 0x5800000000000000000000000000000000000000000000000000000000000000 DUP2 MSTORE POP DUP2 MSTORE PUSH1 0x20 ADD PUSH1 0x40 MLOAD DUP1 PUSH1 0x40 ADD PUSH1 0x40 MSTORE DUP1 PUSH1 0x2 DUP2 MSTORE PUSH1 0x20 ADD PUSH32 0x4958000000000000000000000000000000000000000000000000000000000000 DUP2 MSTORE POP DUP2 MSTORE PUSH1 0x20 ADD PUSH1 0x40 MLOAD DUP1 PUSH1 0x40 ADD PUSH1 0x40 MSTORE DUP1 PUSH1 0x1 DUP2 MSTORE PUSH1 0x20 ADD PUSH32 0x5600000000000000000000000000000000000000000000000000000000000000 DUP2 MSTORE POP DUP2 MSTORE PUSH1 0x20 ADD PUSH1 0x40 MLOAD DUP1 PUSH1 0x40 ADD PUSH1 0x40 MSTORE DUP1 PUSH1 0x2 DUP2 MSTORE PUSH1 0x20 ADD PUSH32 0x4956000000000000000000000000000000000000000000000000000000000000 DUP2 MSTORE POP DUP2 MSTORE PUSH1 0x20 ADD PUSH1 0x40 MLOAD DUP1 PUSH1 0x40 ADD PUSH1 0x40 MSTORE DUP1 PUSH1 0x1 DUP2 MSTORE PUSH1 0x20 ADD PUSH32 0x4900000000000000000000000000000000000000000000000000000000000000 DUP2 MSTORE POP DUP2 MSTORE POP PUSH1 0x3 SWAP1 PUSH1 0xD PUSH2 0x3CB SWAP3 SWAP2 SWAP1 PUSH2 0x698 JUMP JUMPDEST POP CALLVALUE DUP1 ISZERO PUSH2 0x3D7 JUMPI PUSH0 PUSH0 REVERT JUMPDEST POP PUSH1 0x1 PUSH0 PUSH0 PUSH32 0x4900000000000000000000000000000000000000000000000000000000000000 PUSH31 0xFFFFFFFFFFFFFFFFFFFFFFFFFFFFFFFFFFFFFFFFFFFFFFFFFFFFFFFFFFFFFF NOT AND DUP2 MSTORE PUSH1 0x20 ADD SWAP1 DUP2 MSTORE PUSH1 0x20 ADD PUSH0 KECCAK256 DUP2 SWAP1 SSTORE POP PUSH1 0x5 PUSH0 PUSH0 PUSH32 0x5600000000000000000000000000000000000000000000000000000000000000 PUSH31 0xFFFFFFFFFFFFFFFFFFFFFFFFFFFFFFFFFFFFFFFFFFFFFFFFFFFFFFFFFFFFFF NOT AND DUP2 MSTORE PUSH1 0x20 ADD SWAP1 DUP2 MSTORE PUSH1 0x20 ADD PUSH0 KECCAK256 DUP2 SWAP1 SSTORE POP PUSH1 0xA PUSH0 PUSH0 PUSH32 0x5800000000000000000000000000000000000000000000000000000000000000 PUSH31 0xFFFFFFFFFFFFFFFFFFFFFFFFFFFFFFFFFFFFFFFFFFFFFFFFFFFFFFFFFFFFFF NOT AND DUP2 MSTORE PUSH1 0x20 ADD SWAP1 DUP2 MSTORE PUSH1 0x20 ADD PUSH0 KECCAK256 DUP2 SWAP1 SSTORE POP PUSH1 0x32 PUSH0 PUSH0 PUSH32 0x4C00000000000000000000000000000000000000000000000000000000000000 PUSH31 0xFFFFFFFFFFFFFFFFFFFFFFFFFFFFFFFFFFFFFFFFFFFFFFFFFFFFFFFFFFFFFF NOT AND DUP2 MSTORE PUSH1 0x20 ADD SWAP1 DUP2 MSTORE PUSH1 0x20 ADD PUSH0 KECCAK256 DUP2 SWAP1 SSTORE POP PUSH1 0x64 PUSH0 PUSH0 PUSH32 0x4300000000000000000000000000000000000000000000000000000000000000 PUSH31 0xFFFFFFFFFFFFFFFFFFFFFFFFFFFFFFFFFFFFFFFFFFFFFFFFFFFFFFFFFFFFFF NOT AND DUP2 MSTORE PUSH1 0x20 ADD SWAP1 DUP2 MSTORE PUSH1 0x20 ADD PUSH0 KECCAK256 DUP2 SWAP1 SSTORE POP PUSH2 0x1F4 PUSH0 PUSH0 PUSH32 0x4400000000000000000000000000000000000000000000000000000000000000 PUSH31 0xFFFFFFFFFFFFFFFFFFFFFFFFFFFFFFFFFFFFFFFFFFFFFFFFFFFFFFFFFFFFFF NOT AND DUP2 MSTORE PUSH1 0x20 ADD SWAP1 DUP2 MSTORE PUSH1 0x20 ADD PUSH0 KECCAK256 DUP2 SWAP1 SSTORE POP PUSH2 0x3E8 PUSH0 PUSH0 PUSH32 0x4D00000000000000000000000000000000000000000000000000000000000000 PUSH31 0xFFFFFFFFFFFFFFFFFFFFFFFFFFFFFFFFFFFFFFFFFFFFFFFFFFFFFFFFFFFFFF NOT AND DUP2 MSTORE PUSH1 0x20 ADD SWAP1 DUP2 MSTORE PUSH1 0x20 ADD PUSH0 KECCAK256 DUP2 SWAP1 SSTORE POP PUSH2 0xA76 JUMP JUMPDEST DUP3 DUP1 SLOAD DUP3 DUP3 SSTORE SWAP1 PUSH0 MSTORE PUSH1 0x20 PUSH0 KECCAK256 SWAP1 DUP2 ADD SWAP3 DUP3 ISZERO PUSH2 0x687 JUMPI SWAP2 PUSH1 0x20 MUL DUP3 ADD JUMPDEST DUP3 DUP2 GT ISZERO PUSH2 0x686 JUMPI DUP3 MLOAD DUP3 SWAP1 PUSH2 0xFFFF AND SWAP1 SSTORE SWAP2 PUSH1 0x20 ADD SWAP2 SWAP1 PUSH1 0x1 ADD SWAP1 PUSH2 0x665 JUMP JUMPDEST JUMPDEST POP SWAP1 POP PUSH2 0x694 SWAP2 SWAP1 PUSH2 0x6EF JUMP JUMPDEST POP SWAP1 JUMP JUMPDEST DUP3 DUP1 SLOAD DUP3 DUP3 SSTORE SWAP1 PUSH0 MSTORE PUSH1 0x20 PUSH0 KECCAK256 SWAP1 DUP2 ADD SWAP3 DUP3 ISZERO PUSH2 0x6DE JUMPI SWAP2 PUSH1 0x20 MUL DUP3 ADD JUMPDEST DUP3 DUP2 GT ISZERO PUSH2 0x6DD JUMPI DUP3 MLOAD DUP3 SWAP1 DUP2 PUSH2 0x6CD SWAP2 SWAP1 PUSH2 0x9A7 JUMP JUMPDEST POP SWAP2 PUSH1 0x20 ADD SWAP2 SWAP1 PUSH1 0x1 ADD SWAP1 PUSH2 0x6B6 JUMP JUMPDEST JUMPDEST POP SWAP1 POP PUSH2 0x6EB SWAP2 SWAP1 PUSH2 0x70A JUMP JUMPDEST POP SWAP1 JUMP JUMPDEST JUMPDEST DUP1 DUP3 GT ISZERO PUSH2 0x706 JUMPI PUSH0 DUP2 PUSH0 SWAP1 SSTORE POP PUSH1 0x1 ADD PUSH2 0x6F0 JUMP JUMPDEST POP SWAP1 JUMP JUMPDEST JUMPDEST DUP1 DUP3 GT ISZERO PUSH2 0x729 JUMPI PUSH0 DUP2 DUP2 PUSH2 0x720 SWAP2 SWAP1 PUSH2 0x72D JUMP JUMPDEST POP PUSH1 0x1 ADD PUSH2 0x70B JUMP JUMPDEST POP SWAP1 JUMP JUMPDEST POP DUP1 SLOAD PUSH2 0x739 SWAP1 PUSH2 0x7CE JUMP JUMPDEST PUSH0 DUP3 SSTORE DUP1 PUSH1 0x1F LT PUSH2 0x74A JUMPI POP PUSH2 0x767 JUMP JUMPDEST PUSH1 0x1F ADD PUSH1 0x20 SWAP1 DIV SWAP1 PUSH0 MSTORE PUSH1 0x20 PUSH0 KECCAK256 SWAP1 DUP2 ADD SWAP1 PUSH2 0x766 SWAP2 SWAP1 PUSH2 0x6EF JUMP JUMPDEST JUMPDEST POP JUMP JUMPDEST PUSH0 DUP2 MLOAD SWAP1 POP SWAP2 SWAP1 POP JUMP JUMPDEST PUSH32 0x4E487B7100000000000000000000000000000000000000000000000000000000 PUSH0 MSTORE PUSH1 0x41 PUSH1 0x4 MSTORE PUSH1 0x24 PUSH0 REVERT JUMPDEST PUSH32 0x4E487B7100000000000000000000000000000000000000000000000000000000 PUSH0 MSTORE PUSH1 0x22 PUSH1 0x4 MSTORE PUSH1 0x24 PUSH0 REVERT JUMPDEST PUSH0 PUSH1 0x2 DUP3 DIV SWAP1 POP PUSH1 0x1 DUP3 AND DUP1 PUSH2 0x7E5 JUMPI PUSH1 0x7F DUP3 AND SWAP2 POP JUMPDEST PUSH1 0x20 DUP3 LT DUP2 SUB PUSH2 0x7F8 JUMPI PUSH2 0x7F7 PUSH2 0x7A1 JUMP JUMPDEST JUMPDEST POP SWAP2 SWAP1 POP JUMP JUMPDEST PUSH0 DUP2 SWAP1 POP DUP2 PUSH0 MSTORE PUSH1 0x20 PUSH0 KECCAK256 SWAP1 POP SWAP2 SWAP1 POP JUMP JUMPDEST PUSH0 PUSH1 0x20 PUSH1 0x1F DUP4 ADD DIV SWAP1 POP SWAP2 SWAP1 POP JUMP JUMPDEST PUSH0 DUP3 DUP3 SHL SWAP1 POP SWAP3 SWAP2 POP POP JUMP JUMPDEST PUSH0 PUSH1 0x8 DUP4 MUL PUSH2 0x85A PUSH32 0xFFFFFFFFFFFFFFFFFFFFFFFFFFFFFFFFFFFFFFFFFFFFFFFFFFFFFFFFFFFFFFFF DUP3 PUSH2 0x81F JUMP JUMPDEST PUSH2 0x864 DUP7 DUP4 PUSH2 0x81F JUMP JUMPDEST SWAP6 POP DUP1 NOT DUP5 AND SWAP4 POP DUP1 DUP7 AND DUP5 OR SWAP3 POP POP POP SWAP4 SWAP3 POP POP POP JUMP JUMPDEST PUSH0 DUP2 SWAP1 POP SWAP2 SWAP1 POP JUMP JUMPDEST PUSH0 DUP2 SWAP1 POP SWAP2 SWAP1 POP JUMP JUMPDEST PUSH0 PUSH2 0x8A8 PUSH2 0x8A3 PUSH2 0x89E DUP5 PUSH2 0x87C JUMP JUMPDEST PUSH2 0x885 JUMP JUMPDEST PUSH2 0x87C JUMP JUMPDEST SWAP1 POP SWAP2 SWAP1 POP JUMP JUMPDEST PUSH0 DUP2 SWAP1 POP SWAP2 SWAP1 POP JUMP JUMPDEST PUSH2 0x8C1 DUP4 PUSH2 0x88E JUMP JUMPDEST PUSH2 0x8D5 PUSH2 0x8CD DUP3 PUSH2 0x8AF JUMP JUMPDEST DUP5 DUP5 SLOAD PUSH2 0x82B JUMP JUMPDEST DUP3 SSTORE POP POP POP POP JUMP JUMPDEST PUSH0 PUSH0 SWAP1 POP SWAP1 JUMP JUMPDEST PUSH2 0x8EC PUSH2 0x8DD JUMP JUMPDEST PUSH2 0x8F7 DUP2 DUP5 DUP5 PUSH2 0x8B8 JUMP JUMPDEST POP POP POP JUMP JUMPDEST JUMPDEST DUP2 DUP2 LT ISZERO PUSH2 0x91A JUMPI PUSH2 0x90F PUSH0 DUP3 PUSH2 0x8E4 JUMP JUMPDEST PUSH1 0x1 DUP2 ADD SWAP1 POP PUSH2 0x8FD JUMP JUMPDEST POP POP JUMP JUMPDEST PUSH1 0x1F DUP3 GT ISZERO PUSH2 0x95F JUMPI PUSH2 0x930 DUP2 PUSH2 0x7FE JUMP JUMPDEST PUSH2 0x939 DUP5 PUSH2 0x810 JUMP JUMPDEST DUP2 ADD PUSH1 0x20 DUP6 LT ISZERO PUSH2 0x948 JUMPI DUP2 SWAP1 POP JUMPDEST PUSH2 0x95C PUSH2 0x954 DUP6 PUSH2 0x810 JUMP JUMPDEST DUP4 ADD DUP3 PUSH2 0x8FC JUMP JUMPDEST POP POP JUMPDEST POP POP POP JUMP JUMPDEST PUSH0 DUP3 DUP3 SHR SWAP1 POP SWAP3 SWAP2 POP POP JUMP JUMPDEST PUSH0 PUSH2 0x97F PUSH0 NOT DUP5 PUSH1 0x8 MUL PUSH2 0x964 JUMP JUMPDEST NOT DUP1 DUP4 AND SWAP2 POP POP SWAP3 SWAP2 POP POP JUMP JUMPDEST PUSH0 PUSH2 0x997 DUP4 DUP4 PUSH2 0x970 JUMP JUMPDEST SWAP2 POP DUP3 PUSH1 0x2 MUL DUP3 OR SWAP1 POP SWAP3 SWAP2 POP POP JUMP JUMPDEST PUSH2 0x9B0 DUP3 PUSH2 0x76A JUMP JUMPDEST PUSH8 0xFFFFFFFFFFFFFFFF DUP2 GT ISZERO PUSH2 0x9C9 JUMPI PUSH2 0x9C8 PUSH2 0x774 JUMP JUMPDEST JUMPDEST PUSH2 0x9D3 DUP3 SLOAD PUSH2 0x7CE JUMP JUMPDEST PUSH2 0x9DE DUP3 DUP3 DUP6 PUSH2 0x91E JUMP JUMPDEST PUSH0 PUSH1 0x20 SWAP1 POP PUSH1 0x1F DUP4 GT PUSH1 0x1 DUP2 EQ PUSH2 0xA0F JUMPI PUSH0 DUP5 ISZERO PUSH2 0x9FD JUMPI DUP3 DUP8 ADD MLOAD SWAP1 POP JUMPDEST PUSH2 0xA07 DUP6 DUP3 PUSH2 0x98C JUMP JUMPDEST DUP7 SSTORE POP PUSH2 0xA6E JUMP JUMPDEST PUSH1 0x1F NOT DUP5 AND PUSH2 0xA1D DUP7 PUSH2 0x7FE JUMP JUMPDEST PUSH0 JUMPDEST DUP3 DUP2 LT ISZERO PUSH2 0xA44 JUMPI DUP5 DUP10 ADD MLOAD DUP3 SSTORE PUSH1 0x1 DUP3 ADD SWAP2 POP PUSH1 0x20 DUP6 ADD SWAP5 POP PUSH1 0x20 DUP2 ADD SWAP1 POP PUSH2 0xA1F JUMP JUMPDEST DUP7 DUP4 LT ISZERO PUSH2 0xA61 JUMPI DUP5 DUP10 ADD MLOAD PUSH2 0xA5D PUSH1 0x1F DUP10 AND DUP3 PUSH2 0x970 JUMP JUMPDEST DUP4 SSTORE POP JUMPDEST PUSH1 0x1 PUSH1 0x2 DUP9 MUL ADD DUP9 SSTORE POP POP POP JUMPDEST POP POP POP POP POP POP JUMP JUMPDEST PUSH2 0x12F1 DUP1 PUSH2 0xA83 PUSH0 CODECOPY PUSH0 RETURN INVALID PUSH1 0x80 PUSH1 0x40 MSTORE CALLVALUE DUP1 ISZERO PUSH2 0xF JUMPI PUSH0 PUSH0 REVERT JUMPDEST POP PUSH1 0x4 CALLDATASIZE LT PUSH2 0x60 JUMPI PUSH0 CALLDATALOAD PUSH1 0xE0 SHR DUP1 PUSH4 0x213D56C0 EQ PUSH2 0x64 JUMPI DUP1 PUSH4 0x445458DC EQ PUSH2 0x94 JUMPI DUP1 PUSH4 0x6B646333 EQ PUSH2 0xC4 JUMPI DUP1 PUSH4 0x96402744 EQ PUSH2 0xF4 JUMPI DUP1 PUSH4 0xD39FA233 EQ PUSH2 0x124 JUMPI DUP1 PUSH4 0xEA4C4614 EQ PUSH2 0x154 JUMPI JUMPDEST PUSH0 PUSH0 REVERT JUMPDEST PUSH2 0x7E PUSH1 0x4 DUP1 CALLDATASIZE SUB DUP2 ADD SWAP1 PUSH2 0x79 SWAP2 SWAP1 PUSH2 0xDD9 JUMP JUMPDEST PUSH2 0x184 JUMP JUMPDEST PUSH1 0x40 MLOAD PUSH2 0x8B SWAP2 SWAP1 PUSH2 0xE74 JUMP JUMPDEST PUSH1 0x40 MLOAD DUP1 SWAP2 SUB SWAP1 RETURN JUMPDEST PUSH2 0xAE PUSH1 0x4 DUP1 CALLDATASIZE SUB DUP2 ADD SWAP1 PUSH2 0xA9 SWAP2 SWAP1 PUSH2 0xEE9 JUMP JUMPDEST PUSH2 0x25A JUMP JUMPDEST PUSH1 0x40 MLOAD PUSH2 0xBB SWAP2 SWAP1 PUSH2 0xF23 JUMP JUMPDEST PUSH1 0x40 MLOAD DUP1 SWAP2 SUB SWAP1 RETURN JUMPDEST PUSH2 0xDE PUSH1 0x4 DUP1 CALLDATASIZE SUB DUP2 ADD SWAP1 PUSH2 0xD9 SWAP2 SWAP1 PUSH2 0xDD9 JUMP JUMPDEST PUSH2 0x26E JUMP JUMPDEST PUSH1 0x40 MLOAD PUSH2 0xEB SWAP2 SWAP1 PUSH2 0xE74 JUMP JUMPDEST PUSH1 0x40 MLOAD DUP1 SWAP2 SUB SWAP1 RETURN JUMPDEST PUSH2 0x10E PUSH1 0x4 DUP1 CALLDATASIZE SUB DUP2 ADD SWAP1 PUSH2 0x109 SWAP2 SWAP1 PUSH2 0xDD9 JUMP JUMPDEST PUSH2 0x309 JUMP JUMPDEST PUSH1 0x40 MLOAD PUSH2 0x11B SWAP2 SWAP1 PUSH2 0xE74 JUMP JUMPDEST PUSH1 0x40 MLOAD DUP1 SWAP2 SUB SWAP1 RETURN JUMPDEST PUSH2 0x13E PUSH1 0x4 DUP1 CALLDATASIZE SUB DUP2 ADD SWAP1 PUSH2 0x139 SWAP2 SWAP1 PUSH2 0xDD9 JUMP JUMPDEST PUSH2 0x3AF JUMP JUMPDEST PUSH1 0x40 MLOAD PUSH2 0x14B SWAP2 SWAP1 PUSH2 0xF23 JUMP JUMPDEST PUSH1 0x40 MLOAD DUP1 SWAP2 SUB SWAP1 RETURN JUMPDEST PUSH2 0x16E PUSH1 0x4 DUP1 CALLDATASIZE SUB DUP2 ADD SWAP1 PUSH2 0x169 SWAP2 SWAP1 PUSH2 0x1068 JUMP JUMPDEST PUSH2 0x3CF JUMP JUMPDEST PUSH1 0x40 MLOAD PUSH2 0x17B SWAP2 SWAP1 PUSH2 0xF23 JUMP JUMPDEST PUSH1 0x40 MLOAD DUP1 SWAP2 SUB SWAP1 RETURN JUMPDEST PUSH1 0x60 PUSH0 DUP3 SWAP1 POP JUMPDEST PUSH0 DUP2 GT ISZERO PUSH2 0x253 JUMPI PUSH0 PUSH0 SWAP1 POP JUMPDEST PUSH1 0x2 DUP1 SLOAD SWAP1 POP DUP2 LT ISZERO PUSH2 0x24D JUMPI PUSH1 0x2 DUP2 DUP2 SLOAD DUP2 LT PUSH2 0x1B9 JUMPI PUSH2 0x1B8 PUSH2 0x10AF JUMP JUMPDEST JUMPDEST SWAP1 PUSH0 MSTORE PUSH1 0x20 PUSH0 KECCAK256 ADD SLOAD DUP3 LT PUSH2 0x240 JUMPI PUSH1 0x2 DUP2 DUP2 SLOAD DUP2 LT PUSH2 0x1DC JUMPI PUSH2 0x1DB PUSH2 0x10AF JUMP JUMPDEST JUMPDEST SWAP1 PUSH0 MSTORE PUSH1 0x20 PUSH0 KECCAK256 ADD SLOAD DUP3 PUSH2 0x1F0 SWAP2 SWAP1 PUSH2 0x1109 JUMP JUMPDEST SWAP2 POP PUSH1 0x3 DUP2 DUP2 SLOAD DUP2 LT PUSH2 0x206 JUMPI PUSH2 0x205 PUSH2 0x10AF JUMP JUMPDEST JUMPDEST SWAP1 PUSH0 MSTORE PUSH1 0x20 PUSH0 KECCAK256 ADD PUSH2 0x217 DUP4 PUSH2 0x184 JUMP JUMPDEST PUSH1 0x40 MLOAD PUSH1 0x20 ADD PUSH2 0x228 SWAP3 SWAP2 SWAP1 PUSH2 0x1265 JUMP JUMPDEST PUSH1 0x40 MLOAD PUSH1 0x20 DUP2 DUP4 SUB SUB DUP2 MSTORE SWAP1 PUSH1 0x40 MSTORE SWAP3 POP POP POP PUSH2 0x255 JUMP JUMPDEST DUP1 DUP1 PUSH1 0x1 ADD SWAP2 POP POP PUSH2 0x198 JUMP JUMPDEST POP PUSH2 0x18B JUMP JUMPDEST POP JUMPDEST SWAP2 SWAP1 POP JUMP JUMPDEST PUSH0 PUSH1 0x20 MSTORE DUP1 PUSH0 MSTORE PUSH1 0x40 PUSH0 KECCAK256 PUSH0 SWAP2 POP SWAP1 POP SLOAD DUP2 JUMP JUMPDEST PUSH1 0x1 PUSH1 0x20 MSTORE DUP1 PUSH0 MSTORE PUSH1 0x40 PUSH0 KECCAK256 PUSH0 SWAP2 POP SWAP1 POP DUP1 SLOAD PUSH2 0x28A SWAP1 PUSH2 0x1169 JUMP JUMPDEST DUP1 PUSH1 0x1F ADD PUSH1 0x20 DUP1 SWAP2 DIV MUL PUSH1 0x20 ADD PUSH1 0x40 MLOAD SWAP1 DUP2 ADD PUSH1 0x40 MSTORE DUP1 SWAP3 SWAP2 SWAP1 DUP2 DUP2 MSTORE PUSH1 0x20 ADD DUP3 DUP1 SLOAD PUSH2 0x2B6 SWAP1 PUSH2 0x1169 JUMP JUMPDEST DUP1 ISZERO PUSH2 0x301 JUMPI DUP1 PUSH1 0x1F LT PUSH2 0x2D8 JUMPI PUSH2 0x100 DUP1 DUP4 SLOAD DIV MUL DUP4 MSTORE SWAP2 PUSH1 0x20 ADD SWAP2 PUSH2 0x301 JUMP JUMPDEST DUP3 ADD SWAP2 SWAP1 PUSH0 MSTORE PUSH1 0x20 PUSH0 KECCAK256 SWAP1 JUMPDEST DUP2 SLOAD DUP2 MSTORE SWAP1 PUSH1 0x1 ADD SWAP1 PUSH1 0x20 ADD DUP1 DUP4 GT PUSH2 0x2E4 JUMPI DUP3 SWAP1 SUB PUSH1 0x1F AND DUP3 ADD SWAP2 JUMPDEST POP POP POP POP POP DUP2 JUMP JUMPDEST PUSH1 0x3 DUP2 DUP2 SLOAD DUP2 LT PUSH2 0x318 JUMPI PUSH0 DUP1 REVERT JUMPDEST SWAP1 PUSH0 MSTORE PUSH1 0x20 PUSH0 KECCAK256 ADD PUSH0 SWAP2 POP SWAP1 POP DUP1 SLOAD PUSH2 0x330 SWAP1 PUSH2 0x1169 JUMP JUMPDEST DUP1 PUSH1 0x1F ADD PUSH1 0x20 DUP1 SWAP2 DIV MUL PUSH1 0x20 ADD PUSH1 0x40 MLOAD SWAP1 DUP2 ADD PUSH1 0x40 MSTORE DUP1 SWAP3 SWAP2 SWAP1 DUP2 DUP2 MSTORE PUSH1 0x20 ADD DUP3 DUP1 SLOAD PUSH2 0x35C SWAP1 PUSH2 0x1169 JUMP JUMPDEST DUP1 ISZERO PUSH2 0x3A7 JUMPI DUP1 PUSH1 0x1F LT PUSH2 0x37E JUMPI PUSH2 0x100 DUP1 DUP4 SLOAD DIV MUL DUP4 MSTORE SWAP2 PUSH1 0x20 ADD SWAP2 PUSH2 0x3A7 JUMP JUMPDEST DUP3 ADD SWAP2 SWAP1 PUSH0 MSTORE PUSH1 0x20 PUSH0 KECCAK256 SWAP1 JUMPDEST DUP2 SLOAD DUP2 MSTORE SWAP1 PUSH1 0x1 ADD SWAP1 PUSH1 0x20 ADD DUP1 DUP4 GT PUSH2 0x38A JUMPI DUP3 SWAP1 SUB PUSH1 0x1F AND DUP3 ADD SWAP2 JUMPDEST POP POP POP POP POP DUP2 JUMP JUMPDEST PUSH1 0x2 DUP2 DUP2 SLOAD DUP2 LT PUSH2 0x3BE JUMPI PUSH0 DUP1 REVERT JUMPDEST SWAP1 PUSH0 MSTORE PUSH1 0x20 PUSH0 KECCAK256 ADD PUSH0 SWAP2 POP SWAP1 POP SLOAD DUP2 JUMP JUMPDEST PUSH0 PUSH0 DUP3 SWAP1 POP PUSH0 PUSH0 SWAP1 POP PUSH0 PUSH0 SWAP1 POP JUMPDEST PUSH1 0x1 DUP4 MLOAD PUSH2 0x3EB SWAP2 SWAP1 PUSH2 0x1109 JUMP JUMPDEST DUP2 LT ISZERO PUSH2 0xCEF JUMPI PUSH32 0x4900000000000000000000000000000000000000000000000000000000000000 DUP4 DUP3 DUP2 MLOAD DUP2 LT PUSH2 0x426 JUMPI PUSH2 0x425 PUSH2 0x10AF JUMP JUMPDEST JUMPDEST PUSH1 0x20 ADD ADD MLOAD PUSH1 0xF8 SHR PUSH1 0xF8 SHL PUSH31 0xFFFFFFFFFFFFFFFFFFFFFFFFFFFFFFFFFFFFFFFFFFFFFFFFFFFFFFFFFFFFFF NOT AND EQ DUP1 ISZERO PUSH2 0x4CA JUMPI POP PUSH32 0x5600000000000000000000000000000000000000000000000000000000000000 DUP4 PUSH1 0x1 DUP4 PUSH2 0x48A SWAP2 SWAP1 PUSH2 0x1288 JUMP JUMPDEST DUP2 MLOAD DUP2 LT PUSH2 0x49B JUMPI PUSH2 0x49A PUSH2 0x10AF JUMP JUMPDEST JUMPDEST PUSH1 0x20 ADD ADD MLOAD PUSH1 0xF8 SHR PUSH1 0xF8 SHL PUSH31 0xFFFFFFFFFFFFFFFFFFFFFFFFFFFFFFFFFFFFFFFFFFFFFFFFFFFFFFFFFFFFFF NOT AND EQ JUMPDEST ISZERO PUSH2 0x56F JUMPI PUSH1 0x4 DUP3 PUSH2 0x4DC SWAP2 SWAP1 PUSH2 0x1288 JUMP JUMPDEST SWAP2 POP PUSH0 DUP4 DUP3 DUP2 MLOAD DUP2 LT PUSH2 0x4F2 JUMPI PUSH2 0x4F1 PUSH2 0x10AF JUMP JUMPDEST JUMPDEST PUSH1 0x20 ADD ADD SWAP1 PUSH31 0xFFFFFFFFFFFFFFFFFFFFFFFFFFFFFFFFFFFFFFFFFFFFFFFFFFFFFFFFFFFFFF NOT AND SWAP1 DUP2 PUSH0 BYTE SWAP1 MSTORE8 POP PUSH0 DUP4 PUSH1 0x1 DUP4 PUSH2 0x52F SWAP2 SWAP1 PUSH2 0x1288 JUMP JUMPDEST DUP2 MLOAD DUP2 LT PUSH2 0x540 JUMPI PUSH2 0x53F PUSH2 0x10AF JUMP JUMPDEST JUMPDEST PUSH1 0x20 ADD ADD SWAP1 PUSH31 0xFFFFFFFFFFFFFFFFFFFFFFFFFFFFFFFFFFFFFFFFFFFFFFFFFFFFFFFFFFFFFF NOT AND SWAP1 DUP2 PUSH0 BYTE SWAP1 MSTORE8 POP JUMPDEST PUSH32 0x4900000000000000000000000000000000000000000000000000000000000000 DUP4 DUP3 DUP2 MLOAD DUP2 LT PUSH2 0x5A3 JUMPI PUSH2 0x5A2 PUSH2 0x10AF JUMP JUMPDEST JUMPDEST PUSH1 0x20 ADD ADD MLOAD PUSH1 0xF8 SHR PUSH1 0xF8 SHL PUSH31 0xFFFFFFFFFFFFFFFFFFFFFFFFFFFFFFFFFFFFFFFFFFFFFFFFFFFFFFFFFFFFFF NOT AND EQ DUP1 ISZERO PUSH2 0x647 JUMPI POP PUSH32 0x5800000000000000000000000000000000000000000000000000000000000000 DUP4 PUSH1 0x1 DUP4 PUSH2 0x607 SWAP2 SWAP1 PUSH2 0x1288 JUMP JUMPDEST DUP2 MLOAD DUP2 LT PUSH2 0x618 JUMPI PUSH2 0x617 PUSH2 0x10AF JUMP JUMPDEST JUMPDEST PUSH1 0x20 ADD ADD MLOAD PUSH1 0xF8 SHR PUSH1 0xF8 SHL PUSH31 0xFFFFFFFFFFFFFFFFFFFFFFFFFFFFFFFFFFFFFFFFFFFFFFFFFFFFFFFFFFFFFF NOT AND EQ JUMPDEST ISZERO PUSH2 0x6EC JUMPI PUSH1 0x9 DUP3 PUSH2 0x659 SWAP2 SWAP1 PUSH2 0x1288 JUMP JUMPDEST SWAP2 POP PUSH0 DUP4 DUP3 DUP2 MLOAD DUP2 LT PUSH2 0x66F JUMPI PUSH2 0x66E PUSH2 0x10AF JUMP JUMPDEST JUMPDEST PUSH1 0x20 ADD ADD SWAP1 PUSH31 0xFFFFFFFFFFFFFFFFFFFFFFFFFFFFFFFFFFFFFFFFFFFFFFFFFFFFFFFFFFFFFF NOT AND SWAP1 DUP2 PUSH0 BYTE SWAP1 MSTORE8 POP PUSH0 DUP4 PUSH1 0x1 DUP4 PUSH2 0x6AC SWAP2 SWAP1 PUSH2 0x1288 JUMP JUMPDEST DUP2 MLOAD DUP2 LT PUSH2 0x6BD JUMPI PUSH2 0x6BC PUSH2 0x10AF JUMP JUMPDEST JUMPDEST PUSH1 0x20 ADD ADD SWAP1 PUSH31 0xFFFFFFFFFFFFFFFFFFFFFFFFFFFFFFFFFFFFFFFFFFFFFFFFFFFFFFFFFFFFFF NOT AND SWAP1 DUP2 PUSH0 BYTE SWAP1 MSTORE8 POP JUMPDEST PUSH32 0x5800000000000000000000000000000000000000000000000000000000000000 DUP4 DUP3 DUP2 MLOAD DUP2 LT PUSH2 0x720 JUMPI PUSH2 0x71F PUSH2 0x10AF JUMP JUMPDEST JUMPDEST PUSH1 0x20 ADD ADD MLOAD PUSH1 0xF8 SHR PUSH1 0xF8 SHL PUSH31 0xFFFFFFFFFFFFFFFFFFFFFFFFFFFFFFFFFFFFFFFFFFFFFFFFFFFFFFFFFFFFFF NOT AND EQ DUP1 ISZERO PUSH2 0x7C4 JUMPI POP PUSH32 0x4C00000000000000000000000000000000000000000000000000000000000000 DUP4 PUSH1 0x1 DUP4 PUSH2 0x784 SWAP2 SWAP1 PUSH2 0x1288 JUMP JUMPDEST DUP2 MLOAD DUP2 LT PUSH2 0x795 JUMPI PUSH2 0x794 PUSH2 0x10AF JUMP JUMPDEST JUMPDEST PUSH1 0x20 ADD ADD MLOAD PUSH1 0xF8 SHR PUSH1 0xF8 SHL PUSH31 0xFFFFFFFFFFFFFFFFFFFFFFFFFFFFFFFFFFFFFFFFFFFFFFFFFFFFFFFFFFFFFF NOT AND EQ JUMPDEST ISZERO PUSH2 0x869 JUMPI PUSH1 0x28 DUP3 PUSH2 0x7D6 SWAP2 SWAP1 PUSH2 0x1288 JUMP JUMPDEST SWAP2 POP PUSH0 DUP4 DUP3 DUP2 MLOAD DUP2 LT PUSH2 0x7EC JUMPI PUSH2 0x7EB PUSH2 0x10AF JUMP JUMPDEST JUMPDEST PUSH1 0x20 ADD ADD SWAP1 PUSH31 0xFFFFFFFFFFFFFFFFFFFFFFFFFFFFFFFFFFFFFFFFFFFFFFFFFFFFFFFFFFFFFF NOT AND SWAP1 DUP2 PUSH0 BYTE SWAP1 MSTORE8 POP PUSH0 DUP4 PUSH1 0x1 DUP4 PUSH2 0x829 SWAP2 SWAP1 PUSH2 0x1288 JUMP JUMPDEST DUP2 MLOAD DUP2 LT PUSH2 0x83A JUMPI PUSH2 0x839 PUSH2 0x10AF JUMP JUMPDEST JUMPDEST PUSH1 0x20 ADD ADD SWAP1 PUSH31 0xFFFFFFFFFFFFFFFFFFFFFFFFFFFFFFFFFFFFFFFFFFFFFFFFFFFFFFFFFFFFFF NOT AND SWAP1 DUP2 PUSH0 BYTE SWAP1 MSTORE8 POP JUMPDEST PUSH32 0x5800000000000000000000000000000000000000000000000000000000000000 DUP4 DUP3 DUP2 MLOAD DUP2 LT PUSH2 0x89D JUMPI PUSH2 0x89C PUSH2 0x10AF JUMP JUMPDEST JUMPDEST PUSH1 0x20 ADD ADD MLOAD PUSH1 0xF8 SHR PUSH1 0xF8 SHL PUSH31 0xFFFFFFFFFFFFFFFFFFFFFFFFFFFFFFFFFFFFFFFFFFFFFFFFFFFFFFFFFFFFFF NOT AND EQ DUP1 ISZERO PUSH2 0x941 JUMPI POP PUSH32 0x4300000000000000000000000000000000000000000000000000000000000000 DUP4 PUSH1 0x1 DUP4 PUSH2 0x901 SWAP2 SWAP1 PUSH2 0x1288 JUMP JUMPDEST DUP2 MLOAD DUP2 LT PUSH2 0x912 JUMPI PUSH2 0x911 PUSH2 0x10AF JUMP JUMPDEST JUMPDEST PUSH1 0x20 ADD ADD MLOAD PUSH1 0xF8 SHR PUSH1 0xF8 SHL PUSH31 0xFFFFFFFFFFFFFFFFFFFFFFFFFFFFFFFFFFFFFFFFFFFFFFFFFFFFFFFFFFFFFF NOT AND EQ JUMPDEST ISZERO PUSH2 0x9E6 JUMPI PUSH1 0x5A DUP3 PUSH2 0x953 SWAP2 SWAP1 PUSH2 0x1288 JUMP JUMPDEST SWAP2 POP PUSH0 DUP4 DUP3 DUP2 MLOAD DUP2 LT PUSH2 0x969 JUMPI PUSH2 0x968 PUSH2 0x10AF JUMP JUMPDEST JUMPDEST PUSH1 0x20 ADD ADD SWAP1 PUSH31 0xFFFFFFFFFFFFFFFFFFFFFFFFFFFFFFFFFFFFFFFFFFFFFFFFFFFFFFFFFFFFFF NOT AND SWAP1 DUP2 PUSH0 BYTE SWAP1 MSTORE8 POP PUSH0 DUP4 PUSH1 0x1 DUP4 PUSH2 0x9A6 SWAP2 SWAP1 PUSH2 0x1288 JUMP JUMPDEST DUP2 MLOAD DUP2 LT PUSH2 0x9B7 JUMPI PUSH2 0x9B6 PUSH2 0x10AF JUMP JUMPDEST JUMPDEST PUSH1 0x20 ADD ADD SWAP1 PUSH31 0xFFFFFFFFFFFFFFFFFFFFFFFFFFFFFFFFFFFFFFFFFFFFFFFFFFFFFFFFFFFFFF NOT AND SWAP1 DUP2 PUSH0 BYTE SWAP1 MSTORE8 POP JUMPDEST PUSH32 0x4300000000000000000000000000000000000000000000000000000000000000 DUP4 DUP3 DUP2 MLOAD DUP2 LT PUSH2 0xA1A JUMPI PUSH2 0xA19 PUSH2 0x10AF JUMP JUMPDEST JUMPDEST PUSH1 0x20 ADD ADD MLOAD PUSH1 0xF8 SHR PUSH1 0xF8 SHL PUSH31 0xFFFFFFFFFFFFFFFFFFFFFFFFFFFFFFFFFFFFFFFFFFFFFFFFFFFFFFFFFFFFFF NOT AND EQ DUP1 ISZERO PUSH2 0xABE JUMPI POP PUSH32 0x4400000000000000000000000000000000000000000000000000000000000000 DUP4 PUSH1 0x1 DUP4 PUSH2 0xA7E SWAP2 SWAP1 PUSH2 0x1288 JUMP JUMPDEST DUP2 MLOAD DUP2 LT PUSH2 0xA8F JUMPI PUSH2 0xA8E PUSH2 0x10AF JUMP JUMPDEST JUMPDEST PUSH1 0x20 ADD ADD MLOAD PUSH1 0xF8 SHR PUSH1 0xF8 SHL PUSH31 0xFFFFFFFFFFFFFFFFFFFFFFFFFFFFFFFFFFFFFFFFFFFFFFFFFFFFFFFFFFFFFF NOT AND EQ JUMPDEST ISZERO PUSH2 0xB64 JUMPI PUSH2 0x190 DUP3 PUSH2 0xAD1 SWAP2 SWAP1 PUSH2 0x1288 JUMP JUMPDEST SWAP2 POP PUSH0 DUP4 DUP3 DUP2 MLOAD DUP2 LT PUSH2 0xAE7 JUMPI PUSH2 0xAE6 PUSH2 0x10AF JUMP JUMPDEST JUMPDEST PUSH1 0x20 ADD ADD SWAP1 PUSH31 0xFFFFFFFFFFFFFFFFFFFFFFFFFFFFFFFFFFFFFFFFFFFFFFFFFFFFFFFFFFFFFF NOT AND SWAP1 DUP2 PUSH0 BYTE SWAP1 MSTORE8 POP PUSH0 DUP4 PUSH1 0x1 DUP4 PUSH2 0xB24 SWAP2 SWAP1 PUSH2 0x1288 JUMP JUMPDEST DUP2 MLOAD DUP2 LT PUSH2 0xB35 JUMPI PUSH2 0xB34 PUSH2 0x10AF JUMP JUMPDEST JUMPDEST PUSH1 0x20 ADD ADD SWAP1 PUSH31 0xFFFFFFFFFFFFFFFFFFFFFFFFFFFFFFFFFFFFFFFFFFFFFFFFFFFFFFFFFFFFFF NOT AND SWAP1 DUP2 PUSH0 BYTE SWAP1 MSTORE8 POP JUMPDEST PUSH32 0x4300000000000000000000000000000000000000000000000000000000000000 DUP4 DUP3 DUP2 MLOAD DUP2 LT PUSH2 0xB98 JUMPI PUSH2 0xB97 PUSH2 0x10AF JUMP JUMPDEST JUMPDEST PUSH1 0x20 ADD ADD MLOAD PUSH1 0xF8 SHR PUSH1 0xF8 SHL PUSH31 0xFFFFFFFFFFFFFFFFFFFFFFFFFFFFFFFFFFFFFFFFFFFFFFFFFFFFFFFFFFFFFF NOT AND EQ DUP1 ISZERO PUSH2 0xC3C JUMPI POP PUSH32 0x4D00000000000000000000000000000000000000000000000000000000000000 DUP4 PUSH1 0x1 DUP4 PUSH2 0xBFC SWAP2 SWAP1 PUSH2 0x1288 JUMP JUMPDEST DUP2 MLOAD DUP2 LT PUSH2 0xC0D JUMPI PUSH2 0xC0C PUSH2 0x10AF JUMP JUMPDEST JUMPDEST PUSH1 0x20 ADD ADD MLOAD PUSH1 0xF8 SHR PUSH1 0xF8 SHL PUSH31 0xFFFFFFFFFFFFFFFFFFFFFFFFFFFFFFFFFFFFFFFFFFFFFFFFFFFFFFFFFFFFFF NOT AND EQ JUMPDEST ISZERO PUSH2 0xCE2 JUMPI PUSH2 0x384 DUP3 PUSH2 0xC4F SWAP2 SWAP1 PUSH2 0x1288 JUMP JUMPDEST SWAP2 POP PUSH0 DUP4 DUP3 DUP2 MLOAD DUP2 LT PUSH2 0xC65 JUMPI PUSH2 0xC64 PUSH2 0x10AF JUMP JUMPDEST JUMPDEST PUSH1 0x20 ADD ADD SWAP1 PUSH31 0xFFFFFFFFFFFFFFFFFFFFFFFFFFFFFFFFFFFFFFFFFFFFFFFFFFFFFFFFFFFFFF NOT AND SWAP1 DUP2 PUSH0 BYTE SWAP1 MSTORE8 POP PUSH0 DUP4 PUSH1 0x1 DUP4 PUSH2 0xCA2 SWAP2 SWAP1 PUSH2 0x1288 JUMP JUMPDEST DUP2 MLOAD DUP2 LT PUSH2 0xCB3 JUMPI PUSH2 0xCB2 PUSH2 0x10AF JUMP JUMPDEST JUMPDEST PUSH1 0x20 ADD ADD SWAP1 PUSH31 0xFFFFFFFFFFFFFFFFFFFFFFFFFFFFFFFFFFFFFFFFFFFFFFFFFFFFFFFFFFFFFF NOT AND SWAP1 DUP2 PUSH0 BYTE SWAP1 MSTORE8 POP JUMPDEST DUP1 DUP1 PUSH1 0x1 ADD SWAP2 POP POP PUSH2 0x3DD JUMP JUMPDEST POP PUSH0 PUSH0 SWAP1 POP JUMPDEST DUP3 MLOAD DUP2 LT ISZERO PUSH2 0xD8A JUMPI PUSH0 PUSH0 DUP5 DUP4 DUP2 MLOAD DUP2 LT PUSH2 0xD13 JUMPI PUSH2 0xD12 PUSH2 0x10AF JUMP JUMPDEST JUMPDEST PUSH1 0x20 ADD ADD MLOAD PUSH1 0xF8 SHR PUSH1 0xF8 SHL PUSH31 0xFFFFFFFFFFFFFFFFFFFFFFFFFFFFFFFFFFFFFFFFFFFFFFFFFFFFFFFFFFFFFF NOT AND PUSH31 0xFFFFFFFFFFFFFFFFFFFFFFFFFFFFFFFFFFFFFFFFFFFFFFFFFFFFFFFFFFFFFF NOT AND DUP2 MSTORE PUSH1 0x20 ADD SWAP1 DUP2 MSTORE PUSH1 0x20 ADD PUSH0 KECCAK256 SLOAD DUP3 PUSH2 0xD7B SWAP2 SWAP1 PUSH2 0x1288 JUMP JUMPDEST SWAP2 POP DUP1 DUP1 PUSH1 0x1 ADD SWAP2 POP POP PUSH2 0xCF5 JUMP JUMPDEST POP DUP1 SWAP3 POP POP POP SWAP2 SWAP1 POP JUMP JUMPDEST PUSH0 PUSH1 0x40 MLOAD SWAP1 POP SWAP1 JUMP JUMPDEST PUSH0 PUSH0 REVERT JUMPDEST PUSH0 PUSH0 REVERT JUMPDEST PUSH0 DUP2 SWAP1 POP SWAP2 SWAP1 POP JUMP JUMPDEST PUSH2 0xDB8 DUP2 PUSH2 0xDA6 JUMP JUMPDEST DUP2 EQ PUSH2 0xDC2 JUMPI PUSH0 PUSH0 REVERT JUMPDEST POP JUMP JUMPDEST PUSH0 DUP2 CALLDATALOAD SWAP1 POP PUSH2 0xDD3 DUP2 PUSH2 0xDAF JUMP JUMPDEST SWAP3 SWAP2 POP POP JUMP JUMPDEST PUSH0 PUSH1 0x20 DUP3 DUP5 SUB SLT ISZERO PUSH2 0xDEE JUMPI PUSH2 0xDED PUSH2 0xD9E JUMP JUMPDEST JUMPDEST PUSH0 PUSH2 0xDFB DUP5 DUP3 DUP6 ADD PUSH2 0xDC5 JUMP JUMPDEST SWAP2 POP POP SWAP3 SWAP2 POP POP JUMP JUMPDEST PUSH0 DUP2 MLOAD SWAP1 POP SWAP2 SWAP1 POP JUMP JUMPDEST PUSH0 DUP3 DUP3 MSTORE PUSH1 0x20 DUP3 ADD SWAP1 POP SWAP3 SWAP2 POP POP JUMP JUMPDEST DUP3 DUP2 DUP4 MCOPY PUSH0 DUP4 DUP4 ADD MSTORE POP POP POP JUMP JUMPDEST PUSH0 PUSH1 0x1F NOT PUSH1 0x1F DUP4 ADD AND SWAP1 POP SWAP2 SWAP1 POP JUMP JUMPDEST PUSH0 PUSH2 0xE46 DUP3 PUSH2 0xE04 JUMP JUMPDEST PUSH2 0xE50 DUP2 DUP6 PUSH2 0xE0E JUMP JUMPDEST SWAP4 POP PUSH2 0xE60 DUP2 DUP6 PUSH1 0x20 DUP7 ADD PUSH2 0xE1E JUMP JUMPDEST PUSH2 0xE69 DUP2 PUSH2 0xE2C JUMP JUMPDEST DUP5 ADD SWAP2 POP POP SWAP3 SWAP2 POP POP JUMP JUMPDEST PUSH0 PUSH1 0x20 DUP3 ADD SWAP1 POP DUP2 DUP2 SUB PUSH0 DUP4 ADD MSTORE PUSH2 0xE8C DUP2 DUP5 PUSH2 0xE3C JUMP JUMPDEST SWAP1 POP SWAP3 SWAP2 POP POP JUMP JUMPDEST PUSH0 PUSH32 0xFF00000000000000000000000000000000000000000000000000000000000000 DUP3 AND SWAP1 POP SWAP2 SWAP1 POP JUMP JUMPDEST PUSH2 0xEC8 DUP2 PUSH2 0xE94 JUMP JUMPDEST DUP2 EQ PUSH2 0xED2 JUMPI PUSH0 PUSH0 REVERT JUMPDEST POP JUMP JUMPDEST PUSH0 DUP2 CALLDATALOAD SWAP1 POP PUSH2 0xEE3 DUP2 PUSH2 0xEBF JUMP JUMPDEST SWAP3 SWAP2 POP POP JUMP JUMPDEST PUSH0 PUSH1 0x20 DUP3 DUP5 SUB SLT ISZERO PUSH2 0xEFE JUMPI PUSH2 0xEFD PUSH2 0xD9E JUMP JUMPDEST JUMPDEST PUSH0 PUSH2 0xF0B DUP5 DUP3 DUP6 ADD PUSH2 0xED5 JUMP JUMPDEST SWAP2 POP POP SWAP3 SWAP2 POP POP JUMP JUMPDEST PUSH2 0xF1D DUP2 PUSH2 0xDA6 JUMP JUMPDEST DUP3 MSTORE POP POP JUMP JUMPDEST PUSH0 PUSH1 0x20 DUP3 ADD SWAP1 POP PUSH2 0xF36 PUSH0 DUP4 ADD DUP5 PUSH2 0xF14 JUMP JUMPDEST SWAP3 SWAP2 POP POP JUMP JUMPDEST PUSH0 PUSH0 REVERT JUMPDEST PUSH0 PUSH0 REVERT JUMPDEST PUSH32 0x4E487B7100000000000000000000000000000000000000000000000000000000 PUSH0 MSTORE PUSH1 0x41 PUSH1 0x4 MSTORE PUSH1 0x24 PUSH0 REVERT JUMPDEST PUSH2 0xF7A DUP3 PUSH2 0xE2C JUMP JUMPDEST DUP2 ADD DUP2 DUP2 LT PUSH8 0xFFFFFFFFFFFFFFFF DUP3 GT OR ISZERO PUSH2 0xF99 JUMPI PUSH2 0xF98 PUSH2 0xF44 JUMP JUMPDEST JUMPDEST DUP1 PUSH1 0x40 MSTORE POP POP POP JUMP JUMPDEST PUSH0 PUSH2 0xFAB PUSH2 0xD95 JUMP JUMPDEST SWAP1 POP PUSH2 0xFB7 DUP3 DUP3 PUSH2 0xF71 JUMP JUMPDEST SWAP2 SWAP1 POP JUMP JUMPDEST PUSH0 PUSH8 0xFFFFFFFFFFFFFFFF DUP3 GT ISZERO PUSH2 0xFD6 JUMPI PUSH2 0xFD5 PUSH2 0xF44 JUMP JUMPDEST JUMPDEST PUSH2 0xFDF DUP3 PUSH2 0xE2C JUMP JUMPDEST SWAP1 POP PUSH1 0x20 DUP2 ADD SWAP1 POP SWAP2 SWAP1 POP JUMP JUMPDEST DUP3 DUP2 DUP4 CALLDATACOPY PUSH0 DUP4 DUP4 ADD MSTORE POP POP POP JUMP JUMPDEST PUSH0 PUSH2 0x100C PUSH2 0x1007 DUP5 PUSH2 0xFBC JUMP JUMPDEST PUSH2 0xFA2 JUMP JUMPDEST SWAP1 POP DUP3 DUP2 MSTORE PUSH1 0x20 DUP2 ADD DUP5 DUP5 DUP5 ADD GT ISZERO PUSH2 0x1028 JUMPI PUSH2 0x1027 PUSH2 0xF40 JUMP JUMPDEST JUMPDEST PUSH2 0x1033 DUP5 DUP3 DUP6 PUSH2 0xFEC JUMP JUMPDEST POP SWAP4 SWAP3 POP POP POP JUMP JUMPDEST PUSH0 DUP3 PUSH1 0x1F DUP4 ADD SLT PUSH2 0x104F JUMPI PUSH2 0x104E PUSH2 0xF3C JUMP JUMPDEST JUMPDEST DUP2 CALLDATALOAD PUSH2 0x105F DUP5 DUP3 PUSH1 0x20 DUP7 ADD PUSH2 0xFFA JUMP JUMPDEST SWAP2 POP POP SWAP3 SWAP2 POP POP JUMP JUMPDEST PUSH0 PUSH1 0x20 DUP3 DUP5 SUB SLT ISZERO PUSH2 0x107D JUMPI PUSH2 0x107C PUSH2 0xD9E JUMP JUMPDEST JUMPDEST PUSH0 DUP3 ADD CALLDATALOAD PUSH8 0xFFFFFFFFFFFFFFFF DUP2 GT ISZERO PUSH2 0x109A JUMPI PUSH2 0x1099 PUSH2 0xDA2 JUMP JUMPDEST JUMPDEST PUSH2 0x10A6 DUP5 DUP3 DUP6 ADD PUSH2 0x103B JUMP JUMPDEST SWAP2 POP POP SWAP3 SWAP2 POP POP JUMP JUMPDEST PUSH32 0x4E487B7100000000000000000000000000000000000000000000000000000000 PUSH0 MSTORE PUSH1 0x32 PUSH1 0x4 MSTORE PUSH1 0x24 PUSH0 REVERT JUMPDEST PUSH32 0x4E487B7100000000000000000000000000000000000000000000000000000000 PUSH0 MSTORE PUSH1 0x11 PUSH1 0x4 MSTORE PUSH1 0x24 PUSH0 REVERT JUMPDEST PUSH0 PUSH2 0x1113 DUP3 PUSH2 0xDA6 JUMP JUMPDEST SWAP2 POP PUSH2 0x111E DUP4 PUSH2 0xDA6 JUMP JUMPDEST SWAP3 POP DUP3 DUP3 SUB SWAP1 POP DUP2 DUP2 GT ISZERO PUSH2 0x1136 JUMPI PUSH2 0x1135 PUSH2 0x10DC JUMP JUMPDEST JUMPDEST SWAP3 SWAP2 POP POP JUMP JUMPDEST PUSH32 0x4E487B7100000000000000000000000000000000000000000000000000000000 PUSH0 MSTORE PUSH1 0x22 PUSH1 0x4 MSTORE PUSH1 0x24 PUSH0 REVERT JUMPDEST PUSH0 PUSH1 0x2 DUP3 DIV SWAP1 POP PUSH1 0x1 DUP3 AND DUP1 PUSH2 0x1180 JUMPI PUSH1 0x7F DUP3 AND SWAP2 POP JUMPDEST PUSH1 0x20 DUP3 LT DUP2 SUB PUSH2 0x1193 JUMPI PUSH2 0x1192 PUSH2 0x113C JUMP JUMPDEST JUMPDEST POP SWAP2 SWAP1 POP JUMP JUMPDEST PUSH0 DUP2 SWAP1 POP SWAP3 SWAP2 POP POP JUMP JUMPDEST PUSH0 DUP2 SWAP1 POP DUP2 PUSH0 MSTORE PUSH1 0x20 PUSH0 KECCAK256 SWAP1 POP SWAP2 SWAP1 POP JUMP JUMPDEST PUSH0 DUP2 SLOAD PUSH2 0x11C1 DUP2 PUSH2 0x1169 JUMP JUMPDEST PUSH2 0x11CB DUP2 DUP7 PUSH2 0x1199 JUMP JUMPDEST SWAP5 POP PUSH1 0x1 DUP3 AND PUSH0 DUP2 EQ PUSH2 0x11E5 JUMPI PUSH1 0x1 DUP2 EQ PUSH2 0x11FA JUMPI PUSH2 0x122C JUMP JUMPDEST PUSH1 0xFF NOT DUP4 AND DUP7 MSTORE DUP2 ISZERO ISZERO DUP3 MUL DUP7 ADD SWAP4 POP PUSH2 0x122C JUMP JUMPDEST PUSH2 0x1203 DUP6 PUSH2 0x11A3 JUMP JUMPDEST PUSH0 JUMPDEST DUP4 DUP2 LT ISZERO PUSH2 0x1224 JUMPI DUP2 SLOAD DUP2 DUP10 ADD MSTORE PUSH1 0x1 DUP3 ADD SWAP2 POP PUSH1 0x20 DUP2 ADD SWAP1 POP PUSH2 0x1205 JUMP JUMPDEST DUP4 DUP9 ADD SWAP6 POP POP POP JUMPDEST POP POP POP SWAP3 SWAP2 POP POP JUMP JUMPDEST PUSH0 PUSH2 0x123F DUP3 PUSH2 0xE04 JUMP JUMPDEST PUSH2 0x1249 DUP2 DUP6 PUSH2 0x1199 JUMP JUMPDEST SWAP4 POP PUSH2 0x1259 DUP2 DUP6 PUSH1 0x20 DUP7 ADD PUSH2 0xE1E JUMP JUMPDEST DUP1 DUP5 ADD SWAP2 POP POP SWAP3 SWAP2 POP POP JUMP JUMPDEST PUSH0 PUSH2 0x1270 DUP3 DUP6 PUSH2 0x11B5 JUMP JUMPDEST SWAP2 POP PUSH2 0x127C DUP3 DUP5 PUSH2 0x1235 JUMP JUMPDEST SWAP2 POP DUP2 SWAP1 POP SWAP4 SWAP3 POP POP POP JUMP JUMPDEST PUSH0 PUSH2 0x1292 DUP3 PUSH2 0xDA6 JUMP JUMPDEST SWAP2 POP PUSH2 0x129D DUP4 PUSH2 0xDA6 JUMP JUMPDEST SWAP3 POP DUP3 DUP3 ADD SWAP1 POP DUP1 DUP3 GT ISZERO PUSH2 0x12B5 JUMPI PUSH2 0x12B4 PUSH2 0x10DC JUMP JUMPDEST JUMPDEST SWAP3 SWAP2 POP POP JUMP INVALID LOG2 PUSH5 0x6970667358 0x22 SLT KECCAK256 CALLVALUE 0xB7 RETURNCONTRACT 0x77 PUSH5 0x4BD19E1B6E 0xB8 SAR PUSH10 0xAFCAA3C77C09E9E4496D DUP4 0xC6 0xED 0xD0 DUP5 DUP13 ADD 0xCD LOG4 PUSH5 0x736F6C6343 STOP ADDMOD 0x1E STOP CALLER "
		},
		"gasEstimates": {
			"creation": {
				"codeDepositCost": "969800",
				"executionCost": "infinite",
				"totalCost": "infinite"
			},
			"external": {
				"integerToRoman(uint256)": "infinite",
				"numbers(uint256)": "infinite",
				"roman(uint256)": "infinite",
				"romanMap(bytes1)": "2759",
				"romanMap2(uint256)": "infinite",
				"romanToInteger(string)": "infinite"
			}
		},
		"methodIdentifiers": {
			"integerToRoman(uint256)": "213d56c0",
			"numbers(uint256)": "d39fa233",
			"roman(uint256)": "96402744",
			"romanMap(bytes1)": "445458dc",
			"romanMap2(uint256)": "6b646333",
			"romanToInteger(string)": "ea4c4614"
		}
	},
	"abi": [
		{
			"inputs": [],
			"stateMutability": "nonpayable",
			"type": "constructor"
		},
		{
			"inputs": [
				{
					"internalType": "uint256",
					"name": "n",
					"type": "uint256"
				}
			],
			"name": "integerToRoman",
			"outputs": [
				{
					"internalType": "string",
					"name": "",
					"type": "string"
				}
			],
			"stateMutability": "view",
			"type": "function"
		},
		{
			"inputs": [
				{
					"internalType": "uint256",
					"name": "",
					"type": "uint256"
				}
			],
			"name": "numbers",
			"outputs": [
				{
					"internalType": "uint256",
					"name": "",
					"type": "uint256"
				}
			],
			"stateMutability": "view",
			"type": "function"
		},
		{
			"inputs": [
				{
					"internalType": "uint256",
					"name": "",
					"type": "uint256"
				}
			],
			"name": "roman",
			"outputs": [
				{
					"internalType": "string",
					"name": "",
					"type": "string"
				}
			],
			"stateMutability": "view",
			"type": "function"
		},
		{
			"inputs": [
				{
					"internalType": "bytes1",
					"name": "",
					"type": "bytes1"
				}
			],
			"name": "romanMap",
			"outputs": [
				{
					"internalType": "uint256",
					"name": "",
					"type": "uint256"
				}
			],
			"stateMutability": "view",
			"type": "function"
		},
		{
			"inputs": [
				{
					"internalType": "uint256",
					"name": "",
					"type": "uint256"
				}
			],
			"name": "romanMap2",
			"outputs": [
				{
					"internalType": "string",
					"name": "",
					"type": "string"
				}
			],
			"stateMutability": "view",
			"type": "function"
		},
		{
			"inputs": [
				{
					"internalType": "string",
					"name": "n",
					"type": "string"
				}
			],
			"name": "romanToInteger",
			"outputs": [
				{
					"internalType": "uint256",
					"name": "",
					"type": "uint256"
				}
			],
			"stateMutability": "view",
			"type": "function"
		}
	]
}