{
	"data": {
		"bytecode": {
			"linkReferences": {},
			"object": "6080604052348015600e575f5ffd5b506106598061001c5f395ff3fe608060405234801561000f575f5ffd5b5060043610610029575f3560e01c8063d57a7a861461002d575b5f5ffd5b61004760048036038101906100429190610393565b61005d565b60405161005491906104e6565b60405180910390f35b60605f60018561006d9190610533565b90505f60018461007d9190610533565b90505f6001885161008e919061057c565b90505b5f83121580156100a157505f8212155b1561018e578582815181106100b9576100b86105af565b5b60200260200101518884815181106100d4576100d36105af565b5b60200260200101511315610130578783815181106100f5576100f46105af565b5b60200260200101518882815181106101105761010f6105af565b5b6020026020010181815250506001836101299190610533565b925061017a565b858281518110610143576101426105af565b5b602002602001015188828151811061015e5761015d6105af565b5b6020026020010181815250506001826101779190610533565b91505b6001816101879190610533565b9050610091565b5b5f82126101f1578582815181106101a9576101a86105af565b5b60200260200101518882815181106101c4576101c36105af565b5b60200260200101818152505081806101db906105dc565b92505080806101e9906105dc565b91505061018f565b879350505050949350505050565b5f604051905090565b5f5ffd5b5f5ffd5b5f5ffd5b5f601f19601f8301169050919050565b7f4e487b71000000000000000000000000000000000000000000000000000000005f52604160045260245ffd5b61025a82610214565b810181811067ffffffffffffffff8211171561027957610278610224565b5b80604052505050565b5f61028b6101ff565b90506102978282610251565b919050565b5f67ffffffffffffffff8211156102b6576102b5610224565b5b602082029050602081019050919050565b5f5ffd5b5f819050919050565b6102dd816102cb565b81146102e7575f5ffd5b50565b5f813590506102f8816102d4565b92915050565b5f61031061030b8461029c565b610282565b90508083825260208201905060208402830185811115610333576103326102c7565b5b835b8181101561035c578061034888826102ea565b845260208401935050602081019050610335565b5050509392505050565b5f82601f83011261037a57610379610210565b5b813561038a8482602086016102fe565b91505092915050565b5f5f5f5f608085870312156103ab576103aa610208565b5b5f85013567ffffffffffffffff8111156103c8576103c761020c565b5b6103d487828801610366565b94505060206103e5878288016102ea565b935050604085013567ffffffffffffffff8111156104065761040561020c565b5b61041287828801610366565b9250506060610423878288016102ea565b91505092959194509250565b5f81519050919050565b5f82825260208201905092915050565b5f819050602082019050919050565b610461816102cb565b82525050565b5f6104728383610458565b60208301905092915050565b5f602082019050919050565b5f6104948261042f565b61049e8185610439565b93506104a983610449565b805f5b838110156104d95781516104c08882610467565b97506104cb8361047e565b9250506001810190506104ac565b5085935050505092915050565b5f6020820190508181035f8301526104fe818461048a565b905092915050565b7f4e487b71000000000000000000000000000000000000000000000000000000005f52601160045260245ffd5b5f61053d826102cb565b9150610548836102cb565b925082820390508181125f8412168282135f85121516171561056d5761056c610506565b5b92915050565b5f819050919050565b5f61058682610573565b915061059183610573565b92508282039050818111156105a9576105a8610506565b5b92915050565b7f4e487b71000000000000000000000000000000000000000000000000000000005f52603260045260245ffd5b5f6105e6826102cb565b91507f8000000000000000000000000000000000000000000000000000000000000000820361061857610617610506565b5b60018203905091905056fea26469706673582212208c7512b537a0a061d21b636a11825fd749d0c2e11817fe3b369c90bcffcb354564736f6c634300081e0033",
			"opcodes": "PUSH1 0x80 PUSH1 0x40 MSTORE CALLVALUE DUP1 ISZERO PUSH1 0xE JUMPI PUSH0 PUSH0 REVERT JUMPDEST POP PUSH2 0x659 DUP1 PUSH2 0x1C PUSH0 CODECOPY PUSH0 RETURN INVALID PUSH1 0x80 PUSH1 0x40 MSTORE CALLVALUE DUP1 ISZERO PUSH2 0xF JUMPI PUSH0 PUSH0 REVERT JUMPDEST POP PUSH1 0x4 CALLDATASIZE LT PUSH2 0x29 JUMPI PUSH0 CALLDATALOAD PUSH1 0xE0 SHR DUP1 PUSH4 0xD57A7A86 EQ PUSH2 0x2D JUMPI JUMPDEST PUSH0 PUSH0 REVERT JUMPDEST PUSH2 0x47 PUSH1 0x4 DUP1 CALLDATASIZE SUB DUP2 ADD SWAP1 PUSH2 0x42 SWAP2 SWAP1 PUSH2 0x393 JUMP JUMPDEST PUSH2 0x5D JUMP JUMPDEST PUSH1 0x40 MLOAD PUSH2 0x54 SWAP2 SWAP1 PUSH2 0x4E6 JUMP JUMPDEST PUSH1 0x40 MLOAD DUP1 SWAP2 SUB SWAP1 RETURN JUMPDEST PUSH1 0x60 PUSH0 PUSH1 0x1 DUP6 PUSH2 0x6D SWAP2 SWAP1 PUSH2 0x533 JUMP JUMPDEST SWAP1 POP PUSH0 PUSH1 0x1 DUP5 PUSH2 0x7D SWAP2 SWAP1 PUSH2 0x533 JUMP JUMPDEST SWAP1 POP PUSH0 PUSH1 0x1 DUP9 MLOAD PUSH2 0x8E SWAP2 SWAP1 PUSH2 0x57C JUMP JUMPDEST SWAP1 POP JUMPDEST PUSH0 DUP4 SLT ISZERO DUP1 ISZERO PUSH2 0xA1 JUMPI POP PUSH0 DUP3 SLT ISZERO JUMPDEST ISZERO PUSH2 0x18E JUMPI DUP6 DUP3 DUP2 MLOAD DUP2 LT PUSH2 0xB9 JUMPI PUSH2 0xB8 PUSH2 0x5AF JUMP JUMPDEST JUMPDEST PUSH1 0x20 MUL PUSH1 0x20 ADD ADD MLOAD DUP9 DUP5 DUP2 MLOAD DUP2 LT PUSH2 0xD4 JUMPI PUSH2 0xD3 PUSH2 0x5AF JUMP JUMPDEST JUMPDEST PUSH1 0x20 MUL PUSH1 0x20 ADD ADD MLOAD SGT ISZERO PUSH2 0x130 JUMPI DUP8 DUP4 DUP2 MLOAD DUP2 LT PUSH2 0xF5 JUMPI PUSH2 0xF4 PUSH2 0x5AF JUMP JUMPDEST JUMPDEST PUSH1 0x20 MUL PUSH1 0x20 ADD ADD MLOAD DUP9 DUP3 DUP2 MLOAD DUP2 LT PUSH2 0x110 JUMPI PUSH2 0x10F PUSH2 0x5AF JUMP JUMPDEST JUMPDEST PUSH1 0x20 MUL PUSH1 0x20 ADD ADD DUP2 DUP2 MSTORE POP POP PUSH1 0x1 DUP4 PUSH2 0x129 SWAP2 SWAP1 PUSH2 0x533 JUMP JUMPDEST SWAP3 POP PUSH2 0x17A JUMP JUMPDEST DUP6 DUP3 DUP2 MLOAD DUP2 LT PUSH2 0x143 JUMPI PUSH2 0x142 PUSH2 0x5AF JUMP JUMPDEST JUMPDEST PUSH1 0x20 MUL PUSH1 0x20 ADD ADD MLOAD DUP9 DUP3 DUP2 MLOAD DUP2 LT PUSH2 0x15E JUMPI PUSH2 0x15D PUSH2 0x5AF JUMP JUMPDEST JUMPDEST PUSH1 0x20 MUL PUSH1 0x20 ADD ADD DUP2 DUP2 MSTORE POP POP PUSH1 0x1 DUP3 PUSH2 0x177 SWAP2 SWAP1 PUSH2 0x533 JUMP JUMPDEST SWAP2 POP JUMPDEST PUSH1 0x1 DUP2 PUSH2 0x187 SWAP2 SWAP1 PUSH2 0x533 JUMP JUMPDEST SWAP1 POP PUSH2 0x91 JUMP JUMPDEST JUMPDEST PUSH0 DUP3 SLT PUSH2 0x1F1 JUMPI DUP6 DUP3 DUP2 MLOAD DUP2 LT PUSH2 0x1A9 JUMPI PUSH2 0x1A8 PUSH2 0x5AF JUMP JUMPDEST JUMPDEST PUSH1 0x20 MUL PUSH1 0x20 ADD ADD MLOAD DUP9 DUP3 DUP2 MLOAD DUP2 LT PUSH2 0x1C4 JUMPI PUSH2 0x1C3 PUSH2 0x5AF JUMP JUMPDEST JUMPDEST PUSH1 0x20 MUL PUSH1 0x20 ADD ADD DUP2 DUP2 MSTORE POP POP DUP2 DUP1 PUSH2 0x1DB SWAP1 PUSH2 0x5DC JUMP JUMPDEST SWAP3 POP POP DUP1 DUP1 PUSH2 0x1E9 SWAP1 PUSH2 0x5DC JUMP JUMPDEST SWAP2 POP POP PUSH2 0x18F JUMP JUMPDEST DUP8 SWAP4 POP POP POP POP SWAP5 SWAP4 POP POP POP POP JUMP JUMPDEST PUSH0 PUSH1 0x40 MLOAD SWAP1 POP SWAP1 JUMP JUMPDEST PUSH0 PUSH0 REVERT JUMPDEST PUSH0 PUSH0 REVERT JUMPDEST PUSH0 PUSH0 REVERT JUMPDEST PUSH0 PUSH1 0x1F NOT PUSH1 0x1F DUP4 ADD AND SWAP1 POP SWAP2 SWAP1 POP JUMP JUMPDEST PUSH32 0x4E487B7100000000000000000000000000000000000000000000000000000000 PUSH0 MSTORE PUSH1 0x41 PUSH1 0x4 MSTORE PUSH1 0x24 PUSH0 REVERT JUMPDEST PUSH2 0x25A DUP3 PUSH2 0x214 JUMP JUMPDEST DUP2 ADD DUP2 DUP2 LT PUSH8 0xFFFFFFFFFFFFFFFF DUP3 GT OR ISZERO PUSH2 0x279 JUMPI PUSH2 0x278 PUSH2 0x224 JUMP JUMPDEST JUMPDEST DUP1 PUSH1 0x40 MSTORE POP POP POP JUMP JUMPDEST PUSH0 PUSH2 0x28B PUSH2 0x1FF JUMP JUMPDEST SWAP1 POP PUSH2 0x297 DUP3 DUP3 PUSH2 0x251 JUMP JUMPDEST SWAP2 SWAP1 POP JUMP JUMPDEST PUSH0 PUSH8 0xFFFFFFFFFFFFFFFF DUP3 GT ISZERO PUSH2 0x2B6 JUMPI PUSH2 0x2B5 PUSH2 0x224 JUMP JUMPDEST JUMPDEST PUSH1 0x20 DUP3 MUL SWAP1 POP PUSH1 0x20 DUP2 ADD SWAP1 POP SWAP2 SWAP1 POP JUMP JUMPDEST PUSH0 PUSH0 REVERT JUMPDEST PUSH0 DUP2 SWAP1 POP SWAP2 SWAP1 POP JUMP JUMPDEST PUSH2 0x2DD DUP2 PUSH2 0x2CB JUMP JUMPDEST DUP2 EQ PUSH2 0x2E7 JUMPI PUSH0 PUSH0 REVERT JUMPDEST POP JUMP JUMPDEST PUSH0 DUP2 CALLDATALOAD SWAP1 POP PUSH2 0x2F8 DUP2 PUSH2 0x2D4 JUMP JUMPDEST SWAP3 SWAP2 POP POP JUMP JUMPDEST PUSH0 PUSH2 0x310 PUSH2 0x30B DUP5 PUSH2 0x29C JUMP JUMPDEST PUSH2 0x282 JUMP JUMPDEST SWAP1 POP DUP1 DUP4 DUP3 MSTORE PUSH1 0x20 DUP3 ADD SWAP1 POP PUSH1 0x20 DUP5 MUL DUP4 ADD DUP6 DUP2 GT ISZERO PUSH2 0x333 JUMPI PUSH2 0x332 PUSH2 0x2C7 JUMP JUMPDEST JUMPDEST DUP4 JUMPDEST DUP2 DUP2 LT ISZERO PUSH2 0x35C JUMPI DUP1 PUSH2 0x348 DUP9 DUP3 PUSH2 0x2EA JUMP JUMPDEST DUP5 MSTORE PUSH1 0x20 DUP5 ADD SWAP4 POP POP PUSH1 0x20 DUP2 ADD SWAP1 POP PUSH2 0x335 JUMP JUMPDEST POP POP POP SWAP4 SWAP3 POP POP POP JUMP JUMPDEST PUSH0 DUP3 PUSH1 0x1F DUP4 ADD SLT PUSH2 0x37A JUMPI PUSH2 0x379 PUSH2 0x210 JUMP JUMPDEST JUMPDEST DUP2 CALLDATALOAD PUSH2 0x38A DUP5 DUP3 PUSH1 0x20 DUP7 ADD PUSH2 0x2FE JUMP JUMPDEST SWAP2 POP POP SWAP3 SWAP2 POP POP JUMP JUMPDEST PUSH0 PUSH0 PUSH0 PUSH0 PUSH1 0x80 DUP6 DUP8 SUB SLT ISZERO PUSH2 0x3AB JUMPI PUSH2 0x3AA PUSH2 0x208 JUMP JUMPDEST JUMPDEST PUSH0 DUP6 ADD CALLDATALOAD PUSH8 0xFFFFFFFFFFFFFFFF DUP2 GT ISZERO PUSH2 0x3C8 JUMPI PUSH2 0x3C7 PUSH2 0x20C JUMP JUMPDEST JUMPDEST PUSH2 0x3D4 DUP8 DUP3 DUP9 ADD PUSH2 0x366 JUMP JUMPDEST SWAP5 POP POP PUSH1 0x20 PUSH2 0x3E5 DUP8 DUP3 DUP9 ADD PUSH2 0x2EA JUMP JUMPDEST SWAP4 POP POP PUSH1 0x40 DUP6 ADD CALLDATALOAD PUSH8 0xFFFFFFFFFFFFFFFF DUP2 GT ISZERO PUSH2 0x406 JUMPI PUSH2 0x405 PUSH2 0x20C JUMP JUMPDEST JUMPDEST PUSH2 0x412 DUP8 DUP3 DUP9 ADD PUSH2 0x366 JUMP JUMPDEST SWAP3 POP POP PUSH1 0x60 PUSH2 0x423 DUP8 DUP3 DUP9 ADD PUSH2 0x2EA JUMP JUMPDEST SWAP2 POP POP SWAP3 SWAP6 SWAP2 SWAP5 POP SWAP3 POP JUMP JUMPDEST PUSH0 DUP2 MLOAD SWAP1 POP SWAP2 SWAP1 POP JUMP JUMPDEST PUSH0 DUP3 DUP3 MSTORE PUSH1 0x20 DUP3 ADD SWAP1 POP SWAP3 SWAP2 POP POP JUMP JUMPDEST PUSH0 DUP2 SWAP1 POP PUSH1 0x20 DUP3 ADD SWAP1 POP SWAP2 SWAP1 POP JUMP JUMPDEST PUSH2 0x461 DUP2 PUSH2 0x2CB JUMP JUMPDEST DUP3 MSTORE POP POP JUMP JUMPDEST PUSH0 PUSH2 0x472 DUP4 DUP4 PUSH2 0x458 JUMP JUMPDEST PUSH1 0x20 DUP4 ADD SWAP1 POP SWAP3 SWAP2 POP POP JUMP JUMPDEST PUSH0 PUSH1 0x20 DUP3 ADD SWAP1 POP SWAP2 SWAP1 POP JUMP JUMPDEST PUSH0 PUSH2 0x494 DUP3 PUSH2 0x42F JUMP JUMPDEST PUSH2 0x49E DUP2 DUP6 PUSH2 0x439 JUMP JUMPDEST SWAP4 POP PUSH2 0x4A9 DUP4 PUSH2 0x449 JUMP JUMPDEST DUP1 PUSH0 JUMPDEST DUP4 DUP2 LT ISZERO PUSH2 0x4D9 JUMPI DUP2 MLOAD PUSH2 0x4C0 DUP9 DUP3 PUSH2 0x467 JUMP JUMPDEST SWAP8 POP PUSH2 0x4CB DUP4 PUSH2 0x47E JUMP JUMPDEST SWAP3 POP POP PUSH1 0x1 DUP2 ADD SWAP1 POP PUSH2 0x4AC JUMP JUMPDEST POP DUP6 SWAP4 POP POP POP POP SWAP3 SWAP2 POP POP JUMP JUMPDEST PUSH0 PUSH1 0x20 DUP3 ADD SWAP1 POP DUP2 DUP2 SUB PUSH0 DUP4 ADD MSTORE PUSH2 0x4FE DUP2 DUP5 PUSH2 0x48A JUMP JUMPDEST SWAP1 POP SWAP3 SWAP2 POP POP JUMP JUMPDEST PUSH32 0x4E487B7100000000000000000000000000000000000000000000000000000000 PUSH0 MSTORE PUSH1 0x11 PUSH1 0x4 MSTORE PUSH1 0x24 PUSH0 REVERT JUMPDEST PUSH0 PUSH2 0x53D DUP3 PUSH2 0x2CB JUMP JUMPDEST SWAP2 POP PUSH2 0x548 DUP4 PUSH2 0x2CB JUMP JUMPDEST SWAP3 POP DUP3 DUP3 SUB SWAP1 POP DUP2 DUP2 SLT PUSH0 DUP5 SLT AND DUP3 DUP3 SGT PUSH0 DUP6 SLT ISZERO AND OR ISZERO PUSH2 0x56D JUMPI PUSH2 0x56C PUSH2 0x506 JUMP JUMPDEST JUMPDEST SWAP3 SWAP2 POP POP JUMP JUMPDEST PUSH0 DUP2 SWAP1 POP SWAP2 SWAP1 POP JUMP JUMPDEST PUSH0 PUSH2 0x586 DUP3 PUSH2 0x573 JUMP JUMPDEST SWAP2 POP PUSH2 0x591 DUP4 PUSH2 0x573 JUMP JUMPDEST SWAP3 POP DUP3 DUP3 SUB SWAP1 POP DUP2 DUP2 GT ISZERO PUSH2 0x5A9 JUMPI PUSH2 0x5A8 PUSH2 0x506 JUMP JUMPDEST JUMPDEST SWAP3 SWAP2 POP POP JUMP JUMPDEST PUSH32 0x4E487B7100000000000000000000000000000000000000000000000000000000 PUSH0 MSTORE PUSH1 0x32 PUSH1 0x4 MSTORE PUSH1 0x24 PUSH0 REVERT JUMPDEST PUSH0 PUSH2 0x5E6 DUP3 PUSH2 0x2CB JUMP JUMPDEST SWAP2 POP PUSH32 0x8000000000000000000000000000000000000000000000000000000000000000 DUP3 SUB PUSH2 0x618 JUMPI PUSH2 0x617 PUSH2 0x506 JUMP JUMPDEST JUMPDEST PUSH1 0x1 DUP3 SUB SWAP1 POP SWAP2 SWAP1 POP JUMP INVALID LOG2 PUSH5 0x6970667358 0x22 SLT KECCAK256 DUP13 PUSH22 0x12B537A0A061D21B636A11825FD749D0C2E11817FE3B CALLDATASIZE SWAP13 SWAP1 0xBC SELFDESTRUCT 0xCB CALLDATALOAD GASLIMIT PUSH5 0x736F6C6343 STOP ADDMOD 0x1E STOP CALLER "
		},
		"gasEstimates": {
			"creation": {
				"codeDepositCost": "325000",
				"executionCost": "360",
				"totalCost": "325360"
			},
			"external": {
				"sort(int256[],int256,int256[],int256)": "infinite"
			}
		},
		"methodIdentifiers": {
			"sort(int256[],int256,int256[],int256)": "d57a7a86"
		}
	},
	"abi": [
		{
			"inputs": [
				{
					"internalType": "int256[]",
					"name": "nums1",
					"type": "int256[]"
				},
				{
					"internalType": "int256",
					"name": "num1",
					"type": "int256"
				},
				{
					"internalType": "int256[]",
					"name": "nums2",
					"type": "int256[]"
				},
				{
					"internalType": "int256",
					"name": "num2",
					"type": "int256"
				}
			],
			"name": "sort",
			"outputs": [
				{
					"internalType": "int256[]",
					"name": "",
					"type": "int256[]"
				}
			],
			"stateMutability": "pure",
			"type": "function"
		}
	]
}